{
  "contracts/PioneP2PEscrow.sol": {
    "PioneP2PEscrow": {
      "abi": [
        {
          "inputs": [
            {
              "internalType": "address",
              "name": "_priceOracle",
              "type": "address"
            },
            {
              "internalType": "address",
              "name": "_feeTo",
              "type": "address"
            }
          ],
          "stateMutability": "nonpayable",
          "type": "constructor"
        },
        {
          "inputs": [],
          "name": "AccessControlBadConfirmation",
          "type": "error"
        },
        {
          "inputs": [
            {
              "internalType": "address",
              "name": "account",
              "type": "address"
            },
            {
              "internalType": "bytes32",
              "name": "neededRole",
              "type": "bytes32"
            }
          ],
          "name": "AccessControlUnauthorizedAccount",
          "type": "error"
        },
        {
          "inputs": [],
          "name": "EnforcedPause",
          "type": "error"
        },
        {
          "inputs": [],
          "name": "ExpectedPause",
          "type": "error"
        },
        {
          "inputs": [],
          "name": "ReentrancyGuardReentrantCall",
          "type": "error"
        },
        {
          "anonymous": false,
          "inputs": [
            {
              "indexed": false,
              "internalType": "address",
              "name": "oldAddress",
              "type": "address"
            },
            {
              "indexed": false,
              "internalType": "address",
              "name": "newAddress",
              "type": "address"
            }
          ],
          "name": "FeeToUpdated",
          "type": "event"
        },
        {
          "anonymous": false,
          "inputs": [
            {
              "indexed": false,
              "internalType": "uint256",
              "name": "oldValue",
              "type": "uint256"
            },
            {
              "indexed": false,
              "internalType": "uint256",
              "name": "newValue",
              "type": "uint256"
            }
          ],
          "name": "MinPioForSellUpdated",
          "type": "event"
        },
        {
          "anonymous": false,
          "inputs": [
            {
              "indexed": true,
              "internalType": "bytes32",
              "name": "orderId",
              "type": "bytes32"
            }
          ],
          "name": "OrderCancelled",
          "type": "event"
        },
        {
          "anonymous": false,
          "inputs": [
            {
              "indexed": true,
              "internalType": "bytes32",
              "name": "orderId",
              "type": "bytes32"
            },
            {
              "indexed": true,
              "internalType": "address",
              "name": "seller",
              "type": "address"
            },
            {
              "indexed": false,
              "internalType": "uint256",
              "name": "totalPIO",
              "type": "uint256"
            },
            {
              "indexed": false,
              "internalType": "uint256",
              "name": "minPerTrade",
              "type": "uint256"
            },
            {
              "indexed": false,
              "internalType": "uint256",
              "name": "maxPerTrade",
              "type": "uint256"
            },
            {
              "indexed": false,
              "internalType": "uint256",
              "name": "pricePerPIO",
              "type": "uint256"
            }
          ],
          "name": "OrderCreated",
          "type": "event"
        },
        {
          "anonymous": false,
          "inputs": [
            {
              "indexed": true,
              "internalType": "bytes32",
              "name": "tradeId",
              "type": "bytes32"
            },
            {
              "indexed": false,
              "internalType": "address",
              "name": "recipient",
              "type": "address"
            },
            {
              "indexed": false,
              "internalType": "uint256",
              "name": "amount",
              "type": "uint256"
            }
          ],
          "name": "PIOReleased",
          "type": "event"
        },
        {
          "anonymous": false,
          "inputs": [
            {
              "indexed": false,
              "internalType": "address",
              "name": "account",
              "type": "address"
            }
          ],
          "name": "Paused",
          "type": "event"
        },
        {
          "anonymous": false,
          "inputs": [
            {
              "indexed": false,
              "internalType": "uint16",
              "name": "oldValue",
              "type": "uint16"
            },
            {
              "indexed": false,
              "internalType": "uint16",
              "name": "newValue",
              "type": "uint16"
            }
          ],
          "name": "PriceToleranceUpdated",
          "type": "event"
        },
        {
          "anonymous": false,
          "inputs": [
            {
              "indexed": true,
              "internalType": "bytes32",
              "name": "tradeId",
              "type": "bytes32"
            }
          ],
          "name": "RequestCancelled",
          "type": "event"
        },
        {
          "anonymous": false,
          "inputs": [
            {
              "indexed": true,
              "internalType": "bytes32",
              "name": "tradeId",
              "type": "bytes32"
            }
          ],
          "name": "RequestExpired",
          "type": "event"
        },
        {
          "anonymous": false,
          "inputs": [
            {
              "indexed": true,
              "internalType": "bytes32",
              "name": "role",
              "type": "bytes32"
            },
            {
              "indexed": true,
              "internalType": "bytes32",
              "name": "previousAdminRole",
              "type": "bytes32"
            },
            {
              "indexed": true,
              "internalType": "bytes32",
              "name": "newAdminRole",
              "type": "bytes32"
            }
          ],
          "name": "RoleAdminChanged",
          "type": "event"
        },
        {
          "anonymous": false,
          "inputs": [
            {
              "indexed": true,
              "internalType": "bytes32",
              "name": "role",
              "type": "bytes32"
            },
            {
              "indexed": true,
              "internalType": "address",
              "name": "account",
              "type": "address"
            },
            {
              "indexed": true,
              "internalType": "address",
              "name": "sender",
              "type": "address"
            }
          ],
          "name": "RoleGranted",
          "type": "event"
        },
        {
          "anonymous": false,
          "inputs": [
            {
              "indexed": true,
              "internalType": "bytes32",
              "name": "role",
              "type": "bytes32"
            },
            {
              "indexed": true,
              "internalType": "address",
              "name": "account",
              "type": "address"
            },
            {
              "indexed": true,
              "internalType": "address",
              "name": "sender",
              "type": "address"
            }
          ],
          "name": "RoleRevoked",
          "type": "event"
        },
        {
          "anonymous": false,
          "inputs": [
            {
              "indexed": true,
              "internalType": "bytes32",
              "name": "tradeId",
              "type": "bytes32"
            }
          ],
          "name": "TradeCancelled",
          "type": "event"
        },
        {
          "anonymous": false,
          "inputs": [
            {
              "indexed": true,
              "internalType": "bytes32",
              "name": "tradeId",
              "type": "bytes32"
            },
            {
              "indexed": true,
              "internalType": "bytes32",
              "name": "orderId",
              "type": "bytes32"
            },
            {
              "indexed": false,
              "internalType": "address",
              "name": "buyer",
              "type": "address"
            },
            {
              "indexed": false,
              "internalType": "uint256",
              "name": "usdtAmount",
              "type": "uint256"
            }
          ],
          "name": "TradeCreated",
          "type": "event"
        },
        {
          "anonymous": false,
          "inputs": [
            {
              "indexed": true,
              "internalType": "bytes32",
              "name": "tradeId",
              "type": "bytes32"
            }
          ],
          "name": "TradeExpired",
          "type": "event"
        },
        {
          "anonymous": false,
          "inputs": [
            {
              "indexed": true,
              "internalType": "bytes32",
              "name": "tradeId",
              "type": "bytes32"
            },
            {
              "indexed": true,
              "internalType": "bytes32",
              "name": "bscOrderId",
              "type": "bytes32"
            },
            {
              "indexed": false,
              "internalType": "address",
              "name": "buyer",
              "type": "address"
            },
            {
              "indexed": false,
              "internalType": "uint256",
              "name": "pioAmount",
              "type": "uint256"
            }
          ],
          "name": "TradeRequestCreated",
          "type": "event"
        },
        {
          "anonymous": false,
          "inputs": [
            {
              "indexed": false,
              "internalType": "address",
              "name": "account",
              "type": "address"
            }
          ],
          "name": "Unpaused",
          "type": "event"
        },
        {
          "inputs": [],
          "name": "ADMIN_ROLE",
          "outputs": [
            {
              "internalType": "bytes32",
              "name": "",
              "type": "bytes32"
            }
          ],
          "stateMutability": "view",
          "type": "function"
        },
        {
          "inputs": [],
          "name": "BRIDGE_ADMIN_ROLE",
          "outputs": [
            {
              "internalType": "bytes32",
              "name": "",
              "type": "bytes32"
            }
          ],
          "stateMutability": "view",
          "type": "function"
        },
        {
          "inputs": [],
          "name": "DEFAULT_ADMIN_ROLE",
          "outputs": [
            {
              "internalType": "bytes32",
              "name": "",
              "type": "bytes32"
            }
          ],
          "stateMutability": "view",
          "type": "function"
        },
        {
          "inputs": [
            {
              "internalType": "bytes32[]",
              "name": "_tradeIds",
              "type": "bytes32[]"
            }
          ],
          "name": "batchExpireTrades",
          "outputs": [],
          "stateMutability": "nonpayable",
          "type": "function"
        },
        {
          "inputs": [
            {
              "internalType": "bytes32",
              "name": "_orderId",
              "type": "bytes32"
            }
          ],
          "name": "cancelOrder",
          "outputs": [],
          "stateMutability": "nonpayable",
          "type": "function"
        },
        {
          "inputs": [
            {
              "internalType": "bytes32",
              "name": "_tradeId",
              "type": "bytes32"
            }
          ],
          "name": "cancelRequest",
          "outputs": [],
          "stateMutability": "nonpayable",
          "type": "function"
        },
        {
          "inputs": [
            {
              "internalType": "bytes32",
              "name": "_tradeId",
              "type": "bytes32"
            }
          ],
          "name": "cancelTrade",
          "outputs": [],
          "stateMutability": "nonpayable",
          "type": "function"
        },
        {
          "inputs": [
            {
              "internalType": "uint256",
              "name": "_minPerTrade",
              "type": "uint256"
            },
            {
              "internalType": "uint256",
              "name": "_maxPerTrade",
              "type": "uint256"
            },
            {
              "internalType": "uint256",
              "name": "_pricePerPIO",
              "type": "uint256"
            }
          ],
          "name": "createOrder",
          "outputs": [
            {
              "internalType": "bytes32",
              "name": "",
              "type": "bytes32"
            }
          ],
          "stateMutability": "payable",
          "type": "function"
        },
        {
          "inputs": [
            {
              "internalType": "bytes32",
              "name": "_bscTradeId",
              "type": "bytes32"
            },
            {
              "internalType": "bytes32",
              "name": "_orderId",
              "type": "bytes32"
            },
            {
              "internalType": "address",
              "name": "_buyer",
              "type": "address"
            },
            {
              "internalType": "uint256",
              "name": "_pioAmount",
              "type": "uint256"
            }
          ],
          "name": "createTrade",
          "outputs": [
            {
              "internalType": "bool",
              "name": "",
              "type": "bool"
            }
          ],
          "stateMutability": "nonpayable",
          "type": "function"
        },
        {
          "inputs": [
            {
              "internalType": "bytes32",
              "name": "_bscOrderId",
              "type": "bytes32"
            },
            {
              "internalType": "address",
              "name": "_seller",
              "type": "address"
            }
          ],
          "name": "createTradeRequest",
          "outputs": [
            {
              "internalType": "bytes32",
              "name": "tradeId",
              "type": "bytes32"
            }
          ],
          "stateMutability": "payable",
          "type": "function"
        },
        {
          "inputs": [
            {
              "internalType": "bytes32",
              "name": "",
              "type": "bytes32"
            }
          ],
          "name": "crossChainExpireSynced",
          "outputs": [
            {
              "internalType": "bool",
              "name": "",
              "type": "bool"
            }
          ],
          "stateMutability": "view",
          "type": "function"
        },
        {
          "inputs": [
            {
              "internalType": "uint256",
              "name": "_usdtAmount",
              "type": "uint256"
            }
          ],
          "name": "estimatePIOAmount",
          "outputs": [
            {
              "internalType": "uint256",
              "name": "",
              "type": "uint256"
            }
          ],
          "stateMutability": "view",
          "type": "function"
        },
        {
          "inputs": [
            {
              "internalType": "bytes32",
              "name": "_tradeId",
              "type": "bytes32"
            }
          ],
          "name": "expireRequest",
          "outputs": [],
          "stateMutability": "nonpayable",
          "type": "function"
        },
        {
          "inputs": [
            {
              "internalType": "bytes32",
              "name": "_tradeId",
              "type": "bytes32"
            }
          ],
          "name": "expireTrade",
          "outputs": [],
          "stateMutability": "nonpayable",
          "type": "function"
        },
        {
          "inputs": [],
          "name": "feePercent",
          "outputs": [
            {
              "internalType": "uint16",
              "name": "",
              "type": "uint16"
            }
          ],
          "stateMutability": "view",
          "type": "function"
        },
        {
          "inputs": [],
          "name": "feeTo",
          "outputs": [
            {
              "internalType": "address",
              "name": "",
              "type": "address"
            }
          ],
          "stateMutability": "view",
          "type": "function"
        },
        {
          "inputs": [
            {
              "internalType": "bytes32",
              "name": "_tradeId",
              "type": "bytes32"
            }
          ],
          "name": "getBuyUSDTTrade",
          "outputs": [
            {
              "components": [
                {
                  "internalType": "bytes32",
                  "name": "bscOrderId",
                  "type": "bytes32"
                },
                {
                  "internalType": "address",
                  "name": "seller",
                  "type": "address"
                },
                {
                  "internalType": "address",
                  "name": "buyer",
                  "type": "address"
                },
                {
                  "internalType": "uint256",
                  "name": "lockedPIO",
                  "type": "uint256"
                },
                {
                  "internalType": "uint16",
                  "name": "feeSnapshot",
                  "type": "uint16"
                },
                {
                  "internalType": "enum PioneP2PEscrow.TradeStatus",
                  "name": "status",
                  "type": "uint8"
                }
              ],
              "internalType": "struct PioneP2PEscrow.BuyUSDTTrade",
              "name": "",
              "type": "tuple"
            }
          ],
          "stateMutability": "view",
          "type": "function"
        },
        {
          "inputs": [],
          "name": "getCurrentPIOPrice",
          "outputs": [
            {
              "internalType": "uint256",
              "name": "",
              "type": "uint256"
            }
          ],
          "stateMutability": "view",
          "type": "function"
        },
        {
          "inputs": [
            {
              "internalType": "bytes32",
              "name": "_orderId",
              "type": "bytes32"
            }
          ],
          "name": "getOrder",
          "outputs": [
            {
              "components": [
                {
                  "internalType": "address",
                  "name": "seller",
                  "type": "address"
                },
                {
                  "internalType": "uint256",
                  "name": "totalPIO",
                  "type": "uint256"
                },
                {
                  "internalType": "uint256",
                  "name": "availablePIO",
                  "type": "uint256"
                },
                {
                  "internalType": "uint256",
                  "name": "minPerTrade",
                  "type": "uint256"
                },
                {
                  "internalType": "uint256",
                  "name": "maxPerTrade",
                  "type": "uint256"
                },
                {
                  "internalType": "uint256",
                  "name": "pricePerPIO",
                  "type": "uint256"
                },
                {
                  "internalType": "enum PioneP2PEscrow.OrderStatus",
                  "name": "status",
                  "type": "uint8"
                }
              ],
              "internalType": "struct PioneP2PEscrow.Order",
              "name": "",
              "type": "tuple"
            }
          ],
          "stateMutability": "view",
          "type": "function"
        },
        {
          "inputs": [
            {
              "internalType": "bytes32",
              "name": "_orderId",
              "type": "bytes32"
            }
          ],
          "name": "getOrderTrades",
          "outputs": [
            {
              "internalType": "bytes32[]",
              "name": "",
              "type": "bytes32[]"
            }
          ],
          "stateMutability": "view",
          "type": "function"
        },
        {
          "inputs": [],
          "name": "getPriceRange",
          "outputs": [
            {
              "internalType": "uint256",
              "name": "minPrice",
              "type": "uint256"
            },
            {
              "internalType": "uint256",
              "name": "maxPrice",
              "type": "uint256"
            },
            {
              "internalType": "uint256",
              "name": "currentPrice",
              "type": "uint256"
            }
          ],
          "stateMutability": "view",
          "type": "function"
        },
        {
          "inputs": [
            {
              "internalType": "bytes32",
              "name": "role",
              "type": "bytes32"
            }
          ],
          "name": "getRoleAdmin",
          "outputs": [
            {
              "internalType": "bytes32",
              "name": "",
              "type": "bytes32"
            }
          ],
          "stateMutability": "view",
          "type": "function"
        },
        {
          "inputs": [
            {
              "internalType": "bytes32",
              "name": "_tradeId",
              "type": "bytes32"
            }
          ],
          "name": "getSellPIOTrade",
          "outputs": [
            {
              "components": [
                {
                  "internalType": "bytes32",
                  "name": "orderId",
                  "type": "bytes32"
                },
                {
                  "internalType": "address",
                  "name": "seller",
                  "type": "address"
                },
                {
                  "internalType": "address",
                  "name": "buyer",
                  "type": "address"
                },
                {
                  "internalType": "uint256",
                  "name": "pioAmount",
                  "type": "uint256"
                },
                {
                  "internalType": "uint256",
                  "name": "pricePerPIO",
                  "type": "uint256"
                },
                {
                  "internalType": "uint16",
                  "name": "feeSnapshot",
                  "type": "uint16"
                },
                {
                  "internalType": "enum PioneP2PEscrow.TradeStatus",
                  "name": "status",
                  "type": "uint8"
                }
              ],
              "internalType": "struct PioneP2PEscrow.SellPIOTrade",
              "name": "",
              "type": "tuple"
            }
          ],
          "stateMutability": "view",
          "type": "function"
        },
        {
          "inputs": [
            {
              "internalType": "address",
              "name": "_seller",
              "type": "address"
            }
          ],
          "name": "getSellerOrders",
          "outputs": [
            {
              "internalType": "bytes32[]",
              "name": "",
              "type": "bytes32[]"
            }
          ],
          "stateMutability": "view",
          "type": "function"
        },
        {
          "inputs": [
            {
              "internalType": "address",
              "name": "_user",
              "type": "address"
            }
          ],
          "name": "getUserTrades",
          "outputs": [
            {
              "internalType": "bytes32[]",
              "name": "",
              "type": "bytes32[]"
            }
          ],
          "stateMutability": "view",
          "type": "function"
        },
        {
          "inputs": [
            {
              "internalType": "bytes32",
              "name": "role",
              "type": "bytes32"
            },
            {
              "internalType": "address",
              "name": "account",
              "type": "address"
            }
          ],
          "name": "grantRole",
          "outputs": [],
          "stateMutability": "nonpayable",
          "type": "function"
        },
        {
          "inputs": [
            {
              "internalType": "bytes32",
              "name": "role",
              "type": "bytes32"
            },
            {
              "internalType": "address",
              "name": "account",
              "type": "address"
            }
          ],
          "name": "hasRole",
          "outputs": [
            {
              "internalType": "bool",
              "name": "",
              "type": "bool"
            }
          ],
          "stateMutability": "view",
          "type": "function"
        },
        {
          "inputs": [],
          "name": "minPioForSell",
          "outputs": [
            {
              "internalType": "uint256",
              "name": "",
              "type": "uint256"
            }
          ],
          "stateMutability": "view",
          "type": "function"
        },
        {
          "inputs": [],
          "name": "pause",
          "outputs": [],
          "stateMutability": "nonpayable",
          "type": "function"
        },
        {
          "inputs": [],
          "name": "paused",
          "outputs": [
            {
              "internalType": "bool",
              "name": "",
              "type": "bool"
            }
          ],
          "stateMutability": "view",
          "type": "function"
        },
        {
          "inputs": [],
          "name": "priceOracle",
          "outputs": [
            {
              "internalType": "contract IPriceOracle",
              "name": "",
              "type": "address"
            }
          ],
          "stateMutability": "view",
          "type": "function"
        },
        {
          "inputs": [],
          "name": "priceTolerancePercent",
          "outputs": [
            {
              "internalType": "uint16",
              "name": "",
              "type": "uint16"
            }
          ],
          "stateMutability": "view",
          "type": "function"
        },
        {
          "inputs": [
            {
              "internalType": "bytes32",
              "name": "_tradeId",
              "type": "bytes32"
            }
          ],
          "name": "releasePIOForBuyer",
          "outputs": [],
          "stateMutability": "nonpayable",
          "type": "function"
        },
        {
          "inputs": [
            {
              "internalType": "bytes32",
              "name": "_tradeId",
              "type": "bytes32"
            }
          ],
          "name": "releasePIOForSeller",
          "outputs": [],
          "stateMutability": "nonpayable",
          "type": "function"
        },
        {
          "inputs": [
            {
              "internalType": "bytes32",
              "name": "role",
              "type": "bytes32"
            },
            {
              "internalType": "address",
              "name": "callerConfirmation",
              "type": "address"
            }
          ],
          "name": "renounceRole",
          "outputs": [],
          "stateMutability": "nonpayable",
          "type": "function"
        },
        {
          "inputs": [
            {
              "internalType": "bytes32",
              "name": "role",
              "type": "bytes32"
            },
            {
              "internalType": "address",
              "name": "account",
              "type": "address"
            }
          ],
          "name": "revokeRole",
          "outputs": [],
          "stateMutability": "nonpayable",
          "type": "function"
        },
        {
          "inputs": [
            {
              "internalType": "bytes4",
              "name": "interfaceId",
              "type": "bytes4"
            }
          ],
          "name": "supportsInterface",
          "outputs": [
            {
              "internalType": "bool",
              "name": "",
              "type": "bool"
            }
          ],
          "stateMutability": "view",
          "type": "function"
        },
        {
          "inputs": [],
          "name": "unpause",
          "outputs": [],
          "stateMutability": "nonpayable",
          "type": "function"
        },
        {
          "inputs": [
            {
              "internalType": "uint16",
              "name": "_newFee",
              "type": "uint16"
            }
          ],
          "name": "updateFee",
          "outputs": [],
          "stateMutability": "nonpayable",
          "type": "function"
        },
        {
          "inputs": [
            {
              "internalType": "address",
              "name": "_newFeeTo",
              "type": "address"
            }
          ],
          "name": "updateFeeTo",
          "outputs": [],
          "stateMutability": "nonpayable",
          "type": "function"
        },
        {
          "inputs": [
            {
              "internalType": "uint256",
              "name": "_newMin",
              "type": "uint256"
            }
          ],
          "name": "updateMinPioForSell",
          "outputs": [],
          "stateMutability": "nonpayable",
          "type": "function"
        },
        {
          "inputs": [
            {
              "internalType": "address",
              "name": "_newOracle",
              "type": "address"
            }
          ],
          "name": "updateOracle",
          "outputs": [],
          "stateMutability": "nonpayable",
          "type": "function"
        },
        {
          "inputs": [
            {
              "internalType": "bytes32",
              "name": "_orderId",
              "type": "bytes32"
            },
            {
              "internalType": "uint256",
              "name": "_newMinPerTrade",
              "type": "uint256"
            },
            {
              "internalType": "uint256",
              "name": "_newMaxPerTrade",
              "type": "uint256"
            }
          ],
          "name": "updateOrderLimits",
          "outputs": [],
          "stateMutability": "nonpayable",
          "type": "function"
        },
        {
          "inputs": [
            {
              "internalType": "bytes32",
              "name": "_orderId",
              "type": "bytes32"
            },
            {
              "internalType": "uint256",
              "name": "_newPricePerPIO",
              "type": "uint256"
            }
          ],
          "name": "updateOrderPrice",
          "outputs": [],
          "stateMutability": "nonpayable",
          "type": "function"
        },
        {
          "inputs": [
            {
              "internalType": "uint16",
              "name": "_newTolerance",
              "type": "uint16"
            }
          ],
          "name": "updatePriceTolerance",
          "outputs": [],
          "stateMutability": "nonpayable",
          "type": "function"
        }
      ],
      "evm": {
        "bytecode": {
          "linkReferences": {},
          "object": "60803461010557601f612c2738819003918201601f19168301916001600160401b0383118484101761010a57808492604094855283398101031261010557610052602061004b83610120565b9201610120565b6001600055600454916001600160a01b031680156100cf57600380546001600160a01b0319169190911790556001600160c01b03199091166001600160a01b03919091161762fa001960a21b176004556100ab33610134565b506100b5336101b0565b506100bf33610248565b506040516128c690816102e18239f35b60405162461bcd60e51b815260206004820152600e60248201526d496e76616c6964206f7261636c6560901b6044820152606490fd5b600080fd5b634e487b7160e01b600052604160045260246000fd5b51906001600160a01b038216820361010557565b6001600160a01b0381166000908152600080516020612be7833981519152602052604090205460ff166101aa576001600160a01b03166000818152600080516020612be783398151915260205260408120805460ff19166001179055339190600080516020612ba78339815191528180a4600190565b50600090565b6001600160a01b0381166000908152600080516020612c07833981519152602052604090205460ff166101aa576001600160a01b03166000818152600080516020612c0783398151915260205260408120805460ff191660011790553391907fa49807205ce4d355092ef5a8a18f56e8913cf4a201fbe287825b095693c2177590600080516020612ba78339815191529080a4600190565b6001600160a01b0381166000908152600080516020612bc7833981519152602052604090205460ff166101aa576001600160a01b03166000818152600080516020612bc783398151915260205260408120805460ff191660011790553391907f751b795d24b92e3d92d1d0d8f2885f4e9c9c269da350af36ae6b49069babf4bf90600080516020612ba78339815191529080a460019056fe608080604052600436101561001357600080fd5b60003560e01c908163017e7e58146121255750806301ffc9a7146120cf5780630b70adbb1461207b578063118c38c71461204057806315ddb39314611da15780631cb44dfc14611d23578063248a9ca314611cee5780632630c12f14611cc55780632c6cda9314611c3f5780632f2ff15d14611bff57806336568abe14611bb95780633f4ba83a14611b50578063465c337a14611b325780634d091a4214611a5e57806350125546146119ad5780635778472a146118d35780635c975abb146118b05780635d4ea6411461177c5780635f6752c814611713578063636981131461162157806365d0e404146114fa578063737dd562146113f75780637489ec23146111f457806375b238fc146111b95780637b8d8008146111885780637cfb41b8146110b45780637fd6f15c1461108f5780638456cb591461103657806389200a2714610de057806391d1485414610d93578063927c774214610d1c578063a1ba444d14610acd578063a217fddf14610ab1578063a7dcf3c314610a8c578063b0091f69146109a6578063b730083e146108cd578063cbddf5af1461075e578063cdd1b6031461061d578063cdec2f23146105ac578063d547741f14610565578063dcd11a3f14610472578063e1a75bfc146103ef578063e24dde3914610373578063e4cbac40146102ec5763f8ca2be71461020e57600080fd5b346102e75760003660031901126102e75760035460405163248d817960e01b815290602090829060049082906001600160a01b03165afa9081156102db576000916102a4575b60608261ffff60045460b01c169061271061029161ffff61028a836102838361027c896125c7565b168761225b565b04956125db565b168361225b565b0460405192835260208301526040820152f35b6020813d6020116102d3575b816102bd602093836122bc565b810103126102cf575190506060610254565b5080fd5b3d91506102b0565b6040513d6000823e3d90fd5b600080fd5b346102e75760203660031901126102e7576001600160a01b0361030d612149565b16600052600b602052604060002060405190816020825491828152019160005260206000209060005b81811061035d576103598561034d818703826122bc565b60405191829182612195565b0390f35b8254845260209093019260019283019201610336565b346102e75760203660031901126102e75760043561ffff81168082036102e7577f61ffe63469fb8786675a96532a0fed8083715a6329d830492078cedd3bd9c0d6916040916103c061266d565b6004805461ffff60b01b19811660b094851b61ffff60b01b16179091558351921c61ffff1682526020820152a1005b346102e75760003660031901126102e75760035460405163248d817960e01b815290602090829060049082906001600160a01b03165afa80156102db5760009061043f575b602090604051908152f35b506020813d60201161046a575b81610459602093836122bc565b810103126102e75760209051610434565b3d915061044c565b346102e75760203660031901126102e75760043561048e612831565b33600090815260008051602061287183398151915260205260409020546104b79060ff166121cf565b80600052600a6020526040600020610513600080808060048601956104ee600160ff895460101c166104e881612175565b14612630565b6002810154600390910154906001600160a01b03165af161050d612437565b50612477565b805462ff00001916620300001790556000818152600e60205260408120805460ff191660011790557e63c7a53686b11e863c5f827c066bfbe9430ca95b1949d61445ce106261aca29080a26001600055005b346102e75760403660031901126102e7576105aa60043561058461215f565b906105a56105a082600052600260205260016040600020015490565b6126df565b6127ab565b005b346102e75760203660031901126102e7577f8f93286d6f131e956d1aa672d3ecdc817f24efc20b223b0de5d591f454edc34760406105e8612149565b6105f061266d565b600480546001600160a01b039283166001600160a01b0319821681179092558351921682526020820152a1005b346102e75760403660031901126102e7576004356000818152600860205260409020546024359190610659906001600160a01b03161515612343565b6000526008602052604060002061067a60018060a01b038254163314612386565b610696600160ff60068401541661069081612175565b1461220f565b60035460405163248d817960e01b815290602090829060049082906001600160a01b03165afa9081156102db57600091610727575b509061071860059261271061070661ffff60045460b01c169261ffff6106ff84610283836106f8896125c7565b168561225b565b169061225b565b0490851015908161071c575b506125ef565b0155005b905084111585610712565b906020823d602011610756575b81610741602093836122bc565b810103126107535750516107186106cb565b80fd5b3d9150610734565b346102e75760203660031901126102e75760043561077a612831565b33600090815260008051602061287183398151915260205260409020546107a39060ff166121cf565b8060005260096020527f167ec52c899193a7c2813aaff9dd05f569beadbfcc8fe125e44aa4970dce48de604060002060058101908154916107ef600160ff8560101c166104e881612175565b60009161ffff60038201549416801515806108b9575b610894575b506002019161083260008080808860018060a01b038954165af161082c612437565b506124ea565b8061086a575b50805462ff000019166202000017905554604080516001600160a01b0390921682526020820192909252a26001600055005b600080808061088e9460018060a01b03600454165af1610888612437565b50612528565b85610838565b8493506127106108aa6108b2926002949761225b565b04809461224e565b939061080a565b506004546001600160a01b03161515610805565b346102e75760203660031901126102e75760035460405163248d817960e01b81526004803592602091839182906001600160a01b03165afa9081156102db57600091610974575b50670de0b6b3a7640000820291808304670de0b6b3a7640000149015171561095e5780156109485760209104604051908152f35b634e487b7160e01b600052601260045260246000fd5b634e487b7160e01b600052601160045260246000fd5b906020823d60201161099e575b8161098e602093836122bc565b8101031261075357505182610914565b3d9150610981565b346102e75760203660031901126102e7576004356109c2612831565b33600090815260008051602061287183398151915260205260409020546109eb9060ff166121cf565b80600052600960205260406000206005810190610a14600160ff845460101c166104e881612175565b80546000526008602052610a37600260036040600020930154920191825461256a565b9055805462ff00001916620300001790556000818152600e60205260408120805460ff191660011790557f974ec1b137d0b76fd7cdab57c57bac61d82c6038046beccecdd622610b4d79d69080a26001600055005b346102e75760003660031901126102e757602061ffff60045460b01c16604051908152f35b346102e75760003660031901126102e757602060405160008152f35b60603660031901126102e75760046024358135604435610aeb612853565b610af3612831565b610b01600554341015612577565b81831180610d12575b610b13906123bf565b60035460405163248d817960e01b81529460209186919082906001600160a01b03165afa9384156102db57600094610cdc575b50610b83602094612710610b7261ffff60045460b01c169261ffff6106ff84610283836106f8896125c7565b04908310159081610cd157506125ef565b600654610b8f816125b8565b600655604051858101913360601b8352346034830152605482015242607482015260748152610bbf6094826122bc565b51902092604051610bcf8161226e565b338152348682018181526040808401928352606084018781526080850186815260a08601888152600160c0880181815260008d815260088f5295909520975188546001600160a01b0319166001600160a01b039190911617885594519487019490945593516002860155516003850155915160048401555160058301555160069190910190610c5d81612175565b610c6681612175565b60ff8019835416911617905533600052600b8552610c888460406000206122ff565b604051923484528584015260408301526060820152817f6bcbd6ab6d795a7e990431a97ea8f8808e81b8580fb9d6d581e5fcbb16e3d12760803393a36001600055604051908152f35b905082111586610712565b936020853d602011610d0a575b81610cf6602093836122bc565b810103126107535750925192610b83610b46565b3d9150610ce9565b5034831115610b0a565b346102e75760203660031901126102e7576001600160a01b03610d3d612149565b16600052600c602052604060002060405190816020825491828152019160005260206000209060005b818110610d7d576103598561034d818703826122bc565b8254845260209093019260019283019201610d66565b346102e75760403660031901126102e757610dac61215f565b600435600052600260205260406000209060018060a01b0316600052602052602060ff604060002054166040519015158152f35b60403660031901126102e757600435610df761215f565b610dff612853565b610e07612831565b6001600160a01b031690811561100057610e22341515612577565b600754610e2e816125b8565b60075560405160208101918383523360601b6040830152346054830152607482015242609482015260948152610e6560b4826122bc565b5190206000818152600a60205260409020600101549091906001600160a01b0316610fcc57600454602093610f6e916001600160a01b03811615610fc35760a01c61ffff16905b61ffff806004604051610ebe816122a0565b87815289810194855260408101338152606082019034825284608084019816885260a0830196600188528b600052600a8d5260406000209351845560018060a01b03905116600184019060018060a01b03166001600160601b0360a01b82541617905560018060a01b03905116600283019060018060a01b03166001600160601b0360a01b825416179055516003820155019351161661ffff198354161782555190610f6982612175565b6122de565b33600052600c8352610f848260406000206122ff565b6040805133815234602082015283917f40948e3e47ac26599994072f13321706ac61efad4125c7c7a933d48d1d60e72f91a36001600055604051908152f35b50600090610eac565b60405162461bcd60e51b815260206004820152600c60248201526b54726164652065786973747360a01b6044820152606490fd5b60405162461bcd60e51b815260206004820152600e60248201526d24b73b30b634b21039b2b63632b960911b6044820152606490fd5b346102e75760003660031901126102e75761104f61266d565b611057612853565b600160ff19815416176001557f62e78cea01bee320cd4e420270b5ea74000d11b0c9f74754ebdbfc544b05a2586020604051338152a1005b346102e75760003660031901126102e757602061ffff60045460a01c16604051908152f35b346102e75760203660031901126102e7576004356110d0612831565b33600090815260008051602061287183398151915260205260409020546110f99060ff166121cf565b80600052600960205260406000206005810190611128600160ff845460101c1661112281612175565b146123fb565b8054600052600860205261114b600260036040600020930154920191825461256a565b9055805462ff00001916620400001790557f4e09303ea9c3932854b42432aa9f65348205f9681747864bf122101b35371503600080a26001600055005b346102e75760203660031901126102e757600435600052600e602052602060ff604060002054166040519015158152f35b346102e75760003660031901126102e75760206040517fa49807205ce4d355092ef5a8a18f56e8913cf4a201fbe287825b095693c217758152f35b346102e75760203660031901126102e757600435611210612831565b80600052600860205260406000209060018060a01b038254169081331480156113d1575b61123d90612386565b60068301918254611256600160ff831661112281612175565b82600052600d6020526040600020936040518086602082985493848152019060005260206000209260005b8181106113b8575050611296925003866122bc565b60005b855181101561135457600060208260051b880101518152600960205260ff600560408320015460101c166112cc81612175565b6002811491821561133f575b8215611329575b5050156112ee57600101611299565b60405162461bcd60e51b8152602060048201526013602482015272151c985919481b9bdd08199a5b985b1a5e9959606a1b6044820152606490fd5b600492505061133781612175565b1488806112df565b915061134a81612175565b60038114916112d8565b506000906002870190600382549460ff1916179055558061139d575b827f5152abf959f6564662358c2e52b702259b78bac5ee7842a0f01937e670efcc7d600080a26001600055005b6000808080936113b1955af161050d612437565b8180611370565b845483526001948501948a945060209093019201611281565b50336000908152600080516020612871833981519152602052604090205460ff16611234565b346102e75760203660031901126102e757600060a0604051611418816122a0565b8281528260208201528260408201528260608201528260808201520152600435600052600a60205260c0604060002060405190611454826122a0565b8054825260018101546001600160a01b039081166020840190815260028301549091166040840190815260038301546060850190815260049093015461ffff8181166080870190815260a087019591949093919260101c60ff166114b781612175565b8652604080519751885290516001600160a01b03908116602089015291519091169086015251606085015251166080830152516114f381612175565b60a0820152f35b346102e75760203660031901126102e75760043567ffffffffffffffff81116102e757366023820112156102e757806004013567ffffffffffffffff81116102e7573660248260051b840101116102e75733600090815260008051602061287183398151915260205260409020546115749060ff166121cf565b60005b818110156105aa57600190600060248260051b860101359081815260096020526040812090600582018560ff825460101c166115b281612175565b146115c2575b5050505001611577565b827f974ec1b137d0b76fd7cdab57c57bac61d82c6038046beccecdd622610b4d79d69354835260086020526116056002600360408620930154920191825461256a565b9055805462ff000019166203000017905580a2848080806115b8565b346102e75760203660031901126102e75761163a6124b3565b50600435600052600960205260e060406000206040519061165a8261226e565b8054825260018101546001600160a01b039081166020840190815260028301549091166040840190815260038301546060850190815260048401546080860190815260059094015461ffff81811660a0880190815260c08801969195909491939260101c60ff166116ca81612175565b8752604080519851895290516001600160a01b0390811660208a0152915190911690870152516060860152516080850152511660a08301525161170c81612175565b60c0820152f35b346102e75760203660031901126102e757600435600052600d602052604060002060405190816020825491828152019160005260206000209060005b818110611766576103598561034d818703826122bc565b825484526020909301926001928301920161174f565b346102e75760203660031901126102e757600435611798612831565b33600090815260008051602061287183398151915260205260409020546117c19060ff166121cf565b80600052600a60205260406000206004810190815490600160ff8360101c166117e981612175565b0361187e577f167ec52c899193a7c2813aaff9dd05f569beadbfcc8fe125e44aa4970dce48de9260009161ffff600382015494168015158061186a575b61184d575b506001019161083260008080808860018060a01b038954165af161082c612437565b8493506127106108aa611863926001949761225b565b939061182b565b506004546001600160a01b03161515611826565b60405162461bcd60e51b815260206004820152600a602482015269139bdd081b1bd8dad95960b21b6044820152606490fd5b346102e75760003660031901126102e757602060ff600154166040519015158152f35b346102e75760203660031901126102e7576118ec6124b3565b50600435600052600860205260e060406000206040519061190c8261226e565b80546001600160a01b03168252600181015460208301908152600282015460408401908152600383015460608501908152600484015460808601908152600585015460a0870190815260069095015460c0870195949193919060ff1661197181612175565b86526040805197516001600160a01b03168852905160208801529051908601525160608501525160808401525160a08301525161170c81612175565b346102e75760203660031901126102e7576004356119c9612831565b33600090815260008051602061287183398151915260205260409020546119f29060ff166121cf565b80600052600a6020526040600020611a23600080808060048601956104ee600160ff895460101c1661112281612175565b805462ff00001916620400001790557ff903f4774c7bd27355f9d7fcbc382b079b164a697a44ac5d95267a4c3cb3bb22600080a26001600055005b346102e75760603660031901126102e7576004356000818152600860205260409020546044359160243591611a9d906001600160a01b03161515612343565b60005260086020526040600020611abe60018060a01b038254163314612386565b611ad4600160ff60068401541661069081612175565b611adf8284116123bf565b60018101548311611af95760049160038201550155600080f35b60405162461bcd60e51b815260206004820152601160248201527013585e08195e18d959591cc81d1bdd185b607a1b6044820152606490fd5b346102e75760003660031901126102e7576020600554604051908152f35b346102e75760003660031901126102e757611b6961266d565b60015460ff811615611ba85760ff19166001557f5db9ee0a495bf2e6ff9c91a7834c1ba4fdd244a5e8aa4e537bd38aeae4b073aa6020604051338152a1005b638dfc202b60e01b60005260046000fd5b346102e75760403660031901126102e757611bd261215f565b336001600160a01b03821603611bee576105aa906004356127ab565b63334bd91960e11b60005260046000fd5b346102e75760403660031901126102e7576105aa600435611c1e61215f565b90611c3a6105a082600052600260205260016040600020015490565b61271c565b346102e75760203660031901126102e75760043561ffff81168082036102e7576103e890611c6b61266d565b11611c91576004805461ffff60a01b191660a09290921b61ffff60a01b16919091179055005b60405162461bcd60e51b815260206004820152600c60248201526b08ccaca40e8dede40d0d2ced60a31b6044820152606490fd5b346102e75760003660031901126102e7576003546040516001600160a01b039091168152602090f35b346102e75760203660031901126102e7576020611d1b600435600052600260205260016040600020015490565b604051908152f35b346102e75760203660031901126102e757611d3c612149565b611d4461266d565b6001600160a01b03168015611d6b576001600160601b0360a01b6003541617600355600080f35b60405162461bcd60e51b815260206004820152600e60248201526d496e76616c6964206f7261636c6560901b6044820152606490fd5b346102e75760803660031901126102e7576024356004356044356001600160a01b038116908181036102e75733600090815260008051602061287183398151915260205260409020546064359190611dfb9060ff166121cf565b846000526008602052604060002091611e20600160ff60068601541661069081612175565b600283019384549485831161200857600385015483101580611ffa575b15611fc45761ffff8060058a868b95611e7a611f7e997f7450e1364879cff4a1f1f2aa6c91de7ba540801fe2abb06fc6a5a8d3b8f670a49d61224e565b9055828a015490670de0b6b3a7640000611e94838361225b565b9b5460045491909c049b6001600160a01b03908116999190811615611fbb5760a01c8616985b60405194611ec78661226e565b8552602085019081526040850191825260608501928352608085019384528660a086019a168a5260c085019860018a52600052600960205260406000209451855560018060a01b03905116600185019060018060a01b03166001600160601b0360a01b82541617905560018060a01b03905116600284019060018060a01b03166001600160601b0360a01b825416179055516003830155516004820155019351161661ffff198354161782555190610f6982612175565b84600052600d602052611f958460406000206122ff565b604080516001600160a01b039290921682526020820192909252a3602060405160018152f35b50600098611eba565b60405162461bcd60e51b815260206004820152600e60248201526d125b9d985b1a5908185b5bdd5b9d60921b6044820152606490fd5b506004850154831115611e3d565b60405162461bcd60e51b815260206004820152601060248201526f496e73756666696369656e742050494f60801b6044820152606490fd5b346102e75760003660031901126102e75760206040517f751b795d24b92e3d92d1d0d8f2885f4e9c9c269da350af36ae6b49069babf4bf8152f35b346102e75760203660031901126102e7577f773a87e376146d289e58cc5c3935090dcfd914409baa2d904198a8b541e5c44f60406004356120ba61266d565b600554908060055582519182526020820152a1005b346102e75760203660031901126102e75760043563ffffffff60e01b81168091036102e757602090637965db0b60e01b8114908115612114575b506040519015158152f35b6301ffc9a760e01b14905082612109565b346102e75760003660031901126102e7576004546001600160a01b03168152602090f35b600435906001600160a01b03821682036102e757565b602435906001600160a01b03821682036102e757565b6005111561217f57565b634e487b7160e01b600052602160045260246000fd5b602060408183019282815284518094520192019060005b8181106121b95750505090565b82518452602093840193909201916001016121ac565b156121d657565b60405162461bcd60e51b815260206004820152601160248201527027b7363c90313934b233b29030b236b4b760791b6044820152606490fd5b1561221657565b60405162461bcd60e51b815260206004820152601060248201526f4f72646572206e6f742061637469766560801b6044820152606490fd5b9190820391821161095e57565b8181029291811591840414171561095e57565b60e0810190811067ffffffffffffffff82111761228a57604052565b634e487b7160e01b600052604160045260246000fd5b60c0810190811067ffffffffffffffff82111761228a57604052565b90601f8019910116810190811067ffffffffffffffff82111761228a57604052565b906122e881612175565b62ff000082549160101b169062ff00001916179055565b8054906801000000000000000082101561228a576001820180825582101561232d5760005260206000200155565b634e487b7160e01b600052603260045260246000fd5b1561234a57565b60405162461bcd60e51b815260206004820152601460248201527313dc99195c88191bd95cc81b9bdd08195e1a5cdd60621b6044820152606490fd5b1561238d57565b60405162461bcd60e51b815260206004820152600a6024820152692737ba1039b2b63632b960b11b6044820152606490fd5b156123c657565b60405162461bcd60e51b815260206004820152600d60248201526c496e76616c69642072616e676560981b6044820152606490fd5b1561240257565b60405162461bcd60e51b815260206004820152600d60248201526c10d85b9b9bdd0818d85b98d95b609a1b6044820152606490fd5b3d15612472573d9067ffffffffffffffff821161228a5760405191612466601f8201601f1916602001846122bc565b82523d6000602084013e565b606090565b1561247e57565b60405162461bcd60e51b815260206004820152600d60248201526c1499599d5b990819985a5b1959609a1b6044820152606490fd5b604051906124c08261226e565b600060c0838281528260208201528260408201528260608201528260808201528260a08201520152565b156124f157565b60405162461bcd60e51b815260206004820152600f60248201526e151c985b9cd9995c8819985a5b1959608a1b6044820152606490fd5b1561252f57565b60405162461bcd60e51b8152602060048201526013602482015272119959481d1c985b9cd9995c8819985a5b1959606a1b6044820152606490fd5b9190820180921161095e57565b1561257e57565b60405162461bcd60e51b8152602060048201526012602482015271125b9d985b1a5908141253c8185b5bdd5b9d60721b6044820152606490fd5b600019811461095e5760010190565b61ffff16612710039061ffff821161095e57565b61ffff16612710019061ffff821161095e57565b156125f657565b60405162461bcd60e51b81526020600482015260126024820152715072696365206f7574206f662072616e676560701b6044820152606490fd5b1561263757565b60405162461bcd60e51b815260206004820152600e60248201526d496e76616c69642073746174757360901b6044820152606490fd5b3360009081527fe5ebfa64fca8d502a8e50c1edffd2c31ef4dad5b396e65d9f397fb028f74abc5602052604090205460ff16156126a657565b63e2517d3f60e01b600052336004527fa49807205ce4d355092ef5a8a18f56e8913cf4a201fbe287825b095693c2177560245260446000fd5b600081815260026020908152604080832033845290915290205460ff16156127045750565b63e2517d3f60e01b6000523360045260245260446000fd5b60008181526002602090815260408083206001600160a01b038616845290915290205460ff166127a45760008181526002602090815260408083206001600160a01b0395909516808452949091528120805460ff19166001179055339291907f2f8788117e7eff1d82e926ec794901d17c78024a50270940304540a733656f0d9080a4600190565b5050600090565b60008181526002602090815260408083206001600160a01b038616845290915290205460ff16156127a45760008181526002602090815260408083206001600160a01b0395909516808452949091528120805460ff19169055339291907ff6391f5c32d9c69d2a47ea670b442974b53935d1edc7fd64eb21e047a839171b9080a4600190565b600260005414612842576002600055565b633ee5aeb560e01b60005260046000fd5b60ff6001541661285f57565b63d93c066560e01b60005260046000fdfe1cb987f031316f2ee4a2088d9df91ba5fcb0a156171fcb58dedd9cae89efd2f0a2646970667358221220d67b3cc24c82f4b21bcd8ed0bf8448f83e013f8946cb9f3a8245031d92b4d3db64736f6c634300081c00332f8788117e7eff1d82e926ec794901d17c78024a50270940304540a733656f0d1cb987f031316f2ee4a2088d9df91ba5fcb0a156171fcb58dedd9cae89efd2f0ac33ff75c19e70fe83507db0d683fd3465c996598dc972688b7ace676c89077be5ebfa64fca8d502a8e50c1edffd2c31ef4dad5b396e65d9f397fb028f74abc5",
          "opcodes": "PUSH1 0x80 CALLVALUE PUSH2 0x105 JUMPI PUSH1 0x1F PUSH2 0x2C27 CODESIZE DUP2 SWAP1 SUB SWAP2 DUP3 ADD PUSH1 0x1F NOT AND DUP4 ADD SWAP2 PUSH1 0x1 PUSH1 0x1 PUSH1 0x40 SHL SUB DUP4 GT DUP5 DUP5 LT OR PUSH2 0x10A JUMPI DUP1 DUP5 SWAP3 PUSH1 0x40 SWAP5 DUP6 MSTORE DUP4 CODECOPY DUP2 ADD SUB SLT PUSH2 0x105 JUMPI PUSH2 0x52 PUSH1 0x20 PUSH2 0x4B DUP4 PUSH2 0x120 JUMP JUMPDEST SWAP3 ADD PUSH2 0x120 JUMP JUMPDEST PUSH1 0x1 PUSH1 0x0 SSTORE PUSH1 0x4 SLOAD SWAP2 PUSH1 0x1 PUSH1 0x1 PUSH1 0xA0 SHL SUB AND DUP1 ISZERO PUSH2 0xCF JUMPI PUSH1 0x3 DUP1 SLOAD PUSH1 0x1 PUSH1 0x1 PUSH1 0xA0 SHL SUB NOT AND SWAP2 SWAP1 SWAP2 OR SWAP1 SSTORE PUSH1 0x1 PUSH1 0x1 PUSH1 0xC0 SHL SUB NOT SWAP1 SWAP2 AND PUSH1 0x1 PUSH1 0x1 PUSH1 0xA0 SHL SUB SWAP2 SWAP1 SWAP2 AND OR PUSH3 0xFA0019 PUSH1 0xA2 SHL OR PUSH1 0x4 SSTORE PUSH2 0xAB CALLER PUSH2 0x134 JUMP JUMPDEST POP PUSH2 0xB5 CALLER PUSH2 0x1B0 JUMP JUMPDEST POP PUSH2 0xBF CALLER PUSH2 0x248 JUMP JUMPDEST POP PUSH1 0x40 MLOAD PUSH2 0x28C6 SWAP1 DUP2 PUSH2 0x2E1 DUP3 CODECOPY RETURN JUMPDEST PUSH1 0x40 MLOAD PUSH3 0x461BCD PUSH1 0xE5 SHL DUP2 MSTORE PUSH1 0x20 PUSH1 0x4 DUP3 ADD MSTORE PUSH1 0xE PUSH1 0x24 DUP3 ADD MSTORE PUSH14 0x496E76616C6964206F7261636C65 PUSH1 0x90 SHL PUSH1 0x44 DUP3 ADD MSTORE PUSH1 0x64 SWAP1 REVERT JUMPDEST PUSH1 0x0 DUP1 REVERT JUMPDEST PUSH4 0x4E487B71 PUSH1 0xE0 SHL PUSH1 0x0 MSTORE PUSH1 0x41 PUSH1 0x4 MSTORE PUSH1 0x24 PUSH1 0x0 REVERT JUMPDEST MLOAD SWAP1 PUSH1 0x1 PUSH1 0x1 PUSH1 0xA0 SHL SUB DUP3 AND DUP3 SUB PUSH2 0x105 JUMPI JUMP JUMPDEST PUSH1 0x1 PUSH1 0x1 PUSH1 0xA0 SHL SUB DUP2 AND PUSH1 0x0 SWAP1 DUP2 MSTORE PUSH1 0x0 DUP1 MLOAD PUSH1 0x20 PUSH2 0x2BE7 DUP4 CODECOPY DUP2 MLOAD SWAP2 MSTORE PUSH1 0x20 MSTORE PUSH1 0x40 SWAP1 KECCAK256 SLOAD PUSH1 0xFF AND PUSH2 0x1AA JUMPI PUSH1 0x1 PUSH1 0x1 PUSH1 0xA0 SHL SUB AND PUSH1 0x0 DUP2 DUP2 MSTORE PUSH1 0x0 DUP1 MLOAD PUSH1 0x20 PUSH2 0x2BE7 DUP4 CODECOPY DUP2 MLOAD SWAP2 MSTORE PUSH1 0x20 MSTORE PUSH1 0x40 DUP2 KECCAK256 DUP1 SLOAD PUSH1 0xFF NOT AND PUSH1 0x1 OR SWAP1 SSTORE CALLER SWAP2 SWAP1 PUSH1 0x0 DUP1 MLOAD PUSH1 0x20 PUSH2 0x2BA7 DUP4 CODECOPY DUP2 MLOAD SWAP2 MSTORE DUP2 DUP1 LOG4 PUSH1 0x1 SWAP1 JUMP JUMPDEST POP PUSH1 0x0 SWAP1 JUMP JUMPDEST PUSH1 0x1 PUSH1 0x1 PUSH1 0xA0 SHL SUB DUP2 AND PUSH1 0x0 SWAP1 DUP2 MSTORE PUSH1 0x0 DUP1 MLOAD PUSH1 0x20 PUSH2 0x2C07 DUP4 CODECOPY DUP2 MLOAD SWAP2 MSTORE PUSH1 0x20 MSTORE PUSH1 0x40 SWAP1 KECCAK256 SLOAD PUSH1 0xFF AND PUSH2 0x1AA JUMPI PUSH1 0x1 PUSH1 0x1 PUSH1 0xA0 SHL SUB AND PUSH1 0x0 DUP2 DUP2 MSTORE PUSH1 0x0 DUP1 MLOAD PUSH1 0x20 PUSH2 0x2C07 DUP4 CODECOPY DUP2 MLOAD SWAP2 MSTORE PUSH1 0x20 MSTORE PUSH1 0x40 DUP2 KECCAK256 DUP1 SLOAD PUSH1 0xFF NOT AND PUSH1 0x1 OR SWAP1 SSTORE CALLER SWAP2 SWAP1 PUSH32 0xA49807205CE4D355092EF5A8A18F56E8913CF4A201FBE287825B095693C21775 SWAP1 PUSH1 0x0 DUP1 MLOAD PUSH1 0x20 PUSH2 0x2BA7 DUP4 CODECOPY DUP2 MLOAD SWAP2 MSTORE SWAP1 DUP1 LOG4 PUSH1 0x1 SWAP1 JUMP JUMPDEST PUSH1 0x1 PUSH1 0x1 PUSH1 0xA0 SHL SUB DUP2 AND PUSH1 0x0 SWAP1 DUP2 MSTORE PUSH1 0x0 DUP1 MLOAD PUSH1 0x20 PUSH2 0x2BC7 DUP4 CODECOPY DUP2 MLOAD SWAP2 MSTORE PUSH1 0x20 MSTORE PUSH1 0x40 SWAP1 KECCAK256 SLOAD PUSH1 0xFF AND PUSH2 0x1AA JUMPI PUSH1 0x1 PUSH1 0x1 PUSH1 0xA0 SHL SUB AND PUSH1 0x0 DUP2 DUP2 MSTORE PUSH1 0x0 DUP1 MLOAD PUSH1 0x20 PUSH2 0x2BC7 DUP4 CODECOPY DUP2 MLOAD SWAP2 MSTORE PUSH1 0x20 MSTORE PUSH1 0x40 DUP2 KECCAK256 DUP1 SLOAD PUSH1 0xFF NOT AND PUSH1 0x1 OR SWAP1 SSTORE CALLER SWAP2 SWAP1 PUSH32 0x751B795D24B92E3D92D1D0D8F2885F4E9C9C269DA350AF36AE6B49069BABF4BF SWAP1 PUSH1 0x0 DUP1 MLOAD PUSH1 0x20 PUSH2 0x2BA7 DUP4 CODECOPY DUP2 MLOAD SWAP2 MSTORE SWAP1 DUP1 LOG4 PUSH1 0x1 SWAP1 JUMP INVALID PUSH1 0x80 DUP1 PUSH1 0x40 MSTORE PUSH1 0x4 CALLDATASIZE LT ISZERO PUSH2 0x13 JUMPI PUSH1 0x0 DUP1 REVERT JUMPDEST PUSH1 0x0 CALLDATALOAD PUSH1 0xE0 SHR SWAP1 DUP2 PUSH4 0x17E7E58 EQ PUSH2 0x2125 JUMPI POP DUP1 PUSH4 0x1FFC9A7 EQ PUSH2 0x20CF JUMPI DUP1 PUSH4 0xB70ADBB EQ PUSH2 0x207B JUMPI DUP1 PUSH4 0x118C38C7 EQ PUSH2 0x2040 JUMPI DUP1 PUSH4 0x15DDB393 EQ PUSH2 0x1DA1 JUMPI DUP1 PUSH4 0x1CB44DFC EQ PUSH2 0x1D23 JUMPI DUP1 PUSH4 0x248A9CA3 EQ PUSH2 0x1CEE JUMPI DUP1 PUSH4 0x2630C12F EQ PUSH2 0x1CC5 JUMPI DUP1 PUSH4 0x2C6CDA93 EQ PUSH2 0x1C3F JUMPI DUP1 PUSH4 0x2F2FF15D EQ PUSH2 0x1BFF JUMPI DUP1 PUSH4 0x36568ABE EQ PUSH2 0x1BB9 JUMPI DUP1 PUSH4 0x3F4BA83A EQ PUSH2 0x1B50 JUMPI DUP1 PUSH4 0x465C337A EQ PUSH2 0x1B32 JUMPI DUP1 PUSH4 0x4D091A42 EQ PUSH2 0x1A5E JUMPI DUP1 PUSH4 0x50125546 EQ PUSH2 0x19AD JUMPI DUP1 PUSH4 0x5778472A EQ PUSH2 0x18D3 JUMPI DUP1 PUSH4 0x5C975ABB EQ PUSH2 0x18B0 JUMPI DUP1 PUSH4 0x5D4EA641 EQ PUSH2 0x177C JUMPI DUP1 PUSH4 0x5F6752C8 EQ PUSH2 0x1713 JUMPI DUP1 PUSH4 0x63698113 EQ PUSH2 0x1621 JUMPI DUP1 PUSH4 0x65D0E404 EQ PUSH2 0x14FA JUMPI DUP1 PUSH4 0x737DD562 EQ PUSH2 0x13F7 JUMPI DUP1 PUSH4 0x7489EC23 EQ PUSH2 0x11F4 JUMPI DUP1 PUSH4 0x75B238FC EQ PUSH2 0x11B9 JUMPI DUP1 PUSH4 0x7B8D8008 EQ PUSH2 0x1188 JUMPI DUP1 PUSH4 0x7CFB41B8 EQ PUSH2 0x10B4 JUMPI DUP1 PUSH4 0x7FD6F15C EQ PUSH2 0x108F JUMPI DUP1 PUSH4 0x8456CB59 EQ PUSH2 0x1036 JUMPI DUP1 PUSH4 0x89200A27 EQ PUSH2 0xDE0 JUMPI DUP1 PUSH4 0x91D14854 EQ PUSH2 0xD93 JUMPI DUP1 PUSH4 0x927C7742 EQ PUSH2 0xD1C JUMPI DUP1 PUSH4 0xA1BA444D EQ PUSH2 0xACD JUMPI DUP1 PUSH4 0xA217FDDF EQ PUSH2 0xAB1 JUMPI DUP1 PUSH4 0xA7DCF3C3 EQ PUSH2 0xA8C JUMPI DUP1 PUSH4 0xB0091F69 EQ PUSH2 0x9A6 JUMPI DUP1 PUSH4 0xB730083E EQ PUSH2 0x8CD JUMPI DUP1 PUSH4 0xCBDDF5AF EQ PUSH2 0x75E JUMPI DUP1 PUSH4 0xCDD1B603 EQ PUSH2 0x61D JUMPI DUP1 PUSH4 0xCDEC2F23 EQ PUSH2 0x5AC JUMPI DUP1 PUSH4 0xD547741F EQ PUSH2 0x565 JUMPI DUP1 PUSH4 0xDCD11A3F EQ PUSH2 0x472 JUMPI DUP1 PUSH4 0xE1A75BFC EQ PUSH2 0x3EF JUMPI DUP1 PUSH4 0xE24DDE39 EQ PUSH2 0x373 JUMPI DUP1 PUSH4 0xE4CBAC40 EQ PUSH2 0x2EC JUMPI PUSH4 0xF8CA2BE7 EQ PUSH2 0x20E JUMPI PUSH1 0x0 DUP1 REVERT JUMPDEST CALLVALUE PUSH2 0x2E7 JUMPI PUSH1 0x0 CALLDATASIZE PUSH1 0x3 NOT ADD SLT PUSH2 0x2E7 JUMPI PUSH1 0x3 SLOAD PUSH1 0x40 MLOAD PUSH4 0x248D8179 PUSH1 0xE0 SHL DUP2 MSTORE SWAP1 PUSH1 0x20 SWAP1 DUP3 SWAP1 PUSH1 0x4 SWAP1 DUP3 SWAP1 PUSH1 0x1 PUSH1 0x1 PUSH1 0xA0 SHL SUB AND GAS STATICCALL SWAP1 DUP2 ISZERO PUSH2 0x2DB JUMPI PUSH1 0x0 SWAP2 PUSH2 0x2A4 JUMPI JUMPDEST PUSH1 0x60 DUP3 PUSH2 0xFFFF PUSH1 0x4 SLOAD PUSH1 0xB0 SHR AND SWAP1 PUSH2 0x2710 PUSH2 0x291 PUSH2 0xFFFF PUSH2 0x28A DUP4 PUSH2 0x283 DUP4 PUSH2 0x27C DUP10 PUSH2 0x25C7 JUMP JUMPDEST AND DUP8 PUSH2 0x225B JUMP JUMPDEST DIV SWAP6 PUSH2 0x25DB JUMP JUMPDEST AND DUP4 PUSH2 0x225B JUMP JUMPDEST DIV PUSH1 0x40 MLOAD SWAP3 DUP4 MSTORE PUSH1 0x20 DUP4 ADD MSTORE PUSH1 0x40 DUP3 ADD MSTORE RETURN JUMPDEST PUSH1 0x20 DUP2 RETURNDATASIZE PUSH1 0x20 GT PUSH2 0x2D3 JUMPI JUMPDEST DUP2 PUSH2 0x2BD PUSH1 0x20 SWAP4 DUP4 PUSH2 0x22BC JUMP JUMPDEST DUP2 ADD SUB SLT PUSH2 0x2CF JUMPI MLOAD SWAP1 POP PUSH1 0x60 PUSH2 0x254 JUMP JUMPDEST POP DUP1 REVERT JUMPDEST RETURNDATASIZE SWAP2 POP PUSH2 0x2B0 JUMP JUMPDEST PUSH1 0x40 MLOAD RETURNDATASIZE PUSH1 0x0 DUP3 RETURNDATACOPY RETURNDATASIZE SWAP1 REVERT JUMPDEST PUSH1 0x0 DUP1 REVERT JUMPDEST CALLVALUE PUSH2 0x2E7 JUMPI PUSH1 0x20 CALLDATASIZE PUSH1 0x3 NOT ADD SLT PUSH2 0x2E7 JUMPI PUSH1 0x1 PUSH1 0x1 PUSH1 0xA0 SHL SUB PUSH2 0x30D PUSH2 0x2149 JUMP JUMPDEST AND PUSH1 0x0 MSTORE PUSH1 0xB PUSH1 0x20 MSTORE PUSH1 0x40 PUSH1 0x0 KECCAK256 PUSH1 0x40 MLOAD SWAP1 DUP2 PUSH1 0x20 DUP3 SLOAD SWAP2 DUP3 DUP2 MSTORE ADD SWAP2 PUSH1 0x0 MSTORE PUSH1 0x20 PUSH1 0x0 KECCAK256 SWAP1 PUSH1 0x0 JUMPDEST DUP2 DUP2 LT PUSH2 0x35D JUMPI PUSH2 0x359 DUP6 PUSH2 0x34D DUP2 DUP8 SUB DUP3 PUSH2 0x22BC JUMP JUMPDEST PUSH1 0x40 MLOAD SWAP2 DUP3 SWAP2 DUP3 PUSH2 0x2195 JUMP JUMPDEST SUB SWAP1 RETURN JUMPDEST DUP3 SLOAD DUP5 MSTORE PUSH1 0x20 SWAP1 SWAP4 ADD SWAP3 PUSH1 0x1 SWAP3 DUP4 ADD SWAP3 ADD PUSH2 0x336 JUMP JUMPDEST CALLVALUE PUSH2 0x2E7 JUMPI PUSH1 0x20 CALLDATASIZE PUSH1 0x3 NOT ADD SLT PUSH2 0x2E7 JUMPI PUSH1 0x4 CALLDATALOAD PUSH2 0xFFFF DUP2 AND DUP1 DUP3 SUB PUSH2 0x2E7 JUMPI PUSH32 0x61FFE63469FB8786675A96532A0FED8083715A6329D830492078CEDD3BD9C0D6 SWAP2 PUSH1 0x40 SWAP2 PUSH2 0x3C0 PUSH2 0x266D JUMP JUMPDEST PUSH1 0x4 DUP1 SLOAD PUSH2 0xFFFF PUSH1 0xB0 SHL NOT DUP2 AND PUSH1 0xB0 SWAP5 DUP6 SHL PUSH2 0xFFFF PUSH1 0xB0 SHL AND OR SWAP1 SWAP2 SSTORE DUP4 MLOAD SWAP3 SHR PUSH2 0xFFFF AND DUP3 MSTORE PUSH1 0x20 DUP3 ADD MSTORE LOG1 STOP JUMPDEST CALLVALUE PUSH2 0x2E7 JUMPI PUSH1 0x0 CALLDATASIZE PUSH1 0x3 NOT ADD SLT PUSH2 0x2E7 JUMPI PUSH1 0x3 SLOAD PUSH1 0x40 MLOAD PUSH4 0x248D8179 PUSH1 0xE0 SHL DUP2 MSTORE SWAP1 PUSH1 0x20 SWAP1 DUP3 SWAP1 PUSH1 0x4 SWAP1 DUP3 SWAP1 PUSH1 0x1 PUSH1 0x1 PUSH1 0xA0 SHL SUB AND GAS STATICCALL DUP1 ISZERO PUSH2 0x2DB JUMPI PUSH1 0x0 SWAP1 PUSH2 0x43F JUMPI JUMPDEST PUSH1 0x20 SWAP1 PUSH1 0x40 MLOAD SWAP1 DUP2 MSTORE RETURN JUMPDEST POP PUSH1 0x20 DUP2 RETURNDATASIZE PUSH1 0x20 GT PUSH2 0x46A JUMPI JUMPDEST DUP2 PUSH2 0x459 PUSH1 0x20 SWAP4 DUP4 PUSH2 0x22BC JUMP JUMPDEST DUP2 ADD SUB SLT PUSH2 0x2E7 JUMPI PUSH1 0x20 SWAP1 MLOAD PUSH2 0x434 JUMP JUMPDEST RETURNDATASIZE SWAP2 POP PUSH2 0x44C JUMP JUMPDEST CALLVALUE PUSH2 0x2E7 JUMPI PUSH1 0x20 CALLDATASIZE PUSH1 0x3 NOT ADD SLT PUSH2 0x2E7 JUMPI PUSH1 0x4 CALLDATALOAD PUSH2 0x48E PUSH2 0x2831 JUMP JUMPDEST CALLER PUSH1 0x0 SWAP1 DUP2 MSTORE PUSH1 0x0 DUP1 MLOAD PUSH1 0x20 PUSH2 0x2871 DUP4 CODECOPY DUP2 MLOAD SWAP2 MSTORE PUSH1 0x20 MSTORE PUSH1 0x40 SWAP1 KECCAK256 SLOAD PUSH2 0x4B7 SWAP1 PUSH1 0xFF AND PUSH2 0x21CF JUMP JUMPDEST DUP1 PUSH1 0x0 MSTORE PUSH1 0xA PUSH1 0x20 MSTORE PUSH1 0x40 PUSH1 0x0 KECCAK256 PUSH2 0x513 PUSH1 0x0 DUP1 DUP1 DUP1 PUSH1 0x4 DUP7 ADD SWAP6 PUSH2 0x4EE PUSH1 0x1 PUSH1 0xFF DUP10 SLOAD PUSH1 0x10 SHR AND PUSH2 0x4E8 DUP2 PUSH2 0x2175 JUMP JUMPDEST EQ PUSH2 0x2630 JUMP JUMPDEST PUSH1 0x2 DUP2 ADD SLOAD PUSH1 0x3 SWAP1 SWAP2 ADD SLOAD SWAP1 PUSH1 0x1 PUSH1 0x1 PUSH1 0xA0 SHL SUB AND GAS CALL PUSH2 0x50D PUSH2 0x2437 JUMP JUMPDEST POP PUSH2 0x2477 JUMP JUMPDEST DUP1 SLOAD PUSH3 0xFF0000 NOT AND PUSH3 0x30000 OR SWAP1 SSTORE PUSH1 0x0 DUP2 DUP2 MSTORE PUSH1 0xE PUSH1 0x20 MSTORE PUSH1 0x40 DUP2 KECCAK256 DUP1 SLOAD PUSH1 0xFF NOT AND PUSH1 0x1 OR SWAP1 SSTORE PUSH31 0x63C7A53686B11E863C5F827C066BFBE9430CA95B1949D61445CE106261ACA2 SWAP1 DUP1 LOG2 PUSH1 0x1 PUSH1 0x0 SSTORE STOP JUMPDEST CALLVALUE PUSH2 0x2E7 JUMPI PUSH1 0x40 CALLDATASIZE PUSH1 0x3 NOT ADD SLT PUSH2 0x2E7 JUMPI PUSH2 0x5AA PUSH1 0x4 CALLDATALOAD PUSH2 0x584 PUSH2 0x215F JUMP JUMPDEST SWAP1 PUSH2 0x5A5 PUSH2 0x5A0 DUP3 PUSH1 0x0 MSTORE PUSH1 0x2 PUSH1 0x20 MSTORE PUSH1 0x1 PUSH1 0x40 PUSH1 0x0 KECCAK256 ADD SLOAD SWAP1 JUMP JUMPDEST PUSH2 0x26DF JUMP JUMPDEST PUSH2 0x27AB JUMP JUMPDEST STOP JUMPDEST CALLVALUE PUSH2 0x2E7 JUMPI PUSH1 0x20 CALLDATASIZE PUSH1 0x3 NOT ADD SLT PUSH2 0x2E7 JUMPI PUSH32 0x8F93286D6F131E956D1AA672D3ECDC817F24EFC20B223B0DE5D591F454EDC347 PUSH1 0x40 PUSH2 0x5E8 PUSH2 0x2149 JUMP JUMPDEST PUSH2 0x5F0 PUSH2 0x266D JUMP JUMPDEST PUSH1 0x4 DUP1 SLOAD PUSH1 0x1 PUSH1 0x1 PUSH1 0xA0 SHL SUB SWAP3 DUP4 AND PUSH1 0x1 PUSH1 0x1 PUSH1 0xA0 SHL SUB NOT DUP3 AND DUP2 OR SWAP1 SWAP3 SSTORE DUP4 MLOAD SWAP3 AND DUP3 MSTORE PUSH1 0x20 DUP3 ADD MSTORE LOG1 STOP JUMPDEST CALLVALUE PUSH2 0x2E7 JUMPI PUSH1 0x40 CALLDATASIZE PUSH1 0x3 NOT ADD SLT PUSH2 0x2E7 JUMPI PUSH1 0x4 CALLDATALOAD PUSH1 0x0 DUP2 DUP2 MSTORE PUSH1 0x8 PUSH1 0x20 MSTORE PUSH1 0x40 SWAP1 KECCAK256 SLOAD PUSH1 0x24 CALLDATALOAD SWAP2 SWAP1 PUSH2 0x659 SWAP1 PUSH1 0x1 PUSH1 0x1 PUSH1 0xA0 SHL SUB AND ISZERO ISZERO PUSH2 0x2343 JUMP JUMPDEST PUSH1 0x0 MSTORE PUSH1 0x8 PUSH1 0x20 MSTORE PUSH1 0x40 PUSH1 0x0 KECCAK256 PUSH2 0x67A PUSH1 0x1 DUP1 PUSH1 0xA0 SHL SUB DUP3 SLOAD AND CALLER EQ PUSH2 0x2386 JUMP JUMPDEST PUSH2 0x696 PUSH1 0x1 PUSH1 0xFF PUSH1 0x6 DUP5 ADD SLOAD AND PUSH2 0x690 DUP2 PUSH2 0x2175 JUMP JUMPDEST EQ PUSH2 0x220F JUMP JUMPDEST PUSH1 0x3 SLOAD PUSH1 0x40 MLOAD PUSH4 0x248D8179 PUSH1 0xE0 SHL DUP2 MSTORE SWAP1 PUSH1 0x20 SWAP1 DUP3 SWAP1 PUSH1 0x4 SWAP1 DUP3 SWAP1 PUSH1 0x1 PUSH1 0x1 PUSH1 0xA0 SHL SUB AND GAS STATICCALL SWAP1 DUP2 ISZERO PUSH2 0x2DB JUMPI PUSH1 0x0 SWAP2 PUSH2 0x727 JUMPI JUMPDEST POP SWAP1 PUSH2 0x718 PUSH1 0x5 SWAP3 PUSH2 0x2710 PUSH2 0x706 PUSH2 0xFFFF PUSH1 0x4 SLOAD PUSH1 0xB0 SHR AND SWAP3 PUSH2 0xFFFF PUSH2 0x6FF DUP5 PUSH2 0x283 DUP4 PUSH2 0x6F8 DUP10 PUSH2 0x25C7 JUMP JUMPDEST AND DUP6 PUSH2 0x225B JUMP JUMPDEST AND SWAP1 PUSH2 0x225B JUMP JUMPDEST DIV SWAP1 DUP6 LT ISZERO SWAP1 DUP2 PUSH2 0x71C JUMPI JUMPDEST POP PUSH2 0x25EF JUMP JUMPDEST ADD SSTORE STOP JUMPDEST SWAP1 POP DUP5 GT ISZERO DUP6 PUSH2 0x712 JUMP JUMPDEST SWAP1 PUSH1 0x20 DUP3 RETURNDATASIZE PUSH1 0x20 GT PUSH2 0x756 JUMPI JUMPDEST DUP2 PUSH2 0x741 PUSH1 0x20 SWAP4 DUP4 PUSH2 0x22BC JUMP JUMPDEST DUP2 ADD SUB SLT PUSH2 0x753 JUMPI POP MLOAD PUSH2 0x718 PUSH2 0x6CB JUMP JUMPDEST DUP1 REVERT JUMPDEST RETURNDATASIZE SWAP2 POP PUSH2 0x734 JUMP JUMPDEST CALLVALUE PUSH2 0x2E7 JUMPI PUSH1 0x20 CALLDATASIZE PUSH1 0x3 NOT ADD SLT PUSH2 0x2E7 JUMPI PUSH1 0x4 CALLDATALOAD PUSH2 0x77A PUSH2 0x2831 JUMP JUMPDEST CALLER PUSH1 0x0 SWAP1 DUP2 MSTORE PUSH1 0x0 DUP1 MLOAD PUSH1 0x20 PUSH2 0x2871 DUP4 CODECOPY DUP2 MLOAD SWAP2 MSTORE PUSH1 0x20 MSTORE PUSH1 0x40 SWAP1 KECCAK256 SLOAD PUSH2 0x7A3 SWAP1 PUSH1 0xFF AND PUSH2 0x21CF JUMP JUMPDEST DUP1 PUSH1 0x0 MSTORE PUSH1 0x9 PUSH1 0x20 MSTORE PUSH32 0x167EC52C899193A7C2813AAFF9DD05F569BEADBFCC8FE125E44AA4970DCE48DE PUSH1 0x40 PUSH1 0x0 KECCAK256 PUSH1 0x5 DUP2 ADD SWAP1 DUP2 SLOAD SWAP2 PUSH2 0x7EF PUSH1 0x1 PUSH1 0xFF DUP6 PUSH1 0x10 SHR AND PUSH2 0x4E8 DUP2 PUSH2 0x2175 JUMP JUMPDEST PUSH1 0x0 SWAP2 PUSH2 0xFFFF PUSH1 0x3 DUP3 ADD SLOAD SWAP5 AND DUP1 ISZERO ISZERO DUP1 PUSH2 0x8B9 JUMPI JUMPDEST PUSH2 0x894 JUMPI JUMPDEST POP PUSH1 0x2 ADD SWAP2 PUSH2 0x832 PUSH1 0x0 DUP1 DUP1 DUP1 DUP9 PUSH1 0x1 DUP1 PUSH1 0xA0 SHL SUB DUP10 SLOAD AND GAS CALL PUSH2 0x82C PUSH2 0x2437 JUMP JUMPDEST POP PUSH2 0x24EA JUMP JUMPDEST DUP1 PUSH2 0x86A JUMPI JUMPDEST POP DUP1 SLOAD PUSH3 0xFF0000 NOT AND PUSH3 0x20000 OR SWAP1 SSTORE SLOAD PUSH1 0x40 DUP1 MLOAD PUSH1 0x1 PUSH1 0x1 PUSH1 0xA0 SHL SUB SWAP1 SWAP3 AND DUP3 MSTORE PUSH1 0x20 DUP3 ADD SWAP3 SWAP1 SWAP3 MSTORE LOG2 PUSH1 0x1 PUSH1 0x0 SSTORE STOP JUMPDEST PUSH1 0x0 DUP1 DUP1 DUP1 PUSH2 0x88E SWAP5 PUSH1 0x1 DUP1 PUSH1 0xA0 SHL SUB PUSH1 0x4 SLOAD AND GAS CALL PUSH2 0x888 PUSH2 0x2437 JUMP JUMPDEST POP PUSH2 0x2528 JUMP JUMPDEST DUP6 PUSH2 0x838 JUMP JUMPDEST DUP5 SWAP4 POP PUSH2 0x2710 PUSH2 0x8AA PUSH2 0x8B2 SWAP3 PUSH1 0x2 SWAP5 SWAP8 PUSH2 0x225B JUMP JUMPDEST DIV DUP1 SWAP5 PUSH2 0x224E JUMP JUMPDEST SWAP4 SWAP1 PUSH2 0x80A JUMP JUMPDEST POP PUSH1 0x4 SLOAD PUSH1 0x1 PUSH1 0x1 PUSH1 0xA0 SHL SUB AND ISZERO ISZERO PUSH2 0x805 JUMP JUMPDEST CALLVALUE PUSH2 0x2E7 JUMPI PUSH1 0x20 CALLDATASIZE PUSH1 0x3 NOT ADD SLT PUSH2 0x2E7 JUMPI PUSH1 0x3 SLOAD PUSH1 0x40 MLOAD PUSH4 0x248D8179 PUSH1 0xE0 SHL DUP2 MSTORE PUSH1 0x4 DUP1 CALLDATALOAD SWAP3 PUSH1 0x20 SWAP2 DUP4 SWAP2 DUP3 SWAP1 PUSH1 0x1 PUSH1 0x1 PUSH1 0xA0 SHL SUB AND GAS STATICCALL SWAP1 DUP2 ISZERO PUSH2 0x2DB JUMPI PUSH1 0x0 SWAP2 PUSH2 0x974 JUMPI JUMPDEST POP PUSH8 0xDE0B6B3A7640000 DUP3 MUL SWAP2 DUP1 DUP4 DIV PUSH8 0xDE0B6B3A7640000 EQ SWAP1 ISZERO OR ISZERO PUSH2 0x95E JUMPI DUP1 ISZERO PUSH2 0x948 JUMPI PUSH1 0x20 SWAP2 DIV PUSH1 0x40 MLOAD SWAP1 DUP2 MSTORE RETURN JUMPDEST PUSH4 0x4E487B71 PUSH1 0xE0 SHL PUSH1 0x0 MSTORE PUSH1 0x12 PUSH1 0x4 MSTORE PUSH1 0x24 PUSH1 0x0 REVERT JUMPDEST PUSH4 0x4E487B71 PUSH1 0xE0 SHL PUSH1 0x0 MSTORE PUSH1 0x11 PUSH1 0x4 MSTORE PUSH1 0x24 PUSH1 0x0 REVERT JUMPDEST SWAP1 PUSH1 0x20 DUP3 RETURNDATASIZE PUSH1 0x20 GT PUSH2 0x99E JUMPI JUMPDEST DUP2 PUSH2 0x98E PUSH1 0x20 SWAP4 DUP4 PUSH2 0x22BC JUMP JUMPDEST DUP2 ADD SUB SLT PUSH2 0x753 JUMPI POP MLOAD DUP3 PUSH2 0x914 JUMP JUMPDEST RETURNDATASIZE SWAP2 POP PUSH2 0x981 JUMP JUMPDEST CALLVALUE PUSH2 0x2E7 JUMPI PUSH1 0x20 CALLDATASIZE PUSH1 0x3 NOT ADD SLT PUSH2 0x2E7 JUMPI PUSH1 0x4 CALLDATALOAD PUSH2 0x9C2 PUSH2 0x2831 JUMP JUMPDEST CALLER PUSH1 0x0 SWAP1 DUP2 MSTORE PUSH1 0x0 DUP1 MLOAD PUSH1 0x20 PUSH2 0x2871 DUP4 CODECOPY DUP2 MLOAD SWAP2 MSTORE PUSH1 0x20 MSTORE PUSH1 0x40 SWAP1 KECCAK256 SLOAD PUSH2 0x9EB SWAP1 PUSH1 0xFF AND PUSH2 0x21CF JUMP JUMPDEST DUP1 PUSH1 0x0 MSTORE PUSH1 0x9 PUSH1 0x20 MSTORE PUSH1 0x40 PUSH1 0x0 KECCAK256 PUSH1 0x5 DUP2 ADD SWAP1 PUSH2 0xA14 PUSH1 0x1 PUSH1 0xFF DUP5 SLOAD PUSH1 0x10 SHR AND PUSH2 0x4E8 DUP2 PUSH2 0x2175 JUMP JUMPDEST DUP1 SLOAD PUSH1 0x0 MSTORE PUSH1 0x8 PUSH1 0x20 MSTORE PUSH2 0xA37 PUSH1 0x2 PUSH1 0x3 PUSH1 0x40 PUSH1 0x0 KECCAK256 SWAP4 ADD SLOAD SWAP3 ADD SWAP2 DUP3 SLOAD PUSH2 0x256A JUMP JUMPDEST SWAP1 SSTORE DUP1 SLOAD PUSH3 0xFF0000 NOT AND PUSH3 0x30000 OR SWAP1 SSTORE PUSH1 0x0 DUP2 DUP2 MSTORE PUSH1 0xE PUSH1 0x20 MSTORE PUSH1 0x40 DUP2 KECCAK256 DUP1 SLOAD PUSH1 0xFF NOT AND PUSH1 0x1 OR SWAP1 SSTORE PUSH32 0x974EC1B137D0B76FD7CDAB57C57BAC61D82C6038046BECCECDD622610B4D79D6 SWAP1 DUP1 LOG2 PUSH1 0x1 PUSH1 0x0 SSTORE STOP JUMPDEST CALLVALUE PUSH2 0x2E7 JUMPI PUSH1 0x0 CALLDATASIZE PUSH1 0x3 NOT ADD SLT PUSH2 0x2E7 JUMPI PUSH1 0x20 PUSH2 0xFFFF PUSH1 0x4 SLOAD PUSH1 0xB0 SHR AND PUSH1 0x40 MLOAD SWAP1 DUP2 MSTORE RETURN JUMPDEST CALLVALUE PUSH2 0x2E7 JUMPI PUSH1 0x0 CALLDATASIZE PUSH1 0x3 NOT ADD SLT PUSH2 0x2E7 JUMPI PUSH1 0x20 PUSH1 0x40 MLOAD PUSH1 0x0 DUP2 MSTORE RETURN JUMPDEST PUSH1 0x60 CALLDATASIZE PUSH1 0x3 NOT ADD SLT PUSH2 0x2E7 JUMPI PUSH1 0x4 PUSH1 0x24 CALLDATALOAD DUP2 CALLDATALOAD PUSH1 0x44 CALLDATALOAD PUSH2 0xAEB PUSH2 0x2853 JUMP JUMPDEST PUSH2 0xAF3 PUSH2 0x2831 JUMP JUMPDEST PUSH2 0xB01 PUSH1 0x5 SLOAD CALLVALUE LT ISZERO PUSH2 0x2577 JUMP JUMPDEST DUP2 DUP4 GT DUP1 PUSH2 0xD12 JUMPI JUMPDEST PUSH2 0xB13 SWAP1 PUSH2 0x23BF JUMP JUMPDEST PUSH1 0x3 SLOAD PUSH1 0x40 MLOAD PUSH4 0x248D8179 PUSH1 0xE0 SHL DUP2 MSTORE SWAP5 PUSH1 0x20 SWAP2 DUP7 SWAP2 SWAP1 DUP3 SWAP1 PUSH1 0x1 PUSH1 0x1 PUSH1 0xA0 SHL SUB AND GAS STATICCALL SWAP4 DUP5 ISZERO PUSH2 0x2DB JUMPI PUSH1 0x0 SWAP5 PUSH2 0xCDC JUMPI JUMPDEST POP PUSH2 0xB83 PUSH1 0x20 SWAP5 PUSH2 0x2710 PUSH2 0xB72 PUSH2 0xFFFF PUSH1 0x4 SLOAD PUSH1 0xB0 SHR AND SWAP3 PUSH2 0xFFFF PUSH2 0x6FF DUP5 PUSH2 0x283 DUP4 PUSH2 0x6F8 DUP10 PUSH2 0x25C7 JUMP JUMPDEST DIV SWAP1 DUP4 LT ISZERO SWAP1 DUP2 PUSH2 0xCD1 JUMPI POP PUSH2 0x25EF JUMP JUMPDEST PUSH1 0x6 SLOAD PUSH2 0xB8F DUP2 PUSH2 0x25B8 JUMP JUMPDEST PUSH1 0x6 SSTORE PUSH1 0x40 MLOAD DUP6 DUP2 ADD SWAP2 CALLER PUSH1 0x60 SHL DUP4 MSTORE CALLVALUE PUSH1 0x34 DUP4 ADD MSTORE PUSH1 0x54 DUP3 ADD MSTORE TIMESTAMP PUSH1 0x74 DUP3 ADD MSTORE PUSH1 0x74 DUP2 MSTORE PUSH2 0xBBF PUSH1 0x94 DUP3 PUSH2 0x22BC JUMP JUMPDEST MLOAD SWAP1 KECCAK256 SWAP3 PUSH1 0x40 MLOAD PUSH2 0xBCF DUP2 PUSH2 0x226E JUMP JUMPDEST CALLER DUP2 MSTORE CALLVALUE DUP7 DUP3 ADD DUP2 DUP2 MSTORE PUSH1 0x40 DUP1 DUP5 ADD SWAP3 DUP4 MSTORE PUSH1 0x60 DUP5 ADD DUP8 DUP2 MSTORE PUSH1 0x80 DUP6 ADD DUP7 DUP2 MSTORE PUSH1 0xA0 DUP7 ADD DUP9 DUP2 MSTORE PUSH1 0x1 PUSH1 0xC0 DUP9 ADD DUP2 DUP2 MSTORE PUSH1 0x0 DUP14 DUP2 MSTORE PUSH1 0x8 DUP16 MSTORE SWAP6 SWAP1 SWAP6 KECCAK256 SWAP8 MLOAD DUP9 SLOAD PUSH1 0x1 PUSH1 0x1 PUSH1 0xA0 SHL SUB NOT AND PUSH1 0x1 PUSH1 0x1 PUSH1 0xA0 SHL SUB SWAP2 SWAP1 SWAP2 AND OR DUP9 SSTORE SWAP5 MLOAD SWAP5 DUP8 ADD SWAP5 SWAP1 SWAP5 SSTORE SWAP4 MLOAD PUSH1 0x2 DUP7 ADD SSTORE MLOAD PUSH1 0x3 DUP6 ADD SSTORE SWAP2 MLOAD PUSH1 0x4 DUP5 ADD SSTORE MLOAD PUSH1 0x5 DUP4 ADD SSTORE MLOAD PUSH1 0x6 SWAP2 SWAP1 SWAP2 ADD SWAP1 PUSH2 0xC5D DUP2 PUSH2 0x2175 JUMP JUMPDEST PUSH2 0xC66 DUP2 PUSH2 0x2175 JUMP JUMPDEST PUSH1 0xFF DUP1 NOT DUP4 SLOAD AND SWAP2 AND OR SWAP1 SSTORE CALLER PUSH1 0x0 MSTORE PUSH1 0xB DUP6 MSTORE PUSH2 0xC88 DUP5 PUSH1 0x40 PUSH1 0x0 KECCAK256 PUSH2 0x22FF JUMP JUMPDEST PUSH1 0x40 MLOAD SWAP3 CALLVALUE DUP5 MSTORE DUP6 DUP5 ADD MSTORE PUSH1 0x40 DUP4 ADD MSTORE PUSH1 0x60 DUP3 ADD MSTORE DUP2 PUSH32 0x6BCBD6AB6D795A7E990431A97EA8F8808E81B8580FB9D6D581E5FCBB16E3D127 PUSH1 0x80 CALLER SWAP4 LOG3 PUSH1 0x1 PUSH1 0x0 SSTORE PUSH1 0x40 MLOAD SWAP1 DUP2 MSTORE RETURN JUMPDEST SWAP1 POP DUP3 GT ISZERO DUP7 PUSH2 0x712 JUMP JUMPDEST SWAP4 PUSH1 0x20 DUP6 RETURNDATASIZE PUSH1 0x20 GT PUSH2 0xD0A JUMPI JUMPDEST DUP2 PUSH2 0xCF6 PUSH1 0x20 SWAP4 DUP4 PUSH2 0x22BC JUMP JUMPDEST DUP2 ADD SUB SLT PUSH2 0x753 JUMPI POP SWAP3 MLOAD SWAP3 PUSH2 0xB83 PUSH2 0xB46 JUMP JUMPDEST RETURNDATASIZE SWAP2 POP PUSH2 0xCE9 JUMP JUMPDEST POP CALLVALUE DUP4 GT ISZERO PUSH2 0xB0A JUMP JUMPDEST CALLVALUE PUSH2 0x2E7 JUMPI PUSH1 0x20 CALLDATASIZE PUSH1 0x3 NOT ADD SLT PUSH2 0x2E7 JUMPI PUSH1 0x1 PUSH1 0x1 PUSH1 0xA0 SHL SUB PUSH2 0xD3D PUSH2 0x2149 JUMP JUMPDEST AND PUSH1 0x0 MSTORE PUSH1 0xC PUSH1 0x20 MSTORE PUSH1 0x40 PUSH1 0x0 KECCAK256 PUSH1 0x40 MLOAD SWAP1 DUP2 PUSH1 0x20 DUP3 SLOAD SWAP2 DUP3 DUP2 MSTORE ADD SWAP2 PUSH1 0x0 MSTORE PUSH1 0x20 PUSH1 0x0 KECCAK256 SWAP1 PUSH1 0x0 JUMPDEST DUP2 DUP2 LT PUSH2 0xD7D JUMPI PUSH2 0x359 DUP6 PUSH2 0x34D DUP2 DUP8 SUB DUP3 PUSH2 0x22BC JUMP JUMPDEST DUP3 SLOAD DUP5 MSTORE PUSH1 0x20 SWAP1 SWAP4 ADD SWAP3 PUSH1 0x1 SWAP3 DUP4 ADD SWAP3 ADD PUSH2 0xD66 JUMP JUMPDEST CALLVALUE PUSH2 0x2E7 JUMPI PUSH1 0x40 CALLDATASIZE PUSH1 0x3 NOT ADD SLT PUSH2 0x2E7 JUMPI PUSH2 0xDAC PUSH2 0x215F JUMP JUMPDEST PUSH1 0x4 CALLDATALOAD PUSH1 0x0 MSTORE PUSH1 0x2 PUSH1 0x20 MSTORE PUSH1 0x40 PUSH1 0x0 KECCAK256 SWAP1 PUSH1 0x1 DUP1 PUSH1 0xA0 SHL SUB AND PUSH1 0x0 MSTORE PUSH1 0x20 MSTORE PUSH1 0x20 PUSH1 0xFF PUSH1 0x40 PUSH1 0x0 KECCAK256 SLOAD AND PUSH1 0x40 MLOAD SWAP1 ISZERO ISZERO DUP2 MSTORE RETURN JUMPDEST PUSH1 0x40 CALLDATASIZE PUSH1 0x3 NOT ADD SLT PUSH2 0x2E7 JUMPI PUSH1 0x4 CALLDATALOAD PUSH2 0xDF7 PUSH2 0x215F JUMP JUMPDEST PUSH2 0xDFF PUSH2 0x2853 JUMP JUMPDEST PUSH2 0xE07 PUSH2 0x2831 JUMP JUMPDEST PUSH1 0x1 PUSH1 0x1 PUSH1 0xA0 SHL SUB AND SWAP1 DUP2 ISZERO PUSH2 0x1000 JUMPI PUSH2 0xE22 CALLVALUE ISZERO ISZERO PUSH2 0x2577 JUMP JUMPDEST PUSH1 0x7 SLOAD PUSH2 0xE2E DUP2 PUSH2 0x25B8 JUMP JUMPDEST PUSH1 0x7 SSTORE PUSH1 0x40 MLOAD PUSH1 0x20 DUP2 ADD SWAP2 DUP4 DUP4 MSTORE CALLER PUSH1 0x60 SHL PUSH1 0x40 DUP4 ADD MSTORE CALLVALUE PUSH1 0x54 DUP4 ADD MSTORE PUSH1 0x74 DUP3 ADD MSTORE TIMESTAMP PUSH1 0x94 DUP3 ADD MSTORE PUSH1 0x94 DUP2 MSTORE PUSH2 0xE65 PUSH1 0xB4 DUP3 PUSH2 0x22BC JUMP JUMPDEST MLOAD SWAP1 KECCAK256 PUSH1 0x0 DUP2 DUP2 MSTORE PUSH1 0xA PUSH1 0x20 MSTORE PUSH1 0x40 SWAP1 KECCAK256 PUSH1 0x1 ADD SLOAD SWAP1 SWAP2 SWAP1 PUSH1 0x1 PUSH1 0x1 PUSH1 0xA0 SHL SUB AND PUSH2 0xFCC JUMPI PUSH1 0x4 SLOAD PUSH1 0x20 SWAP4 PUSH2 0xF6E SWAP2 PUSH1 0x1 PUSH1 0x1 PUSH1 0xA0 SHL SUB DUP2 AND ISZERO PUSH2 0xFC3 JUMPI PUSH1 0xA0 SHR PUSH2 0xFFFF AND SWAP1 JUMPDEST PUSH2 0xFFFF DUP1 PUSH1 0x4 PUSH1 0x40 MLOAD PUSH2 0xEBE DUP2 PUSH2 0x22A0 JUMP JUMPDEST DUP8 DUP2 MSTORE DUP10 DUP2 ADD SWAP5 DUP6 MSTORE PUSH1 0x40 DUP2 ADD CALLER DUP2 MSTORE PUSH1 0x60 DUP3 ADD SWAP1 CALLVALUE DUP3 MSTORE DUP5 PUSH1 0x80 DUP5 ADD SWAP9 AND DUP9 MSTORE PUSH1 0xA0 DUP4 ADD SWAP7 PUSH1 0x1 DUP9 MSTORE DUP12 PUSH1 0x0 MSTORE PUSH1 0xA DUP14 MSTORE PUSH1 0x40 PUSH1 0x0 KECCAK256 SWAP4 MLOAD DUP5 SSTORE PUSH1 0x1 DUP1 PUSH1 0xA0 SHL SUB SWAP1 MLOAD AND PUSH1 0x1 DUP5 ADD SWAP1 PUSH1 0x1 DUP1 PUSH1 0xA0 SHL SUB AND PUSH1 0x1 PUSH1 0x1 PUSH1 0x60 SHL SUB PUSH1 0xA0 SHL DUP3 SLOAD AND OR SWAP1 SSTORE PUSH1 0x1 DUP1 PUSH1 0xA0 SHL SUB SWAP1 MLOAD AND PUSH1 0x2 DUP4 ADD SWAP1 PUSH1 0x1 DUP1 PUSH1 0xA0 SHL SUB AND PUSH1 0x1 PUSH1 0x1 PUSH1 0x60 SHL SUB PUSH1 0xA0 SHL DUP3 SLOAD AND OR SWAP1 SSTORE MLOAD PUSH1 0x3 DUP3 ADD SSTORE ADD SWAP4 MLOAD AND AND PUSH2 0xFFFF NOT DUP4 SLOAD AND OR DUP3 SSTORE MLOAD SWAP1 PUSH2 0xF69 DUP3 PUSH2 0x2175 JUMP JUMPDEST PUSH2 0x22DE JUMP JUMPDEST CALLER PUSH1 0x0 MSTORE PUSH1 0xC DUP4 MSTORE PUSH2 0xF84 DUP3 PUSH1 0x40 PUSH1 0x0 KECCAK256 PUSH2 0x22FF JUMP JUMPDEST PUSH1 0x40 DUP1 MLOAD CALLER DUP2 MSTORE CALLVALUE PUSH1 0x20 DUP3 ADD MSTORE DUP4 SWAP2 PUSH32 0x40948E3E47AC26599994072F13321706AC61EFAD4125C7C7A933D48D1D60E72F SWAP2 LOG3 PUSH1 0x1 PUSH1 0x0 SSTORE PUSH1 0x40 MLOAD SWAP1 DUP2 MSTORE RETURN JUMPDEST POP PUSH1 0x0 SWAP1 PUSH2 0xEAC JUMP JUMPDEST PUSH1 0x40 MLOAD PUSH3 0x461BCD PUSH1 0xE5 SHL DUP2 MSTORE PUSH1 0x20 PUSH1 0x4 DUP3 ADD MSTORE PUSH1 0xC PUSH1 0x24 DUP3 ADD MSTORE PUSH12 0x547261646520657869737473 PUSH1 0xA0 SHL PUSH1 0x44 DUP3 ADD MSTORE PUSH1 0x64 SWAP1 REVERT JUMPDEST PUSH1 0x40 MLOAD PUSH3 0x461BCD PUSH1 0xE5 SHL DUP2 MSTORE PUSH1 0x20 PUSH1 0x4 DUP3 ADD MSTORE PUSH1 0xE PUSH1 0x24 DUP3 ADD MSTORE PUSH14 0x24B73B30B634B21039B2B63632B9 PUSH1 0x91 SHL PUSH1 0x44 DUP3 ADD MSTORE PUSH1 0x64 SWAP1 REVERT JUMPDEST CALLVALUE PUSH2 0x2E7 JUMPI PUSH1 0x0 CALLDATASIZE PUSH1 0x3 NOT ADD SLT PUSH2 0x2E7 JUMPI PUSH2 0x104F PUSH2 0x266D JUMP JUMPDEST PUSH2 0x1057 PUSH2 0x2853 JUMP JUMPDEST PUSH1 0x1 PUSH1 0xFF NOT DUP2 SLOAD AND OR PUSH1 0x1 SSTORE PUSH32 0x62E78CEA01BEE320CD4E420270B5EA74000D11B0C9F74754EBDBFC544B05A258 PUSH1 0x20 PUSH1 0x40 MLOAD CALLER DUP2 MSTORE LOG1 STOP JUMPDEST CALLVALUE PUSH2 0x2E7 JUMPI PUSH1 0x0 CALLDATASIZE PUSH1 0x3 NOT ADD SLT PUSH2 0x2E7 JUMPI PUSH1 0x20 PUSH2 0xFFFF PUSH1 0x4 SLOAD PUSH1 0xA0 SHR AND PUSH1 0x40 MLOAD SWAP1 DUP2 MSTORE RETURN JUMPDEST CALLVALUE PUSH2 0x2E7 JUMPI PUSH1 0x20 CALLDATASIZE PUSH1 0x3 NOT ADD SLT PUSH2 0x2E7 JUMPI PUSH1 0x4 CALLDATALOAD PUSH2 0x10D0 PUSH2 0x2831 JUMP JUMPDEST CALLER PUSH1 0x0 SWAP1 DUP2 MSTORE PUSH1 0x0 DUP1 MLOAD PUSH1 0x20 PUSH2 0x2871 DUP4 CODECOPY DUP2 MLOAD SWAP2 MSTORE PUSH1 0x20 MSTORE PUSH1 0x40 SWAP1 KECCAK256 SLOAD PUSH2 0x10F9 SWAP1 PUSH1 0xFF AND PUSH2 0x21CF JUMP JUMPDEST DUP1 PUSH1 0x0 MSTORE PUSH1 0x9 PUSH1 0x20 MSTORE PUSH1 0x40 PUSH1 0x0 KECCAK256 PUSH1 0x5 DUP2 ADD SWAP1 PUSH2 0x1128 PUSH1 0x1 PUSH1 0xFF DUP5 SLOAD PUSH1 0x10 SHR AND PUSH2 0x1122 DUP2 PUSH2 0x2175 JUMP JUMPDEST EQ PUSH2 0x23FB JUMP JUMPDEST DUP1 SLOAD PUSH1 0x0 MSTORE PUSH1 0x8 PUSH1 0x20 MSTORE PUSH2 0x114B PUSH1 0x2 PUSH1 0x3 PUSH1 0x40 PUSH1 0x0 KECCAK256 SWAP4 ADD SLOAD SWAP3 ADD SWAP2 DUP3 SLOAD PUSH2 0x256A JUMP JUMPDEST SWAP1 SSTORE DUP1 SLOAD PUSH3 0xFF0000 NOT AND PUSH3 0x40000 OR SWAP1 SSTORE PUSH32 0x4E09303EA9C3932854B42432AA9F65348205F9681747864BF122101B35371503 PUSH1 0x0 DUP1 LOG2 PUSH1 0x1 PUSH1 0x0 SSTORE STOP JUMPDEST CALLVALUE PUSH2 0x2E7 JUMPI PUSH1 0x20 CALLDATASIZE PUSH1 0x3 NOT ADD SLT PUSH2 0x2E7 JUMPI PUSH1 0x4 CALLDATALOAD PUSH1 0x0 MSTORE PUSH1 0xE PUSH1 0x20 MSTORE PUSH1 0x20 PUSH1 0xFF PUSH1 0x40 PUSH1 0x0 KECCAK256 SLOAD AND PUSH1 0x40 MLOAD SWAP1 ISZERO ISZERO DUP2 MSTORE RETURN JUMPDEST CALLVALUE PUSH2 0x2E7 JUMPI PUSH1 0x0 CALLDATASIZE PUSH1 0x3 NOT ADD SLT PUSH2 0x2E7 JUMPI PUSH1 0x20 PUSH1 0x40 MLOAD PUSH32 0xA49807205CE4D355092EF5A8A18F56E8913CF4A201FBE287825B095693C21775 DUP2 MSTORE RETURN JUMPDEST CALLVALUE PUSH2 0x2E7 JUMPI PUSH1 0x20 CALLDATASIZE PUSH1 0x3 NOT ADD SLT PUSH2 0x2E7 JUMPI PUSH1 0x4 CALLDATALOAD PUSH2 0x1210 PUSH2 0x2831 JUMP JUMPDEST DUP1 PUSH1 0x0 MSTORE PUSH1 0x8 PUSH1 0x20 MSTORE PUSH1 0x40 PUSH1 0x0 KECCAK256 SWAP1 PUSH1 0x1 DUP1 PUSH1 0xA0 SHL SUB DUP3 SLOAD AND SWAP1 DUP2 CALLER EQ DUP1 ISZERO PUSH2 0x13D1 JUMPI JUMPDEST PUSH2 0x123D SWAP1 PUSH2 0x2386 JUMP JUMPDEST PUSH1 0x6 DUP4 ADD SWAP2 DUP3 SLOAD PUSH2 0x1256 PUSH1 0x1 PUSH1 0xFF DUP4 AND PUSH2 0x1122 DUP2 PUSH2 0x2175 JUMP JUMPDEST DUP3 PUSH1 0x0 MSTORE PUSH1 0xD PUSH1 0x20 MSTORE PUSH1 0x40 PUSH1 0x0 KECCAK256 SWAP4 PUSH1 0x40 MLOAD DUP1 DUP7 PUSH1 0x20 DUP3 SWAP9 SLOAD SWAP4 DUP5 DUP2 MSTORE ADD SWAP1 PUSH1 0x0 MSTORE PUSH1 0x20 PUSH1 0x0 KECCAK256 SWAP3 PUSH1 0x0 JUMPDEST DUP2 DUP2 LT PUSH2 0x13B8 JUMPI POP POP PUSH2 0x1296 SWAP3 POP SUB DUP7 PUSH2 0x22BC JUMP JUMPDEST PUSH1 0x0 JUMPDEST DUP6 MLOAD DUP2 LT ISZERO PUSH2 0x1354 JUMPI PUSH1 0x0 PUSH1 0x20 DUP3 PUSH1 0x5 SHL DUP9 ADD ADD MLOAD DUP2 MSTORE PUSH1 0x9 PUSH1 0x20 MSTORE PUSH1 0xFF PUSH1 0x5 PUSH1 0x40 DUP4 KECCAK256 ADD SLOAD PUSH1 0x10 SHR AND PUSH2 0x12CC DUP2 PUSH2 0x2175 JUMP JUMPDEST PUSH1 0x2 DUP2 EQ SWAP2 DUP3 ISZERO PUSH2 0x133F JUMPI JUMPDEST DUP3 ISZERO PUSH2 0x1329 JUMPI JUMPDEST POP POP ISZERO PUSH2 0x12EE JUMPI PUSH1 0x1 ADD PUSH2 0x1299 JUMP JUMPDEST PUSH1 0x40 MLOAD PUSH3 0x461BCD PUSH1 0xE5 SHL DUP2 MSTORE PUSH1 0x20 PUSH1 0x4 DUP3 ADD MSTORE PUSH1 0x13 PUSH1 0x24 DUP3 ADD MSTORE PUSH19 0x151C985919481B9BDD08199A5B985B1A5E9959 PUSH1 0x6A SHL PUSH1 0x44 DUP3 ADD MSTORE PUSH1 0x64 SWAP1 REVERT JUMPDEST PUSH1 0x4 SWAP3 POP POP PUSH2 0x1337 DUP2 PUSH2 0x2175 JUMP JUMPDEST EQ DUP9 DUP1 PUSH2 0x12DF JUMP JUMPDEST SWAP2 POP PUSH2 0x134A DUP2 PUSH2 0x2175 JUMP JUMPDEST PUSH1 0x3 DUP2 EQ SWAP2 PUSH2 0x12D8 JUMP JUMPDEST POP PUSH1 0x0 SWAP1 PUSH1 0x2 DUP8 ADD SWAP1 PUSH1 0x3 DUP3 SLOAD SWAP5 PUSH1 0xFF NOT AND OR SWAP1 SSTORE SSTORE DUP1 PUSH2 0x139D JUMPI JUMPDEST DUP3 PUSH32 0x5152ABF959F6564662358C2E52B702259B78BAC5EE7842A0F01937E670EFCC7D PUSH1 0x0 DUP1 LOG2 PUSH1 0x1 PUSH1 0x0 SSTORE STOP JUMPDEST PUSH1 0x0 DUP1 DUP1 DUP1 SWAP4 PUSH2 0x13B1 SWAP6 GAS CALL PUSH2 0x50D PUSH2 0x2437 JUMP JUMPDEST DUP2 DUP1 PUSH2 0x1370 JUMP JUMPDEST DUP5 SLOAD DUP4 MSTORE PUSH1 0x1 SWAP5 DUP6 ADD SWAP5 DUP11 SWAP5 POP PUSH1 0x20 SWAP1 SWAP4 ADD SWAP3 ADD PUSH2 0x1281 JUMP JUMPDEST POP CALLER PUSH1 0x0 SWAP1 DUP2 MSTORE PUSH1 0x0 DUP1 MLOAD PUSH1 0x20 PUSH2 0x2871 DUP4 CODECOPY DUP2 MLOAD SWAP2 MSTORE PUSH1 0x20 MSTORE PUSH1 0x40 SWAP1 KECCAK256 SLOAD PUSH1 0xFF AND PUSH2 0x1234 JUMP JUMPDEST CALLVALUE PUSH2 0x2E7 JUMPI PUSH1 0x20 CALLDATASIZE PUSH1 0x3 NOT ADD SLT PUSH2 0x2E7 JUMPI PUSH1 0x0 PUSH1 0xA0 PUSH1 0x40 MLOAD PUSH2 0x1418 DUP2 PUSH2 0x22A0 JUMP JUMPDEST DUP3 DUP2 MSTORE DUP3 PUSH1 0x20 DUP3 ADD MSTORE DUP3 PUSH1 0x40 DUP3 ADD MSTORE DUP3 PUSH1 0x60 DUP3 ADD MSTORE DUP3 PUSH1 0x80 DUP3 ADD MSTORE ADD MSTORE PUSH1 0x4 CALLDATALOAD PUSH1 0x0 MSTORE PUSH1 0xA PUSH1 0x20 MSTORE PUSH1 0xC0 PUSH1 0x40 PUSH1 0x0 KECCAK256 PUSH1 0x40 MLOAD SWAP1 PUSH2 0x1454 DUP3 PUSH2 0x22A0 JUMP JUMPDEST DUP1 SLOAD DUP3 MSTORE PUSH1 0x1 DUP2 ADD SLOAD PUSH1 0x1 PUSH1 0x1 PUSH1 0xA0 SHL SUB SWAP1 DUP2 AND PUSH1 0x20 DUP5 ADD SWAP1 DUP2 MSTORE PUSH1 0x2 DUP4 ADD SLOAD SWAP1 SWAP2 AND PUSH1 0x40 DUP5 ADD SWAP1 DUP2 MSTORE PUSH1 0x3 DUP4 ADD SLOAD PUSH1 0x60 DUP6 ADD SWAP1 DUP2 MSTORE PUSH1 0x4 SWAP1 SWAP4 ADD SLOAD PUSH2 0xFFFF DUP2 DUP2 AND PUSH1 0x80 DUP8 ADD SWAP1 DUP2 MSTORE PUSH1 0xA0 DUP8 ADD SWAP6 SWAP2 SWAP5 SWAP1 SWAP4 SWAP2 SWAP3 PUSH1 0x10 SHR PUSH1 0xFF AND PUSH2 0x14B7 DUP2 PUSH2 0x2175 JUMP JUMPDEST DUP7 MSTORE PUSH1 0x40 DUP1 MLOAD SWAP8 MLOAD DUP9 MSTORE SWAP1 MLOAD PUSH1 0x1 PUSH1 0x1 PUSH1 0xA0 SHL SUB SWAP1 DUP2 AND PUSH1 0x20 DUP10 ADD MSTORE SWAP2 MLOAD SWAP1 SWAP2 AND SWAP1 DUP7 ADD MSTORE MLOAD PUSH1 0x60 DUP6 ADD MSTORE MLOAD AND PUSH1 0x80 DUP4 ADD MSTORE MLOAD PUSH2 0x14F3 DUP2 PUSH2 0x2175 JUMP JUMPDEST PUSH1 0xA0 DUP3 ADD MSTORE RETURN JUMPDEST CALLVALUE PUSH2 0x2E7 JUMPI PUSH1 0x20 CALLDATASIZE PUSH1 0x3 NOT ADD SLT PUSH2 0x2E7 JUMPI PUSH1 0x4 CALLDATALOAD PUSH8 0xFFFFFFFFFFFFFFFF DUP2 GT PUSH2 0x2E7 JUMPI CALLDATASIZE PUSH1 0x23 DUP3 ADD SLT ISZERO PUSH2 0x2E7 JUMPI DUP1 PUSH1 0x4 ADD CALLDATALOAD PUSH8 0xFFFFFFFFFFFFFFFF DUP2 GT PUSH2 0x2E7 JUMPI CALLDATASIZE PUSH1 0x24 DUP3 PUSH1 0x5 SHL DUP5 ADD ADD GT PUSH2 0x2E7 JUMPI CALLER PUSH1 0x0 SWAP1 DUP2 MSTORE PUSH1 0x0 DUP1 MLOAD PUSH1 0x20 PUSH2 0x2871 DUP4 CODECOPY DUP2 MLOAD SWAP2 MSTORE PUSH1 0x20 MSTORE PUSH1 0x40 SWAP1 KECCAK256 SLOAD PUSH2 0x1574 SWAP1 PUSH1 0xFF AND PUSH2 0x21CF JUMP JUMPDEST PUSH1 0x0 JUMPDEST DUP2 DUP2 LT ISZERO PUSH2 0x5AA JUMPI PUSH1 0x1 SWAP1 PUSH1 0x0 PUSH1 0x24 DUP3 PUSH1 0x5 SHL DUP7 ADD ADD CALLDATALOAD SWAP1 DUP2 DUP2 MSTORE PUSH1 0x9 PUSH1 0x20 MSTORE PUSH1 0x40 DUP2 KECCAK256 SWAP1 PUSH1 0x5 DUP3 ADD DUP6 PUSH1 0xFF DUP3 SLOAD PUSH1 0x10 SHR AND PUSH2 0x15B2 DUP2 PUSH2 0x2175 JUMP JUMPDEST EQ PUSH2 0x15C2 JUMPI JUMPDEST POP POP POP POP ADD PUSH2 0x1577 JUMP JUMPDEST DUP3 PUSH32 0x974EC1B137D0B76FD7CDAB57C57BAC61D82C6038046BECCECDD622610B4D79D6 SWAP4 SLOAD DUP4 MSTORE PUSH1 0x8 PUSH1 0x20 MSTORE PUSH2 0x1605 PUSH1 0x2 PUSH1 0x3 PUSH1 0x40 DUP7 KECCAK256 SWAP4 ADD SLOAD SWAP3 ADD SWAP2 DUP3 SLOAD PUSH2 0x256A JUMP JUMPDEST SWAP1 SSTORE DUP1 SLOAD PUSH3 0xFF0000 NOT AND PUSH3 0x30000 OR SWAP1 SSTORE DUP1 LOG2 DUP5 DUP1 DUP1 DUP1 PUSH2 0x15B8 JUMP JUMPDEST CALLVALUE PUSH2 0x2E7 JUMPI PUSH1 0x20 CALLDATASIZE PUSH1 0x3 NOT ADD SLT PUSH2 0x2E7 JUMPI PUSH2 0x163A PUSH2 0x24B3 JUMP JUMPDEST POP PUSH1 0x4 CALLDATALOAD PUSH1 0x0 MSTORE PUSH1 0x9 PUSH1 0x20 MSTORE PUSH1 0xE0 PUSH1 0x40 PUSH1 0x0 KECCAK256 PUSH1 0x40 MLOAD SWAP1 PUSH2 0x165A DUP3 PUSH2 0x226E JUMP JUMPDEST DUP1 SLOAD DUP3 MSTORE PUSH1 0x1 DUP2 ADD SLOAD PUSH1 0x1 PUSH1 0x1 PUSH1 0xA0 SHL SUB SWAP1 DUP2 AND PUSH1 0x20 DUP5 ADD SWAP1 DUP2 MSTORE PUSH1 0x2 DUP4 ADD SLOAD SWAP1 SWAP2 AND PUSH1 0x40 DUP5 ADD SWAP1 DUP2 MSTORE PUSH1 0x3 DUP4 ADD SLOAD PUSH1 0x60 DUP6 ADD SWAP1 DUP2 MSTORE PUSH1 0x4 DUP5 ADD SLOAD PUSH1 0x80 DUP7 ADD SWAP1 DUP2 MSTORE PUSH1 0x5 SWAP1 SWAP5 ADD SLOAD PUSH2 0xFFFF DUP2 DUP2 AND PUSH1 0xA0 DUP9 ADD SWAP1 DUP2 MSTORE PUSH1 0xC0 DUP9 ADD SWAP7 SWAP2 SWAP6 SWAP1 SWAP5 SWAP2 SWAP4 SWAP3 PUSH1 0x10 SHR PUSH1 0xFF AND PUSH2 0x16CA DUP2 PUSH2 0x2175 JUMP JUMPDEST DUP8 MSTORE PUSH1 0x40 DUP1 MLOAD SWAP9 MLOAD DUP10 MSTORE SWAP1 MLOAD PUSH1 0x1 PUSH1 0x1 PUSH1 0xA0 SHL SUB SWAP1 DUP2 AND PUSH1 0x20 DUP11 ADD MSTORE SWAP2 MLOAD SWAP1 SWAP2 AND SWAP1 DUP8 ADD MSTORE MLOAD PUSH1 0x60 DUP7 ADD MSTORE MLOAD PUSH1 0x80 DUP6 ADD MSTORE MLOAD AND PUSH1 0xA0 DUP4 ADD MSTORE MLOAD PUSH2 0x170C DUP2 PUSH2 0x2175 JUMP JUMPDEST PUSH1 0xC0 DUP3 ADD MSTORE RETURN JUMPDEST CALLVALUE PUSH2 0x2E7 JUMPI PUSH1 0x20 CALLDATASIZE PUSH1 0x3 NOT ADD SLT PUSH2 0x2E7 JUMPI PUSH1 0x4 CALLDATALOAD PUSH1 0x0 MSTORE PUSH1 0xD PUSH1 0x20 MSTORE PUSH1 0x40 PUSH1 0x0 KECCAK256 PUSH1 0x40 MLOAD SWAP1 DUP2 PUSH1 0x20 DUP3 SLOAD SWAP2 DUP3 DUP2 MSTORE ADD SWAP2 PUSH1 0x0 MSTORE PUSH1 0x20 PUSH1 0x0 KECCAK256 SWAP1 PUSH1 0x0 JUMPDEST DUP2 DUP2 LT PUSH2 0x1766 JUMPI PUSH2 0x359 DUP6 PUSH2 0x34D DUP2 DUP8 SUB DUP3 PUSH2 0x22BC JUMP JUMPDEST DUP3 SLOAD DUP5 MSTORE PUSH1 0x20 SWAP1 SWAP4 ADD SWAP3 PUSH1 0x1 SWAP3 DUP4 ADD SWAP3 ADD PUSH2 0x174F JUMP JUMPDEST CALLVALUE PUSH2 0x2E7 JUMPI PUSH1 0x20 CALLDATASIZE PUSH1 0x3 NOT ADD SLT PUSH2 0x2E7 JUMPI PUSH1 0x4 CALLDATALOAD PUSH2 0x1798 PUSH2 0x2831 JUMP JUMPDEST CALLER PUSH1 0x0 SWAP1 DUP2 MSTORE PUSH1 0x0 DUP1 MLOAD PUSH1 0x20 PUSH2 0x2871 DUP4 CODECOPY DUP2 MLOAD SWAP2 MSTORE PUSH1 0x20 MSTORE PUSH1 0x40 SWAP1 KECCAK256 SLOAD PUSH2 0x17C1 SWAP1 PUSH1 0xFF AND PUSH2 0x21CF JUMP JUMPDEST DUP1 PUSH1 0x0 MSTORE PUSH1 0xA PUSH1 0x20 MSTORE PUSH1 0x40 PUSH1 0x0 KECCAK256 PUSH1 0x4 DUP2 ADD SWAP1 DUP2 SLOAD SWAP1 PUSH1 0x1 PUSH1 0xFF DUP4 PUSH1 0x10 SHR AND PUSH2 0x17E9 DUP2 PUSH2 0x2175 JUMP JUMPDEST SUB PUSH2 0x187E JUMPI PUSH32 0x167EC52C899193A7C2813AAFF9DD05F569BEADBFCC8FE125E44AA4970DCE48DE SWAP3 PUSH1 0x0 SWAP2 PUSH2 0xFFFF PUSH1 0x3 DUP3 ADD SLOAD SWAP5 AND DUP1 ISZERO ISZERO DUP1 PUSH2 0x186A JUMPI JUMPDEST PUSH2 0x184D JUMPI JUMPDEST POP PUSH1 0x1 ADD SWAP2 PUSH2 0x832 PUSH1 0x0 DUP1 DUP1 DUP1 DUP9 PUSH1 0x1 DUP1 PUSH1 0xA0 SHL SUB DUP10 SLOAD AND GAS CALL PUSH2 0x82C PUSH2 0x2437 JUMP JUMPDEST DUP5 SWAP4 POP PUSH2 0x2710 PUSH2 0x8AA PUSH2 0x1863 SWAP3 PUSH1 0x1 SWAP5 SWAP8 PUSH2 0x225B JUMP JUMPDEST SWAP4 SWAP1 PUSH2 0x182B JUMP JUMPDEST POP PUSH1 0x4 SLOAD PUSH1 0x1 PUSH1 0x1 PUSH1 0xA0 SHL SUB AND ISZERO ISZERO PUSH2 0x1826 JUMP JUMPDEST PUSH1 0x40 MLOAD PUSH3 0x461BCD PUSH1 0xE5 SHL DUP2 MSTORE PUSH1 0x20 PUSH1 0x4 DUP3 ADD MSTORE PUSH1 0xA PUSH1 0x24 DUP3 ADD MSTORE PUSH10 0x139BDD081B1BD8DAD959 PUSH1 0xB2 SHL PUSH1 0x44 DUP3 ADD MSTORE PUSH1 0x64 SWAP1 REVERT JUMPDEST CALLVALUE PUSH2 0x2E7 JUMPI PUSH1 0x0 CALLDATASIZE PUSH1 0x3 NOT ADD SLT PUSH2 0x2E7 JUMPI PUSH1 0x20 PUSH1 0xFF PUSH1 0x1 SLOAD AND PUSH1 0x40 MLOAD SWAP1 ISZERO ISZERO DUP2 MSTORE RETURN JUMPDEST CALLVALUE PUSH2 0x2E7 JUMPI PUSH1 0x20 CALLDATASIZE PUSH1 0x3 NOT ADD SLT PUSH2 0x2E7 JUMPI PUSH2 0x18EC PUSH2 0x24B3 JUMP JUMPDEST POP PUSH1 0x4 CALLDATALOAD PUSH1 0x0 MSTORE PUSH1 0x8 PUSH1 0x20 MSTORE PUSH1 0xE0 PUSH1 0x40 PUSH1 0x0 KECCAK256 PUSH1 0x40 MLOAD SWAP1 PUSH2 0x190C DUP3 PUSH2 0x226E JUMP JUMPDEST DUP1 SLOAD PUSH1 0x1 PUSH1 0x1 PUSH1 0xA0 SHL SUB AND DUP3 MSTORE PUSH1 0x1 DUP2 ADD SLOAD PUSH1 0x20 DUP4 ADD SWAP1 DUP2 MSTORE PUSH1 0x2 DUP3 ADD SLOAD PUSH1 0x40 DUP5 ADD SWAP1 DUP2 MSTORE PUSH1 0x3 DUP4 ADD SLOAD PUSH1 0x60 DUP6 ADD SWAP1 DUP2 MSTORE PUSH1 0x4 DUP5 ADD SLOAD PUSH1 0x80 DUP7 ADD SWAP1 DUP2 MSTORE PUSH1 0x5 DUP6 ADD SLOAD PUSH1 0xA0 DUP8 ADD SWAP1 DUP2 MSTORE PUSH1 0x6 SWAP1 SWAP6 ADD SLOAD PUSH1 0xC0 DUP8 ADD SWAP6 SWAP5 SWAP2 SWAP4 SWAP2 SWAP1 PUSH1 0xFF AND PUSH2 0x1971 DUP2 PUSH2 0x2175 JUMP JUMPDEST DUP7 MSTORE PUSH1 0x40 DUP1 MLOAD SWAP8 MLOAD PUSH1 0x1 PUSH1 0x1 PUSH1 0xA0 SHL SUB AND DUP9 MSTORE SWAP1 MLOAD PUSH1 0x20 DUP9 ADD MSTORE SWAP1 MLOAD SWAP1 DUP7 ADD MSTORE MLOAD PUSH1 0x60 DUP6 ADD MSTORE MLOAD PUSH1 0x80 DUP5 ADD MSTORE MLOAD PUSH1 0xA0 DUP4 ADD MSTORE MLOAD PUSH2 0x170C DUP2 PUSH2 0x2175 JUMP JUMPDEST CALLVALUE PUSH2 0x2E7 JUMPI PUSH1 0x20 CALLDATASIZE PUSH1 0x3 NOT ADD SLT PUSH2 0x2E7 JUMPI PUSH1 0x4 CALLDATALOAD PUSH2 0x19C9 PUSH2 0x2831 JUMP JUMPDEST CALLER PUSH1 0x0 SWAP1 DUP2 MSTORE PUSH1 0x0 DUP1 MLOAD PUSH1 0x20 PUSH2 0x2871 DUP4 CODECOPY DUP2 MLOAD SWAP2 MSTORE PUSH1 0x20 MSTORE PUSH1 0x40 SWAP1 KECCAK256 SLOAD PUSH2 0x19F2 SWAP1 PUSH1 0xFF AND PUSH2 0x21CF JUMP JUMPDEST DUP1 PUSH1 0x0 MSTORE PUSH1 0xA PUSH1 0x20 MSTORE PUSH1 0x40 PUSH1 0x0 KECCAK256 PUSH2 0x1A23 PUSH1 0x0 DUP1 DUP1 DUP1 PUSH1 0x4 DUP7 ADD SWAP6 PUSH2 0x4EE PUSH1 0x1 PUSH1 0xFF DUP10 SLOAD PUSH1 0x10 SHR AND PUSH2 0x1122 DUP2 PUSH2 0x2175 JUMP JUMPDEST DUP1 SLOAD PUSH3 0xFF0000 NOT AND PUSH3 0x40000 OR SWAP1 SSTORE PUSH32 0xF903F4774C7BD27355F9D7FCBC382B079B164A697A44AC5D95267A4C3CB3BB22 PUSH1 0x0 DUP1 LOG2 PUSH1 0x1 PUSH1 0x0 SSTORE STOP JUMPDEST CALLVALUE PUSH2 0x2E7 JUMPI PUSH1 0x60 CALLDATASIZE PUSH1 0x3 NOT ADD SLT PUSH2 0x2E7 JUMPI PUSH1 0x4 CALLDATALOAD PUSH1 0x0 DUP2 DUP2 MSTORE PUSH1 0x8 PUSH1 0x20 MSTORE PUSH1 0x40 SWAP1 KECCAK256 SLOAD PUSH1 0x44 CALLDATALOAD SWAP2 PUSH1 0x24 CALLDATALOAD SWAP2 PUSH2 0x1A9D SWAP1 PUSH1 0x1 PUSH1 0x1 PUSH1 0xA0 SHL SUB AND ISZERO ISZERO PUSH2 0x2343 JUMP JUMPDEST PUSH1 0x0 MSTORE PUSH1 0x8 PUSH1 0x20 MSTORE PUSH1 0x40 PUSH1 0x0 KECCAK256 PUSH2 0x1ABE PUSH1 0x1 DUP1 PUSH1 0xA0 SHL SUB DUP3 SLOAD AND CALLER EQ PUSH2 0x2386 JUMP JUMPDEST PUSH2 0x1AD4 PUSH1 0x1 PUSH1 0xFF PUSH1 0x6 DUP5 ADD SLOAD AND PUSH2 0x690 DUP2 PUSH2 0x2175 JUMP JUMPDEST PUSH2 0x1ADF DUP3 DUP5 GT PUSH2 0x23BF JUMP JUMPDEST PUSH1 0x1 DUP2 ADD SLOAD DUP4 GT PUSH2 0x1AF9 JUMPI PUSH1 0x4 SWAP2 PUSH1 0x3 DUP3 ADD SSTORE ADD SSTORE PUSH1 0x0 DUP1 RETURN JUMPDEST PUSH1 0x40 MLOAD PUSH3 0x461BCD PUSH1 0xE5 SHL DUP2 MSTORE PUSH1 0x20 PUSH1 0x4 DUP3 ADD MSTORE PUSH1 0x11 PUSH1 0x24 DUP3 ADD MSTORE PUSH17 0x13585E08195E18D959591CC81D1BDD185B PUSH1 0x7A SHL PUSH1 0x44 DUP3 ADD MSTORE PUSH1 0x64 SWAP1 REVERT JUMPDEST CALLVALUE PUSH2 0x2E7 JUMPI PUSH1 0x0 CALLDATASIZE PUSH1 0x3 NOT ADD SLT PUSH2 0x2E7 JUMPI PUSH1 0x20 PUSH1 0x5 SLOAD PUSH1 0x40 MLOAD SWAP1 DUP2 MSTORE RETURN JUMPDEST CALLVALUE PUSH2 0x2E7 JUMPI PUSH1 0x0 CALLDATASIZE PUSH1 0x3 NOT ADD SLT PUSH2 0x2E7 JUMPI PUSH2 0x1B69 PUSH2 0x266D JUMP JUMPDEST PUSH1 0x1 SLOAD PUSH1 0xFF DUP2 AND ISZERO PUSH2 0x1BA8 JUMPI PUSH1 0xFF NOT AND PUSH1 0x1 SSTORE PUSH32 0x5DB9EE0A495BF2E6FF9C91A7834C1BA4FDD244A5E8AA4E537BD38AEAE4B073AA PUSH1 0x20 PUSH1 0x40 MLOAD CALLER DUP2 MSTORE LOG1 STOP JUMPDEST PUSH4 0x8DFC202B PUSH1 0xE0 SHL PUSH1 0x0 MSTORE PUSH1 0x4 PUSH1 0x0 REVERT JUMPDEST CALLVALUE PUSH2 0x2E7 JUMPI PUSH1 0x40 CALLDATASIZE PUSH1 0x3 NOT ADD SLT PUSH2 0x2E7 JUMPI PUSH2 0x1BD2 PUSH2 0x215F JUMP JUMPDEST CALLER PUSH1 0x1 PUSH1 0x1 PUSH1 0xA0 SHL SUB DUP3 AND SUB PUSH2 0x1BEE JUMPI PUSH2 0x5AA SWAP1 PUSH1 0x4 CALLDATALOAD PUSH2 0x27AB JUMP JUMPDEST PUSH4 0x334BD919 PUSH1 0xE1 SHL PUSH1 0x0 MSTORE PUSH1 0x4 PUSH1 0x0 REVERT JUMPDEST CALLVALUE PUSH2 0x2E7 JUMPI PUSH1 0x40 CALLDATASIZE PUSH1 0x3 NOT ADD SLT PUSH2 0x2E7 JUMPI PUSH2 0x5AA PUSH1 0x4 CALLDATALOAD PUSH2 0x1C1E PUSH2 0x215F JUMP JUMPDEST SWAP1 PUSH2 0x1C3A PUSH2 0x5A0 DUP3 PUSH1 0x0 MSTORE PUSH1 0x2 PUSH1 0x20 MSTORE PUSH1 0x1 PUSH1 0x40 PUSH1 0x0 KECCAK256 ADD SLOAD SWAP1 JUMP JUMPDEST PUSH2 0x271C JUMP JUMPDEST CALLVALUE PUSH2 0x2E7 JUMPI PUSH1 0x20 CALLDATASIZE PUSH1 0x3 NOT ADD SLT PUSH2 0x2E7 JUMPI PUSH1 0x4 CALLDATALOAD PUSH2 0xFFFF DUP2 AND DUP1 DUP3 SUB PUSH2 0x2E7 JUMPI PUSH2 0x3E8 SWAP1 PUSH2 0x1C6B PUSH2 0x266D JUMP JUMPDEST GT PUSH2 0x1C91 JUMPI PUSH1 0x4 DUP1 SLOAD PUSH2 0xFFFF PUSH1 0xA0 SHL NOT AND PUSH1 0xA0 SWAP3 SWAP1 SWAP3 SHL PUSH2 0xFFFF PUSH1 0xA0 SHL AND SWAP2 SWAP1 SWAP2 OR SWAP1 SSTORE STOP JUMPDEST PUSH1 0x40 MLOAD PUSH3 0x461BCD PUSH1 0xE5 SHL DUP2 MSTORE PUSH1 0x20 PUSH1 0x4 DUP3 ADD MSTORE PUSH1 0xC PUSH1 0x24 DUP3 ADD MSTORE PUSH12 0x8CCACA40E8DEDE40D0D2CED PUSH1 0xA3 SHL PUSH1 0x44 DUP3 ADD MSTORE PUSH1 0x64 SWAP1 REVERT JUMPDEST CALLVALUE PUSH2 0x2E7 JUMPI PUSH1 0x0 CALLDATASIZE PUSH1 0x3 NOT ADD SLT PUSH2 0x2E7 JUMPI PUSH1 0x3 SLOAD PUSH1 0x40 MLOAD PUSH1 0x1 PUSH1 0x1 PUSH1 0xA0 SHL SUB SWAP1 SWAP2 AND DUP2 MSTORE PUSH1 0x20 SWAP1 RETURN JUMPDEST CALLVALUE PUSH2 0x2E7 JUMPI PUSH1 0x20 CALLDATASIZE PUSH1 0x3 NOT ADD SLT PUSH2 0x2E7 JUMPI PUSH1 0x20 PUSH2 0x1D1B PUSH1 0x4 CALLDATALOAD PUSH1 0x0 MSTORE PUSH1 0x2 PUSH1 0x20 MSTORE PUSH1 0x1 PUSH1 0x40 PUSH1 0x0 KECCAK256 ADD SLOAD SWAP1 JUMP JUMPDEST PUSH1 0x40 MLOAD SWAP1 DUP2 MSTORE RETURN JUMPDEST CALLVALUE PUSH2 0x2E7 JUMPI PUSH1 0x20 CALLDATASIZE PUSH1 0x3 NOT ADD SLT PUSH2 0x2E7 JUMPI PUSH2 0x1D3C PUSH2 0x2149 JUMP JUMPDEST PUSH2 0x1D44 PUSH2 0x266D JUMP JUMPDEST PUSH1 0x1 PUSH1 0x1 PUSH1 0xA0 SHL SUB AND DUP1 ISZERO PUSH2 0x1D6B JUMPI PUSH1 0x1 PUSH1 0x1 PUSH1 0x60 SHL SUB PUSH1 0xA0 SHL PUSH1 0x3 SLOAD AND OR PUSH1 0x3 SSTORE PUSH1 0x0 DUP1 RETURN JUMPDEST PUSH1 0x40 MLOAD PUSH3 0x461BCD PUSH1 0xE5 SHL DUP2 MSTORE PUSH1 0x20 PUSH1 0x4 DUP3 ADD MSTORE PUSH1 0xE PUSH1 0x24 DUP3 ADD MSTORE PUSH14 0x496E76616C6964206F7261636C65 PUSH1 0x90 SHL PUSH1 0x44 DUP3 ADD MSTORE PUSH1 0x64 SWAP1 REVERT JUMPDEST CALLVALUE PUSH2 0x2E7 JUMPI PUSH1 0x80 CALLDATASIZE PUSH1 0x3 NOT ADD SLT PUSH2 0x2E7 JUMPI PUSH1 0x24 CALLDATALOAD PUSH1 0x4 CALLDATALOAD PUSH1 0x44 CALLDATALOAD PUSH1 0x1 PUSH1 0x1 PUSH1 0xA0 SHL SUB DUP2 AND SWAP1 DUP2 DUP2 SUB PUSH2 0x2E7 JUMPI CALLER PUSH1 0x0 SWAP1 DUP2 MSTORE PUSH1 0x0 DUP1 MLOAD PUSH1 0x20 PUSH2 0x2871 DUP4 CODECOPY DUP2 MLOAD SWAP2 MSTORE PUSH1 0x20 MSTORE PUSH1 0x40 SWAP1 KECCAK256 SLOAD PUSH1 0x64 CALLDATALOAD SWAP2 SWAP1 PUSH2 0x1DFB SWAP1 PUSH1 0xFF AND PUSH2 0x21CF JUMP JUMPDEST DUP5 PUSH1 0x0 MSTORE PUSH1 0x8 PUSH1 0x20 MSTORE PUSH1 0x40 PUSH1 0x0 KECCAK256 SWAP2 PUSH2 0x1E20 PUSH1 0x1 PUSH1 0xFF PUSH1 0x6 DUP7 ADD SLOAD AND PUSH2 0x690 DUP2 PUSH2 0x2175 JUMP JUMPDEST PUSH1 0x2 DUP4 ADD SWAP4 DUP5 SLOAD SWAP5 DUP6 DUP4 GT PUSH2 0x2008 JUMPI PUSH1 0x3 DUP6 ADD SLOAD DUP4 LT ISZERO DUP1 PUSH2 0x1FFA JUMPI JUMPDEST ISZERO PUSH2 0x1FC4 JUMPI PUSH2 0xFFFF DUP1 PUSH1 0x5 DUP11 DUP7 DUP12 SWAP6 PUSH2 0x1E7A PUSH2 0x1F7E SWAP10 PUSH32 0x7450E1364879CFF4A1F1F2AA6C91DE7BA540801FE2ABB06FC6A5A8D3B8F670A4 SWAP14 PUSH2 0x224E JUMP JUMPDEST SWAP1 SSTORE DUP3 DUP11 ADD SLOAD SWAP1 PUSH8 0xDE0B6B3A7640000 PUSH2 0x1E94 DUP4 DUP4 PUSH2 0x225B JUMP JUMPDEST SWAP12 SLOAD PUSH1 0x4 SLOAD SWAP2 SWAP1 SWAP13 DIV SWAP12 PUSH1 0x1 PUSH1 0x1 PUSH1 0xA0 SHL SUB SWAP1 DUP2 AND SWAP10 SWAP2 SWAP1 DUP2 AND ISZERO PUSH2 0x1FBB JUMPI PUSH1 0xA0 SHR DUP7 AND SWAP9 JUMPDEST PUSH1 0x40 MLOAD SWAP5 PUSH2 0x1EC7 DUP7 PUSH2 0x226E JUMP JUMPDEST DUP6 MSTORE PUSH1 0x20 DUP6 ADD SWAP1 DUP2 MSTORE PUSH1 0x40 DUP6 ADD SWAP2 DUP3 MSTORE PUSH1 0x60 DUP6 ADD SWAP3 DUP4 MSTORE PUSH1 0x80 DUP6 ADD SWAP4 DUP5 MSTORE DUP7 PUSH1 0xA0 DUP7 ADD SWAP11 AND DUP11 MSTORE PUSH1 0xC0 DUP6 ADD SWAP9 PUSH1 0x1 DUP11 MSTORE PUSH1 0x0 MSTORE PUSH1 0x9 PUSH1 0x20 MSTORE PUSH1 0x40 PUSH1 0x0 KECCAK256 SWAP5 MLOAD DUP6 SSTORE PUSH1 0x1 DUP1 PUSH1 0xA0 SHL SUB SWAP1 MLOAD AND PUSH1 0x1 DUP6 ADD SWAP1 PUSH1 0x1 DUP1 PUSH1 0xA0 SHL SUB AND PUSH1 0x1 PUSH1 0x1 PUSH1 0x60 SHL SUB PUSH1 0xA0 SHL DUP3 SLOAD AND OR SWAP1 SSTORE PUSH1 0x1 DUP1 PUSH1 0xA0 SHL SUB SWAP1 MLOAD AND PUSH1 0x2 DUP5 ADD SWAP1 PUSH1 0x1 DUP1 PUSH1 0xA0 SHL SUB AND PUSH1 0x1 PUSH1 0x1 PUSH1 0x60 SHL SUB PUSH1 0xA0 SHL DUP3 SLOAD AND OR SWAP1 SSTORE MLOAD PUSH1 0x3 DUP4 ADD SSTORE MLOAD PUSH1 0x4 DUP3 ADD SSTORE ADD SWAP4 MLOAD AND AND PUSH2 0xFFFF NOT DUP4 SLOAD AND OR DUP3 SSTORE MLOAD SWAP1 PUSH2 0xF69 DUP3 PUSH2 0x2175 JUMP JUMPDEST DUP5 PUSH1 0x0 MSTORE PUSH1 0xD PUSH1 0x20 MSTORE PUSH2 0x1F95 DUP5 PUSH1 0x40 PUSH1 0x0 KECCAK256 PUSH2 0x22FF JUMP JUMPDEST PUSH1 0x40 DUP1 MLOAD PUSH1 0x1 PUSH1 0x1 PUSH1 0xA0 SHL SUB SWAP3 SWAP1 SWAP3 AND DUP3 MSTORE PUSH1 0x20 DUP3 ADD SWAP3 SWAP1 SWAP3 MSTORE LOG3 PUSH1 0x20 PUSH1 0x40 MLOAD PUSH1 0x1 DUP2 MSTORE RETURN JUMPDEST POP PUSH1 0x0 SWAP9 PUSH2 0x1EBA JUMP JUMPDEST PUSH1 0x40 MLOAD PUSH3 0x461BCD PUSH1 0xE5 SHL DUP2 MSTORE PUSH1 0x20 PUSH1 0x4 DUP3 ADD MSTORE PUSH1 0xE PUSH1 0x24 DUP3 ADD MSTORE PUSH14 0x125B9D985B1A5908185B5BDD5B9D PUSH1 0x92 SHL PUSH1 0x44 DUP3 ADD MSTORE PUSH1 0x64 SWAP1 REVERT JUMPDEST POP PUSH1 0x4 DUP6 ADD SLOAD DUP4 GT ISZERO PUSH2 0x1E3D JUMP JUMPDEST PUSH1 0x40 MLOAD PUSH3 0x461BCD PUSH1 0xE5 SHL DUP2 MSTORE PUSH1 0x20 PUSH1 0x4 DUP3 ADD MSTORE PUSH1 0x10 PUSH1 0x24 DUP3 ADD MSTORE PUSH16 0x496E73756666696369656E742050494F PUSH1 0x80 SHL PUSH1 0x44 DUP3 ADD MSTORE PUSH1 0x64 SWAP1 REVERT JUMPDEST CALLVALUE PUSH2 0x2E7 JUMPI PUSH1 0x0 CALLDATASIZE PUSH1 0x3 NOT ADD SLT PUSH2 0x2E7 JUMPI PUSH1 0x20 PUSH1 0x40 MLOAD PUSH32 0x751B795D24B92E3D92D1D0D8F2885F4E9C9C269DA350AF36AE6B49069BABF4BF DUP2 MSTORE RETURN JUMPDEST CALLVALUE PUSH2 0x2E7 JUMPI PUSH1 0x20 CALLDATASIZE PUSH1 0x3 NOT ADD SLT PUSH2 0x2E7 JUMPI PUSH32 0x773A87E376146D289E58CC5C3935090DCFD914409BAA2D904198A8B541E5C44F PUSH1 0x40 PUSH1 0x4 CALLDATALOAD PUSH2 0x20BA PUSH2 0x266D JUMP JUMPDEST PUSH1 0x5 SLOAD SWAP1 DUP1 PUSH1 0x5 SSTORE DUP3 MLOAD SWAP2 DUP3 MSTORE PUSH1 0x20 DUP3 ADD MSTORE LOG1 STOP JUMPDEST CALLVALUE PUSH2 0x2E7 JUMPI PUSH1 0x20 CALLDATASIZE PUSH1 0x3 NOT ADD SLT PUSH2 0x2E7 JUMPI PUSH1 0x4 CALLDATALOAD PUSH4 0xFFFFFFFF PUSH1 0xE0 SHL DUP2 AND DUP1 SWAP2 SUB PUSH2 0x2E7 JUMPI PUSH1 0x20 SWAP1 PUSH4 0x7965DB0B PUSH1 0xE0 SHL DUP2 EQ SWAP1 DUP2 ISZERO PUSH2 0x2114 JUMPI JUMPDEST POP PUSH1 0x40 MLOAD SWAP1 ISZERO ISZERO DUP2 MSTORE RETURN JUMPDEST PUSH4 0x1FFC9A7 PUSH1 0xE0 SHL EQ SWAP1 POP DUP3 PUSH2 0x2109 JUMP JUMPDEST CALLVALUE PUSH2 0x2E7 JUMPI PUSH1 0x0 CALLDATASIZE PUSH1 0x3 NOT ADD SLT PUSH2 0x2E7 JUMPI PUSH1 0x4 SLOAD PUSH1 0x1 PUSH1 0x1 PUSH1 0xA0 SHL SUB AND DUP2 MSTORE PUSH1 0x20 SWAP1 RETURN JUMPDEST PUSH1 0x4 CALLDATALOAD SWAP1 PUSH1 0x1 PUSH1 0x1 PUSH1 0xA0 SHL SUB DUP3 AND DUP3 SUB PUSH2 0x2E7 JUMPI JUMP JUMPDEST PUSH1 0x24 CALLDATALOAD SWAP1 PUSH1 0x1 PUSH1 0x1 PUSH1 0xA0 SHL SUB DUP3 AND DUP3 SUB PUSH2 0x2E7 JUMPI JUMP JUMPDEST PUSH1 0x5 GT ISZERO PUSH2 0x217F JUMPI JUMP JUMPDEST PUSH4 0x4E487B71 PUSH1 0xE0 SHL PUSH1 0x0 MSTORE PUSH1 0x21 PUSH1 0x4 MSTORE PUSH1 0x24 PUSH1 0x0 REVERT JUMPDEST PUSH1 0x20 PUSH1 0x40 DUP2 DUP4 ADD SWAP3 DUP3 DUP2 MSTORE DUP5 MLOAD DUP1 SWAP5 MSTORE ADD SWAP3 ADD SWAP1 PUSH1 0x0 JUMPDEST DUP2 DUP2 LT PUSH2 0x21B9 JUMPI POP POP POP SWAP1 JUMP JUMPDEST DUP3 MLOAD DUP5 MSTORE PUSH1 0x20 SWAP4 DUP5 ADD SWAP4 SWAP1 SWAP3 ADD SWAP2 PUSH1 0x1 ADD PUSH2 0x21AC JUMP JUMPDEST ISZERO PUSH2 0x21D6 JUMPI JUMP JUMPDEST PUSH1 0x40 MLOAD PUSH3 0x461BCD PUSH1 0xE5 SHL DUP2 MSTORE PUSH1 0x20 PUSH1 0x4 DUP3 ADD MSTORE PUSH1 0x11 PUSH1 0x24 DUP3 ADD MSTORE PUSH17 0x27B7363C90313934B233B29030B236B4B7 PUSH1 0x79 SHL PUSH1 0x44 DUP3 ADD MSTORE PUSH1 0x64 SWAP1 REVERT JUMPDEST ISZERO PUSH2 0x2216 JUMPI JUMP JUMPDEST PUSH1 0x40 MLOAD PUSH3 0x461BCD PUSH1 0xE5 SHL DUP2 MSTORE PUSH1 0x20 PUSH1 0x4 DUP3 ADD MSTORE PUSH1 0x10 PUSH1 0x24 DUP3 ADD MSTORE PUSH16 0x4F72646572206E6F7420616374697665 PUSH1 0x80 SHL PUSH1 0x44 DUP3 ADD MSTORE PUSH1 0x64 SWAP1 REVERT JUMPDEST SWAP2 SWAP1 DUP3 SUB SWAP2 DUP3 GT PUSH2 0x95E JUMPI JUMP JUMPDEST DUP2 DUP2 MUL SWAP3 SWAP2 DUP2 ISZERO SWAP2 DUP5 DIV EQ OR ISZERO PUSH2 0x95E JUMPI JUMP JUMPDEST PUSH1 0xE0 DUP2 ADD SWAP1 DUP2 LT PUSH8 0xFFFFFFFFFFFFFFFF DUP3 GT OR PUSH2 0x228A JUMPI PUSH1 0x40 MSTORE JUMP JUMPDEST PUSH4 0x4E487B71 PUSH1 0xE0 SHL PUSH1 0x0 MSTORE PUSH1 0x41 PUSH1 0x4 MSTORE PUSH1 0x24 PUSH1 0x0 REVERT JUMPDEST PUSH1 0xC0 DUP2 ADD SWAP1 DUP2 LT PUSH8 0xFFFFFFFFFFFFFFFF DUP3 GT OR PUSH2 0x228A JUMPI PUSH1 0x40 MSTORE JUMP JUMPDEST SWAP1 PUSH1 0x1F DUP1 NOT SWAP2 ADD AND DUP2 ADD SWAP1 DUP2 LT PUSH8 0xFFFFFFFFFFFFFFFF DUP3 GT OR PUSH2 0x228A JUMPI PUSH1 0x40 MSTORE JUMP JUMPDEST SWAP1 PUSH2 0x22E8 DUP2 PUSH2 0x2175 JUMP JUMPDEST PUSH3 0xFF0000 DUP3 SLOAD SWAP2 PUSH1 0x10 SHL AND SWAP1 PUSH3 0xFF0000 NOT AND OR SWAP1 SSTORE JUMP JUMPDEST DUP1 SLOAD SWAP1 PUSH9 0x10000000000000000 DUP3 LT ISZERO PUSH2 0x228A JUMPI PUSH1 0x1 DUP3 ADD DUP1 DUP3 SSTORE DUP3 LT ISZERO PUSH2 0x232D JUMPI PUSH1 0x0 MSTORE PUSH1 0x20 PUSH1 0x0 KECCAK256 ADD SSTORE JUMP JUMPDEST PUSH4 0x4E487B71 PUSH1 0xE0 SHL PUSH1 0x0 MSTORE PUSH1 0x32 PUSH1 0x4 MSTORE PUSH1 0x24 PUSH1 0x0 REVERT JUMPDEST ISZERO PUSH2 0x234A JUMPI JUMP JUMPDEST PUSH1 0x40 MLOAD PUSH3 0x461BCD PUSH1 0xE5 SHL DUP2 MSTORE PUSH1 0x20 PUSH1 0x4 DUP3 ADD MSTORE PUSH1 0x14 PUSH1 0x24 DUP3 ADD MSTORE PUSH20 0x13DC99195C88191BD95CC81B9BDD08195E1A5CDD PUSH1 0x62 SHL PUSH1 0x44 DUP3 ADD MSTORE PUSH1 0x64 SWAP1 REVERT JUMPDEST ISZERO PUSH2 0x238D JUMPI JUMP JUMPDEST PUSH1 0x40 MLOAD PUSH3 0x461BCD PUSH1 0xE5 SHL DUP2 MSTORE PUSH1 0x20 PUSH1 0x4 DUP3 ADD MSTORE PUSH1 0xA PUSH1 0x24 DUP3 ADD MSTORE PUSH10 0x2737BA1039B2B63632B9 PUSH1 0xB1 SHL PUSH1 0x44 DUP3 ADD MSTORE PUSH1 0x64 SWAP1 REVERT JUMPDEST ISZERO PUSH2 0x23C6 JUMPI JUMP JUMPDEST PUSH1 0x40 MLOAD PUSH3 0x461BCD PUSH1 0xE5 SHL DUP2 MSTORE PUSH1 0x20 PUSH1 0x4 DUP3 ADD MSTORE PUSH1 0xD PUSH1 0x24 DUP3 ADD MSTORE PUSH13 0x496E76616C69642072616E6765 PUSH1 0x98 SHL PUSH1 0x44 DUP3 ADD MSTORE PUSH1 0x64 SWAP1 REVERT JUMPDEST ISZERO PUSH2 0x2402 JUMPI JUMP JUMPDEST PUSH1 0x40 MLOAD PUSH3 0x461BCD PUSH1 0xE5 SHL DUP2 MSTORE PUSH1 0x20 PUSH1 0x4 DUP3 ADD MSTORE PUSH1 0xD PUSH1 0x24 DUP3 ADD MSTORE PUSH13 0x10D85B9B9BDD0818D85B98D95B PUSH1 0x9A SHL PUSH1 0x44 DUP3 ADD MSTORE PUSH1 0x64 SWAP1 REVERT JUMPDEST RETURNDATASIZE ISZERO PUSH2 0x2472 JUMPI RETURNDATASIZE SWAP1 PUSH8 0xFFFFFFFFFFFFFFFF DUP3 GT PUSH2 0x228A JUMPI PUSH1 0x40 MLOAD SWAP2 PUSH2 0x2466 PUSH1 0x1F DUP3 ADD PUSH1 0x1F NOT AND PUSH1 0x20 ADD DUP5 PUSH2 0x22BC JUMP JUMPDEST DUP3 MSTORE RETURNDATASIZE PUSH1 0x0 PUSH1 0x20 DUP5 ADD RETURNDATACOPY JUMP JUMPDEST PUSH1 0x60 SWAP1 JUMP JUMPDEST ISZERO PUSH2 0x247E JUMPI JUMP JUMPDEST PUSH1 0x40 MLOAD PUSH3 0x461BCD PUSH1 0xE5 SHL DUP2 MSTORE PUSH1 0x20 PUSH1 0x4 DUP3 ADD MSTORE PUSH1 0xD PUSH1 0x24 DUP3 ADD MSTORE PUSH13 0x1499599D5B990819985A5B1959 PUSH1 0x9A SHL PUSH1 0x44 DUP3 ADD MSTORE PUSH1 0x64 SWAP1 REVERT JUMPDEST PUSH1 0x40 MLOAD SWAP1 PUSH2 0x24C0 DUP3 PUSH2 0x226E JUMP JUMPDEST PUSH1 0x0 PUSH1 0xC0 DUP4 DUP3 DUP2 MSTORE DUP3 PUSH1 0x20 DUP3 ADD MSTORE DUP3 PUSH1 0x40 DUP3 ADD MSTORE DUP3 PUSH1 0x60 DUP3 ADD MSTORE DUP3 PUSH1 0x80 DUP3 ADD MSTORE DUP3 PUSH1 0xA0 DUP3 ADD MSTORE ADD MSTORE JUMP JUMPDEST ISZERO PUSH2 0x24F1 JUMPI JUMP JUMPDEST PUSH1 0x40 MLOAD PUSH3 0x461BCD PUSH1 0xE5 SHL DUP2 MSTORE PUSH1 0x20 PUSH1 0x4 DUP3 ADD MSTORE PUSH1 0xF PUSH1 0x24 DUP3 ADD MSTORE PUSH15 0x151C985B9CD9995C8819985A5B1959 PUSH1 0x8A SHL PUSH1 0x44 DUP3 ADD MSTORE PUSH1 0x64 SWAP1 REVERT JUMPDEST ISZERO PUSH2 0x252F JUMPI JUMP JUMPDEST PUSH1 0x40 MLOAD PUSH3 0x461BCD PUSH1 0xE5 SHL DUP2 MSTORE PUSH1 0x20 PUSH1 0x4 DUP3 ADD MSTORE PUSH1 0x13 PUSH1 0x24 DUP3 ADD MSTORE PUSH19 0x119959481D1C985B9CD9995C8819985A5B1959 PUSH1 0x6A SHL PUSH1 0x44 DUP3 ADD MSTORE PUSH1 0x64 SWAP1 REVERT JUMPDEST SWAP2 SWAP1 DUP3 ADD DUP1 SWAP3 GT PUSH2 0x95E JUMPI JUMP JUMPDEST ISZERO PUSH2 0x257E JUMPI JUMP JUMPDEST PUSH1 0x40 MLOAD PUSH3 0x461BCD PUSH1 0xE5 SHL DUP2 MSTORE PUSH1 0x20 PUSH1 0x4 DUP3 ADD MSTORE PUSH1 0x12 PUSH1 0x24 DUP3 ADD MSTORE PUSH18 0x125B9D985B1A5908141253C8185B5BDD5B9D PUSH1 0x72 SHL PUSH1 0x44 DUP3 ADD MSTORE PUSH1 0x64 SWAP1 REVERT JUMPDEST PUSH1 0x0 NOT DUP2 EQ PUSH2 0x95E JUMPI PUSH1 0x1 ADD SWAP1 JUMP JUMPDEST PUSH2 0xFFFF AND PUSH2 0x2710 SUB SWAP1 PUSH2 0xFFFF DUP3 GT PUSH2 0x95E JUMPI JUMP JUMPDEST PUSH2 0xFFFF AND PUSH2 0x2710 ADD SWAP1 PUSH2 0xFFFF DUP3 GT PUSH2 0x95E JUMPI JUMP JUMPDEST ISZERO PUSH2 0x25F6 JUMPI JUMP JUMPDEST PUSH1 0x40 MLOAD PUSH3 0x461BCD PUSH1 0xE5 SHL DUP2 MSTORE PUSH1 0x20 PUSH1 0x4 DUP3 ADD MSTORE PUSH1 0x12 PUSH1 0x24 DUP3 ADD MSTORE PUSH18 0x5072696365206F7574206F662072616E6765 PUSH1 0x70 SHL PUSH1 0x44 DUP3 ADD MSTORE PUSH1 0x64 SWAP1 REVERT JUMPDEST ISZERO PUSH2 0x2637 JUMPI JUMP JUMPDEST PUSH1 0x40 MLOAD PUSH3 0x461BCD PUSH1 0xE5 SHL DUP2 MSTORE PUSH1 0x20 PUSH1 0x4 DUP3 ADD MSTORE PUSH1 0xE PUSH1 0x24 DUP3 ADD MSTORE PUSH14 0x496E76616C696420737461747573 PUSH1 0x90 SHL PUSH1 0x44 DUP3 ADD MSTORE PUSH1 0x64 SWAP1 REVERT JUMPDEST CALLER PUSH1 0x0 SWAP1 DUP2 MSTORE PUSH32 0xE5EBFA64FCA8D502A8E50C1EDFFD2C31EF4DAD5B396E65D9F397FB028F74ABC5 PUSH1 0x20 MSTORE PUSH1 0x40 SWAP1 KECCAK256 SLOAD PUSH1 0xFF AND ISZERO PUSH2 0x26A6 JUMPI JUMP JUMPDEST PUSH4 0xE2517D3F PUSH1 0xE0 SHL PUSH1 0x0 MSTORE CALLER PUSH1 0x4 MSTORE PUSH32 0xA49807205CE4D355092EF5A8A18F56E8913CF4A201FBE287825B095693C21775 PUSH1 0x24 MSTORE PUSH1 0x44 PUSH1 0x0 REVERT JUMPDEST PUSH1 0x0 DUP2 DUP2 MSTORE PUSH1 0x2 PUSH1 0x20 SWAP1 DUP2 MSTORE PUSH1 0x40 DUP1 DUP4 KECCAK256 CALLER DUP5 MSTORE SWAP1 SWAP2 MSTORE SWAP1 KECCAK256 SLOAD PUSH1 0xFF AND ISZERO PUSH2 0x2704 JUMPI POP JUMP JUMPDEST PUSH4 0xE2517D3F PUSH1 0xE0 SHL PUSH1 0x0 MSTORE CALLER PUSH1 0x4 MSTORE PUSH1 0x24 MSTORE PUSH1 0x44 PUSH1 0x0 REVERT JUMPDEST PUSH1 0x0 DUP2 DUP2 MSTORE PUSH1 0x2 PUSH1 0x20 SWAP1 DUP2 MSTORE PUSH1 0x40 DUP1 DUP4 KECCAK256 PUSH1 0x1 PUSH1 0x1 PUSH1 0xA0 SHL SUB DUP7 AND DUP5 MSTORE SWAP1 SWAP2 MSTORE SWAP1 KECCAK256 SLOAD PUSH1 0xFF AND PUSH2 0x27A4 JUMPI PUSH1 0x0 DUP2 DUP2 MSTORE PUSH1 0x2 PUSH1 0x20 SWAP1 DUP2 MSTORE PUSH1 0x40 DUP1 DUP4 KECCAK256 PUSH1 0x1 PUSH1 0x1 PUSH1 0xA0 SHL SUB SWAP6 SWAP1 SWAP6 AND DUP1 DUP5 MSTORE SWAP5 SWAP1 SWAP2 MSTORE DUP2 KECCAK256 DUP1 SLOAD PUSH1 0xFF NOT AND PUSH1 0x1 OR SWAP1 SSTORE CALLER SWAP3 SWAP2 SWAP1 PUSH32 0x2F8788117E7EFF1D82E926EC794901D17C78024A50270940304540A733656F0D SWAP1 DUP1 LOG4 PUSH1 0x1 SWAP1 JUMP JUMPDEST POP POP PUSH1 0x0 SWAP1 JUMP JUMPDEST PUSH1 0x0 DUP2 DUP2 MSTORE PUSH1 0x2 PUSH1 0x20 SWAP1 DUP2 MSTORE PUSH1 0x40 DUP1 DUP4 KECCAK256 PUSH1 0x1 PUSH1 0x1 PUSH1 0xA0 SHL SUB DUP7 AND DUP5 MSTORE SWAP1 SWAP2 MSTORE SWAP1 KECCAK256 SLOAD PUSH1 0xFF AND ISZERO PUSH2 0x27A4 JUMPI PUSH1 0x0 DUP2 DUP2 MSTORE PUSH1 0x2 PUSH1 0x20 SWAP1 DUP2 MSTORE PUSH1 0x40 DUP1 DUP4 KECCAK256 PUSH1 0x1 PUSH1 0x1 PUSH1 0xA0 SHL SUB SWAP6 SWAP1 SWAP6 AND DUP1 DUP5 MSTORE SWAP5 SWAP1 SWAP2 MSTORE DUP2 KECCAK256 DUP1 SLOAD PUSH1 0xFF NOT AND SWAP1 SSTORE CALLER SWAP3 SWAP2 SWAP1 PUSH32 0xF6391F5C32D9C69D2A47EA670B442974B53935D1EDC7FD64EB21E047A839171B SWAP1 DUP1 LOG4 PUSH1 0x1 SWAP1 JUMP JUMPDEST PUSH1 0x2 PUSH1 0x0 SLOAD EQ PUSH2 0x2842 JUMPI PUSH1 0x2 PUSH1 0x0 SSTORE JUMP JUMPDEST PUSH4 0x3EE5AEB5 PUSH1 0xE0 SHL PUSH1 0x0 MSTORE PUSH1 0x4 PUSH1 0x0 REVERT JUMPDEST PUSH1 0xFF PUSH1 0x1 SLOAD AND PUSH2 0x285F JUMPI JUMP JUMPDEST PUSH4 0xD93C0665 PUSH1 0xE0 SHL PUSH1 0x0 MSTORE PUSH1 0x4 PUSH1 0x0 REVERT INVALID SHR 0xB9 DUP8 CREATE BALANCE BALANCE PUSH16 0x2EE4A2088D9DF91BA5FCB0A156171FCB PC 0xDE 0xDD SWAP13 0xAE DUP10 0xEF 0xD2 CREATE LOG2 PUSH5 0x6970667358 0x22 SLT KECCAK256 0xD6 PUSH28 0x3CC24C82F4B21BCD8ED0BF8448F83E013F8946CB9F3A8245031D92B4 0xD3 0xDB PUSH5 0x736F6C6343 STOP ADDMOD SHR STOP CALLER 0x2F DUP8 DUP9 GT PUSH31 0x7EFF1D82E926EC794901D17C78024A50270940304540A733656F0D1CB987F0 BALANCE BALANCE PUSH16 0x2EE4A2088D9DF91BA5FCB0A156171FCB PC 0xDE 0xDD SWAP13 0xAE DUP10 0xEF 0xD2 CREATE 0xAC CALLER SELFDESTRUCT PUSH22 0xC19E70FE83507DB0D683FD3465C996598DC972688B7A 0xCE PUSH8 0x6C89077BE5EBFA64 0xFC 0xA8 0xD5 MUL 0xA8 0xE5 0xC 0x1E 0xDF REVERT 0x2C BALANCE 0xEF 0x4D 0xAD JUMPDEST CODECOPY PUSH15 0x65D9F397FB028F74ABC50000000000 "
        },
        "methodIdentifiers": {
          "ADMIN_ROLE()": "75b238fc",
          "BRIDGE_ADMIN_ROLE()": "118c38c7",
          "DEFAULT_ADMIN_ROLE()": "a217fddf",
          "batchExpireTrades(bytes32[])": "65d0e404",
          "cancelOrder(bytes32)": "7489ec23",
          "cancelRequest(bytes32)": "50125546",
          "cancelTrade(bytes32)": "7cfb41b8",
          "createOrder(uint256,uint256,uint256)": "a1ba444d",
          "createTrade(bytes32,bytes32,address,uint256)": "15ddb393",
          "createTradeRequest(bytes32,address)": "89200a27",
          "crossChainExpireSynced(bytes32)": "7b8d8008",
          "estimatePIOAmount(uint256)": "b730083e",
          "expireRequest(bytes32)": "dcd11a3f",
          "expireTrade(bytes32)": "b0091f69",
          "feePercent()": "7fd6f15c",
          "feeTo()": "017e7e58",
          "getBuyUSDTTrade(bytes32)": "737dd562",
          "getCurrentPIOPrice()": "e1a75bfc",
          "getOrder(bytes32)": "5778472a",
          "getOrderTrades(bytes32)": "5f6752c8",
          "getPriceRange()": "f8ca2be7",
          "getRoleAdmin(bytes32)": "248a9ca3",
          "getSellPIOTrade(bytes32)": "63698113",
          "getSellerOrders(address)": "e4cbac40",
          "getUserTrades(address)": "927c7742",
          "grantRole(bytes32,address)": "2f2ff15d",
          "hasRole(bytes32,address)": "91d14854",
          "minPioForSell()": "465c337a",
          "pause()": "8456cb59",
          "paused()": "5c975abb",
          "priceOracle()": "2630c12f",
          "priceTolerancePercent()": "a7dcf3c3",
          "releasePIOForBuyer(bytes32)": "cbddf5af",
          "releasePIOForSeller(bytes32)": "5d4ea641",
          "renounceRole(bytes32,address)": "36568abe",
          "revokeRole(bytes32,address)": "d547741f",
          "supportsInterface(bytes4)": "01ffc9a7",
          "unpause()": "3f4ba83a",
          "updateFee(uint16)": "2c6cda93",
          "updateFeeTo(address)": "cdec2f23",
          "updateMinPioForSell(uint256)": "0b70adbb",
          "updateOracle(address)": "1cb44dfc",
          "updateOrderLimits(bytes32,uint256,uint256)": "4d091a42",
          "updateOrderPrice(bytes32,uint256)": "cdd1b603",
          "updatePriceTolerance(uint16)": "e24dde39"
        }
      }
    }
  }
}