{
  "contracts/BSCP2PEscrow.sol": {
    "BSCP2PEscrow": {
      "abi": [
        {
          "inputs": [
            {
              "internalType": "address",
              "name": "_usdtAddress",
              "type": "address"
            },
            {
              "internalType": "address",
              "name": "_pioTokenAddress",
              "type": "address"
            },
            {
              "internalType": "address",
              "name": "_pancakePairAddress",
              "type": "address"
            },
            {
              "internalType": "address",
              "name": "_feeTo",
              "type": "address"
            }
          ],
          "stateMutability": "nonpayable",
          "type": "constructor"
        },
        {
          "inputs": [],
          "name": "AccessControlBadConfirmation",
          "type": "error"
        },
        {
          "inputs": [
            {
              "internalType": "address",
              "name": "account",
              "type": "address"
            },
            {
              "internalType": "bytes32",
              "name": "neededRole",
              "type": "bytes32"
            }
          ],
          "name": "AccessControlUnauthorizedAccount",
          "type": "error"
        },
        {
          "inputs": [],
          "name": "EnforcedPause",
          "type": "error"
        },
        {
          "inputs": [],
          "name": "ExpectedPause",
          "type": "error"
        },
        {
          "inputs": [],
          "name": "ReentrancyGuardReentrantCall",
          "type": "error"
        },
        {
          "inputs": [
            {
              "internalType": "address",
              "name": "token",
              "type": "address"
            }
          ],
          "name": "SafeERC20FailedOperation",
          "type": "error"
        },
        {
          "anonymous": false,
          "inputs": [
            {
              "indexed": false,
              "internalType": "address",
              "name": "oldAddress",
              "type": "address"
            },
            {
              "indexed": false,
              "internalType": "address",
              "name": "newAddress",
              "type": "address"
            }
          ],
          "name": "FeeToUpdated",
          "type": "event"
        },
        {
          "anonymous": false,
          "inputs": [
            {
              "indexed": false,
              "internalType": "uint256",
              "name": "oldValue",
              "type": "uint256"
            },
            {
              "indexed": false,
              "internalType": "uint256",
              "name": "newValue",
              "type": "uint256"
            }
          ],
          "name": "MinUsdtForSellUpdated",
          "type": "event"
        },
        {
          "anonymous": false,
          "inputs": [
            {
              "indexed": true,
              "internalType": "bytes32",
              "name": "orderId",
              "type": "bytes32"
            }
          ],
          "name": "OrderCancelled",
          "type": "event"
        },
        {
          "anonymous": false,
          "inputs": [
            {
              "indexed": true,
              "internalType": "bytes32",
              "name": "orderId",
              "type": "bytes32"
            },
            {
              "indexed": true,
              "internalType": "address",
              "name": "seller",
              "type": "address"
            },
            {
              "indexed": false,
              "internalType": "uint256",
              "name": "totalUSDT",
              "type": "uint256"
            },
            {
              "indexed": false,
              "internalType": "uint256",
              "name": "minPerTrade",
              "type": "uint256"
            },
            {
              "indexed": false,
              "internalType": "uint256",
              "name": "maxPerTrade",
              "type": "uint256"
            },
            {
              "indexed": false,
              "internalType": "uint256",
              "name": "pricePerPIO",
              "type": "uint256"
            }
          ],
          "name": "OrderCreated",
          "type": "event"
        },
        {
          "anonymous": false,
          "inputs": [
            {
              "indexed": false,
              "internalType": "address",
              "name": "account",
              "type": "address"
            }
          ],
          "name": "Paused",
          "type": "event"
        },
        {
          "anonymous": false,
          "inputs": [
            {
              "indexed": false,
              "internalType": "uint16",
              "name": "oldValue",
              "type": "uint16"
            },
            {
              "indexed": false,
              "internalType": "uint16",
              "name": "newValue",
              "type": "uint16"
            }
          ],
          "name": "PriceToleranceUpdated",
          "type": "event"
        },
        {
          "anonymous": false,
          "inputs": [
            {
              "indexed": true,
              "internalType": "bytes32",
              "name": "tradeId",
              "type": "bytes32"
            }
          ],
          "name": "RequestCancelled",
          "type": "event"
        },
        {
          "anonymous": false,
          "inputs": [
            {
              "indexed": true,
              "internalType": "bytes32",
              "name": "tradeId",
              "type": "bytes32"
            }
          ],
          "name": "RequestExpired",
          "type": "event"
        },
        {
          "anonymous": false,
          "inputs": [
            {
              "indexed": true,
              "internalType": "bytes32",
              "name": "role",
              "type": "bytes32"
            },
            {
              "indexed": true,
              "internalType": "bytes32",
              "name": "previousAdminRole",
              "type": "bytes32"
            },
            {
              "indexed": true,
              "internalType": "bytes32",
              "name": "newAdminRole",
              "type": "bytes32"
            }
          ],
          "name": "RoleAdminChanged",
          "type": "event"
        },
        {
          "anonymous": false,
          "inputs": [
            {
              "indexed": true,
              "internalType": "bytes32",
              "name": "role",
              "type": "bytes32"
            },
            {
              "indexed": true,
              "internalType": "address",
              "name": "account",
              "type": "address"
            },
            {
              "indexed": true,
              "internalType": "address",
              "name": "sender",
              "type": "address"
            }
          ],
          "name": "RoleGranted",
          "type": "event"
        },
        {
          "anonymous": false,
          "inputs": [
            {
              "indexed": true,
              "internalType": "bytes32",
              "name": "role",
              "type": "bytes32"
            },
            {
              "indexed": true,
              "internalType": "address",
              "name": "account",
              "type": "address"
            },
            {
              "indexed": true,
              "internalType": "address",
              "name": "sender",
              "type": "address"
            }
          ],
          "name": "RoleRevoked",
          "type": "event"
        },
        {
          "anonymous": false,
          "inputs": [
            {
              "indexed": true,
              "internalType": "bytes32",
              "name": "tradeId",
              "type": "bytes32"
            }
          ],
          "name": "TradeCancelled",
          "type": "event"
        },
        {
          "anonymous": false,
          "inputs": [
            {
              "indexed": true,
              "internalType": "bytes32",
              "name": "tradeId",
              "type": "bytes32"
            },
            {
              "indexed": true,
              "internalType": "bytes32",
              "name": "orderId",
              "type": "bytes32"
            },
            {
              "indexed": false,
              "internalType": "address",
              "name": "buyer",
              "type": "address"
            },
            {
              "indexed": false,
              "internalType": "uint256",
              "name": "usdtAmount",
              "type": "uint256"
            }
          ],
          "name": "TradeCreated",
          "type": "event"
        },
        {
          "anonymous": false,
          "inputs": [
            {
              "indexed": true,
              "internalType": "bytes32",
              "name": "tradeId",
              "type": "bytes32"
            }
          ],
          "name": "TradeExpired",
          "type": "event"
        },
        {
          "anonymous": false,
          "inputs": [
            {
              "indexed": true,
              "internalType": "bytes32",
              "name": "tradeId",
              "type": "bytes32"
            },
            {
              "indexed": true,
              "internalType": "bytes32",
              "name": "pioneOrderId",
              "type": "bytes32"
            },
            {
              "indexed": false,
              "internalType": "address",
              "name": "buyer",
              "type": "address"
            },
            {
              "indexed": false,
              "internalType": "uint256",
              "name": "usdtAmount",
              "type": "uint256"
            }
          ],
          "name": "TradeRequestCreated",
          "type": "event"
        },
        {
          "anonymous": false,
          "inputs": [
            {
              "indexed": true,
              "internalType": "bytes32",
              "name": "tradeId",
              "type": "bytes32"
            },
            {
              "indexed": false,
              "internalType": "address",
              "name": "buyer",
              "type": "address"
            },
            {
              "indexed": false,
              "internalType": "uint256",
              "name": "amount",
              "type": "uint256"
            }
          ],
          "name": "USDTPaid",
          "type": "event"
        },
        {
          "anonymous": false,
          "inputs": [
            {
              "indexed": true,
              "internalType": "bytes32",
              "name": "tradeId",
              "type": "bytes32"
            },
            {
              "indexed": false,
              "internalType": "address",
              "name": "recipient",
              "type": "address"
            },
            {
              "indexed": false,
              "internalType": "uint256",
              "name": "amount",
              "type": "uint256"
            }
          ],
          "name": "USDTReleased",
          "type": "event"
        },
        {
          "anonymous": false,
          "inputs": [
            {
              "indexed": false,
              "internalType": "address",
              "name": "account",
              "type": "address"
            }
          ],
          "name": "Unpaused",
          "type": "event"
        },
        {
          "inputs": [],
          "name": "ADMIN_ROLE",
          "outputs": [
            {
              "internalType": "bytes32",
              "name": "",
              "type": "bytes32"
            }
          ],
          "stateMutability": "view",
          "type": "function"
        },
        {
          "inputs": [],
          "name": "BRIDGE_ADMIN_ROLE",
          "outputs": [
            {
              "internalType": "bytes32",
              "name": "",
              "type": "bytes32"
            }
          ],
          "stateMutability": "view",
          "type": "function"
        },
        {
          "inputs": [],
          "name": "DEFAULT_ADMIN_ROLE",
          "outputs": [
            {
              "internalType": "bytes32",
              "name": "",
              "type": "bytes32"
            }
          ],
          "stateMutability": "view",
          "type": "function"
        },
        {
          "inputs": [
            {
              "internalType": "bytes32[]",
              "name": "_tradeIds",
              "type": "bytes32[]"
            }
          ],
          "name": "batchExpireTrades",
          "outputs": [],
          "stateMutability": "nonpayable",
          "type": "function"
        },
        {
          "inputs": [
            {
              "internalType": "bytes32",
              "name": "_orderId",
              "type": "bytes32"
            }
          ],
          "name": "cancelOrder",
          "outputs": [],
          "stateMutability": "nonpayable",
          "type": "function"
        },
        {
          "inputs": [
            {
              "internalType": "bytes32",
              "name": "_tradeId",
              "type": "bytes32"
            }
          ],
          "name": "cancelRequest",
          "outputs": [],
          "stateMutability": "nonpayable",
          "type": "function"
        },
        {
          "inputs": [
            {
              "internalType": "bytes32",
              "name": "_tradeId",
              "type": "bytes32"
            }
          ],
          "name": "cancelTrade",
          "outputs": [],
          "stateMutability": "nonpayable",
          "type": "function"
        },
        {
          "inputs": [
            {
              "internalType": "uint256",
              "name": "_usdtAmount",
              "type": "uint256"
            },
            {
              "internalType": "uint256",
              "name": "_minPerTrade",
              "type": "uint256"
            },
            {
              "internalType": "uint256",
              "name": "_maxPerTrade",
              "type": "uint256"
            },
            {
              "internalType": "uint256",
              "name": "_pricePerPIO",
              "type": "uint256"
            }
          ],
          "name": "createOrder",
          "outputs": [
            {
              "internalType": "bytes32",
              "name": "",
              "type": "bytes32"
            }
          ],
          "stateMutability": "nonpayable",
          "type": "function"
        },
        {
          "inputs": [
            {
              "internalType": "bytes32",
              "name": "_pioneTradeId",
              "type": "bytes32"
            },
            {
              "internalType": "bytes32",
              "name": "_orderId",
              "type": "bytes32"
            },
            {
              "internalType": "address",
              "name": "_buyer",
              "type": "address"
            },
            {
              "internalType": "uint256",
              "name": "_usdtAmount",
              "type": "uint256"
            }
          ],
          "name": "createTrade",
          "outputs": [
            {
              "internalType": "bool",
              "name": "",
              "type": "bool"
            }
          ],
          "stateMutability": "nonpayable",
          "type": "function"
        },
        {
          "inputs": [
            {
              "internalType": "bytes32",
              "name": "_pioneOrderId",
              "type": "bytes32"
            },
            {
              "internalType": "address",
              "name": "_seller",
              "type": "address"
            },
            {
              "internalType": "uint256",
              "name": "_usdtAmount",
              "type": "uint256"
            }
          ],
          "name": "createTradeRequest",
          "outputs": [
            {
              "internalType": "bytes32",
              "name": "tradeId",
              "type": "bytes32"
            }
          ],
          "stateMutability": "nonpayable",
          "type": "function"
        },
        {
          "inputs": [
            {
              "internalType": "bytes32",
              "name": "",
              "type": "bytes32"
            }
          ],
          "name": "crossChainExpireSynced",
          "outputs": [
            {
              "internalType": "bool",
              "name": "",
              "type": "bool"
            }
          ],
          "stateMutability": "view",
          "type": "function"
        },
        {
          "inputs": [
            {
              "internalType": "bytes32",
              "name": "_orderId",
              "type": "bytes32"
            },
            {
              "internalType": "uint256",
              "name": "_pioAmount",
              "type": "uint256"
            }
          ],
          "name": "estimateUSDTForOrder",
          "outputs": [
            {
              "internalType": "uint256",
              "name": "",
              "type": "uint256"
            }
          ],
          "stateMutability": "view",
          "type": "function"
        },
        {
          "inputs": [
            {
              "internalType": "bytes32",
              "name": "_tradeId",
              "type": "bytes32"
            }
          ],
          "name": "expireRequest",
          "outputs": [],
          "stateMutability": "nonpayable",
          "type": "function"
        },
        {
          "inputs": [
            {
              "internalType": "bytes32",
              "name": "_tradeId",
              "type": "bytes32"
            }
          ],
          "name": "expireTrade",
          "outputs": [],
          "stateMutability": "nonpayable",
          "type": "function"
        },
        {
          "inputs": [],
          "name": "feePercent",
          "outputs": [
            {
              "internalType": "uint16",
              "name": "",
              "type": "uint16"
            }
          ],
          "stateMutability": "view",
          "type": "function"
        },
        {
          "inputs": [],
          "name": "feeTo",
          "outputs": [
            {
              "internalType": "address",
              "name": "",
              "type": "address"
            }
          ],
          "stateMutability": "view",
          "type": "function"
        },
        {
          "inputs": [
            {
              "internalType": "bytes32",
              "name": "_tradeId",
              "type": "bytes32"
            }
          ],
          "name": "getBuyPIOTrade",
          "outputs": [
            {
              "components": [
                {
                  "internalType": "bytes32",
                  "name": "pioneOrderId",
                  "type": "bytes32"
                },
                {
                  "internalType": "address",
                  "name": "seller",
                  "type": "address"
                },
                {
                  "internalType": "address",
                  "name": "buyer",
                  "type": "address"
                },
                {
                  "internalType": "uint256",
                  "name": "usdtAmount",
                  "type": "uint256"
                },
                {
                  "internalType": "uint16",
                  "name": "feeSnapshot",
                  "type": "uint16"
                },
                {
                  "internalType": "enum BSCP2PEscrow.TradeStatus",
                  "name": "status",
                  "type": "uint8"
                }
              ],
              "internalType": "struct BSCP2PEscrow.BuyPIOTrade",
              "name": "",
              "type": "tuple"
            }
          ],
          "stateMutability": "view",
          "type": "function"
        },
        {
          "inputs": [],
          "name": "getCurrentPIOPrice",
          "outputs": [
            {
              "internalType": "uint256",
              "name": "",
              "type": "uint256"
            }
          ],
          "stateMutability": "view",
          "type": "function"
        },
        {
          "inputs": [
            {
              "internalType": "bytes32",
              "name": "_orderId",
              "type": "bytes32"
            }
          ],
          "name": "getOrder",
          "outputs": [
            {
              "components": [
                {
                  "internalType": "address",
                  "name": "seller",
                  "type": "address"
                },
                {
                  "internalType": "uint256",
                  "name": "totalUSDT",
                  "type": "uint256"
                },
                {
                  "internalType": "uint256",
                  "name": "availableUSDT",
                  "type": "uint256"
                },
                {
                  "internalType": "uint256",
                  "name": "minPerTrade",
                  "type": "uint256"
                },
                {
                  "internalType": "uint256",
                  "name": "maxPerTrade",
                  "type": "uint256"
                },
                {
                  "internalType": "uint256",
                  "name": "pricePerPIO",
                  "type": "uint256"
                },
                {
                  "internalType": "enum BSCP2PEscrow.OrderStatus",
                  "name": "status",
                  "type": "uint8"
                }
              ],
              "internalType": "struct BSCP2PEscrow.Order",
              "name": "",
              "type": "tuple"
            }
          ],
          "stateMutability": "view",
          "type": "function"
        },
        {
          "inputs": [
            {
              "internalType": "bytes32",
              "name": "_orderId",
              "type": "bytes32"
            }
          ],
          "name": "getOrderTrades",
          "outputs": [
            {
              "internalType": "bytes32[]",
              "name": "",
              "type": "bytes32[]"
            }
          ],
          "stateMutability": "view",
          "type": "function"
        },
        {
          "inputs": [],
          "name": "getPriceRange",
          "outputs": [
            {
              "internalType": "uint256",
              "name": "minPrice",
              "type": "uint256"
            },
            {
              "internalType": "uint256",
              "name": "maxPrice",
              "type": "uint256"
            },
            {
              "internalType": "uint256",
              "name": "currentPrice",
              "type": "uint256"
            }
          ],
          "stateMutability": "view",
          "type": "function"
        },
        {
          "inputs": [
            {
              "internalType": "bytes32",
              "name": "role",
              "type": "bytes32"
            }
          ],
          "name": "getRoleAdmin",
          "outputs": [
            {
              "internalType": "bytes32",
              "name": "",
              "type": "bytes32"
            }
          ],
          "stateMutability": "view",
          "type": "function"
        },
        {
          "inputs": [
            {
              "internalType": "bytes32",
              "name": "_tradeId",
              "type": "bytes32"
            }
          ],
          "name": "getSellUSDTTrade",
          "outputs": [
            {
              "components": [
                {
                  "internalType": "bytes32",
                  "name": "orderId",
                  "type": "bytes32"
                },
                {
                  "internalType": "address",
                  "name": "seller",
                  "type": "address"
                },
                {
                  "internalType": "address",
                  "name": "buyer",
                  "type": "address"
                },
                {
                  "internalType": "uint256",
                  "name": "usdtAmount",
                  "type": "uint256"
                },
                {
                  "internalType": "uint16",
                  "name": "feeSnapshot",
                  "type": "uint16"
                },
                {
                  "internalType": "enum BSCP2PEscrow.TradeStatus",
                  "name": "status",
                  "type": "uint8"
                }
              ],
              "internalType": "struct BSCP2PEscrow.SellUSDTTrade",
              "name": "",
              "type": "tuple"
            }
          ],
          "stateMutability": "view",
          "type": "function"
        },
        {
          "inputs": [
            {
              "internalType": "address",
              "name": "_seller",
              "type": "address"
            }
          ],
          "name": "getSellerOrders",
          "outputs": [
            {
              "internalType": "bytes32[]",
              "name": "",
              "type": "bytes32[]"
            }
          ],
          "stateMutability": "view",
          "type": "function"
        },
        {
          "inputs": [
            {
              "internalType": "address",
              "name": "_user",
              "type": "address"
            }
          ],
          "name": "getUserTrades",
          "outputs": [
            {
              "internalType": "bytes32[]",
              "name": "",
              "type": "bytes32[]"
            }
          ],
          "stateMutability": "view",
          "type": "function"
        },
        {
          "inputs": [
            {
              "internalType": "bytes32",
              "name": "role",
              "type": "bytes32"
            },
            {
              "internalType": "address",
              "name": "account",
              "type": "address"
            }
          ],
          "name": "grantRole",
          "outputs": [],
          "stateMutability": "nonpayable",
          "type": "function"
        },
        {
          "inputs": [
            {
              "internalType": "bytes32",
              "name": "role",
              "type": "bytes32"
            },
            {
              "internalType": "address",
              "name": "account",
              "type": "address"
            }
          ],
          "name": "hasRole",
          "outputs": [
            {
              "internalType": "bool",
              "name": "",
              "type": "bool"
            }
          ],
          "stateMutability": "view",
          "type": "function"
        },
        {
          "inputs": [],
          "name": "minUsdtForSell",
          "outputs": [
            {
              "internalType": "uint256",
              "name": "",
              "type": "uint256"
            }
          ],
          "stateMutability": "view",
          "type": "function"
        },
        {
          "inputs": [],
          "name": "pancakePairAddress",
          "outputs": [
            {
              "internalType": "address",
              "name": "",
              "type": "address"
            }
          ],
          "stateMutability": "view",
          "type": "function"
        },
        {
          "inputs": [],
          "name": "pause",
          "outputs": [],
          "stateMutability": "nonpayable",
          "type": "function"
        },
        {
          "inputs": [],
          "name": "paused",
          "outputs": [
            {
              "internalType": "bool",
              "name": "",
              "type": "bool"
            }
          ],
          "stateMutability": "view",
          "type": "function"
        },
        {
          "inputs": [],
          "name": "pioTokenAddress",
          "outputs": [
            {
              "internalType": "address",
              "name": "",
              "type": "address"
            }
          ],
          "stateMutability": "view",
          "type": "function"
        },
        {
          "inputs": [],
          "name": "priceTolerancePercent",
          "outputs": [
            {
              "internalType": "uint16",
              "name": "",
              "type": "uint16"
            }
          ],
          "stateMutability": "view",
          "type": "function"
        },
        {
          "inputs": [
            {
              "internalType": "bytes32",
              "name": "_tradeId",
              "type": "bytes32"
            }
          ],
          "name": "releaseUSDTForBuyer",
          "outputs": [],
          "stateMutability": "nonpayable",
          "type": "function"
        },
        {
          "inputs": [
            {
              "internalType": "bytes32",
              "name": "_tradeId",
              "type": "bytes32"
            }
          ],
          "name": "releaseUSDTForSeller",
          "outputs": [],
          "stateMutability": "nonpayable",
          "type": "function"
        },
        {
          "inputs": [
            {
              "internalType": "bytes32",
              "name": "role",
              "type": "bytes32"
            },
            {
              "internalType": "address",
              "name": "callerConfirmation",
              "type": "address"
            }
          ],
          "name": "renounceRole",
          "outputs": [],
          "stateMutability": "nonpayable",
          "type": "function"
        },
        {
          "inputs": [
            {
              "internalType": "bytes32",
              "name": "role",
              "type": "bytes32"
            },
            {
              "internalType": "address",
              "name": "account",
              "type": "address"
            }
          ],
          "name": "revokeRole",
          "outputs": [],
          "stateMutability": "nonpayable",
          "type": "function"
        },
        {
          "inputs": [
            {
              "internalType": "bytes4",
              "name": "interfaceId",
              "type": "bytes4"
            }
          ],
          "name": "supportsInterface",
          "outputs": [
            {
              "internalType": "bool",
              "name": "",
              "type": "bool"
            }
          ],
          "stateMutability": "view",
          "type": "function"
        },
        {
          "inputs": [],
          "name": "unpause",
          "outputs": [],
          "stateMutability": "nonpayable",
          "type": "function"
        },
        {
          "inputs": [
            {
              "internalType": "uint16",
              "name": "_newFee",
              "type": "uint16"
            }
          ],
          "name": "updateFee",
          "outputs": [],
          "stateMutability": "nonpayable",
          "type": "function"
        },
        {
          "inputs": [
            {
              "internalType": "address",
              "name": "_newFeeTo",
              "type": "address"
            }
          ],
          "name": "updateFeeTo",
          "outputs": [],
          "stateMutability": "nonpayable",
          "type": "function"
        },
        {
          "inputs": [
            {
              "internalType": "uint256",
              "name": "_newMin",
              "type": "uint256"
            }
          ],
          "name": "updateMinUsdtForSell",
          "outputs": [],
          "stateMutability": "nonpayable",
          "type": "function"
        },
        {
          "inputs": [
            {
              "internalType": "bytes32",
              "name": "_orderId",
              "type": "bytes32"
            },
            {
              "internalType": "uint256",
              "name": "_newMinPerTrade",
              "type": "uint256"
            },
            {
              "internalType": "uint256",
              "name": "_newMaxPerTrade",
              "type": "uint256"
            }
          ],
          "name": "updateOrderLimits",
          "outputs": [],
          "stateMutability": "nonpayable",
          "type": "function"
        },
        {
          "inputs": [
            {
              "internalType": "bytes32",
              "name": "_orderId",
              "type": "bytes32"
            },
            {
              "internalType": "uint256",
              "name": "_newPricePerPIO",
              "type": "uint256"
            }
          ],
          "name": "updateOrderPrice",
          "outputs": [],
          "stateMutability": "nonpayable",
          "type": "function"
        },
        {
          "inputs": [
            {
              "internalType": "address",
              "name": "_newPair",
              "type": "address"
            }
          ],
          "name": "updatePancakePair",
          "outputs": [],
          "stateMutability": "nonpayable",
          "type": "function"
        },
        {
          "inputs": [
            {
              "internalType": "uint16",
              "name": "_newTolerance",
              "type": "uint16"
            }
          ],
          "name": "updatePriceTolerance",
          "outputs": [],
          "stateMutability": "nonpayable",
          "type": "function"
        },
        {
          "inputs": [],
          "name": "usdtAddress",
          "outputs": [
            {
              "internalType": "address",
              "name": "",
              "type": "address"
            }
          ],
          "stateMutability": "view",
          "type": "function"
        }
      ],
      "evm": {
        "bytecode": {
          "linkReferences": {},
          "object": "6080346101c557601f612c4338819003918201601f19168301916001600160401b038311848410176101ca578084926080946040528339810103126101c557610047816101e0565b90610054602082016101e0565b61006c6060610065604085016101e0565b93016101e0565b60016000556006549390926001600160a01b03909116918215610191576001600160a01b031690811561015e576001600160a01b031691821561012a57600380546001600160a01b031990811692909217905560048054821692909217909155600580549091169190911790556001600160c01b03199091166001600160a01b03919091161762fa001960a21b17600655610106336101f4565b5061011033610270565b5061011a33610308565b5060405161282290816103a18239f35b60405162461bcd60e51b815260206004820152600c60248201526b24b73b30b634b2103830b4b960a11b6044820152606490fd5b60405162461bcd60e51b815260206004820152600b60248201526a496e76616c69642050494f60a81b6044820152606490fd5b60405162461bcd60e51b815260206004820152600c60248201526b125b9d985b1a59081554d11560a21b6044820152606490fd5b600080fd5b634e487b7160e01b600052604160045260246000fd5b51906001600160a01b03821682036101c557565b6001600160a01b0381166000908152600080516020612c03833981519152602052604090205460ff1661026a576001600160a01b03166000818152600080516020612c0383398151915260205260408120805460ff19166001179055339190600080516020612bc38339815191528180a4600190565b50600090565b6001600160a01b0381166000908152600080516020612c23833981519152602052604090205460ff1661026a576001600160a01b03166000818152600080516020612c2383398151915260205260408120805460ff191660011790553391907fa49807205ce4d355092ef5a8a18f56e8913cf4a201fbe287825b095693c2177590600080516020612bc38339815191529080a4600190565b6001600160a01b0381166000908152600080516020612be3833981519152602052604090205460ff1661026a576001600160a01b03166000818152600080516020612be383398151915260205260408120805460ff191660011790553391907f751b795d24b92e3d92d1d0d8f2885f4e9c9c269da350af36ae6b49069babf4bf90600080516020612bc38339815191529080a460019056fe6080604052600436101561001257600080fd5b60003560e01c8063017e5aae14611cef578063017e7e5814611cc657806301ffc9a714611c70578063118c38c714611c3557806315ddb39314611a4b578063248a9ca314611a1e5780632c6cda93146119985780632f2ff15d1461195857806335b109e61461178357806336568abe1461173d5780633f4ba83a146116d457806342f868a6146116845780634d091a42146115b057806350125546146115045780635778472a146113f95780635c975abb146113d65780635f2d95ad146113555780635f6752c8146112ec57806363e31f4b1461118757806365d0e404146110605780637489ec2314610e5b57806375b238fc14610e20578063764d3d4414610e025780637b7f549c14610dd95780637b8d800814610da85780637cfb41b814610cd45780637fd6f15c14610caf57806380148f9614610a9f5780638456cb5914610a4657806391d14854146109f9578063927c77421461098257806392aeee7e1461094e5780639ab4a44514610925578063a217fddf14610909578063a7dcf3c3146108e4578063a9faa72e146108bb578063b0091f69146107d5578063c840811314610792578063cdd1b603146106c4578063cdec2f2314610653578063d2896dd9146104e5578063d547741f1461049e578063dcd11a3f146103b4578063e1a75bfc14610391578063e24dde3914610315578063e4cbac401461028e5763f8ca2be71461022157600080fd5b3461028957600036600319011261028957606061023c612301565b61ffff60065460b01c169061271061027661ffff61026f8361026883610261896121f5565b16876120e7565b0495612209565b16836120e7565b0460405192835260208301526040820152f35b600080fd5b34610289576020366003190112610289576001600160a01b036102af611d59565b16600052600d602052604060002060405190816020825491828152019160005260206000209060005b8181106102ff576102fb856102ef81870382611f99565b60405191829182611da5565b0390f35b82548452602090930192600192830192016102d8565b346102895760203660031901126102895760043561ffff8116808203610289577f61ffe63469fb8786675a96532a0fed8083715a6329d830492078cedd3bd9c0d6916040916103626124e7565b6006805461ffff60b01b19811660b094851b61ffff60b01b16179091558351921c61ffff1682526020820152a1005b346102895760003660031901126102895760206103ac612301565b604051908152f35b34610289576020366003190112610289576004356103d0612642565b3360009081526000805160206127cd83398151915260205260409020546103f99060ff16611e31565b80600052600b602052604060002061044c600482019161042b600160ff855460101c1661042581611d85565b146121ab565b6003805460028301549290910154916001600160a01b039081169116612735565b805462ff00001916620300001790556000818152601060205260408120805460ff191660011790557e63c7a53686b11e863c5f827c066bfbe9430ca95b1949d61445ce106261aca29080a26001600055005b34610289576040366003190112610289576104e36004356104bd611d43565b906104de6104d982600052600260205260016040600020015490565b612559565b6126af565b005b34610289576020366003190112610289573360009081526000805160206127cd8339815191526020526040902054600435906105239060ff16611e31565b61052b612642565b80600052600b6020527fd61e48d1b98bb8a0619b412553ca708bd20adc84aadea59cda5df4b36efb5c1060406000206004810190815491610577600160ff8560101c1661042581611d85565b6000600383019361ffff855491168015158061063f575b61061b575b5060035460018501546105b392916001600160a01b039182169116612735565b806105f8575b50805462ff0000191662020000179055600201549054604080516001600160a01b039390931683526020830191909152819081015b0390a26001600055005b60035460065461061592916001600160a01b039182169116612735565b856105b9565b819250612710610631610639926105b3946120e7565b048093611f28565b90610593565b506006546001600160a01b0316151561058e565b34610289576020366003190112610289577f8f93286d6f131e956d1aa672d3ecdc817f24efc20b223b0de5d591f454edc347604061068f611d59565b6106976124e7565b600680546001600160a01b039283166001600160a01b0319821681179092558351921682526020820152a1005b34610289576106d236611d6f565b9080600052600a6020526106f460018060a01b036040600020541615156120a4565b600052600a6020526005604060002061071760018060a01b0382541633146120fa565b610733600160ff60068401541661072d81611d85565b14611e71565b61078361073e612301565b61271061077161ffff60065460b01c169261ffff61076a8461026883610763896121f5565b16856120e7565b16906120e7565b04908510159081610787575b5061221d565b0155005b90508411158561077d565b34610289576020366003190112610289576107ab61225e565b50600435600052600c60205260c06107c6604060002061228f565b6107d36040518092611ddf565bf35b34610289576020366003190112610289576004356107f1612642565b3360009081526000805160206127cd833981519152602052604090205461081a9060ff16611e31565b80600052600c60205260406000206004810190610843600160ff845460101c1661042581611d85565b8054600052600a60205261086660026003604060002093015492019182546121e8565b9055805462ff00001916620300001790556000818152601060205260408120805460ff191660011790557f974ec1b137d0b76fd7cdab57c57bac61d82c6038046beccecdd622610b4d79d69080a26001600055005b34610289576000366003190112610289576004546040516001600160a01b039091168152602090f35b3461028957600036600319011261028957602061ffff60065460b01c16604051908152f35b3461028957600036600319011261028957602060405160008152f35b34610289576000366003190112610289576003546040516001600160a01b039091168152602090f35b346102895760203660031901126102895761096761225e565b50600435600052600b60205260c06107c6604060002061228f565b34610289576020366003190112610289576001600160a01b036109a3611d59565b16600052600e602052604060002060405190816020825491828152019160005260206000209060005b8181106109e3576102fb856102ef81870382611f99565b82548452602090930192600192830192016109cc565b3461028957604036600319011261028957610a12611d43565b600435600052600260205260406000209060018060a01b0316600052602052602060ff604060002054166040519015158152f35b3461028957600036600319011261028957610a5f6124e7565b610a67612625565b600160ff19815416176001557f62e78cea01bee320cd4e420270b5ea74000d11b0c9f74754ebdbfc544b05a2586020604051338152a1005b34610289576080366003190112610289576020602435600435606435604435610ac6612625565b610ace612642565b610adc600754841015611eb0565b83811180610ca5575b610aee90612133565b610b2f610af9612301565b612710610b1e61ffff60065460b01c169261ffff61076a8461026883610763896121f5565b04908410159081610c9a575061221d565b600854610b3b81612095565b600855604051868101913360601b8352856034830152605482015242607482015260748152610b6b609482611f99565b51902093610b878460018060a01b036003541630903390612664565b604051610b9381611f7d565b3381526006878201918683526040810187815260608201858152608083019087825260a084019289845260c0850196600188528c600052600a8e5260406000209560018060a01b039060018060a01b03905116166bffffffffffffffffffffffff60a01b875416178655516001860155516002850155516003840155516004830155516005820155019051610c2781611d85565b610c3081611d85565b60ff8019835416911617905533600052600d8652610c52856040600020612051565b6040519384528584015260408301526060820152817f6bcbd6ab6d795a7e990431a97ea8f8808e81b8580fb9d6d581e5fcbb16e3d12760803393a36001600055604051908152f35b90508311158761077d565b5082811115610ae5565b3461028957600036600319011261028957602061ffff60065460a01c16604051908152f35b3461028957602036600319011261028957600435610cf0612642565b3360009081526000805160206127cd8339815191526020526040902054610d199060ff16611e31565b80600052600c60205260406000206004810190610d48600160ff845460101c16610d4281611d85565b1461216f565b8054600052600a602052610d6b60026003604060002093015492019182546121e8565b9055805462ff00001916620400001790557f4e09303ea9c3932854b42432aa9f65348205f9681747864bf122101b35371503600080a26001600055005b34610289576020366003190112610289576004356000526010602052602060ff604060002054166040519015158152f35b34610289576000366003190112610289576005546040516001600160a01b039091168152602090f35b34610289576000366003190112610289576020600754604051908152f35b346102895760003660031901126102895760206040517fa49807205ce4d355092ef5a8a18f56e8913cf4a201fbe287825b095693c217758152f35b3461028957602036600319011261028957600435610e77612642565b80600052600a60205260406000209060018060a01b0382541690813314801561103a575b610ea4906120fa565b60068301918254610ebd600160ff8316610d4281611d85565b82600052600f6020526040600020936040518086602082985493848152019060005260206000209260005b818110611021575050610efd92500386611f99565b60005b8551811015610fbb57600060208260051b880101518152600c60205260ff600460408320015460101c16610f3381611d85565b60028114918215610fa6575b8215610f90575b505015610f5557600101610f00565b60405162461bcd60e51b8152602060048201526013602482015272151c985919481b9bdd08199a5b985b1a5e9959606a1b6044820152606490fd5b6004925050610f9e81611d85565b148880610f46565b9150610fb181611d85565b6003811491610f3f565b506000906002870190600382549460ff19161790555580611004575b827f5152abf959f6564662358c2e52b702259b78bac5ee7842a0f01937e670efcc7d600080a26001600055005b60035461101a92906001600160a01b0316612735565b8180610fd7565b845483526001948501948a945060209093019201610ee8565b503360009081526000805160206127cd833981519152602052604090205460ff16610e9b565b346102895760203660031901126102895760043567ffffffffffffffff8111610289573660238201121561028957806004013567ffffffffffffffff8111610289573660248260051b84010111610289573360009081526000805160206127cd83398151915260205260409020546110da9060ff16611e31565b60005b818110156104e357600190600060248260051b8601013590818152600c6020526040812090600482018560ff825460101c1661111881611d85565b14611128575b50505050016110dd565b827f974ec1b137d0b76fd7cdab57c57bac61d82c6038046beccecdd622610b4d79d693548352600a60205261116b600260036040862093015492019182546121e8565b9055805462ff000019166203000017905580a28480808061111e565b34610289576020366003190112610289573360009081526000805160206127cd8339815191526020526040902054600435906111c59060ff16611e31565b6111cd612642565b80600052600c6020527f3b3deea4ef69c5f108641489e2d205b77eb559f74e51e038b7df69bb76d9590660406000206004810190815491611219600160ff8560101c1661042581611d85565b600061ffff60038401549416801515806112d8575b6112b7575b50600354600293909301805490936112599186916001600160a01b039182169116612735565b80611294575b50805462ff000019166202000017905554604080516001600160a01b03929092168252602082019290925290819081016105ee565b6003546006546112b192916001600160a01b039182169116612735565b8561125f565b6112d191506112c961271091866120e7565b048094611f28565b9286611233565b506006546001600160a01b0316151561122e565b3461028957602036600319011261028957600435600052600f602052604060002060405190816020825491828152019160005260206000209060005b81811061133f576102fb856102ef81870382611f99565b8254845260209093019260019283019201611328565b346102895760203660031901126102895761136e611d59565b6113766124e7565b6001600160a01b031680156113a2576bffffffffffffffffffffffff60a01b6005541617600555600080f35b60405162461bcd60e51b815260206004820152600c60248201526b24b73b30b634b2103830b4b960a11b6044820152606490fd5b3461028957600036600319011261028957602060ff600154166040519015158152f35b3461028957602036600319011261028957600060c060405161141a81611f7d565b8281528260208201528260408201528260608201528260808201528260a08201520152600435600052600a60205260e060406000206040519061145c82611f7d565b80546001600160a01b03168252600181015460208301908152600282015460408401908152600383015460608501908152600484015460808601908152600585015460a0870190815260069095015460c0870195949193919060ff166114c181611d85565b86526040805197516001600160a01b03168852905160208801529051908601525160608501525160808401525160a0830152516114fd81611d85565b60c0820152f35b3461028957602036600319011261028957600435611520612642565b3360009081526000805160206127cd83398151915260205260409020546115499060ff16611e31565b80600052600b6020526040600020611575600482019161042b600160ff855460101c16610d4281611d85565b805462ff00001916620400001790557ff903f4774c7bd27355f9d7fcbc382b079b164a697a44ac5d95267a4c3cb3bb22600080a26001600055005b34610289576060366003190112610289576004356000818152600a602052604090205460443591602435916115ef906001600160a01b031615156120a4565b600052600a602052604060002061161060018060a01b0382541633146120fa565b611626600160ff60068401541661072d81611d85565b611631828411612133565b6001810154831161164b5760049160038201550155600080f35b60405162461bcd60e51b815260206004820152601160248201527013585e08195e18d959591cc81d1bdd185b607a1b6044820152606490fd5b34610289576020670de0b6b3a76400006116cb6116a036611d6f565b90600052600a8452600560406000206116c360018060a01b0382541615156120a4565b0154906120e7565b04604051908152f35b34610289576000366003190112610289576116ed6124e7565b60015460ff81161561172c5760ff19166001557f5db9ee0a495bf2e6ff9c91a7834c1ba4fdd244a5e8aa4e537bd38aeae4b073aa6020604051338152a1005b638dfc202b60e01b60005260046000fd5b3461028957604036600319011261028957611756611d43565b336001600160a01b03821603611772576104e3906004356126af565b63334bd91960e11b60005260046000fd5b346102895760603660031901126102895760043561179f611d43565b604435906117ab612625565b6117b3612642565b6001600160a01b0316918215611922576020927f40948e3e47ac26599994072f13321706ac61efad4125c7c7a933d48d1d60e72f611907846117f96118d9961515611eb0565b60095461180581612095565b600955604051888101918783523360601b604083015283605483015260748201524260948201526094815261183b60b482611f99565b51902095869485600052600b895261186360018060a01b036001604060002001541615611eed565b60035461187e908490309033906001600160a01b0316612664565b6006546001600160a01b038116156119175761ffff809160a01c165b604051926118a784611f4b565b8984528b840152336040840152846060840152166080820152600160a082015285600052600b89526040600020611fbb565b33600052600e87526118ef846040600020612051565b60408051338152602081019290925290918291820190565b0390a36001600055604051908152f35b5061ffff600061189a565b60405162461bcd60e51b815260206004820152600e60248201526d24b73b30b634b21039b2b63632b960911b6044820152606490fd5b34610289576040366003190112610289576104e3600435611977611d43565b906119936104d982600052600260205260016040600020015490565b612596565b346102895760203660031901126102895760043561ffff8116808203610289576103e8906119c46124e7565b116119ea576006805461ffff60a01b191660a09290921b61ffff60a01b16919091179055005b60405162461bcd60e51b815260206004820152600c60248201526b08ccaca40e8dede40d0d2ced60a31b6044820152606490fd5b346102895760203660031901126102895760206103ac600435600052600260205260016040600020015490565b34610289576080366003190112610289576024356004356044356001600160a01b03811690818103610289573360009081526000805160206127cd83398151915260205260409020546064359190611aa59060ff16611e31565b84600052600a602052604060002092611aca600160ff60068701541661072d81611d85565b60028401908154808511611bfc5785611ba893611b478761ffff9460037f7450e1364879cff4a1f1f2aa6c91de7ba540801fe2abb06fc6a5a8d3b8f670a49b015482101580611bee575b611b1d90611eb0565b60008c8152600c6020526040902060010154611b42906001600160a01b031615611eed565b611f28565b9055546006546001600160a01b039182169391811615611be55760a01c8216905b60405193611b7585611f4b565b8a855260208501526040840152856060840152166080820152600160a082015285600052600c6020526040600020611fbb565b84600052600f602052611bbf846040600020612051565b604080516001600160a01b039290921682526020820192909252a3602060405160018152f35b50600090611b68565b506004850154821115611b14565b60405162461bcd60e51b8152602060048201526011602482015270125b9cdd59999a58da595b9d081554d115607a1b6044820152606490fd5b346102895760003660031901126102895760206040517f751b795d24b92e3d92d1d0d8f2885f4e9c9c269da350af36ae6b49069babf4bf8152f35b346102895760203660031901126102895760043563ffffffff60e01b811680910361028957602090637965db0b60e01b8114908115611cb5575b506040519015158152f35b6301ffc9a760e01b14905082611caa565b34610289576000366003190112610289576006546040516001600160a01b039091168152602090f35b34610289576020366003190112610289577fd697357021bb5c8f09a6c16004ed15487b82d773b5a8c20ff3a7cbf87a95bc636040600435611d2e6124e7565b600754908060075582519182526020820152a1005b602435906001600160a01b038216820361028957565b600435906001600160a01b038216820361028957565b6040906003190112610289576004359060243590565b60051115611d8f57565b634e487b7160e01b600052602160045260246000fd5b602060408183019282815284518094520192019060005b818110611dc95750505090565b8251845260209384019390920191600101611dbc565b60a0809180518452600180831b036020820151166020850152600180831b0360408201511660408501526060810151606085015261ffff6080820151166080850152015191611e2d83611d85565b0152565b15611e3857565b60405162461bcd60e51b815260206004820152601160248201527027b7363c90313934b233b29030b236b4b760791b6044820152606490fd5b15611e7857565b60405162461bcd60e51b815260206004820152601060248201526f4f72646572206e6f742061637469766560801b6044820152606490fd5b15611eb757565b60405162461bcd60e51b815260206004820152600e60248201526d125b9d985b1a5908185b5bdd5b9d60921b6044820152606490fd5b15611ef457565b60405162461bcd60e51b815260206004820152600c60248201526b54726164652065786973747360a01b6044820152606490fd5b91908203918211611f3557565b634e487b7160e01b600052601160045260246000fd5b60c0810190811067ffffffffffffffff821117611f6757604052565b634e487b7160e01b600052604160045260246000fd5b60e0810190811067ffffffffffffffff821117611f6757604052565b90601f8019910116810190811067ffffffffffffffff821117611f6757604052565b8151815560208201516001820180546001600160a01b039283166001600160a01b03199182161790915560408401516002840180549190931691161790556060820151600382015560808201516004909101805461ffff90921661ffff1990921691909117815560a09091015161203181611d85565b61203a81611d85565b62ff000082549160101b169062ff00001916179055565b80549068010000000000000000821015611f67576001820180825582101561207f5760005260206000200155565b634e487b7160e01b600052603260045260246000fd5b6000198114611f355760010190565b156120ab57565b60405162461bcd60e51b815260206004820152601460248201527313dc99195c88191bd95cc81b9bdd08195e1a5cdd60621b6044820152606490fd5b81810292918115918404141715611f3557565b1561210157565b60405162461bcd60e51b815260206004820152600a6024820152692737ba1039b2b63632b960b11b6044820152606490fd5b1561213a57565b60405162461bcd60e51b815260206004820152600d60248201526c496e76616c69642072616e676560981b6044820152606490fd5b1561217657565b60405162461bcd60e51b815260206004820152600d60248201526c10d85b9b9bdd0818d85b98d95b609a1b6044820152606490fd5b156121b257565b60405162461bcd60e51b815260206004820152600e60248201526d496e76616c69642073746174757360901b6044820152606490fd5b91908201809211611f3557565b61ffff16612710039061ffff8211611f3557565b61ffff16612710019061ffff8211611f3557565b1561222457565b60405162461bcd60e51b81526020600482015260126024820152715072696365206f7574206f662072616e676560701b6044820152606490fd5b6040519061226b82611f4b565b600060a0838281528260208201528260408201528260608201528260808201520152565b9060405161229c81611f4b565b8254815260018301546001600160a01b0390811660208301526002840154166040820152600383015460608201526004929092015461ffff8116608084015260101c60ff1660a083611e2d83611d85565b51906001600160701b038216820361028957565b600554604051630240bc6b60e21b81526001600160a01b0390911690606081600481855afa91821561243457600091829361248a575b506001600160701b038216151580612478575b1561244057602060049160405192838092630dfe168160e01b82525afa908115612434576000916123eb575b506004546001600160a01b039182169116036123db576001600160701b0380915b169116670de0b6b3a7640000810290808204670de0b6b3a76400001490151715611f355781156123c5570490565b634e487b7160e01b600052601260045260246000fd5b906001600160701b038091612397565b6020813d60201161242c575b8161240460209383611f99565b810103126124285751906001600160a01b0382168203612425575038612376565b80fd5b5080fd5b3d91506123f7565b6040513d6000823e3d90fd5b60405162461bcd60e51b815260206004820152601060248201526f496e76616c696420726573657276657360801b6044820152606490fd5b506001600160701b038316151561234a565b919092506060823d6060116124df575b816124a760609383611f99565b81010312612425576124b8826122ed565b9060406124c7602085016122ed565b93015163ffffffff8116036124255750909138612337565b3d915061249a565b3360009081527fe5ebfa64fca8d502a8e50c1edffd2c31ef4dad5b396e65d9f397fb028f74abc5602052604090205460ff161561252057565b63e2517d3f60e01b600052336004527fa49807205ce4d355092ef5a8a18f56e8913cf4a201fbe287825b095693c2177560245260446000fd5b600081815260026020908152604080832033845290915290205460ff161561257e5750565b63e2517d3f60e01b6000523360045260245260446000fd5b60008181526002602090815260408083206001600160a01b038616845290915290205460ff1661261e5760008181526002602090815260408083206001600160a01b0395909516808452949091528120805460ff19166001179055339291907f2f8788117e7eff1d82e926ec794901d17c78024a50270940304540a733656f0d9080a4600190565b5050600090565b60ff6001541661263157565b63d93c066560e01b60005260046000fd5b600260005414612653576002600055565b633ee5aeb560e01b60005260046000fd5b6040516323b872dd60e01b60208201526001600160a01b0392831660248201529290911660448301526064808301939093529181526126ad916126a8608483611f99565b612771565b565b60008181526002602090815260408083206001600160a01b038616845290915290205460ff161561261e5760008181526002602090815260408083206001600160a01b0395909516808452949091528120805460ff19169055339291907ff6391f5c32d9c69d2a47ea670b442974b53935d1edc7fd64eb21e047a839171b9080a4600190565b60405163a9059cbb60e01b60208201526001600160a01b039290921660248301526044808301939093529181526126ad916126a8606483611f99565b906000602091828151910182855af115612434576000513d6127c357506001600160a01b0381163b155b6127a25750565b635274afe760e01b60009081526001600160a01b0391909116600452602490fd5b6001141561279b56fe1cb987f031316f2ee4a2088d9df91ba5fcb0a156171fcb58dedd9cae89efd2f0a2646970667358221220d206a4287bd75e414c8b103070613f47e62df4b935463216722a690cd9ec2f7164736f6c634300081c00332f8788117e7eff1d82e926ec794901d17c78024a50270940304540a733656f0d1cb987f031316f2ee4a2088d9df91ba5fcb0a156171fcb58dedd9cae89efd2f0ac33ff75c19e70fe83507db0d683fd3465c996598dc972688b7ace676c89077be5ebfa64fca8d502a8e50c1edffd2c31ef4dad5b396e65d9f397fb028f74abc5",
          "opcodes": "PUSH1 0x80 CALLVALUE PUSH2 0x1C5 JUMPI PUSH1 0x1F PUSH2 0x2C43 CODESIZE DUP2 SWAP1 SUB SWAP2 DUP3 ADD PUSH1 0x1F NOT AND DUP4 ADD SWAP2 PUSH1 0x1 PUSH1 0x1 PUSH1 0x40 SHL SUB DUP4 GT DUP5 DUP5 LT OR PUSH2 0x1CA JUMPI DUP1 DUP5 SWAP3 PUSH1 0x80 SWAP5 PUSH1 0x40 MSTORE DUP4 CODECOPY DUP2 ADD SUB SLT PUSH2 0x1C5 JUMPI PUSH2 0x47 DUP2 PUSH2 0x1E0 JUMP JUMPDEST SWAP1 PUSH2 0x54 PUSH1 0x20 DUP3 ADD PUSH2 0x1E0 JUMP JUMPDEST PUSH2 0x6C PUSH1 0x60 PUSH2 0x65 PUSH1 0x40 DUP6 ADD PUSH2 0x1E0 JUMP JUMPDEST SWAP4 ADD PUSH2 0x1E0 JUMP JUMPDEST PUSH1 0x1 PUSH1 0x0 SSTORE PUSH1 0x6 SLOAD SWAP4 SWAP1 SWAP3 PUSH1 0x1 PUSH1 0x1 PUSH1 0xA0 SHL SUB SWAP1 SWAP2 AND SWAP2 DUP3 ISZERO PUSH2 0x191 JUMPI PUSH1 0x1 PUSH1 0x1 PUSH1 0xA0 SHL SUB AND SWAP1 DUP2 ISZERO PUSH2 0x15E JUMPI PUSH1 0x1 PUSH1 0x1 PUSH1 0xA0 SHL SUB AND SWAP2 DUP3 ISZERO PUSH2 0x12A JUMPI PUSH1 0x3 DUP1 SLOAD PUSH1 0x1 PUSH1 0x1 PUSH1 0xA0 SHL SUB NOT SWAP1 DUP2 AND SWAP3 SWAP1 SWAP3 OR SWAP1 SSTORE PUSH1 0x4 DUP1 SLOAD DUP3 AND SWAP3 SWAP1 SWAP3 OR SWAP1 SWAP2 SSTORE PUSH1 0x5 DUP1 SLOAD SWAP1 SWAP2 AND SWAP2 SWAP1 SWAP2 OR SWAP1 SSTORE PUSH1 0x1 PUSH1 0x1 PUSH1 0xC0 SHL SUB NOT SWAP1 SWAP2 AND PUSH1 0x1 PUSH1 0x1 PUSH1 0xA0 SHL SUB SWAP2 SWAP1 SWAP2 AND OR PUSH3 0xFA0019 PUSH1 0xA2 SHL OR PUSH1 0x6 SSTORE PUSH2 0x106 CALLER PUSH2 0x1F4 JUMP JUMPDEST POP PUSH2 0x110 CALLER PUSH2 0x270 JUMP JUMPDEST POP PUSH2 0x11A CALLER PUSH2 0x308 JUMP JUMPDEST POP PUSH1 0x40 MLOAD PUSH2 0x2822 SWAP1 DUP2 PUSH2 0x3A1 DUP3 CODECOPY RETURN JUMPDEST PUSH1 0x40 MLOAD PUSH3 0x461BCD PUSH1 0xE5 SHL DUP2 MSTORE PUSH1 0x20 PUSH1 0x4 DUP3 ADD MSTORE PUSH1 0xC PUSH1 0x24 DUP3 ADD MSTORE PUSH12 0x24B73B30B634B2103830B4B9 PUSH1 0xA1 SHL PUSH1 0x44 DUP3 ADD MSTORE PUSH1 0x64 SWAP1 REVERT JUMPDEST PUSH1 0x40 MLOAD PUSH3 0x461BCD PUSH1 0xE5 SHL DUP2 MSTORE PUSH1 0x20 PUSH1 0x4 DUP3 ADD MSTORE PUSH1 0xB PUSH1 0x24 DUP3 ADD MSTORE PUSH11 0x496E76616C69642050494F PUSH1 0xA8 SHL PUSH1 0x44 DUP3 ADD MSTORE PUSH1 0x64 SWAP1 REVERT JUMPDEST PUSH1 0x40 MLOAD PUSH3 0x461BCD PUSH1 0xE5 SHL DUP2 MSTORE PUSH1 0x20 PUSH1 0x4 DUP3 ADD MSTORE PUSH1 0xC PUSH1 0x24 DUP3 ADD MSTORE PUSH12 0x125B9D985B1A59081554D115 PUSH1 0xA2 SHL PUSH1 0x44 DUP3 ADD MSTORE PUSH1 0x64 SWAP1 REVERT JUMPDEST PUSH1 0x0 DUP1 REVERT JUMPDEST PUSH4 0x4E487B71 PUSH1 0xE0 SHL PUSH1 0x0 MSTORE PUSH1 0x41 PUSH1 0x4 MSTORE PUSH1 0x24 PUSH1 0x0 REVERT JUMPDEST MLOAD SWAP1 PUSH1 0x1 PUSH1 0x1 PUSH1 0xA0 SHL SUB DUP3 AND DUP3 SUB PUSH2 0x1C5 JUMPI JUMP JUMPDEST PUSH1 0x1 PUSH1 0x1 PUSH1 0xA0 SHL SUB DUP2 AND PUSH1 0x0 SWAP1 DUP2 MSTORE PUSH1 0x0 DUP1 MLOAD PUSH1 0x20 PUSH2 0x2C03 DUP4 CODECOPY DUP2 MLOAD SWAP2 MSTORE PUSH1 0x20 MSTORE PUSH1 0x40 SWAP1 KECCAK256 SLOAD PUSH1 0xFF AND PUSH2 0x26A JUMPI PUSH1 0x1 PUSH1 0x1 PUSH1 0xA0 SHL SUB AND PUSH1 0x0 DUP2 DUP2 MSTORE PUSH1 0x0 DUP1 MLOAD PUSH1 0x20 PUSH2 0x2C03 DUP4 CODECOPY DUP2 MLOAD SWAP2 MSTORE PUSH1 0x20 MSTORE PUSH1 0x40 DUP2 KECCAK256 DUP1 SLOAD PUSH1 0xFF NOT AND PUSH1 0x1 OR SWAP1 SSTORE CALLER SWAP2 SWAP1 PUSH1 0x0 DUP1 MLOAD PUSH1 0x20 PUSH2 0x2BC3 DUP4 CODECOPY DUP2 MLOAD SWAP2 MSTORE DUP2 DUP1 LOG4 PUSH1 0x1 SWAP1 JUMP JUMPDEST POP PUSH1 0x0 SWAP1 JUMP JUMPDEST PUSH1 0x1 PUSH1 0x1 PUSH1 0xA0 SHL SUB DUP2 AND PUSH1 0x0 SWAP1 DUP2 MSTORE PUSH1 0x0 DUP1 MLOAD PUSH1 0x20 PUSH2 0x2C23 DUP4 CODECOPY DUP2 MLOAD SWAP2 MSTORE PUSH1 0x20 MSTORE PUSH1 0x40 SWAP1 KECCAK256 SLOAD PUSH1 0xFF AND PUSH2 0x26A JUMPI PUSH1 0x1 PUSH1 0x1 PUSH1 0xA0 SHL SUB AND PUSH1 0x0 DUP2 DUP2 MSTORE PUSH1 0x0 DUP1 MLOAD PUSH1 0x20 PUSH2 0x2C23 DUP4 CODECOPY DUP2 MLOAD SWAP2 MSTORE PUSH1 0x20 MSTORE PUSH1 0x40 DUP2 KECCAK256 DUP1 SLOAD PUSH1 0xFF NOT AND PUSH1 0x1 OR SWAP1 SSTORE CALLER SWAP2 SWAP1 PUSH32 0xA49807205CE4D355092EF5A8A18F56E8913CF4A201FBE287825B095693C21775 SWAP1 PUSH1 0x0 DUP1 MLOAD PUSH1 0x20 PUSH2 0x2BC3 DUP4 CODECOPY DUP2 MLOAD SWAP2 MSTORE SWAP1 DUP1 LOG4 PUSH1 0x1 SWAP1 JUMP JUMPDEST PUSH1 0x1 PUSH1 0x1 PUSH1 0xA0 SHL SUB DUP2 AND PUSH1 0x0 SWAP1 DUP2 MSTORE PUSH1 0x0 DUP1 MLOAD PUSH1 0x20 PUSH2 0x2BE3 DUP4 CODECOPY DUP2 MLOAD SWAP2 MSTORE PUSH1 0x20 MSTORE PUSH1 0x40 SWAP1 KECCAK256 SLOAD PUSH1 0xFF AND PUSH2 0x26A JUMPI PUSH1 0x1 PUSH1 0x1 PUSH1 0xA0 SHL SUB AND PUSH1 0x0 DUP2 DUP2 MSTORE PUSH1 0x0 DUP1 MLOAD PUSH1 0x20 PUSH2 0x2BE3 DUP4 CODECOPY DUP2 MLOAD SWAP2 MSTORE PUSH1 0x20 MSTORE PUSH1 0x40 DUP2 KECCAK256 DUP1 SLOAD PUSH1 0xFF NOT AND PUSH1 0x1 OR SWAP1 SSTORE CALLER SWAP2 SWAP1 PUSH32 0x751B795D24B92E3D92D1D0D8F2885F4E9C9C269DA350AF36AE6B49069BABF4BF SWAP1 PUSH1 0x0 DUP1 MLOAD PUSH1 0x20 PUSH2 0x2BC3 DUP4 CODECOPY DUP2 MLOAD SWAP2 MSTORE SWAP1 DUP1 LOG4 PUSH1 0x1 SWAP1 JUMP INVALID PUSH1 0x80 PUSH1 0x40 MSTORE PUSH1 0x4 CALLDATASIZE LT ISZERO PUSH2 0x12 JUMPI PUSH1 0x0 DUP1 REVERT JUMPDEST PUSH1 0x0 CALLDATALOAD PUSH1 0xE0 SHR DUP1 PUSH4 0x17E5AAE EQ PUSH2 0x1CEF JUMPI DUP1 PUSH4 0x17E7E58 EQ PUSH2 0x1CC6 JUMPI DUP1 PUSH4 0x1FFC9A7 EQ PUSH2 0x1C70 JUMPI DUP1 PUSH4 0x118C38C7 EQ PUSH2 0x1C35 JUMPI DUP1 PUSH4 0x15DDB393 EQ PUSH2 0x1A4B JUMPI DUP1 PUSH4 0x248A9CA3 EQ PUSH2 0x1A1E JUMPI DUP1 PUSH4 0x2C6CDA93 EQ PUSH2 0x1998 JUMPI DUP1 PUSH4 0x2F2FF15D EQ PUSH2 0x1958 JUMPI DUP1 PUSH4 0x35B109E6 EQ PUSH2 0x1783 JUMPI DUP1 PUSH4 0x36568ABE EQ PUSH2 0x173D JUMPI DUP1 PUSH4 0x3F4BA83A EQ PUSH2 0x16D4 JUMPI DUP1 PUSH4 0x42F868A6 EQ PUSH2 0x1684 JUMPI DUP1 PUSH4 0x4D091A42 EQ PUSH2 0x15B0 JUMPI DUP1 PUSH4 0x50125546 EQ PUSH2 0x1504 JUMPI DUP1 PUSH4 0x5778472A EQ PUSH2 0x13F9 JUMPI DUP1 PUSH4 0x5C975ABB EQ PUSH2 0x13D6 JUMPI DUP1 PUSH4 0x5F2D95AD EQ PUSH2 0x1355 JUMPI DUP1 PUSH4 0x5F6752C8 EQ PUSH2 0x12EC JUMPI DUP1 PUSH4 0x63E31F4B EQ PUSH2 0x1187 JUMPI DUP1 PUSH4 0x65D0E404 EQ PUSH2 0x1060 JUMPI DUP1 PUSH4 0x7489EC23 EQ PUSH2 0xE5B JUMPI DUP1 PUSH4 0x75B238FC EQ PUSH2 0xE20 JUMPI DUP1 PUSH4 0x764D3D44 EQ PUSH2 0xE02 JUMPI DUP1 PUSH4 0x7B7F549C EQ PUSH2 0xDD9 JUMPI DUP1 PUSH4 0x7B8D8008 EQ PUSH2 0xDA8 JUMPI DUP1 PUSH4 0x7CFB41B8 EQ PUSH2 0xCD4 JUMPI DUP1 PUSH4 0x7FD6F15C EQ PUSH2 0xCAF JUMPI DUP1 PUSH4 0x80148F96 EQ PUSH2 0xA9F JUMPI DUP1 PUSH4 0x8456CB59 EQ PUSH2 0xA46 JUMPI DUP1 PUSH4 0x91D14854 EQ PUSH2 0x9F9 JUMPI DUP1 PUSH4 0x927C7742 EQ PUSH2 0x982 JUMPI DUP1 PUSH4 0x92AEEE7E EQ PUSH2 0x94E JUMPI DUP1 PUSH4 0x9AB4A445 EQ PUSH2 0x925 JUMPI DUP1 PUSH4 0xA217FDDF EQ PUSH2 0x909 JUMPI DUP1 PUSH4 0xA7DCF3C3 EQ PUSH2 0x8E4 JUMPI DUP1 PUSH4 0xA9FAA72E EQ PUSH2 0x8BB JUMPI DUP1 PUSH4 0xB0091F69 EQ PUSH2 0x7D5 JUMPI DUP1 PUSH4 0xC8408113 EQ PUSH2 0x792 JUMPI DUP1 PUSH4 0xCDD1B603 EQ PUSH2 0x6C4 JUMPI DUP1 PUSH4 0xCDEC2F23 EQ PUSH2 0x653 JUMPI DUP1 PUSH4 0xD2896DD9 EQ PUSH2 0x4E5 JUMPI DUP1 PUSH4 0xD547741F EQ PUSH2 0x49E JUMPI DUP1 PUSH4 0xDCD11A3F EQ PUSH2 0x3B4 JUMPI DUP1 PUSH4 0xE1A75BFC EQ PUSH2 0x391 JUMPI DUP1 PUSH4 0xE24DDE39 EQ PUSH2 0x315 JUMPI DUP1 PUSH4 0xE4CBAC40 EQ PUSH2 0x28E JUMPI PUSH4 0xF8CA2BE7 EQ PUSH2 0x221 JUMPI PUSH1 0x0 DUP1 REVERT JUMPDEST CALLVALUE PUSH2 0x289 JUMPI PUSH1 0x0 CALLDATASIZE PUSH1 0x3 NOT ADD SLT PUSH2 0x289 JUMPI PUSH1 0x60 PUSH2 0x23C PUSH2 0x2301 JUMP JUMPDEST PUSH2 0xFFFF PUSH1 0x6 SLOAD PUSH1 0xB0 SHR AND SWAP1 PUSH2 0x2710 PUSH2 0x276 PUSH2 0xFFFF PUSH2 0x26F DUP4 PUSH2 0x268 DUP4 PUSH2 0x261 DUP10 PUSH2 0x21F5 JUMP JUMPDEST AND DUP8 PUSH2 0x20E7 JUMP JUMPDEST DIV SWAP6 PUSH2 0x2209 JUMP JUMPDEST AND DUP4 PUSH2 0x20E7 JUMP JUMPDEST DIV PUSH1 0x40 MLOAD SWAP3 DUP4 MSTORE PUSH1 0x20 DUP4 ADD MSTORE PUSH1 0x40 DUP3 ADD MSTORE RETURN JUMPDEST PUSH1 0x0 DUP1 REVERT JUMPDEST CALLVALUE PUSH2 0x289 JUMPI PUSH1 0x20 CALLDATASIZE PUSH1 0x3 NOT ADD SLT PUSH2 0x289 JUMPI PUSH1 0x1 PUSH1 0x1 PUSH1 0xA0 SHL SUB PUSH2 0x2AF PUSH2 0x1D59 JUMP JUMPDEST AND PUSH1 0x0 MSTORE PUSH1 0xD PUSH1 0x20 MSTORE PUSH1 0x40 PUSH1 0x0 KECCAK256 PUSH1 0x40 MLOAD SWAP1 DUP2 PUSH1 0x20 DUP3 SLOAD SWAP2 DUP3 DUP2 MSTORE ADD SWAP2 PUSH1 0x0 MSTORE PUSH1 0x20 PUSH1 0x0 KECCAK256 SWAP1 PUSH1 0x0 JUMPDEST DUP2 DUP2 LT PUSH2 0x2FF JUMPI PUSH2 0x2FB DUP6 PUSH2 0x2EF DUP2 DUP8 SUB DUP3 PUSH2 0x1F99 JUMP JUMPDEST PUSH1 0x40 MLOAD SWAP2 DUP3 SWAP2 DUP3 PUSH2 0x1DA5 JUMP JUMPDEST SUB SWAP1 RETURN JUMPDEST DUP3 SLOAD DUP5 MSTORE PUSH1 0x20 SWAP1 SWAP4 ADD SWAP3 PUSH1 0x1 SWAP3 DUP4 ADD SWAP3 ADD PUSH2 0x2D8 JUMP JUMPDEST CALLVALUE PUSH2 0x289 JUMPI PUSH1 0x20 CALLDATASIZE PUSH1 0x3 NOT ADD SLT PUSH2 0x289 JUMPI PUSH1 0x4 CALLDATALOAD PUSH2 0xFFFF DUP2 AND DUP1 DUP3 SUB PUSH2 0x289 JUMPI PUSH32 0x61FFE63469FB8786675A96532A0FED8083715A6329D830492078CEDD3BD9C0D6 SWAP2 PUSH1 0x40 SWAP2 PUSH2 0x362 PUSH2 0x24E7 JUMP JUMPDEST PUSH1 0x6 DUP1 SLOAD PUSH2 0xFFFF PUSH1 0xB0 SHL NOT DUP2 AND PUSH1 0xB0 SWAP5 DUP6 SHL PUSH2 0xFFFF PUSH1 0xB0 SHL AND OR SWAP1 SWAP2 SSTORE DUP4 MLOAD SWAP3 SHR PUSH2 0xFFFF AND DUP3 MSTORE PUSH1 0x20 DUP3 ADD MSTORE LOG1 STOP JUMPDEST CALLVALUE PUSH2 0x289 JUMPI PUSH1 0x0 CALLDATASIZE PUSH1 0x3 NOT ADD SLT PUSH2 0x289 JUMPI PUSH1 0x20 PUSH2 0x3AC PUSH2 0x2301 JUMP JUMPDEST PUSH1 0x40 MLOAD SWAP1 DUP2 MSTORE RETURN JUMPDEST CALLVALUE PUSH2 0x289 JUMPI PUSH1 0x20 CALLDATASIZE PUSH1 0x3 NOT ADD SLT PUSH2 0x289 JUMPI PUSH1 0x4 CALLDATALOAD PUSH2 0x3D0 PUSH2 0x2642 JUMP JUMPDEST CALLER PUSH1 0x0 SWAP1 DUP2 MSTORE PUSH1 0x0 DUP1 MLOAD PUSH1 0x20 PUSH2 0x27CD DUP4 CODECOPY DUP2 MLOAD SWAP2 MSTORE PUSH1 0x20 MSTORE PUSH1 0x40 SWAP1 KECCAK256 SLOAD PUSH2 0x3F9 SWAP1 PUSH1 0xFF AND PUSH2 0x1E31 JUMP JUMPDEST DUP1 PUSH1 0x0 MSTORE PUSH1 0xB PUSH1 0x20 MSTORE PUSH1 0x40 PUSH1 0x0 KECCAK256 PUSH2 0x44C PUSH1 0x4 DUP3 ADD SWAP2 PUSH2 0x42B PUSH1 0x1 PUSH1 0xFF DUP6 SLOAD PUSH1 0x10 SHR AND PUSH2 0x425 DUP2 PUSH2 0x1D85 JUMP JUMPDEST EQ PUSH2 0x21AB JUMP JUMPDEST PUSH1 0x3 DUP1 SLOAD PUSH1 0x2 DUP4 ADD SLOAD SWAP3 SWAP1 SWAP2 ADD SLOAD SWAP2 PUSH1 0x1 PUSH1 0x1 PUSH1 0xA0 SHL SUB SWAP1 DUP2 AND SWAP2 AND PUSH2 0x2735 JUMP JUMPDEST DUP1 SLOAD PUSH3 0xFF0000 NOT AND PUSH3 0x30000 OR SWAP1 SSTORE PUSH1 0x0 DUP2 DUP2 MSTORE PUSH1 0x10 PUSH1 0x20 MSTORE PUSH1 0x40 DUP2 KECCAK256 DUP1 SLOAD PUSH1 0xFF NOT AND PUSH1 0x1 OR SWAP1 SSTORE PUSH31 0x63C7A53686B11E863C5F827C066BFBE9430CA95B1949D61445CE106261ACA2 SWAP1 DUP1 LOG2 PUSH1 0x1 PUSH1 0x0 SSTORE STOP JUMPDEST CALLVALUE PUSH2 0x289 JUMPI PUSH1 0x40 CALLDATASIZE PUSH1 0x3 NOT ADD SLT PUSH2 0x289 JUMPI PUSH2 0x4E3 PUSH1 0x4 CALLDATALOAD PUSH2 0x4BD PUSH2 0x1D43 JUMP JUMPDEST SWAP1 PUSH2 0x4DE PUSH2 0x4D9 DUP3 PUSH1 0x0 MSTORE PUSH1 0x2 PUSH1 0x20 MSTORE PUSH1 0x1 PUSH1 0x40 PUSH1 0x0 KECCAK256 ADD SLOAD SWAP1 JUMP JUMPDEST PUSH2 0x2559 JUMP JUMPDEST PUSH2 0x26AF JUMP JUMPDEST STOP JUMPDEST CALLVALUE PUSH2 0x289 JUMPI PUSH1 0x20 CALLDATASIZE PUSH1 0x3 NOT ADD SLT PUSH2 0x289 JUMPI CALLER PUSH1 0x0 SWAP1 DUP2 MSTORE PUSH1 0x0 DUP1 MLOAD PUSH1 0x20 PUSH2 0x27CD DUP4 CODECOPY DUP2 MLOAD SWAP2 MSTORE PUSH1 0x20 MSTORE PUSH1 0x40 SWAP1 KECCAK256 SLOAD PUSH1 0x4 CALLDATALOAD SWAP1 PUSH2 0x523 SWAP1 PUSH1 0xFF AND PUSH2 0x1E31 JUMP JUMPDEST PUSH2 0x52B PUSH2 0x2642 JUMP JUMPDEST DUP1 PUSH1 0x0 MSTORE PUSH1 0xB PUSH1 0x20 MSTORE PUSH32 0xD61E48D1B98BB8A0619B412553CA708BD20ADC84AADEA59CDA5DF4B36EFB5C10 PUSH1 0x40 PUSH1 0x0 KECCAK256 PUSH1 0x4 DUP2 ADD SWAP1 DUP2 SLOAD SWAP2 PUSH2 0x577 PUSH1 0x1 PUSH1 0xFF DUP6 PUSH1 0x10 SHR AND PUSH2 0x425 DUP2 PUSH2 0x1D85 JUMP JUMPDEST PUSH1 0x0 PUSH1 0x3 DUP4 ADD SWAP4 PUSH2 0xFFFF DUP6 SLOAD SWAP2 AND DUP1 ISZERO ISZERO DUP1 PUSH2 0x63F JUMPI JUMPDEST PUSH2 0x61B JUMPI JUMPDEST POP PUSH1 0x3 SLOAD PUSH1 0x1 DUP6 ADD SLOAD PUSH2 0x5B3 SWAP3 SWAP2 PUSH1 0x1 PUSH1 0x1 PUSH1 0xA0 SHL SUB SWAP2 DUP3 AND SWAP2 AND PUSH2 0x2735 JUMP JUMPDEST DUP1 PUSH2 0x5F8 JUMPI JUMPDEST POP DUP1 SLOAD PUSH3 0xFF0000 NOT AND PUSH3 0x20000 OR SWAP1 SSTORE PUSH1 0x2 ADD SLOAD SWAP1 SLOAD PUSH1 0x40 DUP1 MLOAD PUSH1 0x1 PUSH1 0x1 PUSH1 0xA0 SHL SUB SWAP4 SWAP1 SWAP4 AND DUP4 MSTORE PUSH1 0x20 DUP4 ADD SWAP2 SWAP1 SWAP2 MSTORE DUP2 SWAP1 DUP2 ADD JUMPDEST SUB SWAP1 LOG2 PUSH1 0x1 PUSH1 0x0 SSTORE STOP JUMPDEST PUSH1 0x3 SLOAD PUSH1 0x6 SLOAD PUSH2 0x615 SWAP3 SWAP2 PUSH1 0x1 PUSH1 0x1 PUSH1 0xA0 SHL SUB SWAP2 DUP3 AND SWAP2 AND PUSH2 0x2735 JUMP JUMPDEST DUP6 PUSH2 0x5B9 JUMP JUMPDEST DUP2 SWAP3 POP PUSH2 0x2710 PUSH2 0x631 PUSH2 0x639 SWAP3 PUSH2 0x5B3 SWAP5 PUSH2 0x20E7 JUMP JUMPDEST DIV DUP1 SWAP4 PUSH2 0x1F28 JUMP JUMPDEST SWAP1 PUSH2 0x593 JUMP JUMPDEST POP PUSH1 0x6 SLOAD PUSH1 0x1 PUSH1 0x1 PUSH1 0xA0 SHL SUB AND ISZERO ISZERO PUSH2 0x58E JUMP JUMPDEST CALLVALUE PUSH2 0x289 JUMPI PUSH1 0x20 CALLDATASIZE PUSH1 0x3 NOT ADD SLT PUSH2 0x289 JUMPI PUSH32 0x8F93286D6F131E956D1AA672D3ECDC817F24EFC20B223B0DE5D591F454EDC347 PUSH1 0x40 PUSH2 0x68F PUSH2 0x1D59 JUMP JUMPDEST PUSH2 0x697 PUSH2 0x24E7 JUMP JUMPDEST PUSH1 0x6 DUP1 SLOAD PUSH1 0x1 PUSH1 0x1 PUSH1 0xA0 SHL SUB SWAP3 DUP4 AND PUSH1 0x1 PUSH1 0x1 PUSH1 0xA0 SHL SUB NOT DUP3 AND DUP2 OR SWAP1 SWAP3 SSTORE DUP4 MLOAD SWAP3 AND DUP3 MSTORE PUSH1 0x20 DUP3 ADD MSTORE LOG1 STOP JUMPDEST CALLVALUE PUSH2 0x289 JUMPI PUSH2 0x6D2 CALLDATASIZE PUSH2 0x1D6F JUMP JUMPDEST SWAP1 DUP1 PUSH1 0x0 MSTORE PUSH1 0xA PUSH1 0x20 MSTORE PUSH2 0x6F4 PUSH1 0x1 DUP1 PUSH1 0xA0 SHL SUB PUSH1 0x40 PUSH1 0x0 KECCAK256 SLOAD AND ISZERO ISZERO PUSH2 0x20A4 JUMP JUMPDEST PUSH1 0x0 MSTORE PUSH1 0xA PUSH1 0x20 MSTORE PUSH1 0x5 PUSH1 0x40 PUSH1 0x0 KECCAK256 PUSH2 0x717 PUSH1 0x1 DUP1 PUSH1 0xA0 SHL SUB DUP3 SLOAD AND CALLER EQ PUSH2 0x20FA JUMP JUMPDEST PUSH2 0x733 PUSH1 0x1 PUSH1 0xFF PUSH1 0x6 DUP5 ADD SLOAD AND PUSH2 0x72D DUP2 PUSH2 0x1D85 JUMP JUMPDEST EQ PUSH2 0x1E71 JUMP JUMPDEST PUSH2 0x783 PUSH2 0x73E PUSH2 0x2301 JUMP JUMPDEST PUSH2 0x2710 PUSH2 0x771 PUSH2 0xFFFF PUSH1 0x6 SLOAD PUSH1 0xB0 SHR AND SWAP3 PUSH2 0xFFFF PUSH2 0x76A DUP5 PUSH2 0x268 DUP4 PUSH2 0x763 DUP10 PUSH2 0x21F5 JUMP JUMPDEST AND DUP6 PUSH2 0x20E7 JUMP JUMPDEST AND SWAP1 PUSH2 0x20E7 JUMP JUMPDEST DIV SWAP1 DUP6 LT ISZERO SWAP1 DUP2 PUSH2 0x787 JUMPI JUMPDEST POP PUSH2 0x221D JUMP JUMPDEST ADD SSTORE STOP JUMPDEST SWAP1 POP DUP5 GT ISZERO DUP6 PUSH2 0x77D JUMP JUMPDEST CALLVALUE PUSH2 0x289 JUMPI PUSH1 0x20 CALLDATASIZE PUSH1 0x3 NOT ADD SLT PUSH2 0x289 JUMPI PUSH2 0x7AB PUSH2 0x225E JUMP JUMPDEST POP PUSH1 0x4 CALLDATALOAD PUSH1 0x0 MSTORE PUSH1 0xC PUSH1 0x20 MSTORE PUSH1 0xC0 PUSH2 0x7C6 PUSH1 0x40 PUSH1 0x0 KECCAK256 PUSH2 0x228F JUMP JUMPDEST PUSH2 0x7D3 PUSH1 0x40 MLOAD DUP1 SWAP3 PUSH2 0x1DDF JUMP JUMPDEST RETURN JUMPDEST CALLVALUE PUSH2 0x289 JUMPI PUSH1 0x20 CALLDATASIZE PUSH1 0x3 NOT ADD SLT PUSH2 0x289 JUMPI PUSH1 0x4 CALLDATALOAD PUSH2 0x7F1 PUSH2 0x2642 JUMP JUMPDEST CALLER PUSH1 0x0 SWAP1 DUP2 MSTORE PUSH1 0x0 DUP1 MLOAD PUSH1 0x20 PUSH2 0x27CD DUP4 CODECOPY DUP2 MLOAD SWAP2 MSTORE PUSH1 0x20 MSTORE PUSH1 0x40 SWAP1 KECCAK256 SLOAD PUSH2 0x81A SWAP1 PUSH1 0xFF AND PUSH2 0x1E31 JUMP JUMPDEST DUP1 PUSH1 0x0 MSTORE PUSH1 0xC PUSH1 0x20 MSTORE PUSH1 0x40 PUSH1 0x0 KECCAK256 PUSH1 0x4 DUP2 ADD SWAP1 PUSH2 0x843 PUSH1 0x1 PUSH1 0xFF DUP5 SLOAD PUSH1 0x10 SHR AND PUSH2 0x425 DUP2 PUSH2 0x1D85 JUMP JUMPDEST DUP1 SLOAD PUSH1 0x0 MSTORE PUSH1 0xA PUSH1 0x20 MSTORE PUSH2 0x866 PUSH1 0x2 PUSH1 0x3 PUSH1 0x40 PUSH1 0x0 KECCAK256 SWAP4 ADD SLOAD SWAP3 ADD SWAP2 DUP3 SLOAD PUSH2 0x21E8 JUMP JUMPDEST SWAP1 SSTORE DUP1 SLOAD PUSH3 0xFF0000 NOT AND PUSH3 0x30000 OR SWAP1 SSTORE PUSH1 0x0 DUP2 DUP2 MSTORE PUSH1 0x10 PUSH1 0x20 MSTORE PUSH1 0x40 DUP2 KECCAK256 DUP1 SLOAD PUSH1 0xFF NOT AND PUSH1 0x1 OR SWAP1 SSTORE PUSH32 0x974EC1B137D0B76FD7CDAB57C57BAC61D82C6038046BECCECDD622610B4D79D6 SWAP1 DUP1 LOG2 PUSH1 0x1 PUSH1 0x0 SSTORE STOP JUMPDEST CALLVALUE PUSH2 0x289 JUMPI PUSH1 0x0 CALLDATASIZE PUSH1 0x3 NOT ADD SLT PUSH2 0x289 JUMPI PUSH1 0x4 SLOAD PUSH1 0x40 MLOAD PUSH1 0x1 PUSH1 0x1 PUSH1 0xA0 SHL SUB SWAP1 SWAP2 AND DUP2 MSTORE PUSH1 0x20 SWAP1 RETURN JUMPDEST CALLVALUE PUSH2 0x289 JUMPI PUSH1 0x0 CALLDATASIZE PUSH1 0x3 NOT ADD SLT PUSH2 0x289 JUMPI PUSH1 0x20 PUSH2 0xFFFF PUSH1 0x6 SLOAD PUSH1 0xB0 SHR AND PUSH1 0x40 MLOAD SWAP1 DUP2 MSTORE RETURN JUMPDEST CALLVALUE PUSH2 0x289 JUMPI PUSH1 0x0 CALLDATASIZE PUSH1 0x3 NOT ADD SLT PUSH2 0x289 JUMPI PUSH1 0x20 PUSH1 0x40 MLOAD PUSH1 0x0 DUP2 MSTORE RETURN JUMPDEST CALLVALUE PUSH2 0x289 JUMPI PUSH1 0x0 CALLDATASIZE PUSH1 0x3 NOT ADD SLT PUSH2 0x289 JUMPI PUSH1 0x3 SLOAD PUSH1 0x40 MLOAD PUSH1 0x1 PUSH1 0x1 PUSH1 0xA0 SHL SUB SWAP1 SWAP2 AND DUP2 MSTORE PUSH1 0x20 SWAP1 RETURN JUMPDEST CALLVALUE PUSH2 0x289 JUMPI PUSH1 0x20 CALLDATASIZE PUSH1 0x3 NOT ADD SLT PUSH2 0x289 JUMPI PUSH2 0x967 PUSH2 0x225E JUMP JUMPDEST POP PUSH1 0x4 CALLDATALOAD PUSH1 0x0 MSTORE PUSH1 0xB PUSH1 0x20 MSTORE PUSH1 0xC0 PUSH2 0x7C6 PUSH1 0x40 PUSH1 0x0 KECCAK256 PUSH2 0x228F JUMP JUMPDEST CALLVALUE PUSH2 0x289 JUMPI PUSH1 0x20 CALLDATASIZE PUSH1 0x3 NOT ADD SLT PUSH2 0x289 JUMPI PUSH1 0x1 PUSH1 0x1 PUSH1 0xA0 SHL SUB PUSH2 0x9A3 PUSH2 0x1D59 JUMP JUMPDEST AND PUSH1 0x0 MSTORE PUSH1 0xE PUSH1 0x20 MSTORE PUSH1 0x40 PUSH1 0x0 KECCAK256 PUSH1 0x40 MLOAD SWAP1 DUP2 PUSH1 0x20 DUP3 SLOAD SWAP2 DUP3 DUP2 MSTORE ADD SWAP2 PUSH1 0x0 MSTORE PUSH1 0x20 PUSH1 0x0 KECCAK256 SWAP1 PUSH1 0x0 JUMPDEST DUP2 DUP2 LT PUSH2 0x9E3 JUMPI PUSH2 0x2FB DUP6 PUSH2 0x2EF DUP2 DUP8 SUB DUP3 PUSH2 0x1F99 JUMP JUMPDEST DUP3 SLOAD DUP5 MSTORE PUSH1 0x20 SWAP1 SWAP4 ADD SWAP3 PUSH1 0x1 SWAP3 DUP4 ADD SWAP3 ADD PUSH2 0x9CC JUMP JUMPDEST CALLVALUE PUSH2 0x289 JUMPI PUSH1 0x40 CALLDATASIZE PUSH1 0x3 NOT ADD SLT PUSH2 0x289 JUMPI PUSH2 0xA12 PUSH2 0x1D43 JUMP JUMPDEST PUSH1 0x4 CALLDATALOAD PUSH1 0x0 MSTORE PUSH1 0x2 PUSH1 0x20 MSTORE PUSH1 0x40 PUSH1 0x0 KECCAK256 SWAP1 PUSH1 0x1 DUP1 PUSH1 0xA0 SHL SUB AND PUSH1 0x0 MSTORE PUSH1 0x20 MSTORE PUSH1 0x20 PUSH1 0xFF PUSH1 0x40 PUSH1 0x0 KECCAK256 SLOAD AND PUSH1 0x40 MLOAD SWAP1 ISZERO ISZERO DUP2 MSTORE RETURN JUMPDEST CALLVALUE PUSH2 0x289 JUMPI PUSH1 0x0 CALLDATASIZE PUSH1 0x3 NOT ADD SLT PUSH2 0x289 JUMPI PUSH2 0xA5F PUSH2 0x24E7 JUMP JUMPDEST PUSH2 0xA67 PUSH2 0x2625 JUMP JUMPDEST PUSH1 0x1 PUSH1 0xFF NOT DUP2 SLOAD AND OR PUSH1 0x1 SSTORE PUSH32 0x62E78CEA01BEE320CD4E420270B5EA74000D11B0C9F74754EBDBFC544B05A258 PUSH1 0x20 PUSH1 0x40 MLOAD CALLER DUP2 MSTORE LOG1 STOP JUMPDEST CALLVALUE PUSH2 0x289 JUMPI PUSH1 0x80 CALLDATASIZE PUSH1 0x3 NOT ADD SLT PUSH2 0x289 JUMPI PUSH1 0x20 PUSH1 0x24 CALLDATALOAD PUSH1 0x4 CALLDATALOAD PUSH1 0x64 CALLDATALOAD PUSH1 0x44 CALLDATALOAD PUSH2 0xAC6 PUSH2 0x2625 JUMP JUMPDEST PUSH2 0xACE PUSH2 0x2642 JUMP JUMPDEST PUSH2 0xADC PUSH1 0x7 SLOAD DUP5 LT ISZERO PUSH2 0x1EB0 JUMP JUMPDEST DUP4 DUP2 GT DUP1 PUSH2 0xCA5 JUMPI JUMPDEST PUSH2 0xAEE SWAP1 PUSH2 0x2133 JUMP JUMPDEST PUSH2 0xB2F PUSH2 0xAF9 PUSH2 0x2301 JUMP JUMPDEST PUSH2 0x2710 PUSH2 0xB1E PUSH2 0xFFFF PUSH1 0x6 SLOAD PUSH1 0xB0 SHR AND SWAP3 PUSH2 0xFFFF PUSH2 0x76A DUP5 PUSH2 0x268 DUP4 PUSH2 0x763 DUP10 PUSH2 0x21F5 JUMP JUMPDEST DIV SWAP1 DUP5 LT ISZERO SWAP1 DUP2 PUSH2 0xC9A JUMPI POP PUSH2 0x221D JUMP JUMPDEST PUSH1 0x8 SLOAD PUSH2 0xB3B DUP2 PUSH2 0x2095 JUMP JUMPDEST PUSH1 0x8 SSTORE PUSH1 0x40 MLOAD DUP7 DUP2 ADD SWAP2 CALLER PUSH1 0x60 SHL DUP4 MSTORE DUP6 PUSH1 0x34 DUP4 ADD MSTORE PUSH1 0x54 DUP3 ADD MSTORE TIMESTAMP PUSH1 0x74 DUP3 ADD MSTORE PUSH1 0x74 DUP2 MSTORE PUSH2 0xB6B PUSH1 0x94 DUP3 PUSH2 0x1F99 JUMP JUMPDEST MLOAD SWAP1 KECCAK256 SWAP4 PUSH2 0xB87 DUP5 PUSH1 0x1 DUP1 PUSH1 0xA0 SHL SUB PUSH1 0x3 SLOAD AND ADDRESS SWAP1 CALLER SWAP1 PUSH2 0x2664 JUMP JUMPDEST PUSH1 0x40 MLOAD PUSH2 0xB93 DUP2 PUSH2 0x1F7D JUMP JUMPDEST CALLER DUP2 MSTORE PUSH1 0x6 DUP8 DUP3 ADD SWAP2 DUP7 DUP4 MSTORE PUSH1 0x40 DUP2 ADD DUP8 DUP2 MSTORE PUSH1 0x60 DUP3 ADD DUP6 DUP2 MSTORE PUSH1 0x80 DUP4 ADD SWAP1 DUP8 DUP3 MSTORE PUSH1 0xA0 DUP5 ADD SWAP3 DUP10 DUP5 MSTORE PUSH1 0xC0 DUP6 ADD SWAP7 PUSH1 0x1 DUP9 MSTORE DUP13 PUSH1 0x0 MSTORE PUSH1 0xA DUP15 MSTORE PUSH1 0x40 PUSH1 0x0 KECCAK256 SWAP6 PUSH1 0x1 DUP1 PUSH1 0xA0 SHL SUB SWAP1 PUSH1 0x1 DUP1 PUSH1 0xA0 SHL SUB SWAP1 MLOAD AND AND PUSH12 0xFFFFFFFFFFFFFFFFFFFFFFFF PUSH1 0xA0 SHL DUP8 SLOAD AND OR DUP7 SSTORE MLOAD PUSH1 0x1 DUP7 ADD SSTORE MLOAD PUSH1 0x2 DUP6 ADD SSTORE MLOAD PUSH1 0x3 DUP5 ADD SSTORE MLOAD PUSH1 0x4 DUP4 ADD SSTORE MLOAD PUSH1 0x5 DUP3 ADD SSTORE ADD SWAP1 MLOAD PUSH2 0xC27 DUP2 PUSH2 0x1D85 JUMP JUMPDEST PUSH2 0xC30 DUP2 PUSH2 0x1D85 JUMP JUMPDEST PUSH1 0xFF DUP1 NOT DUP4 SLOAD AND SWAP2 AND OR SWAP1 SSTORE CALLER PUSH1 0x0 MSTORE PUSH1 0xD DUP7 MSTORE PUSH2 0xC52 DUP6 PUSH1 0x40 PUSH1 0x0 KECCAK256 PUSH2 0x2051 JUMP JUMPDEST PUSH1 0x40 MLOAD SWAP4 DUP5 MSTORE DUP6 DUP5 ADD MSTORE PUSH1 0x40 DUP4 ADD MSTORE PUSH1 0x60 DUP3 ADD MSTORE DUP2 PUSH32 0x6BCBD6AB6D795A7E990431A97EA8F8808E81B8580FB9D6D581E5FCBB16E3D127 PUSH1 0x80 CALLER SWAP4 LOG3 PUSH1 0x1 PUSH1 0x0 SSTORE PUSH1 0x40 MLOAD SWAP1 DUP2 MSTORE RETURN JUMPDEST SWAP1 POP DUP4 GT ISZERO DUP8 PUSH2 0x77D JUMP JUMPDEST POP DUP3 DUP2 GT ISZERO PUSH2 0xAE5 JUMP JUMPDEST CALLVALUE PUSH2 0x289 JUMPI PUSH1 0x0 CALLDATASIZE PUSH1 0x3 NOT ADD SLT PUSH2 0x289 JUMPI PUSH1 0x20 PUSH2 0xFFFF PUSH1 0x6 SLOAD PUSH1 0xA0 SHR AND PUSH1 0x40 MLOAD SWAP1 DUP2 MSTORE RETURN JUMPDEST CALLVALUE PUSH2 0x289 JUMPI PUSH1 0x20 CALLDATASIZE PUSH1 0x3 NOT ADD SLT PUSH2 0x289 JUMPI PUSH1 0x4 CALLDATALOAD PUSH2 0xCF0 PUSH2 0x2642 JUMP JUMPDEST CALLER PUSH1 0x0 SWAP1 DUP2 MSTORE PUSH1 0x0 DUP1 MLOAD PUSH1 0x20 PUSH2 0x27CD DUP4 CODECOPY DUP2 MLOAD SWAP2 MSTORE PUSH1 0x20 MSTORE PUSH1 0x40 SWAP1 KECCAK256 SLOAD PUSH2 0xD19 SWAP1 PUSH1 0xFF AND PUSH2 0x1E31 JUMP JUMPDEST DUP1 PUSH1 0x0 MSTORE PUSH1 0xC PUSH1 0x20 MSTORE PUSH1 0x40 PUSH1 0x0 KECCAK256 PUSH1 0x4 DUP2 ADD SWAP1 PUSH2 0xD48 PUSH1 0x1 PUSH1 0xFF DUP5 SLOAD PUSH1 0x10 SHR AND PUSH2 0xD42 DUP2 PUSH2 0x1D85 JUMP JUMPDEST EQ PUSH2 0x216F JUMP JUMPDEST DUP1 SLOAD PUSH1 0x0 MSTORE PUSH1 0xA PUSH1 0x20 MSTORE PUSH2 0xD6B PUSH1 0x2 PUSH1 0x3 PUSH1 0x40 PUSH1 0x0 KECCAK256 SWAP4 ADD SLOAD SWAP3 ADD SWAP2 DUP3 SLOAD PUSH2 0x21E8 JUMP JUMPDEST SWAP1 SSTORE DUP1 SLOAD PUSH3 0xFF0000 NOT AND PUSH3 0x40000 OR SWAP1 SSTORE PUSH32 0x4E09303EA9C3932854B42432AA9F65348205F9681747864BF122101B35371503 PUSH1 0x0 DUP1 LOG2 PUSH1 0x1 PUSH1 0x0 SSTORE STOP JUMPDEST CALLVALUE PUSH2 0x289 JUMPI PUSH1 0x20 CALLDATASIZE PUSH1 0x3 NOT ADD SLT PUSH2 0x289 JUMPI PUSH1 0x4 CALLDATALOAD PUSH1 0x0 MSTORE PUSH1 0x10 PUSH1 0x20 MSTORE PUSH1 0x20 PUSH1 0xFF PUSH1 0x40 PUSH1 0x0 KECCAK256 SLOAD AND PUSH1 0x40 MLOAD SWAP1 ISZERO ISZERO DUP2 MSTORE RETURN JUMPDEST CALLVALUE PUSH2 0x289 JUMPI PUSH1 0x0 CALLDATASIZE PUSH1 0x3 NOT ADD SLT PUSH2 0x289 JUMPI PUSH1 0x5 SLOAD PUSH1 0x40 MLOAD PUSH1 0x1 PUSH1 0x1 PUSH1 0xA0 SHL SUB SWAP1 SWAP2 AND DUP2 MSTORE PUSH1 0x20 SWAP1 RETURN JUMPDEST CALLVALUE PUSH2 0x289 JUMPI PUSH1 0x0 CALLDATASIZE PUSH1 0x3 NOT ADD SLT PUSH2 0x289 JUMPI PUSH1 0x20 PUSH1 0x7 SLOAD PUSH1 0x40 MLOAD SWAP1 DUP2 MSTORE RETURN JUMPDEST CALLVALUE PUSH2 0x289 JUMPI PUSH1 0x0 CALLDATASIZE PUSH1 0x3 NOT ADD SLT PUSH2 0x289 JUMPI PUSH1 0x20 PUSH1 0x40 MLOAD PUSH32 0xA49807205CE4D355092EF5A8A18F56E8913CF4A201FBE287825B095693C21775 DUP2 MSTORE RETURN JUMPDEST CALLVALUE PUSH2 0x289 JUMPI PUSH1 0x20 CALLDATASIZE PUSH1 0x3 NOT ADD SLT PUSH2 0x289 JUMPI PUSH1 0x4 CALLDATALOAD PUSH2 0xE77 PUSH2 0x2642 JUMP JUMPDEST DUP1 PUSH1 0x0 MSTORE PUSH1 0xA PUSH1 0x20 MSTORE PUSH1 0x40 PUSH1 0x0 KECCAK256 SWAP1 PUSH1 0x1 DUP1 PUSH1 0xA0 SHL SUB DUP3 SLOAD AND SWAP1 DUP2 CALLER EQ DUP1 ISZERO PUSH2 0x103A JUMPI JUMPDEST PUSH2 0xEA4 SWAP1 PUSH2 0x20FA JUMP JUMPDEST PUSH1 0x6 DUP4 ADD SWAP2 DUP3 SLOAD PUSH2 0xEBD PUSH1 0x1 PUSH1 0xFF DUP4 AND PUSH2 0xD42 DUP2 PUSH2 0x1D85 JUMP JUMPDEST DUP3 PUSH1 0x0 MSTORE PUSH1 0xF PUSH1 0x20 MSTORE PUSH1 0x40 PUSH1 0x0 KECCAK256 SWAP4 PUSH1 0x40 MLOAD DUP1 DUP7 PUSH1 0x20 DUP3 SWAP9 SLOAD SWAP4 DUP5 DUP2 MSTORE ADD SWAP1 PUSH1 0x0 MSTORE PUSH1 0x20 PUSH1 0x0 KECCAK256 SWAP3 PUSH1 0x0 JUMPDEST DUP2 DUP2 LT PUSH2 0x1021 JUMPI POP POP PUSH2 0xEFD SWAP3 POP SUB DUP7 PUSH2 0x1F99 JUMP JUMPDEST PUSH1 0x0 JUMPDEST DUP6 MLOAD DUP2 LT ISZERO PUSH2 0xFBB JUMPI PUSH1 0x0 PUSH1 0x20 DUP3 PUSH1 0x5 SHL DUP9 ADD ADD MLOAD DUP2 MSTORE PUSH1 0xC PUSH1 0x20 MSTORE PUSH1 0xFF PUSH1 0x4 PUSH1 0x40 DUP4 KECCAK256 ADD SLOAD PUSH1 0x10 SHR AND PUSH2 0xF33 DUP2 PUSH2 0x1D85 JUMP JUMPDEST PUSH1 0x2 DUP2 EQ SWAP2 DUP3 ISZERO PUSH2 0xFA6 JUMPI JUMPDEST DUP3 ISZERO PUSH2 0xF90 JUMPI JUMPDEST POP POP ISZERO PUSH2 0xF55 JUMPI PUSH1 0x1 ADD PUSH2 0xF00 JUMP JUMPDEST PUSH1 0x40 MLOAD PUSH3 0x461BCD PUSH1 0xE5 SHL DUP2 MSTORE PUSH1 0x20 PUSH1 0x4 DUP3 ADD MSTORE PUSH1 0x13 PUSH1 0x24 DUP3 ADD MSTORE PUSH19 0x151C985919481B9BDD08199A5B985B1A5E9959 PUSH1 0x6A SHL PUSH1 0x44 DUP3 ADD MSTORE PUSH1 0x64 SWAP1 REVERT JUMPDEST PUSH1 0x4 SWAP3 POP POP PUSH2 0xF9E DUP2 PUSH2 0x1D85 JUMP JUMPDEST EQ DUP9 DUP1 PUSH2 0xF46 JUMP JUMPDEST SWAP2 POP PUSH2 0xFB1 DUP2 PUSH2 0x1D85 JUMP JUMPDEST PUSH1 0x3 DUP2 EQ SWAP2 PUSH2 0xF3F JUMP JUMPDEST POP PUSH1 0x0 SWAP1 PUSH1 0x2 DUP8 ADD SWAP1 PUSH1 0x3 DUP3 SLOAD SWAP5 PUSH1 0xFF NOT AND OR SWAP1 SSTORE SSTORE DUP1 PUSH2 0x1004 JUMPI JUMPDEST DUP3 PUSH32 0x5152ABF959F6564662358C2E52B702259B78BAC5EE7842A0F01937E670EFCC7D PUSH1 0x0 DUP1 LOG2 PUSH1 0x1 PUSH1 0x0 SSTORE STOP JUMPDEST PUSH1 0x3 SLOAD PUSH2 0x101A SWAP3 SWAP1 PUSH1 0x1 PUSH1 0x1 PUSH1 0xA0 SHL SUB AND PUSH2 0x2735 JUMP JUMPDEST DUP2 DUP1 PUSH2 0xFD7 JUMP JUMPDEST DUP5 SLOAD DUP4 MSTORE PUSH1 0x1 SWAP5 DUP6 ADD SWAP5 DUP11 SWAP5 POP PUSH1 0x20 SWAP1 SWAP4 ADD SWAP3 ADD PUSH2 0xEE8 JUMP JUMPDEST POP CALLER PUSH1 0x0 SWAP1 DUP2 MSTORE PUSH1 0x0 DUP1 MLOAD PUSH1 0x20 PUSH2 0x27CD DUP4 CODECOPY DUP2 MLOAD SWAP2 MSTORE PUSH1 0x20 MSTORE PUSH1 0x40 SWAP1 KECCAK256 SLOAD PUSH1 0xFF AND PUSH2 0xE9B JUMP JUMPDEST CALLVALUE PUSH2 0x289 JUMPI PUSH1 0x20 CALLDATASIZE PUSH1 0x3 NOT ADD SLT PUSH2 0x289 JUMPI PUSH1 0x4 CALLDATALOAD PUSH8 0xFFFFFFFFFFFFFFFF DUP2 GT PUSH2 0x289 JUMPI CALLDATASIZE PUSH1 0x23 DUP3 ADD SLT ISZERO PUSH2 0x289 JUMPI DUP1 PUSH1 0x4 ADD CALLDATALOAD PUSH8 0xFFFFFFFFFFFFFFFF DUP2 GT PUSH2 0x289 JUMPI CALLDATASIZE PUSH1 0x24 DUP3 PUSH1 0x5 SHL DUP5 ADD ADD GT PUSH2 0x289 JUMPI CALLER PUSH1 0x0 SWAP1 DUP2 MSTORE PUSH1 0x0 DUP1 MLOAD PUSH1 0x20 PUSH2 0x27CD DUP4 CODECOPY DUP2 MLOAD SWAP2 MSTORE PUSH1 0x20 MSTORE PUSH1 0x40 SWAP1 KECCAK256 SLOAD PUSH2 0x10DA SWAP1 PUSH1 0xFF AND PUSH2 0x1E31 JUMP JUMPDEST PUSH1 0x0 JUMPDEST DUP2 DUP2 LT ISZERO PUSH2 0x4E3 JUMPI PUSH1 0x1 SWAP1 PUSH1 0x0 PUSH1 0x24 DUP3 PUSH1 0x5 SHL DUP7 ADD ADD CALLDATALOAD SWAP1 DUP2 DUP2 MSTORE PUSH1 0xC PUSH1 0x20 MSTORE PUSH1 0x40 DUP2 KECCAK256 SWAP1 PUSH1 0x4 DUP3 ADD DUP6 PUSH1 0xFF DUP3 SLOAD PUSH1 0x10 SHR AND PUSH2 0x1118 DUP2 PUSH2 0x1D85 JUMP JUMPDEST EQ PUSH2 0x1128 JUMPI JUMPDEST POP POP POP POP ADD PUSH2 0x10DD JUMP JUMPDEST DUP3 PUSH32 0x974EC1B137D0B76FD7CDAB57C57BAC61D82C6038046BECCECDD622610B4D79D6 SWAP4 SLOAD DUP4 MSTORE PUSH1 0xA PUSH1 0x20 MSTORE PUSH2 0x116B PUSH1 0x2 PUSH1 0x3 PUSH1 0x40 DUP7 KECCAK256 SWAP4 ADD SLOAD SWAP3 ADD SWAP2 DUP3 SLOAD PUSH2 0x21E8 JUMP JUMPDEST SWAP1 SSTORE DUP1 SLOAD PUSH3 0xFF0000 NOT AND PUSH3 0x30000 OR SWAP1 SSTORE DUP1 LOG2 DUP5 DUP1 DUP1 DUP1 PUSH2 0x111E JUMP JUMPDEST CALLVALUE PUSH2 0x289 JUMPI PUSH1 0x20 CALLDATASIZE PUSH1 0x3 NOT ADD SLT PUSH2 0x289 JUMPI CALLER PUSH1 0x0 SWAP1 DUP2 MSTORE PUSH1 0x0 DUP1 MLOAD PUSH1 0x20 PUSH2 0x27CD DUP4 CODECOPY DUP2 MLOAD SWAP2 MSTORE PUSH1 0x20 MSTORE PUSH1 0x40 SWAP1 KECCAK256 SLOAD PUSH1 0x4 CALLDATALOAD SWAP1 PUSH2 0x11C5 SWAP1 PUSH1 0xFF AND PUSH2 0x1E31 JUMP JUMPDEST PUSH2 0x11CD PUSH2 0x2642 JUMP JUMPDEST DUP1 PUSH1 0x0 MSTORE PUSH1 0xC PUSH1 0x20 MSTORE PUSH32 0x3B3DEEA4EF69C5F108641489E2D205B77EB559F74E51E038B7DF69BB76D95906 PUSH1 0x40 PUSH1 0x0 KECCAK256 PUSH1 0x4 DUP2 ADD SWAP1 DUP2 SLOAD SWAP2 PUSH2 0x1219 PUSH1 0x1 PUSH1 0xFF DUP6 PUSH1 0x10 SHR AND PUSH2 0x425 DUP2 PUSH2 0x1D85 JUMP JUMPDEST PUSH1 0x0 PUSH2 0xFFFF PUSH1 0x3 DUP5 ADD SLOAD SWAP5 AND DUP1 ISZERO ISZERO DUP1 PUSH2 0x12D8 JUMPI JUMPDEST PUSH2 0x12B7 JUMPI JUMPDEST POP PUSH1 0x3 SLOAD PUSH1 0x2 SWAP4 SWAP1 SWAP4 ADD DUP1 SLOAD SWAP1 SWAP4 PUSH2 0x1259 SWAP2 DUP7 SWAP2 PUSH1 0x1 PUSH1 0x1 PUSH1 0xA0 SHL SUB SWAP2 DUP3 AND SWAP2 AND PUSH2 0x2735 JUMP JUMPDEST DUP1 PUSH2 0x1294 JUMPI JUMPDEST POP DUP1 SLOAD PUSH3 0xFF0000 NOT AND PUSH3 0x20000 OR SWAP1 SSTORE SLOAD PUSH1 0x40 DUP1 MLOAD PUSH1 0x1 PUSH1 0x1 PUSH1 0xA0 SHL SUB SWAP3 SWAP1 SWAP3 AND DUP3 MSTORE PUSH1 0x20 DUP3 ADD SWAP3 SWAP1 SWAP3 MSTORE SWAP1 DUP2 SWAP1 DUP2 ADD PUSH2 0x5EE JUMP JUMPDEST PUSH1 0x3 SLOAD PUSH1 0x6 SLOAD PUSH2 0x12B1 SWAP3 SWAP2 PUSH1 0x1 PUSH1 0x1 PUSH1 0xA0 SHL SUB SWAP2 DUP3 AND SWAP2 AND PUSH2 0x2735 JUMP JUMPDEST DUP6 PUSH2 0x125F JUMP JUMPDEST PUSH2 0x12D1 SWAP2 POP PUSH2 0x12C9 PUSH2 0x2710 SWAP2 DUP7 PUSH2 0x20E7 JUMP JUMPDEST DIV DUP1 SWAP5 PUSH2 0x1F28 JUMP JUMPDEST SWAP3 DUP7 PUSH2 0x1233 JUMP JUMPDEST POP PUSH1 0x6 SLOAD PUSH1 0x1 PUSH1 0x1 PUSH1 0xA0 SHL SUB AND ISZERO ISZERO PUSH2 0x122E JUMP JUMPDEST CALLVALUE PUSH2 0x289 JUMPI PUSH1 0x20 CALLDATASIZE PUSH1 0x3 NOT ADD SLT PUSH2 0x289 JUMPI PUSH1 0x4 CALLDATALOAD PUSH1 0x0 MSTORE PUSH1 0xF PUSH1 0x20 MSTORE PUSH1 0x40 PUSH1 0x0 KECCAK256 PUSH1 0x40 MLOAD SWAP1 DUP2 PUSH1 0x20 DUP3 SLOAD SWAP2 DUP3 DUP2 MSTORE ADD SWAP2 PUSH1 0x0 MSTORE PUSH1 0x20 PUSH1 0x0 KECCAK256 SWAP1 PUSH1 0x0 JUMPDEST DUP2 DUP2 LT PUSH2 0x133F JUMPI PUSH2 0x2FB DUP6 PUSH2 0x2EF DUP2 DUP8 SUB DUP3 PUSH2 0x1F99 JUMP JUMPDEST DUP3 SLOAD DUP5 MSTORE PUSH1 0x20 SWAP1 SWAP4 ADD SWAP3 PUSH1 0x1 SWAP3 DUP4 ADD SWAP3 ADD PUSH2 0x1328 JUMP JUMPDEST CALLVALUE PUSH2 0x289 JUMPI PUSH1 0x20 CALLDATASIZE PUSH1 0x3 NOT ADD SLT PUSH2 0x289 JUMPI PUSH2 0x136E PUSH2 0x1D59 JUMP JUMPDEST PUSH2 0x1376 PUSH2 0x24E7 JUMP JUMPDEST PUSH1 0x1 PUSH1 0x1 PUSH1 0xA0 SHL SUB AND DUP1 ISZERO PUSH2 0x13A2 JUMPI PUSH12 0xFFFFFFFFFFFFFFFFFFFFFFFF PUSH1 0xA0 SHL PUSH1 0x5 SLOAD AND OR PUSH1 0x5 SSTORE PUSH1 0x0 DUP1 RETURN JUMPDEST PUSH1 0x40 MLOAD PUSH3 0x461BCD PUSH1 0xE5 SHL DUP2 MSTORE PUSH1 0x20 PUSH1 0x4 DUP3 ADD MSTORE PUSH1 0xC PUSH1 0x24 DUP3 ADD MSTORE PUSH12 0x24B73B30B634B2103830B4B9 PUSH1 0xA1 SHL PUSH1 0x44 DUP3 ADD MSTORE PUSH1 0x64 SWAP1 REVERT JUMPDEST CALLVALUE PUSH2 0x289 JUMPI PUSH1 0x0 CALLDATASIZE PUSH1 0x3 NOT ADD SLT PUSH2 0x289 JUMPI PUSH1 0x20 PUSH1 0xFF PUSH1 0x1 SLOAD AND PUSH1 0x40 MLOAD SWAP1 ISZERO ISZERO DUP2 MSTORE RETURN JUMPDEST CALLVALUE PUSH2 0x289 JUMPI PUSH1 0x20 CALLDATASIZE PUSH1 0x3 NOT ADD SLT PUSH2 0x289 JUMPI PUSH1 0x0 PUSH1 0xC0 PUSH1 0x40 MLOAD PUSH2 0x141A DUP2 PUSH2 0x1F7D JUMP JUMPDEST DUP3 DUP2 MSTORE DUP3 PUSH1 0x20 DUP3 ADD MSTORE DUP3 PUSH1 0x40 DUP3 ADD MSTORE DUP3 PUSH1 0x60 DUP3 ADD MSTORE DUP3 PUSH1 0x80 DUP3 ADD MSTORE DUP3 PUSH1 0xA0 DUP3 ADD MSTORE ADD MSTORE PUSH1 0x4 CALLDATALOAD PUSH1 0x0 MSTORE PUSH1 0xA PUSH1 0x20 MSTORE PUSH1 0xE0 PUSH1 0x40 PUSH1 0x0 KECCAK256 PUSH1 0x40 MLOAD SWAP1 PUSH2 0x145C DUP3 PUSH2 0x1F7D JUMP JUMPDEST DUP1 SLOAD PUSH1 0x1 PUSH1 0x1 PUSH1 0xA0 SHL SUB AND DUP3 MSTORE PUSH1 0x1 DUP2 ADD SLOAD PUSH1 0x20 DUP4 ADD SWAP1 DUP2 MSTORE PUSH1 0x2 DUP3 ADD SLOAD PUSH1 0x40 DUP5 ADD SWAP1 DUP2 MSTORE PUSH1 0x3 DUP4 ADD SLOAD PUSH1 0x60 DUP6 ADD SWAP1 DUP2 MSTORE PUSH1 0x4 DUP5 ADD SLOAD PUSH1 0x80 DUP7 ADD SWAP1 DUP2 MSTORE PUSH1 0x5 DUP6 ADD SLOAD PUSH1 0xA0 DUP8 ADD SWAP1 DUP2 MSTORE PUSH1 0x6 SWAP1 SWAP6 ADD SLOAD PUSH1 0xC0 DUP8 ADD SWAP6 SWAP5 SWAP2 SWAP4 SWAP2 SWAP1 PUSH1 0xFF AND PUSH2 0x14C1 DUP2 PUSH2 0x1D85 JUMP JUMPDEST DUP7 MSTORE PUSH1 0x40 DUP1 MLOAD SWAP8 MLOAD PUSH1 0x1 PUSH1 0x1 PUSH1 0xA0 SHL SUB AND DUP9 MSTORE SWAP1 MLOAD PUSH1 0x20 DUP9 ADD MSTORE SWAP1 MLOAD SWAP1 DUP7 ADD MSTORE MLOAD PUSH1 0x60 DUP6 ADD MSTORE MLOAD PUSH1 0x80 DUP5 ADD MSTORE MLOAD PUSH1 0xA0 DUP4 ADD MSTORE MLOAD PUSH2 0x14FD DUP2 PUSH2 0x1D85 JUMP JUMPDEST PUSH1 0xC0 DUP3 ADD MSTORE RETURN JUMPDEST CALLVALUE PUSH2 0x289 JUMPI PUSH1 0x20 CALLDATASIZE PUSH1 0x3 NOT ADD SLT PUSH2 0x289 JUMPI PUSH1 0x4 CALLDATALOAD PUSH2 0x1520 PUSH2 0x2642 JUMP JUMPDEST CALLER PUSH1 0x0 SWAP1 DUP2 MSTORE PUSH1 0x0 DUP1 MLOAD PUSH1 0x20 PUSH2 0x27CD DUP4 CODECOPY DUP2 MLOAD SWAP2 MSTORE PUSH1 0x20 MSTORE PUSH1 0x40 SWAP1 KECCAK256 SLOAD PUSH2 0x1549 SWAP1 PUSH1 0xFF AND PUSH2 0x1E31 JUMP JUMPDEST DUP1 PUSH1 0x0 MSTORE PUSH1 0xB PUSH1 0x20 MSTORE PUSH1 0x40 PUSH1 0x0 KECCAK256 PUSH2 0x1575 PUSH1 0x4 DUP3 ADD SWAP2 PUSH2 0x42B PUSH1 0x1 PUSH1 0xFF DUP6 SLOAD PUSH1 0x10 SHR AND PUSH2 0xD42 DUP2 PUSH2 0x1D85 JUMP JUMPDEST DUP1 SLOAD PUSH3 0xFF0000 NOT AND PUSH3 0x40000 OR SWAP1 SSTORE PUSH32 0xF903F4774C7BD27355F9D7FCBC382B079B164A697A44AC5D95267A4C3CB3BB22 PUSH1 0x0 DUP1 LOG2 PUSH1 0x1 PUSH1 0x0 SSTORE STOP JUMPDEST CALLVALUE PUSH2 0x289 JUMPI PUSH1 0x60 CALLDATASIZE PUSH1 0x3 NOT ADD SLT PUSH2 0x289 JUMPI PUSH1 0x4 CALLDATALOAD PUSH1 0x0 DUP2 DUP2 MSTORE PUSH1 0xA PUSH1 0x20 MSTORE PUSH1 0x40 SWAP1 KECCAK256 SLOAD PUSH1 0x44 CALLDATALOAD SWAP2 PUSH1 0x24 CALLDATALOAD SWAP2 PUSH2 0x15EF SWAP1 PUSH1 0x1 PUSH1 0x1 PUSH1 0xA0 SHL SUB AND ISZERO ISZERO PUSH2 0x20A4 JUMP JUMPDEST PUSH1 0x0 MSTORE PUSH1 0xA PUSH1 0x20 MSTORE PUSH1 0x40 PUSH1 0x0 KECCAK256 PUSH2 0x1610 PUSH1 0x1 DUP1 PUSH1 0xA0 SHL SUB DUP3 SLOAD AND CALLER EQ PUSH2 0x20FA JUMP JUMPDEST PUSH2 0x1626 PUSH1 0x1 PUSH1 0xFF PUSH1 0x6 DUP5 ADD SLOAD AND PUSH2 0x72D DUP2 PUSH2 0x1D85 JUMP JUMPDEST PUSH2 0x1631 DUP3 DUP5 GT PUSH2 0x2133 JUMP JUMPDEST PUSH1 0x1 DUP2 ADD SLOAD DUP4 GT PUSH2 0x164B JUMPI PUSH1 0x4 SWAP2 PUSH1 0x3 DUP3 ADD SSTORE ADD SSTORE PUSH1 0x0 DUP1 RETURN JUMPDEST PUSH1 0x40 MLOAD PUSH3 0x461BCD PUSH1 0xE5 SHL DUP2 MSTORE PUSH1 0x20 PUSH1 0x4 DUP3 ADD MSTORE PUSH1 0x11 PUSH1 0x24 DUP3 ADD MSTORE PUSH17 0x13585E08195E18D959591CC81D1BDD185B PUSH1 0x7A SHL PUSH1 0x44 DUP3 ADD MSTORE PUSH1 0x64 SWAP1 REVERT JUMPDEST CALLVALUE PUSH2 0x289 JUMPI PUSH1 0x20 PUSH8 0xDE0B6B3A7640000 PUSH2 0x16CB PUSH2 0x16A0 CALLDATASIZE PUSH2 0x1D6F JUMP JUMPDEST SWAP1 PUSH1 0x0 MSTORE PUSH1 0xA DUP5 MSTORE PUSH1 0x5 PUSH1 0x40 PUSH1 0x0 KECCAK256 PUSH2 0x16C3 PUSH1 0x1 DUP1 PUSH1 0xA0 SHL SUB DUP3 SLOAD AND ISZERO ISZERO PUSH2 0x20A4 JUMP JUMPDEST ADD SLOAD SWAP1 PUSH2 0x20E7 JUMP JUMPDEST DIV PUSH1 0x40 MLOAD SWAP1 DUP2 MSTORE RETURN JUMPDEST CALLVALUE PUSH2 0x289 JUMPI PUSH1 0x0 CALLDATASIZE PUSH1 0x3 NOT ADD SLT PUSH2 0x289 JUMPI PUSH2 0x16ED PUSH2 0x24E7 JUMP JUMPDEST PUSH1 0x1 SLOAD PUSH1 0xFF DUP2 AND ISZERO PUSH2 0x172C JUMPI PUSH1 0xFF NOT AND PUSH1 0x1 SSTORE PUSH32 0x5DB9EE0A495BF2E6FF9C91A7834C1BA4FDD244A5E8AA4E537BD38AEAE4B073AA PUSH1 0x20 PUSH1 0x40 MLOAD CALLER DUP2 MSTORE LOG1 STOP JUMPDEST PUSH4 0x8DFC202B PUSH1 0xE0 SHL PUSH1 0x0 MSTORE PUSH1 0x4 PUSH1 0x0 REVERT JUMPDEST CALLVALUE PUSH2 0x289 JUMPI PUSH1 0x40 CALLDATASIZE PUSH1 0x3 NOT ADD SLT PUSH2 0x289 JUMPI PUSH2 0x1756 PUSH2 0x1D43 JUMP JUMPDEST CALLER PUSH1 0x1 PUSH1 0x1 PUSH1 0xA0 SHL SUB DUP3 AND SUB PUSH2 0x1772 JUMPI PUSH2 0x4E3 SWAP1 PUSH1 0x4 CALLDATALOAD PUSH2 0x26AF JUMP JUMPDEST PUSH4 0x334BD919 PUSH1 0xE1 SHL PUSH1 0x0 MSTORE PUSH1 0x4 PUSH1 0x0 REVERT JUMPDEST CALLVALUE PUSH2 0x289 JUMPI PUSH1 0x60 CALLDATASIZE PUSH1 0x3 NOT ADD SLT PUSH2 0x289 JUMPI PUSH1 0x4 CALLDATALOAD PUSH2 0x179F PUSH2 0x1D43 JUMP JUMPDEST PUSH1 0x44 CALLDATALOAD SWAP1 PUSH2 0x17AB PUSH2 0x2625 JUMP JUMPDEST PUSH2 0x17B3 PUSH2 0x2642 JUMP JUMPDEST PUSH1 0x1 PUSH1 0x1 PUSH1 0xA0 SHL SUB AND SWAP2 DUP3 ISZERO PUSH2 0x1922 JUMPI PUSH1 0x20 SWAP3 PUSH32 0x40948E3E47AC26599994072F13321706AC61EFAD4125C7C7A933D48D1D60E72F PUSH2 0x1907 DUP5 PUSH2 0x17F9 PUSH2 0x18D9 SWAP7 ISZERO ISZERO PUSH2 0x1EB0 JUMP JUMPDEST PUSH1 0x9 SLOAD PUSH2 0x1805 DUP2 PUSH2 0x2095 JUMP JUMPDEST PUSH1 0x9 SSTORE PUSH1 0x40 MLOAD DUP9 DUP2 ADD SWAP2 DUP8 DUP4 MSTORE CALLER PUSH1 0x60 SHL PUSH1 0x40 DUP4 ADD MSTORE DUP4 PUSH1 0x54 DUP4 ADD MSTORE PUSH1 0x74 DUP3 ADD MSTORE TIMESTAMP PUSH1 0x94 DUP3 ADD MSTORE PUSH1 0x94 DUP2 MSTORE PUSH2 0x183B PUSH1 0xB4 DUP3 PUSH2 0x1F99 JUMP JUMPDEST MLOAD SWAP1 KECCAK256 SWAP6 DUP7 SWAP5 DUP6 PUSH1 0x0 MSTORE PUSH1 0xB DUP10 MSTORE PUSH2 0x1863 PUSH1 0x1 DUP1 PUSH1 0xA0 SHL SUB PUSH1 0x1 PUSH1 0x40 PUSH1 0x0 KECCAK256 ADD SLOAD AND ISZERO PUSH2 0x1EED JUMP JUMPDEST PUSH1 0x3 SLOAD PUSH2 0x187E SWAP1 DUP5 SWAP1 ADDRESS SWAP1 CALLER SWAP1 PUSH1 0x1 PUSH1 0x1 PUSH1 0xA0 SHL SUB AND PUSH2 0x2664 JUMP JUMPDEST PUSH1 0x6 SLOAD PUSH1 0x1 PUSH1 0x1 PUSH1 0xA0 SHL SUB DUP2 AND ISZERO PUSH2 0x1917 JUMPI PUSH2 0xFFFF DUP1 SWAP2 PUSH1 0xA0 SHR AND JUMPDEST PUSH1 0x40 MLOAD SWAP3 PUSH2 0x18A7 DUP5 PUSH2 0x1F4B JUMP JUMPDEST DUP10 DUP5 MSTORE DUP12 DUP5 ADD MSTORE CALLER PUSH1 0x40 DUP5 ADD MSTORE DUP5 PUSH1 0x60 DUP5 ADD MSTORE AND PUSH1 0x80 DUP3 ADD MSTORE PUSH1 0x1 PUSH1 0xA0 DUP3 ADD MSTORE DUP6 PUSH1 0x0 MSTORE PUSH1 0xB DUP10 MSTORE PUSH1 0x40 PUSH1 0x0 KECCAK256 PUSH2 0x1FBB JUMP JUMPDEST CALLER PUSH1 0x0 MSTORE PUSH1 0xE DUP8 MSTORE PUSH2 0x18EF DUP5 PUSH1 0x40 PUSH1 0x0 KECCAK256 PUSH2 0x2051 JUMP JUMPDEST PUSH1 0x40 DUP1 MLOAD CALLER DUP2 MSTORE PUSH1 0x20 DUP2 ADD SWAP3 SWAP1 SWAP3 MSTORE SWAP1 SWAP2 DUP3 SWAP2 DUP3 ADD SWAP1 JUMP JUMPDEST SUB SWAP1 LOG3 PUSH1 0x1 PUSH1 0x0 SSTORE PUSH1 0x40 MLOAD SWAP1 DUP2 MSTORE RETURN JUMPDEST POP PUSH2 0xFFFF PUSH1 0x0 PUSH2 0x189A JUMP JUMPDEST PUSH1 0x40 MLOAD PUSH3 0x461BCD PUSH1 0xE5 SHL DUP2 MSTORE PUSH1 0x20 PUSH1 0x4 DUP3 ADD MSTORE PUSH1 0xE PUSH1 0x24 DUP3 ADD MSTORE PUSH14 0x24B73B30B634B21039B2B63632B9 PUSH1 0x91 SHL PUSH1 0x44 DUP3 ADD MSTORE PUSH1 0x64 SWAP1 REVERT JUMPDEST CALLVALUE PUSH2 0x289 JUMPI PUSH1 0x40 CALLDATASIZE PUSH1 0x3 NOT ADD SLT PUSH2 0x289 JUMPI PUSH2 0x4E3 PUSH1 0x4 CALLDATALOAD PUSH2 0x1977 PUSH2 0x1D43 JUMP JUMPDEST SWAP1 PUSH2 0x1993 PUSH2 0x4D9 DUP3 PUSH1 0x0 MSTORE PUSH1 0x2 PUSH1 0x20 MSTORE PUSH1 0x1 PUSH1 0x40 PUSH1 0x0 KECCAK256 ADD SLOAD SWAP1 JUMP JUMPDEST PUSH2 0x2596 JUMP JUMPDEST CALLVALUE PUSH2 0x289 JUMPI PUSH1 0x20 CALLDATASIZE PUSH1 0x3 NOT ADD SLT PUSH2 0x289 JUMPI PUSH1 0x4 CALLDATALOAD PUSH2 0xFFFF DUP2 AND DUP1 DUP3 SUB PUSH2 0x289 JUMPI PUSH2 0x3E8 SWAP1 PUSH2 0x19C4 PUSH2 0x24E7 JUMP JUMPDEST GT PUSH2 0x19EA JUMPI PUSH1 0x6 DUP1 SLOAD PUSH2 0xFFFF PUSH1 0xA0 SHL NOT AND PUSH1 0xA0 SWAP3 SWAP1 SWAP3 SHL PUSH2 0xFFFF PUSH1 0xA0 SHL AND SWAP2 SWAP1 SWAP2 OR SWAP1 SSTORE STOP JUMPDEST PUSH1 0x40 MLOAD PUSH3 0x461BCD PUSH1 0xE5 SHL DUP2 MSTORE PUSH1 0x20 PUSH1 0x4 DUP3 ADD MSTORE PUSH1 0xC PUSH1 0x24 DUP3 ADD MSTORE PUSH12 0x8CCACA40E8DEDE40D0D2CED PUSH1 0xA3 SHL PUSH1 0x44 DUP3 ADD MSTORE PUSH1 0x64 SWAP1 REVERT JUMPDEST CALLVALUE PUSH2 0x289 JUMPI PUSH1 0x20 CALLDATASIZE PUSH1 0x3 NOT ADD SLT PUSH2 0x289 JUMPI PUSH1 0x20 PUSH2 0x3AC PUSH1 0x4 CALLDATALOAD PUSH1 0x0 MSTORE PUSH1 0x2 PUSH1 0x20 MSTORE PUSH1 0x1 PUSH1 0x40 PUSH1 0x0 KECCAK256 ADD SLOAD SWAP1 JUMP JUMPDEST CALLVALUE PUSH2 0x289 JUMPI PUSH1 0x80 CALLDATASIZE PUSH1 0x3 NOT ADD SLT PUSH2 0x289 JUMPI PUSH1 0x24 CALLDATALOAD PUSH1 0x4 CALLDATALOAD PUSH1 0x44 CALLDATALOAD PUSH1 0x1 PUSH1 0x1 PUSH1 0xA0 SHL SUB DUP2 AND SWAP1 DUP2 DUP2 SUB PUSH2 0x289 JUMPI CALLER PUSH1 0x0 SWAP1 DUP2 MSTORE PUSH1 0x0 DUP1 MLOAD PUSH1 0x20 PUSH2 0x27CD DUP4 CODECOPY DUP2 MLOAD SWAP2 MSTORE PUSH1 0x20 MSTORE PUSH1 0x40 SWAP1 KECCAK256 SLOAD PUSH1 0x64 CALLDATALOAD SWAP2 SWAP1 PUSH2 0x1AA5 SWAP1 PUSH1 0xFF AND PUSH2 0x1E31 JUMP JUMPDEST DUP5 PUSH1 0x0 MSTORE PUSH1 0xA PUSH1 0x20 MSTORE PUSH1 0x40 PUSH1 0x0 KECCAK256 SWAP3 PUSH2 0x1ACA PUSH1 0x1 PUSH1 0xFF PUSH1 0x6 DUP8 ADD SLOAD AND PUSH2 0x72D DUP2 PUSH2 0x1D85 JUMP JUMPDEST PUSH1 0x2 DUP5 ADD SWAP1 DUP2 SLOAD DUP1 DUP6 GT PUSH2 0x1BFC JUMPI DUP6 PUSH2 0x1BA8 SWAP4 PUSH2 0x1B47 DUP8 PUSH2 0xFFFF SWAP5 PUSH1 0x3 PUSH32 0x7450E1364879CFF4A1F1F2AA6C91DE7BA540801FE2ABB06FC6A5A8D3B8F670A4 SWAP12 ADD SLOAD DUP3 LT ISZERO DUP1 PUSH2 0x1BEE JUMPI JUMPDEST PUSH2 0x1B1D SWAP1 PUSH2 0x1EB0 JUMP JUMPDEST PUSH1 0x0 DUP13 DUP2 MSTORE PUSH1 0xC PUSH1 0x20 MSTORE PUSH1 0x40 SWAP1 KECCAK256 PUSH1 0x1 ADD SLOAD PUSH2 0x1B42 SWAP1 PUSH1 0x1 PUSH1 0x1 PUSH1 0xA0 SHL SUB AND ISZERO PUSH2 0x1EED JUMP JUMPDEST PUSH2 0x1F28 JUMP JUMPDEST SWAP1 SSTORE SLOAD PUSH1 0x6 SLOAD PUSH1 0x1 PUSH1 0x1 PUSH1 0xA0 SHL SUB SWAP2 DUP3 AND SWAP4 SWAP2 DUP2 AND ISZERO PUSH2 0x1BE5 JUMPI PUSH1 0xA0 SHR DUP3 AND SWAP1 JUMPDEST PUSH1 0x40 MLOAD SWAP4 PUSH2 0x1B75 DUP6 PUSH2 0x1F4B JUMP JUMPDEST DUP11 DUP6 MSTORE PUSH1 0x20 DUP6 ADD MSTORE PUSH1 0x40 DUP5 ADD MSTORE DUP6 PUSH1 0x60 DUP5 ADD MSTORE AND PUSH1 0x80 DUP3 ADD MSTORE PUSH1 0x1 PUSH1 0xA0 DUP3 ADD MSTORE DUP6 PUSH1 0x0 MSTORE PUSH1 0xC PUSH1 0x20 MSTORE PUSH1 0x40 PUSH1 0x0 KECCAK256 PUSH2 0x1FBB JUMP JUMPDEST DUP5 PUSH1 0x0 MSTORE PUSH1 0xF PUSH1 0x20 MSTORE PUSH2 0x1BBF DUP5 PUSH1 0x40 PUSH1 0x0 KECCAK256 PUSH2 0x2051 JUMP JUMPDEST PUSH1 0x40 DUP1 MLOAD PUSH1 0x1 PUSH1 0x1 PUSH1 0xA0 SHL SUB SWAP3 SWAP1 SWAP3 AND DUP3 MSTORE PUSH1 0x20 DUP3 ADD SWAP3 SWAP1 SWAP3 MSTORE LOG3 PUSH1 0x20 PUSH1 0x40 MLOAD PUSH1 0x1 DUP2 MSTORE RETURN JUMPDEST POP PUSH1 0x0 SWAP1 PUSH2 0x1B68 JUMP JUMPDEST POP PUSH1 0x4 DUP6 ADD SLOAD DUP3 GT ISZERO PUSH2 0x1B14 JUMP JUMPDEST PUSH1 0x40 MLOAD PUSH3 0x461BCD PUSH1 0xE5 SHL DUP2 MSTORE PUSH1 0x20 PUSH1 0x4 DUP3 ADD MSTORE PUSH1 0x11 PUSH1 0x24 DUP3 ADD MSTORE PUSH17 0x125B9CDD59999A58DA595B9D081554D115 PUSH1 0x7A SHL PUSH1 0x44 DUP3 ADD MSTORE PUSH1 0x64 SWAP1 REVERT JUMPDEST CALLVALUE PUSH2 0x289 JUMPI PUSH1 0x0 CALLDATASIZE PUSH1 0x3 NOT ADD SLT PUSH2 0x289 JUMPI PUSH1 0x20 PUSH1 0x40 MLOAD PUSH32 0x751B795D24B92E3D92D1D0D8F2885F4E9C9C269DA350AF36AE6B49069BABF4BF DUP2 MSTORE RETURN JUMPDEST CALLVALUE PUSH2 0x289 JUMPI PUSH1 0x20 CALLDATASIZE PUSH1 0x3 NOT ADD SLT PUSH2 0x289 JUMPI PUSH1 0x4 CALLDATALOAD PUSH4 0xFFFFFFFF PUSH1 0xE0 SHL DUP2 AND DUP1 SWAP2 SUB PUSH2 0x289 JUMPI PUSH1 0x20 SWAP1 PUSH4 0x7965DB0B PUSH1 0xE0 SHL DUP2 EQ SWAP1 DUP2 ISZERO PUSH2 0x1CB5 JUMPI JUMPDEST POP PUSH1 0x40 MLOAD SWAP1 ISZERO ISZERO DUP2 MSTORE RETURN JUMPDEST PUSH4 0x1FFC9A7 PUSH1 0xE0 SHL EQ SWAP1 POP DUP3 PUSH2 0x1CAA JUMP JUMPDEST CALLVALUE PUSH2 0x289 JUMPI PUSH1 0x0 CALLDATASIZE PUSH1 0x3 NOT ADD SLT PUSH2 0x289 JUMPI PUSH1 0x6 SLOAD PUSH1 0x40 MLOAD PUSH1 0x1 PUSH1 0x1 PUSH1 0xA0 SHL SUB SWAP1 SWAP2 AND DUP2 MSTORE PUSH1 0x20 SWAP1 RETURN JUMPDEST CALLVALUE PUSH2 0x289 JUMPI PUSH1 0x20 CALLDATASIZE PUSH1 0x3 NOT ADD SLT PUSH2 0x289 JUMPI PUSH32 0xD697357021BB5C8F09A6C16004ED15487B82D773B5A8C20FF3A7CBF87A95BC63 PUSH1 0x40 PUSH1 0x4 CALLDATALOAD PUSH2 0x1D2E PUSH2 0x24E7 JUMP JUMPDEST PUSH1 0x7 SLOAD SWAP1 DUP1 PUSH1 0x7 SSTORE DUP3 MLOAD SWAP2 DUP3 MSTORE PUSH1 0x20 DUP3 ADD MSTORE LOG1 STOP JUMPDEST PUSH1 0x24 CALLDATALOAD SWAP1 PUSH1 0x1 PUSH1 0x1 PUSH1 0xA0 SHL SUB DUP3 AND DUP3 SUB PUSH2 0x289 JUMPI JUMP JUMPDEST PUSH1 0x4 CALLDATALOAD SWAP1 PUSH1 0x1 PUSH1 0x1 PUSH1 0xA0 SHL SUB DUP3 AND DUP3 SUB PUSH2 0x289 JUMPI JUMP JUMPDEST PUSH1 0x40 SWAP1 PUSH1 0x3 NOT ADD SLT PUSH2 0x289 JUMPI PUSH1 0x4 CALLDATALOAD SWAP1 PUSH1 0x24 CALLDATALOAD SWAP1 JUMP JUMPDEST PUSH1 0x5 GT ISZERO PUSH2 0x1D8F JUMPI JUMP JUMPDEST PUSH4 0x4E487B71 PUSH1 0xE0 SHL PUSH1 0x0 MSTORE PUSH1 0x21 PUSH1 0x4 MSTORE PUSH1 0x24 PUSH1 0x0 REVERT JUMPDEST PUSH1 0x20 PUSH1 0x40 DUP2 DUP4 ADD SWAP3 DUP3 DUP2 MSTORE DUP5 MLOAD DUP1 SWAP5 MSTORE ADD SWAP3 ADD SWAP1 PUSH1 0x0 JUMPDEST DUP2 DUP2 LT PUSH2 0x1DC9 JUMPI POP POP POP SWAP1 JUMP JUMPDEST DUP3 MLOAD DUP5 MSTORE PUSH1 0x20 SWAP4 DUP5 ADD SWAP4 SWAP1 SWAP3 ADD SWAP2 PUSH1 0x1 ADD PUSH2 0x1DBC JUMP JUMPDEST PUSH1 0xA0 DUP1 SWAP2 DUP1 MLOAD DUP5 MSTORE PUSH1 0x1 DUP1 DUP4 SHL SUB PUSH1 0x20 DUP3 ADD MLOAD AND PUSH1 0x20 DUP6 ADD MSTORE PUSH1 0x1 DUP1 DUP4 SHL SUB PUSH1 0x40 DUP3 ADD MLOAD AND PUSH1 0x40 DUP6 ADD MSTORE PUSH1 0x60 DUP2 ADD MLOAD PUSH1 0x60 DUP6 ADD MSTORE PUSH2 0xFFFF PUSH1 0x80 DUP3 ADD MLOAD AND PUSH1 0x80 DUP6 ADD MSTORE ADD MLOAD SWAP2 PUSH2 0x1E2D DUP4 PUSH2 0x1D85 JUMP JUMPDEST ADD MSTORE JUMP JUMPDEST ISZERO PUSH2 0x1E38 JUMPI JUMP JUMPDEST PUSH1 0x40 MLOAD PUSH3 0x461BCD PUSH1 0xE5 SHL DUP2 MSTORE PUSH1 0x20 PUSH1 0x4 DUP3 ADD MSTORE PUSH1 0x11 PUSH1 0x24 DUP3 ADD MSTORE PUSH17 0x27B7363C90313934B233B29030B236B4B7 PUSH1 0x79 SHL PUSH1 0x44 DUP3 ADD MSTORE PUSH1 0x64 SWAP1 REVERT JUMPDEST ISZERO PUSH2 0x1E78 JUMPI JUMP JUMPDEST PUSH1 0x40 MLOAD PUSH3 0x461BCD PUSH1 0xE5 SHL DUP2 MSTORE PUSH1 0x20 PUSH1 0x4 DUP3 ADD MSTORE PUSH1 0x10 PUSH1 0x24 DUP3 ADD MSTORE PUSH16 0x4F72646572206E6F7420616374697665 PUSH1 0x80 SHL PUSH1 0x44 DUP3 ADD MSTORE PUSH1 0x64 SWAP1 REVERT JUMPDEST ISZERO PUSH2 0x1EB7 JUMPI JUMP JUMPDEST PUSH1 0x40 MLOAD PUSH3 0x461BCD PUSH1 0xE5 SHL DUP2 MSTORE PUSH1 0x20 PUSH1 0x4 DUP3 ADD MSTORE PUSH1 0xE PUSH1 0x24 DUP3 ADD MSTORE PUSH14 0x125B9D985B1A5908185B5BDD5B9D PUSH1 0x92 SHL PUSH1 0x44 DUP3 ADD MSTORE PUSH1 0x64 SWAP1 REVERT JUMPDEST ISZERO PUSH2 0x1EF4 JUMPI JUMP JUMPDEST PUSH1 0x40 MLOAD PUSH3 0x461BCD PUSH1 0xE5 SHL DUP2 MSTORE PUSH1 0x20 PUSH1 0x4 DUP3 ADD MSTORE PUSH1 0xC PUSH1 0x24 DUP3 ADD MSTORE PUSH12 0x547261646520657869737473 PUSH1 0xA0 SHL PUSH1 0x44 DUP3 ADD MSTORE PUSH1 0x64 SWAP1 REVERT JUMPDEST SWAP2 SWAP1 DUP3 SUB SWAP2 DUP3 GT PUSH2 0x1F35 JUMPI JUMP JUMPDEST PUSH4 0x4E487B71 PUSH1 0xE0 SHL PUSH1 0x0 MSTORE PUSH1 0x11 PUSH1 0x4 MSTORE PUSH1 0x24 PUSH1 0x0 REVERT JUMPDEST PUSH1 0xC0 DUP2 ADD SWAP1 DUP2 LT PUSH8 0xFFFFFFFFFFFFFFFF DUP3 GT OR PUSH2 0x1F67 JUMPI PUSH1 0x40 MSTORE JUMP JUMPDEST PUSH4 0x4E487B71 PUSH1 0xE0 SHL PUSH1 0x0 MSTORE PUSH1 0x41 PUSH1 0x4 MSTORE PUSH1 0x24 PUSH1 0x0 REVERT JUMPDEST PUSH1 0xE0 DUP2 ADD SWAP1 DUP2 LT PUSH8 0xFFFFFFFFFFFFFFFF DUP3 GT OR PUSH2 0x1F67 JUMPI PUSH1 0x40 MSTORE JUMP JUMPDEST SWAP1 PUSH1 0x1F DUP1 NOT SWAP2 ADD AND DUP2 ADD SWAP1 DUP2 LT PUSH8 0xFFFFFFFFFFFFFFFF DUP3 GT OR PUSH2 0x1F67 JUMPI PUSH1 0x40 MSTORE JUMP JUMPDEST DUP2 MLOAD DUP2 SSTORE PUSH1 0x20 DUP3 ADD MLOAD PUSH1 0x1 DUP3 ADD DUP1 SLOAD PUSH1 0x1 PUSH1 0x1 PUSH1 0xA0 SHL SUB SWAP3 DUP4 AND PUSH1 0x1 PUSH1 0x1 PUSH1 0xA0 SHL SUB NOT SWAP2 DUP3 AND OR SWAP1 SWAP2 SSTORE PUSH1 0x40 DUP5 ADD MLOAD PUSH1 0x2 DUP5 ADD DUP1 SLOAD SWAP2 SWAP1 SWAP4 AND SWAP2 AND OR SWAP1 SSTORE PUSH1 0x60 DUP3 ADD MLOAD PUSH1 0x3 DUP3 ADD SSTORE PUSH1 0x80 DUP3 ADD MLOAD PUSH1 0x4 SWAP1 SWAP2 ADD DUP1 SLOAD PUSH2 0xFFFF SWAP1 SWAP3 AND PUSH2 0xFFFF NOT SWAP1 SWAP3 AND SWAP2 SWAP1 SWAP2 OR DUP2 SSTORE PUSH1 0xA0 SWAP1 SWAP2 ADD MLOAD PUSH2 0x2031 DUP2 PUSH2 0x1D85 JUMP JUMPDEST PUSH2 0x203A DUP2 PUSH2 0x1D85 JUMP JUMPDEST PUSH3 0xFF0000 DUP3 SLOAD SWAP2 PUSH1 0x10 SHL AND SWAP1 PUSH3 0xFF0000 NOT AND OR SWAP1 SSTORE JUMP JUMPDEST DUP1 SLOAD SWAP1 PUSH9 0x10000000000000000 DUP3 LT ISZERO PUSH2 0x1F67 JUMPI PUSH1 0x1 DUP3 ADD DUP1 DUP3 SSTORE DUP3 LT ISZERO PUSH2 0x207F JUMPI PUSH1 0x0 MSTORE PUSH1 0x20 PUSH1 0x0 KECCAK256 ADD SSTORE JUMP JUMPDEST PUSH4 0x4E487B71 PUSH1 0xE0 SHL PUSH1 0x0 MSTORE PUSH1 0x32 PUSH1 0x4 MSTORE PUSH1 0x24 PUSH1 0x0 REVERT JUMPDEST PUSH1 0x0 NOT DUP2 EQ PUSH2 0x1F35 JUMPI PUSH1 0x1 ADD SWAP1 JUMP JUMPDEST ISZERO PUSH2 0x20AB JUMPI JUMP JUMPDEST PUSH1 0x40 MLOAD PUSH3 0x461BCD PUSH1 0xE5 SHL DUP2 MSTORE PUSH1 0x20 PUSH1 0x4 DUP3 ADD MSTORE PUSH1 0x14 PUSH1 0x24 DUP3 ADD MSTORE PUSH20 0x13DC99195C88191BD95CC81B9BDD08195E1A5CDD PUSH1 0x62 SHL PUSH1 0x44 DUP3 ADD MSTORE PUSH1 0x64 SWAP1 REVERT JUMPDEST DUP2 DUP2 MUL SWAP3 SWAP2 DUP2 ISZERO SWAP2 DUP5 DIV EQ OR ISZERO PUSH2 0x1F35 JUMPI JUMP JUMPDEST ISZERO PUSH2 0x2101 JUMPI JUMP JUMPDEST PUSH1 0x40 MLOAD PUSH3 0x461BCD PUSH1 0xE5 SHL DUP2 MSTORE PUSH1 0x20 PUSH1 0x4 DUP3 ADD MSTORE PUSH1 0xA PUSH1 0x24 DUP3 ADD MSTORE PUSH10 0x2737BA1039B2B63632B9 PUSH1 0xB1 SHL PUSH1 0x44 DUP3 ADD MSTORE PUSH1 0x64 SWAP1 REVERT JUMPDEST ISZERO PUSH2 0x213A JUMPI JUMP JUMPDEST PUSH1 0x40 MLOAD PUSH3 0x461BCD PUSH1 0xE5 SHL DUP2 MSTORE PUSH1 0x20 PUSH1 0x4 DUP3 ADD MSTORE PUSH1 0xD PUSH1 0x24 DUP3 ADD MSTORE PUSH13 0x496E76616C69642072616E6765 PUSH1 0x98 SHL PUSH1 0x44 DUP3 ADD MSTORE PUSH1 0x64 SWAP1 REVERT JUMPDEST ISZERO PUSH2 0x2176 JUMPI JUMP JUMPDEST PUSH1 0x40 MLOAD PUSH3 0x461BCD PUSH1 0xE5 SHL DUP2 MSTORE PUSH1 0x20 PUSH1 0x4 DUP3 ADD MSTORE PUSH1 0xD PUSH1 0x24 DUP3 ADD MSTORE PUSH13 0x10D85B9B9BDD0818D85B98D95B PUSH1 0x9A SHL PUSH1 0x44 DUP3 ADD MSTORE PUSH1 0x64 SWAP1 REVERT JUMPDEST ISZERO PUSH2 0x21B2 JUMPI JUMP JUMPDEST PUSH1 0x40 MLOAD PUSH3 0x461BCD PUSH1 0xE5 SHL DUP2 MSTORE PUSH1 0x20 PUSH1 0x4 DUP3 ADD MSTORE PUSH1 0xE PUSH1 0x24 DUP3 ADD MSTORE PUSH14 0x496E76616C696420737461747573 PUSH1 0x90 SHL PUSH1 0x44 DUP3 ADD MSTORE PUSH1 0x64 SWAP1 REVERT JUMPDEST SWAP2 SWAP1 DUP3 ADD DUP1 SWAP3 GT PUSH2 0x1F35 JUMPI JUMP JUMPDEST PUSH2 0xFFFF AND PUSH2 0x2710 SUB SWAP1 PUSH2 0xFFFF DUP3 GT PUSH2 0x1F35 JUMPI JUMP JUMPDEST PUSH2 0xFFFF AND PUSH2 0x2710 ADD SWAP1 PUSH2 0xFFFF DUP3 GT PUSH2 0x1F35 JUMPI JUMP JUMPDEST ISZERO PUSH2 0x2224 JUMPI JUMP JUMPDEST PUSH1 0x40 MLOAD PUSH3 0x461BCD PUSH1 0xE5 SHL DUP2 MSTORE PUSH1 0x20 PUSH1 0x4 DUP3 ADD MSTORE PUSH1 0x12 PUSH1 0x24 DUP3 ADD MSTORE PUSH18 0x5072696365206F7574206F662072616E6765 PUSH1 0x70 SHL PUSH1 0x44 DUP3 ADD MSTORE PUSH1 0x64 SWAP1 REVERT JUMPDEST PUSH1 0x40 MLOAD SWAP1 PUSH2 0x226B DUP3 PUSH2 0x1F4B JUMP JUMPDEST PUSH1 0x0 PUSH1 0xA0 DUP4 DUP3 DUP2 MSTORE DUP3 PUSH1 0x20 DUP3 ADD MSTORE DUP3 PUSH1 0x40 DUP3 ADD MSTORE DUP3 PUSH1 0x60 DUP3 ADD MSTORE DUP3 PUSH1 0x80 DUP3 ADD MSTORE ADD MSTORE JUMP JUMPDEST SWAP1 PUSH1 0x40 MLOAD PUSH2 0x229C DUP2 PUSH2 0x1F4B JUMP JUMPDEST DUP3 SLOAD DUP2 MSTORE PUSH1 0x1 DUP4 ADD SLOAD PUSH1 0x1 PUSH1 0x1 PUSH1 0xA0 SHL SUB SWAP1 DUP2 AND PUSH1 0x20 DUP4 ADD MSTORE PUSH1 0x2 DUP5 ADD SLOAD AND PUSH1 0x40 DUP3 ADD MSTORE PUSH1 0x3 DUP4 ADD SLOAD PUSH1 0x60 DUP3 ADD MSTORE PUSH1 0x4 SWAP3 SWAP1 SWAP3 ADD SLOAD PUSH2 0xFFFF DUP2 AND PUSH1 0x80 DUP5 ADD MSTORE PUSH1 0x10 SHR PUSH1 0xFF AND PUSH1 0xA0 DUP4 PUSH2 0x1E2D DUP4 PUSH2 0x1D85 JUMP JUMPDEST MLOAD SWAP1 PUSH1 0x1 PUSH1 0x1 PUSH1 0x70 SHL SUB DUP3 AND DUP3 SUB PUSH2 0x289 JUMPI JUMP JUMPDEST PUSH1 0x5 SLOAD PUSH1 0x40 MLOAD PUSH4 0x240BC6B PUSH1 0xE2 SHL DUP2 MSTORE PUSH1 0x1 PUSH1 0x1 PUSH1 0xA0 SHL SUB SWAP1 SWAP2 AND SWAP1 PUSH1 0x60 DUP2 PUSH1 0x4 DUP2 DUP6 GAS STATICCALL SWAP2 DUP3 ISZERO PUSH2 0x2434 JUMPI PUSH1 0x0 SWAP2 DUP3 SWAP4 PUSH2 0x248A JUMPI JUMPDEST POP PUSH1 0x1 PUSH1 0x1 PUSH1 0x70 SHL SUB DUP3 AND ISZERO ISZERO DUP1 PUSH2 0x2478 JUMPI JUMPDEST ISZERO PUSH2 0x2440 JUMPI PUSH1 0x20 PUSH1 0x4 SWAP2 PUSH1 0x40 MLOAD SWAP3 DUP4 DUP1 SWAP3 PUSH4 0xDFE1681 PUSH1 0xE0 SHL DUP3 MSTORE GAS STATICCALL SWAP1 DUP2 ISZERO PUSH2 0x2434 JUMPI PUSH1 0x0 SWAP2 PUSH2 0x23EB JUMPI JUMPDEST POP PUSH1 0x4 SLOAD PUSH1 0x1 PUSH1 0x1 PUSH1 0xA0 SHL SUB SWAP2 DUP3 AND SWAP2 AND SUB PUSH2 0x23DB JUMPI PUSH1 0x1 PUSH1 0x1 PUSH1 0x70 SHL SUB DUP1 SWAP2 JUMPDEST AND SWAP2 AND PUSH8 0xDE0B6B3A7640000 DUP2 MUL SWAP1 DUP1 DUP3 DIV PUSH8 0xDE0B6B3A7640000 EQ SWAP1 ISZERO OR ISZERO PUSH2 0x1F35 JUMPI DUP2 ISZERO PUSH2 0x23C5 JUMPI DIV SWAP1 JUMP JUMPDEST PUSH4 0x4E487B71 PUSH1 0xE0 SHL PUSH1 0x0 MSTORE PUSH1 0x12 PUSH1 0x4 MSTORE PUSH1 0x24 PUSH1 0x0 REVERT JUMPDEST SWAP1 PUSH1 0x1 PUSH1 0x1 PUSH1 0x70 SHL SUB DUP1 SWAP2 PUSH2 0x2397 JUMP JUMPDEST PUSH1 0x20 DUP2 RETURNDATASIZE PUSH1 0x20 GT PUSH2 0x242C JUMPI JUMPDEST DUP2 PUSH2 0x2404 PUSH1 0x20 SWAP4 DUP4 PUSH2 0x1F99 JUMP JUMPDEST DUP2 ADD SUB SLT PUSH2 0x2428 JUMPI MLOAD SWAP1 PUSH1 0x1 PUSH1 0x1 PUSH1 0xA0 SHL SUB DUP3 AND DUP3 SUB PUSH2 0x2425 JUMPI POP CODESIZE PUSH2 0x2376 JUMP JUMPDEST DUP1 REVERT JUMPDEST POP DUP1 REVERT JUMPDEST RETURNDATASIZE SWAP2 POP PUSH2 0x23F7 JUMP JUMPDEST PUSH1 0x40 MLOAD RETURNDATASIZE PUSH1 0x0 DUP3 RETURNDATACOPY RETURNDATASIZE SWAP1 REVERT JUMPDEST PUSH1 0x40 MLOAD PUSH3 0x461BCD PUSH1 0xE5 SHL DUP2 MSTORE PUSH1 0x20 PUSH1 0x4 DUP3 ADD MSTORE PUSH1 0x10 PUSH1 0x24 DUP3 ADD MSTORE PUSH16 0x496E76616C6964207265736572766573 PUSH1 0x80 SHL PUSH1 0x44 DUP3 ADD MSTORE PUSH1 0x64 SWAP1 REVERT JUMPDEST POP PUSH1 0x1 PUSH1 0x1 PUSH1 0x70 SHL SUB DUP4 AND ISZERO ISZERO PUSH2 0x234A JUMP JUMPDEST SWAP2 SWAP1 SWAP3 POP PUSH1 0x60 DUP3 RETURNDATASIZE PUSH1 0x60 GT PUSH2 0x24DF JUMPI JUMPDEST DUP2 PUSH2 0x24A7 PUSH1 0x60 SWAP4 DUP4 PUSH2 0x1F99 JUMP JUMPDEST DUP2 ADD SUB SLT PUSH2 0x2425 JUMPI PUSH2 0x24B8 DUP3 PUSH2 0x22ED JUMP JUMPDEST SWAP1 PUSH1 0x40 PUSH2 0x24C7 PUSH1 0x20 DUP6 ADD PUSH2 0x22ED JUMP JUMPDEST SWAP4 ADD MLOAD PUSH4 0xFFFFFFFF DUP2 AND SUB PUSH2 0x2425 JUMPI POP SWAP1 SWAP2 CODESIZE PUSH2 0x2337 JUMP JUMPDEST RETURNDATASIZE SWAP2 POP PUSH2 0x249A JUMP JUMPDEST CALLER PUSH1 0x0 SWAP1 DUP2 MSTORE PUSH32 0xE5EBFA64FCA8D502A8E50C1EDFFD2C31EF4DAD5B396E65D9F397FB028F74ABC5 PUSH1 0x20 MSTORE PUSH1 0x40 SWAP1 KECCAK256 SLOAD PUSH1 0xFF AND ISZERO PUSH2 0x2520 JUMPI JUMP JUMPDEST PUSH4 0xE2517D3F PUSH1 0xE0 SHL PUSH1 0x0 MSTORE CALLER PUSH1 0x4 MSTORE PUSH32 0xA49807205CE4D355092EF5A8A18F56E8913CF4A201FBE287825B095693C21775 PUSH1 0x24 MSTORE PUSH1 0x44 PUSH1 0x0 REVERT JUMPDEST PUSH1 0x0 DUP2 DUP2 MSTORE PUSH1 0x2 PUSH1 0x20 SWAP1 DUP2 MSTORE PUSH1 0x40 DUP1 DUP4 KECCAK256 CALLER DUP5 MSTORE SWAP1 SWAP2 MSTORE SWAP1 KECCAK256 SLOAD PUSH1 0xFF AND ISZERO PUSH2 0x257E JUMPI POP JUMP JUMPDEST PUSH4 0xE2517D3F PUSH1 0xE0 SHL PUSH1 0x0 MSTORE CALLER PUSH1 0x4 MSTORE PUSH1 0x24 MSTORE PUSH1 0x44 PUSH1 0x0 REVERT JUMPDEST PUSH1 0x0 DUP2 DUP2 MSTORE PUSH1 0x2 PUSH1 0x20 SWAP1 DUP2 MSTORE PUSH1 0x40 DUP1 DUP4 KECCAK256 PUSH1 0x1 PUSH1 0x1 PUSH1 0xA0 SHL SUB DUP7 AND DUP5 MSTORE SWAP1 SWAP2 MSTORE SWAP1 KECCAK256 SLOAD PUSH1 0xFF AND PUSH2 0x261E JUMPI PUSH1 0x0 DUP2 DUP2 MSTORE PUSH1 0x2 PUSH1 0x20 SWAP1 DUP2 MSTORE PUSH1 0x40 DUP1 DUP4 KECCAK256 PUSH1 0x1 PUSH1 0x1 PUSH1 0xA0 SHL SUB SWAP6 SWAP1 SWAP6 AND DUP1 DUP5 MSTORE SWAP5 SWAP1 SWAP2 MSTORE DUP2 KECCAK256 DUP1 SLOAD PUSH1 0xFF NOT AND PUSH1 0x1 OR SWAP1 SSTORE CALLER SWAP3 SWAP2 SWAP1 PUSH32 0x2F8788117E7EFF1D82E926EC794901D17C78024A50270940304540A733656F0D SWAP1 DUP1 LOG4 PUSH1 0x1 SWAP1 JUMP JUMPDEST POP POP PUSH1 0x0 SWAP1 JUMP JUMPDEST PUSH1 0xFF PUSH1 0x1 SLOAD AND PUSH2 0x2631 JUMPI JUMP JUMPDEST PUSH4 0xD93C0665 PUSH1 0xE0 SHL PUSH1 0x0 MSTORE PUSH1 0x4 PUSH1 0x0 REVERT JUMPDEST PUSH1 0x2 PUSH1 0x0 SLOAD EQ PUSH2 0x2653 JUMPI PUSH1 0x2 PUSH1 0x0 SSTORE JUMP JUMPDEST PUSH4 0x3EE5AEB5 PUSH1 0xE0 SHL PUSH1 0x0 MSTORE PUSH1 0x4 PUSH1 0x0 REVERT JUMPDEST PUSH1 0x40 MLOAD PUSH4 0x23B872DD PUSH1 0xE0 SHL PUSH1 0x20 DUP3 ADD MSTORE PUSH1 0x1 PUSH1 0x1 PUSH1 0xA0 SHL SUB SWAP3 DUP4 AND PUSH1 0x24 DUP3 ADD MSTORE SWAP3 SWAP1 SWAP2 AND PUSH1 0x44 DUP4 ADD MSTORE PUSH1 0x64 DUP1 DUP4 ADD SWAP4 SWAP1 SWAP4 MSTORE SWAP2 DUP2 MSTORE PUSH2 0x26AD SWAP2 PUSH2 0x26A8 PUSH1 0x84 DUP4 PUSH2 0x1F99 JUMP JUMPDEST PUSH2 0x2771 JUMP JUMPDEST JUMP JUMPDEST PUSH1 0x0 DUP2 DUP2 MSTORE PUSH1 0x2 PUSH1 0x20 SWAP1 DUP2 MSTORE PUSH1 0x40 DUP1 DUP4 KECCAK256 PUSH1 0x1 PUSH1 0x1 PUSH1 0xA0 SHL SUB DUP7 AND DUP5 MSTORE SWAP1 SWAP2 MSTORE SWAP1 KECCAK256 SLOAD PUSH1 0xFF AND ISZERO PUSH2 0x261E JUMPI PUSH1 0x0 DUP2 DUP2 MSTORE PUSH1 0x2 PUSH1 0x20 SWAP1 DUP2 MSTORE PUSH1 0x40 DUP1 DUP4 KECCAK256 PUSH1 0x1 PUSH1 0x1 PUSH1 0xA0 SHL SUB SWAP6 SWAP1 SWAP6 AND DUP1 DUP5 MSTORE SWAP5 SWAP1 SWAP2 MSTORE DUP2 KECCAK256 DUP1 SLOAD PUSH1 0xFF NOT AND SWAP1 SSTORE CALLER SWAP3 SWAP2 SWAP1 PUSH32 0xF6391F5C32D9C69D2A47EA670B442974B53935D1EDC7FD64EB21E047A839171B SWAP1 DUP1 LOG4 PUSH1 0x1 SWAP1 JUMP JUMPDEST PUSH1 0x40 MLOAD PUSH4 0xA9059CBB PUSH1 0xE0 SHL PUSH1 0x20 DUP3 ADD MSTORE PUSH1 0x1 PUSH1 0x1 PUSH1 0xA0 SHL SUB SWAP3 SWAP1 SWAP3 AND PUSH1 0x24 DUP4 ADD MSTORE PUSH1 0x44 DUP1 DUP4 ADD SWAP4 SWAP1 SWAP4 MSTORE SWAP2 DUP2 MSTORE PUSH2 0x26AD SWAP2 PUSH2 0x26A8 PUSH1 0x64 DUP4 PUSH2 0x1F99 JUMP JUMPDEST SWAP1 PUSH1 0x0 PUSH1 0x20 SWAP2 DUP3 DUP2 MLOAD SWAP2 ADD DUP3 DUP6 GAS CALL ISZERO PUSH2 0x2434 JUMPI PUSH1 0x0 MLOAD RETURNDATASIZE PUSH2 0x27C3 JUMPI POP PUSH1 0x1 PUSH1 0x1 PUSH1 0xA0 SHL SUB DUP2 AND EXTCODESIZE ISZERO JUMPDEST PUSH2 0x27A2 JUMPI POP JUMP JUMPDEST PUSH4 0x5274AFE7 PUSH1 0xE0 SHL PUSH1 0x0 SWAP1 DUP2 MSTORE PUSH1 0x1 PUSH1 0x1 PUSH1 0xA0 SHL SUB SWAP2 SWAP1 SWAP2 AND PUSH1 0x4 MSTORE PUSH1 0x24 SWAP1 REVERT JUMPDEST PUSH1 0x1 EQ ISZERO PUSH2 0x279B JUMP INVALID SHR 0xB9 DUP8 CREATE BALANCE BALANCE PUSH16 0x2EE4A2088D9DF91BA5FCB0A156171FCB PC 0xDE 0xDD SWAP13 0xAE DUP10 0xEF 0xD2 CREATE LOG2 PUSH5 0x6970667358 0x22 SLT KECCAK256 0xD2 MOD LOG4 0x28 PUSH28 0xD75E414C8B103070613F47E62DF4B935463216722A690CD9EC2F7164 PUSH20 0x6F6C634300081C00332F8788117E7EFF1D82E926 0xEC PUSH26 0x4901D17C78024A50270940304540A733656F0D1CB987F031316F 0x2E 0xE4 LOG2 ADDMOD DUP14 SWAP14 0xF9 SHL 0xA5 0xFC 0xB0 LOG1 JUMP OR 0x1F 0xCB PC 0xDE 0xDD SWAP13 0xAE DUP10 0xEF 0xD2 CREATE 0xAC CALLER SELFDESTRUCT PUSH22 0xC19E70FE83507DB0D683FD3465C996598DC972688B7A 0xCE PUSH8 0x6C89077BE5EBFA64 0xFC 0xA8 0xD5 MUL 0xA8 0xE5 0xC 0x1E 0xDF REVERT 0x2C BALANCE 0xEF 0x4D 0xAD JUMPDEST CODECOPY PUSH15 0x65D9F397FB028F74ABC50000000000 "
        },
        "methodIdentifiers": {
          "ADMIN_ROLE()": "75b238fc",
          "BRIDGE_ADMIN_ROLE()": "118c38c7",
          "DEFAULT_ADMIN_ROLE()": "a217fddf",
          "batchExpireTrades(bytes32[])": "65d0e404",
          "cancelOrder(bytes32)": "7489ec23",
          "cancelRequest(bytes32)": "50125546",
          "cancelTrade(bytes32)": "7cfb41b8",
          "createOrder(uint256,uint256,uint256,uint256)": "80148f96",
          "createTrade(bytes32,bytes32,address,uint256)": "15ddb393",
          "createTradeRequest(bytes32,address,uint256)": "35b109e6",
          "crossChainExpireSynced(bytes32)": "7b8d8008",
          "estimateUSDTForOrder(bytes32,uint256)": "42f868a6",
          "expireRequest(bytes32)": "dcd11a3f",
          "expireTrade(bytes32)": "b0091f69",
          "feePercent()": "7fd6f15c",
          "feeTo()": "017e7e58",
          "getBuyPIOTrade(bytes32)": "92aeee7e",
          "getCurrentPIOPrice()": "e1a75bfc",
          "getOrder(bytes32)": "5778472a",
          "getOrderTrades(bytes32)": "5f6752c8",
          "getPriceRange()": "f8ca2be7",
          "getRoleAdmin(bytes32)": "248a9ca3",
          "getSellUSDTTrade(bytes32)": "c8408113",
          "getSellerOrders(address)": "e4cbac40",
          "getUserTrades(address)": "927c7742",
          "grantRole(bytes32,address)": "2f2ff15d",
          "hasRole(bytes32,address)": "91d14854",
          "minUsdtForSell()": "764d3d44",
          "pancakePairAddress()": "7b7f549c",
          "pause()": "8456cb59",
          "paused()": "5c975abb",
          "pioTokenAddress()": "a9faa72e",
          "priceTolerancePercent()": "a7dcf3c3",
          "releaseUSDTForBuyer(bytes32)": "63e31f4b",
          "releaseUSDTForSeller(bytes32)": "d2896dd9",
          "renounceRole(bytes32,address)": "36568abe",
          "revokeRole(bytes32,address)": "d547741f",
          "supportsInterface(bytes4)": "01ffc9a7",
          "unpause()": "3f4ba83a",
          "updateFee(uint16)": "2c6cda93",
          "updateFeeTo(address)": "cdec2f23",
          "updateMinUsdtForSell(uint256)": "017e5aae",
          "updateOrderLimits(bytes32,uint256,uint256)": "4d091a42",
          "updateOrderPrice(bytes32,uint256)": "cdd1b603",
          "updatePancakePair(address)": "5f2d95ad",
          "updatePriceTolerance(uint16)": "e24dde39",
          "usdtAddress()": "9ab4a445"
        }
      }
    }
  }
}