{
  "contracts/BSCP2PEscrow.sol": {
    "BSCP2PEscrow": {
      "abi": [
        {
          "inputs": [
            {
              "internalType": "address",
              "name": "_usdtAddress",
              "type": "address"
            },
            {
              "internalType": "address",
              "name": "_pioTokenAddress",
              "type": "address"
            },
            {
              "internalType": "address",
              "name": "_pancakePairAddress",
              "type": "address"
            },
            {
              "internalType": "address",
              "name": "_feeTo",
              "type": "address"
            }
          ],
          "stateMutability": "nonpayable",
          "type": "constructor"
        },
        {
          "inputs": [],
          "name": "AccessControlBadConfirmation",
          "type": "error"
        },
        {
          "inputs": [
            {
              "internalType": "address",
              "name": "account",
              "type": "address"
            },
            {
              "internalType": "bytes32",
              "name": "neededRole",
              "type": "bytes32"
            }
          ],
          "name": "AccessControlUnauthorizedAccount",
          "type": "error"
        },
        {
          "inputs": [],
          "name": "EnforcedPause",
          "type": "error"
        },
        {
          "inputs": [],
          "name": "ExpectedPause",
          "type": "error"
        },
        {
          "inputs": [],
          "name": "ReentrancyGuardReentrantCall",
          "type": "error"
        },
        {
          "inputs": [
            {
              "internalType": "address",
              "name": "token",
              "type": "address"
            }
          ],
          "name": "SafeERC20FailedOperation",
          "type": "error"
        },
        {
          "anonymous": false,
          "inputs": [
            {
              "indexed": false,
              "internalType": "address",
              "name": "oldAddress",
              "type": "address"
            },
            {
              "indexed": false,
              "internalType": "address",
              "name": "newAddress",
              "type": "address"
            }
          ],
          "name": "FeeToUpdated",
          "type": "event"
        },
        {
          "anonymous": false,
          "inputs": [
            {
              "indexed": false,
              "internalType": "uint256",
              "name": "oldValue",
              "type": "uint256"
            },
            {
              "indexed": false,
              "internalType": "uint256",
              "name": "newValue",
              "type": "uint256"
            }
          ],
          "name": "MinUsdtForSellUpdated",
          "type": "event"
        },
        {
          "anonymous": false,
          "inputs": [
            {
              "indexed": true,
              "internalType": "bytes32",
              "name": "orderId",
              "type": "bytes32"
            }
          ],
          "name": "OrderCancelled",
          "type": "event"
        },
        {
          "anonymous": false,
          "inputs": [
            {
              "indexed": true,
              "internalType": "bytes32",
              "name": "orderId",
              "type": "bytes32"
            },
            {
              "indexed": true,
              "internalType": "address",
              "name": "seller",
              "type": "address"
            },
            {
              "indexed": false,
              "internalType": "uint256",
              "name": "totalUSDT",
              "type": "uint256"
            },
            {
              "indexed": false,
              "internalType": "uint256",
              "name": "minPerTrade",
              "type": "uint256"
            },
            {
              "indexed": false,
              "internalType": "uint256",
              "name": "maxPerTrade",
              "type": "uint256"
            },
            {
              "indexed": false,
              "internalType": "uint256",
              "name": "pricePerPIO",
              "type": "uint256"
            }
          ],
          "name": "OrderCreated",
          "type": "event"
        },
        {
          "anonymous": false,
          "inputs": [
            {
              "indexed": false,
              "internalType": "address",
              "name": "account",
              "type": "address"
            }
          ],
          "name": "Paused",
          "type": "event"
        },
        {
          "anonymous": false,
          "inputs": [
            {
              "indexed": false,
              "internalType": "uint16",
              "name": "oldValue",
              "type": "uint16"
            },
            {
              "indexed": false,
              "internalType": "uint16",
              "name": "newValue",
              "type": "uint16"
            }
          ],
          "name": "PriceToleranceUpdated",
          "type": "event"
        },
        {
          "anonymous": false,
          "inputs": [
            {
              "indexed": true,
              "internalType": "bytes32",
              "name": "tradeId",
              "type": "bytes32"
            }
          ],
          "name": "RequestCancelled",
          "type": "event"
        },
        {
          "anonymous": false,
          "inputs": [
            {
              "indexed": true,
              "internalType": "bytes32",
              "name": "tradeId",
              "type": "bytes32"
            }
          ],
          "name": "RequestExpired",
          "type": "event"
        },
        {
          "anonymous": false,
          "inputs": [
            {
              "indexed": true,
              "internalType": "bytes32",
              "name": "role",
              "type": "bytes32"
            },
            {
              "indexed": true,
              "internalType": "bytes32",
              "name": "previousAdminRole",
              "type": "bytes32"
            },
            {
              "indexed": true,
              "internalType": "bytes32",
              "name": "newAdminRole",
              "type": "bytes32"
            }
          ],
          "name": "RoleAdminChanged",
          "type": "event"
        },
        {
          "anonymous": false,
          "inputs": [
            {
              "indexed": true,
              "internalType": "bytes32",
              "name": "role",
              "type": "bytes32"
            },
            {
              "indexed": true,
              "internalType": "address",
              "name": "account",
              "type": "address"
            },
            {
              "indexed": true,
              "internalType": "address",
              "name": "sender",
              "type": "address"
            }
          ],
          "name": "RoleGranted",
          "type": "event"
        },
        {
          "anonymous": false,
          "inputs": [
            {
              "indexed": true,
              "internalType": "bytes32",
              "name": "role",
              "type": "bytes32"
            },
            {
              "indexed": true,
              "internalType": "address",
              "name": "account",
              "type": "address"
            },
            {
              "indexed": true,
              "internalType": "address",
              "name": "sender",
              "type": "address"
            }
          ],
          "name": "RoleRevoked",
          "type": "event"
        },
        {
          "anonymous": false,
          "inputs": [
            {
              "indexed": true,
              "internalType": "bytes32",
              "name": "tradeId",
              "type": "bytes32"
            }
          ],
          "name": "TradeCancelled",
          "type": "event"
        },
        {
          "anonymous": false,
          "inputs": [
            {
              "indexed": true,
              "internalType": "bytes32",
              "name": "tradeId",
              "type": "bytes32"
            },
            {
              "indexed": true,
              "internalType": "bytes32",
              "name": "orderId",
              "type": "bytes32"
            },
            {
              "indexed": false,
              "internalType": "address",
              "name": "buyer",
              "type": "address"
            },
            {
              "indexed": false,
              "internalType": "uint256",
              "name": "usdtAmount",
              "type": "uint256"
            }
          ],
          "name": "TradeCreated",
          "type": "event"
        },
        {
          "anonymous": false,
          "inputs": [
            {
              "indexed": true,
              "internalType": "bytes32",
              "name": "tradeId",
              "type": "bytes32"
            }
          ],
          "name": "TradeExpired",
          "type": "event"
        },
        {
          "anonymous": false,
          "inputs": [
            {
              "indexed": true,
              "internalType": "bytes32",
              "name": "tradeId",
              "type": "bytes32"
            },
            {
              "indexed": true,
              "internalType": "bytes32",
              "name": "pioneOrderId",
              "type": "bytes32"
            },
            {
              "indexed": false,
              "internalType": "address",
              "name": "buyer",
              "type": "address"
            },
            {
              "indexed": false,
              "internalType": "uint256",
              "name": "usdtAmount",
              "type": "uint256"
            }
          ],
          "name": "TradeRequestCreated",
          "type": "event"
        },
        {
          "anonymous": false,
          "inputs": [
            {
              "indexed": true,
              "internalType": "bytes32",
              "name": "tradeId",
              "type": "bytes32"
            },
            {
              "indexed": false,
              "internalType": "address",
              "name": "buyer",
              "type": "address"
            },
            {
              "indexed": false,
              "internalType": "uint256",
              "name": "amount",
              "type": "uint256"
            }
          ],
          "name": "USDTPaid",
          "type": "event"
        },
        {
          "anonymous": false,
          "inputs": [
            {
              "indexed": true,
              "internalType": "bytes32",
              "name": "tradeId",
              "type": "bytes32"
            },
            {
              "indexed": false,
              "internalType": "address",
              "name": "recipient",
              "type": "address"
            },
            {
              "indexed": false,
              "internalType": "uint256",
              "name": "amount",
              "type": "uint256"
            }
          ],
          "name": "USDTReleased",
          "type": "event"
        },
        {
          "anonymous": false,
          "inputs": [
            {
              "indexed": false,
              "internalType": "address",
              "name": "account",
              "type": "address"
            }
          ],
          "name": "Unpaused",
          "type": "event"
        },
        {
          "inputs": [],
          "name": "ADMIN_ROLE",
          "outputs": [
            {
              "internalType": "bytes32",
              "name": "",
              "type": "bytes32"
            }
          ],
          "stateMutability": "view",
          "type": "function"
        },
        {
          "inputs": [],
          "name": "BRIDGE_ADMIN_ROLE",
          "outputs": [
            {
              "internalType": "bytes32",
              "name": "",
              "type": "bytes32"
            }
          ],
          "stateMutability": "view",
          "type": "function"
        },
        {
          "inputs": [],
          "name": "DEFAULT_ADMIN_ROLE",
          "outputs": [
            {
              "internalType": "bytes32",
              "name": "",
              "type": "bytes32"
            }
          ],
          "stateMutability": "view",
          "type": "function"
        },
        {
          "inputs": [
            {
              "internalType": "bytes32[]",
              "name": "_tradeIds",
              "type": "bytes32[]"
            }
          ],
          "name": "batchExpireTrades",
          "outputs": [],
          "stateMutability": "nonpayable",
          "type": "function"
        },
        {
          "inputs": [
            {
              "internalType": "bytes32",
              "name": "_orderId",
              "type": "bytes32"
            }
          ],
          "name": "cancelOrder",
          "outputs": [],
          "stateMutability": "nonpayable",
          "type": "function"
        },
        {
          "inputs": [
            {
              "internalType": "bytes32",
              "name": "_tradeId",
              "type": "bytes32"
            }
          ],
          "name": "cancelRequest",
          "outputs": [],
          "stateMutability": "nonpayable",
          "type": "function"
        },
        {
          "inputs": [
            {
              "internalType": "bytes32",
              "name": "_tradeId",
              "type": "bytes32"
            }
          ],
          "name": "cancelTrade",
          "outputs": [],
          "stateMutability": "nonpayable",
          "type": "function"
        },
        {
          "inputs": [
            {
              "internalType": "uint256",
              "name": "_usdtAmount",
              "type": "uint256"
            },
            {
              "internalType": "uint256",
              "name": "_minPerTrade",
              "type": "uint256"
            },
            {
              "internalType": "uint256",
              "name": "_maxPerTrade",
              "type": "uint256"
            },
            {
              "internalType": "uint256",
              "name": "_pricePerPIO",
              "type": "uint256"
            }
          ],
          "name": "createOrder",
          "outputs": [
            {
              "internalType": "bytes32",
              "name": "",
              "type": "bytes32"
            }
          ],
          "stateMutability": "nonpayable",
          "type": "function"
        },
        {
          "inputs": [
            {
              "internalType": "bytes32",
              "name": "_pioneTradeId",
              "type": "bytes32"
            },
            {
              "internalType": "bytes32",
              "name": "_orderId",
              "type": "bytes32"
            },
            {
              "internalType": "address",
              "name": "_buyer",
              "type": "address"
            },
            {
              "internalType": "uint256",
              "name": "_usdtAmount",
              "type": "uint256"
            }
          ],
          "name": "createTrade",
          "outputs": [
            {
              "internalType": "bool",
              "name": "",
              "type": "bool"
            }
          ],
          "stateMutability": "nonpayable",
          "type": "function"
        },
        {
          "inputs": [
            {
              "internalType": "bytes32",
              "name": "_pioneOrderId",
              "type": "bytes32"
            },
            {
              "internalType": "address",
              "name": "_seller",
              "type": "address"
            },
            {
              "internalType": "uint256",
              "name": "_usdtAmount",
              "type": "uint256"
            }
          ],
          "name": "createTradeRequest",
          "outputs": [
            {
              "internalType": "bytes32",
              "name": "tradeId",
              "type": "bytes32"
            }
          ],
          "stateMutability": "nonpayable",
          "type": "function"
        },
        {
          "inputs": [
            {
              "internalType": "bytes32",
              "name": "",
              "type": "bytes32"
            }
          ],
          "name": "crossChainExpireSynced",
          "outputs": [
            {
              "internalType": "bool",
              "name": "",
              "type": "bool"
            }
          ],
          "stateMutability": "view",
          "type": "function"
        },
        {
          "inputs": [
            {
              "internalType": "uint256",
              "name": "_usdtAmount",
              "type": "uint256"
            }
          ],
          "name": "estimatePIOAmount",
          "outputs": [
            {
              "internalType": "uint256",
              "name": "",
              "type": "uint256"
            }
          ],
          "stateMutability": "view",
          "type": "function"
        },
        {
          "inputs": [
            {
              "internalType": "bytes32",
              "name": "_orderId",
              "type": "bytes32"
            },
            {
              "internalType": "uint256",
              "name": "_pioAmount",
              "type": "uint256"
            }
          ],
          "name": "estimateUSDTForOrder",
          "outputs": [
            {
              "internalType": "uint256",
              "name": "",
              "type": "uint256"
            }
          ],
          "stateMutability": "view",
          "type": "function"
        },
        {
          "inputs": [
            {
              "internalType": "bytes32",
              "name": "_tradeId",
              "type": "bytes32"
            }
          ],
          "name": "expireRequest",
          "outputs": [],
          "stateMutability": "nonpayable",
          "type": "function"
        },
        {
          "inputs": [
            {
              "internalType": "bytes32",
              "name": "_tradeId",
              "type": "bytes32"
            }
          ],
          "name": "expireTrade",
          "outputs": [],
          "stateMutability": "nonpayable",
          "type": "function"
        },
        {
          "inputs": [],
          "name": "feePercent",
          "outputs": [
            {
              "internalType": "uint16",
              "name": "",
              "type": "uint16"
            }
          ],
          "stateMutability": "view",
          "type": "function"
        },
        {
          "inputs": [],
          "name": "feeTo",
          "outputs": [
            {
              "internalType": "address",
              "name": "",
              "type": "address"
            }
          ],
          "stateMutability": "view",
          "type": "function"
        },
        {
          "inputs": [
            {
              "internalType": "bytes32",
              "name": "_tradeId",
              "type": "bytes32"
            }
          ],
          "name": "getBuyPIOTrade",
          "outputs": [
            {
              "components": [
                {
                  "internalType": "bytes32",
                  "name": "pioneOrderId",
                  "type": "bytes32"
                },
                {
                  "internalType": "address",
                  "name": "seller",
                  "type": "address"
                },
                {
                  "internalType": "address",
                  "name": "buyer",
                  "type": "address"
                },
                {
                  "internalType": "uint256",
                  "name": "usdtAmount",
                  "type": "uint256"
                },
                {
                  "internalType": "uint16",
                  "name": "feeSnapshot",
                  "type": "uint16"
                },
                {
                  "internalType": "enum BSCP2PEscrow.TradeStatus",
                  "name": "status",
                  "type": "uint8"
                }
              ],
              "internalType": "struct BSCP2PEscrow.BuyPIOTrade",
              "name": "",
              "type": "tuple"
            }
          ],
          "stateMutability": "view",
          "type": "function"
        },
        {
          "inputs": [],
          "name": "getCurrentPIOPrice",
          "outputs": [
            {
              "internalType": "uint256",
              "name": "",
              "type": "uint256"
            }
          ],
          "stateMutability": "view",
          "type": "function"
        },
        {
          "inputs": [
            {
              "internalType": "bytes32",
              "name": "_orderId",
              "type": "bytes32"
            }
          ],
          "name": "getOrder",
          "outputs": [
            {
              "components": [
                {
                  "internalType": "address",
                  "name": "seller",
                  "type": "address"
                },
                {
                  "internalType": "uint256",
                  "name": "totalUSDT",
                  "type": "uint256"
                },
                {
                  "internalType": "uint256",
                  "name": "availableUSDT",
                  "type": "uint256"
                },
                {
                  "internalType": "uint256",
                  "name": "minPerTrade",
                  "type": "uint256"
                },
                {
                  "internalType": "uint256",
                  "name": "maxPerTrade",
                  "type": "uint256"
                },
                {
                  "internalType": "uint256",
                  "name": "pricePerPIO",
                  "type": "uint256"
                },
                {
                  "internalType": "enum BSCP2PEscrow.OrderStatus",
                  "name": "status",
                  "type": "uint8"
                }
              ],
              "internalType": "struct BSCP2PEscrow.Order",
              "name": "",
              "type": "tuple"
            }
          ],
          "stateMutability": "view",
          "type": "function"
        },
        {
          "inputs": [
            {
              "internalType": "bytes32",
              "name": "_orderId",
              "type": "bytes32"
            }
          ],
          "name": "getOrderTrades",
          "outputs": [
            {
              "internalType": "bytes32[]",
              "name": "",
              "type": "bytes32[]"
            }
          ],
          "stateMutability": "view",
          "type": "function"
        },
        {
          "inputs": [],
          "name": "getPriceRange",
          "outputs": [
            {
              "internalType": "uint256",
              "name": "minPrice",
              "type": "uint256"
            },
            {
              "internalType": "uint256",
              "name": "maxPrice",
              "type": "uint256"
            },
            {
              "internalType": "uint256",
              "name": "currentPrice",
              "type": "uint256"
            }
          ],
          "stateMutability": "view",
          "type": "function"
        },
        {
          "inputs": [
            {
              "internalType": "bytes32",
              "name": "role",
              "type": "bytes32"
            }
          ],
          "name": "getRoleAdmin",
          "outputs": [
            {
              "internalType": "bytes32",
              "name": "",
              "type": "bytes32"
            }
          ],
          "stateMutability": "view",
          "type": "function"
        },
        {
          "inputs": [
            {
              "internalType": "bytes32",
              "name": "_tradeId",
              "type": "bytes32"
            }
          ],
          "name": "getSellUSDTTrade",
          "outputs": [
            {
              "components": [
                {
                  "internalType": "bytes32",
                  "name": "orderId",
                  "type": "bytes32"
                },
                {
                  "internalType": "address",
                  "name": "seller",
                  "type": "address"
                },
                {
                  "internalType": "address",
                  "name": "buyer",
                  "type": "address"
                },
                {
                  "internalType": "uint256",
                  "name": "usdtAmount",
                  "type": "uint256"
                },
                {
                  "internalType": "uint16",
                  "name": "feeSnapshot",
                  "type": "uint16"
                },
                {
                  "internalType": "enum BSCP2PEscrow.TradeStatus",
                  "name": "status",
                  "type": "uint8"
                }
              ],
              "internalType": "struct BSCP2PEscrow.SellUSDTTrade",
              "name": "",
              "type": "tuple"
            }
          ],
          "stateMutability": "view",
          "type": "function"
        },
        {
          "inputs": [
            {
              "internalType": "address",
              "name": "_seller",
              "type": "address"
            }
          ],
          "name": "getSellerOrders",
          "outputs": [
            {
              "internalType": "bytes32[]",
              "name": "",
              "type": "bytes32[]"
            }
          ],
          "stateMutability": "view",
          "type": "function"
        },
        {
          "inputs": [
            {
              "internalType": "address",
              "name": "_user",
              "type": "address"
            }
          ],
          "name": "getUserTrades",
          "outputs": [
            {
              "internalType": "bytes32[]",
              "name": "",
              "type": "bytes32[]"
            }
          ],
          "stateMutability": "view",
          "type": "function"
        },
        {
          "inputs": [
            {
              "internalType": "bytes32",
              "name": "role",
              "type": "bytes32"
            },
            {
              "internalType": "address",
              "name": "account",
              "type": "address"
            }
          ],
          "name": "grantRole",
          "outputs": [],
          "stateMutability": "nonpayable",
          "type": "function"
        },
        {
          "inputs": [
            {
              "internalType": "bytes32",
              "name": "role",
              "type": "bytes32"
            },
            {
              "internalType": "address",
              "name": "account",
              "type": "address"
            }
          ],
          "name": "hasRole",
          "outputs": [
            {
              "internalType": "bool",
              "name": "",
              "type": "bool"
            }
          ],
          "stateMutability": "view",
          "type": "function"
        },
        {
          "inputs": [],
          "name": "minUsdtForSell",
          "outputs": [
            {
              "internalType": "uint256",
              "name": "",
              "type": "uint256"
            }
          ],
          "stateMutability": "view",
          "type": "function"
        },
        {
          "inputs": [],
          "name": "pancakePairAddress",
          "outputs": [
            {
              "internalType": "address",
              "name": "",
              "type": "address"
            }
          ],
          "stateMutability": "view",
          "type": "function"
        },
        {
          "inputs": [],
          "name": "pause",
          "outputs": [],
          "stateMutability": "nonpayable",
          "type": "function"
        },
        {
          "inputs": [],
          "name": "paused",
          "outputs": [
            {
              "internalType": "bool",
              "name": "",
              "type": "bool"
            }
          ],
          "stateMutability": "view",
          "type": "function"
        },
        {
          "inputs": [],
          "name": "pioTokenAddress",
          "outputs": [
            {
              "internalType": "address",
              "name": "",
              "type": "address"
            }
          ],
          "stateMutability": "view",
          "type": "function"
        },
        {
          "inputs": [],
          "name": "priceTolerancePercent",
          "outputs": [
            {
              "internalType": "uint16",
              "name": "",
              "type": "uint16"
            }
          ],
          "stateMutability": "view",
          "type": "function"
        },
        {
          "inputs": [
            {
              "internalType": "bytes32",
              "name": "_tradeId",
              "type": "bytes32"
            }
          ],
          "name": "releaseUSDTForBuyer",
          "outputs": [],
          "stateMutability": "nonpayable",
          "type": "function"
        },
        {
          "inputs": [
            {
              "internalType": "bytes32",
              "name": "_tradeId",
              "type": "bytes32"
            }
          ],
          "name": "releaseUSDTForSeller",
          "outputs": [],
          "stateMutability": "nonpayable",
          "type": "function"
        },
        {
          "inputs": [
            {
              "internalType": "bytes32",
              "name": "role",
              "type": "bytes32"
            },
            {
              "internalType": "address",
              "name": "callerConfirmation",
              "type": "address"
            }
          ],
          "name": "renounceRole",
          "outputs": [],
          "stateMutability": "nonpayable",
          "type": "function"
        },
        {
          "inputs": [
            {
              "internalType": "bytes32",
              "name": "role",
              "type": "bytes32"
            },
            {
              "internalType": "address",
              "name": "account",
              "type": "address"
            }
          ],
          "name": "revokeRole",
          "outputs": [],
          "stateMutability": "nonpayable",
          "type": "function"
        },
        {
          "inputs": [
            {
              "internalType": "bytes4",
              "name": "interfaceId",
              "type": "bytes4"
            }
          ],
          "name": "supportsInterface",
          "outputs": [
            {
              "internalType": "bool",
              "name": "",
              "type": "bool"
            }
          ],
          "stateMutability": "view",
          "type": "function"
        },
        {
          "inputs": [],
          "name": "unpause",
          "outputs": [],
          "stateMutability": "nonpayable",
          "type": "function"
        },
        {
          "inputs": [
            {
              "internalType": "uint16",
              "name": "_newFee",
              "type": "uint16"
            }
          ],
          "name": "updateFee",
          "outputs": [],
          "stateMutability": "nonpayable",
          "type": "function"
        },
        {
          "inputs": [
            {
              "internalType": "address",
              "name": "_newFeeTo",
              "type": "address"
            }
          ],
          "name": "updateFeeTo",
          "outputs": [],
          "stateMutability": "nonpayable",
          "type": "function"
        },
        {
          "inputs": [
            {
              "internalType": "uint256",
              "name": "_newMin",
              "type": "uint256"
            }
          ],
          "name": "updateMinUsdtForSell",
          "outputs": [],
          "stateMutability": "nonpayable",
          "type": "function"
        },
        {
          "inputs": [
            {
              "internalType": "bytes32",
              "name": "_orderId",
              "type": "bytes32"
            },
            {
              "internalType": "uint256",
              "name": "_newMinPerTrade",
              "type": "uint256"
            },
            {
              "internalType": "uint256",
              "name": "_newMaxPerTrade",
              "type": "uint256"
            }
          ],
          "name": "updateOrderLimits",
          "outputs": [],
          "stateMutability": "nonpayable",
          "type": "function"
        },
        {
          "inputs": [
            {
              "internalType": "bytes32",
              "name": "_orderId",
              "type": "bytes32"
            },
            {
              "internalType": "uint256",
              "name": "_newPricePerPIO",
              "type": "uint256"
            }
          ],
          "name": "updateOrderPrice",
          "outputs": [],
          "stateMutability": "nonpayable",
          "type": "function"
        },
        {
          "inputs": [
            {
              "internalType": "address",
              "name": "_newPair",
              "type": "address"
            }
          ],
          "name": "updatePancakePair",
          "outputs": [],
          "stateMutability": "nonpayable",
          "type": "function"
        },
        {
          "inputs": [
            {
              "internalType": "uint16",
              "name": "_newTolerance",
              "type": "uint16"
            }
          ],
          "name": "updatePriceTolerance",
          "outputs": [],
          "stateMutability": "nonpayable",
          "type": "function"
        },
        {
          "inputs": [],
          "name": "usdtAddress",
          "outputs": [
            {
              "internalType": "address",
              "name": "",
              "type": "address"
            }
          ],
          "stateMutability": "view",
          "type": "function"
        }
      ],
      "evm": {
        "bytecode": {
          "linkReferences": {},
          "object": "6080346101c557601f612caa38819003918201601f19168301916001600160401b038311848410176101ca578084926080946040528339810103126101c557610047816101e0565b90610054602082016101e0565b61006c6060610065604085016101e0565b93016101e0565b60016000556006549390926001600160a01b03909116918215610191576001600160a01b031690811561015e576001600160a01b031691821561012a57600380546001600160a01b031990811692909217905560048054821692909217909155600580549091169190911790556001600160c01b03199091166001600160a01b03919091161762fa001960a21b17600655610106336101f4565b5061011033610270565b5061011a33610308565b5060405161288990816103a18239f35b60405162461bcd60e51b815260206004820152600c60248201526b24b73b30b634b2103830b4b960a11b6044820152606490fd5b60405162461bcd60e51b815260206004820152600b60248201526a496e76616c69642050494f60a81b6044820152606490fd5b60405162461bcd60e51b815260206004820152600c60248201526b125b9d985b1a59081554d11560a21b6044820152606490fd5b600080fd5b634e487b7160e01b600052604160045260246000fd5b51906001600160a01b03821682036101c557565b6001600160a01b0381166000908152600080516020612c6a833981519152602052604090205460ff1661026a576001600160a01b03166000818152600080516020612c6a83398151915260205260408120805460ff19166001179055339190600080516020612c2a8339815191528180a4600190565b50600090565b6001600160a01b0381166000908152600080516020612c8a833981519152602052604090205460ff1661026a576001600160a01b03166000818152600080516020612c8a83398151915260205260408120805460ff191660011790553391907fa49807205ce4d355092ef5a8a18f56e8913cf4a201fbe287825b095693c2177590600080516020612c2a8339815191529080a4600190565b6001600160a01b0381166000908152600080516020612c4a833981519152602052604090205460ff1661026a576001600160a01b03166000818152600080516020612c4a83398151915260205260408120805460ff191660011790553391907f751b795d24b92e3d92d1d0d8f2885f4e9c9c269da350af36ae6b49069babf4bf90600080516020612c2a8339815191529080a460019056fe6080604052600436101561001257600080fd5b60003560e01c8063017e5aae14611d5a578063017e7e5814611d3157806301ffc9a714611cdb578063118c38c714611ca057806315ddb39314611ab6578063248a9ca314611a895780632c6cda9314611a035780632f2ff15d146119c357806335b109e6146117ee57806336568abe146117a85780633f4ba83a1461173f57806342f868a6146116ef5780634d091a421461161b578063501255461461156f5780635778472a146114645780635c975abb146114415780635f2d95ad146113c05780635f6752c81461135757806363e31f4b146111f257806365d0e404146110cb5780637489ec2314610ec657806375b238fc14610e8b578063764d3d4414610e6d5780637b7f549c14610e445780637b8d800814610e135780637cfb41b814610d3f5780637fd6f15c14610d1a57806380148f9614610b0a5780638456cb5914610ab157806391d1485414610a64578063927c7742146109ed57806392aeee7e146109b95780639ab4a44514610990578063a217fddf14610974578063a7dcf3c31461094f578063a9faa72e14610926578063b0091f6914610840578063b730083e146107e0578063c84081131461079d578063cdd1b603146106cf578063cdec2f231461065e578063d2896dd9146104f0578063d547741f146104a9578063dcd11a3f146103bf578063e1a75bfc1461039c578063e24dde3914610320578063e4cbac40146102995763f8ca2be71461022c57600080fd5b34610294576000366003190112610294576060610247612376565b61ffff60065460b01c169061271061028161ffff61027a836102738361026c8961226a565b168761213c565b049561227e565b168361213c565b0460405192835260208301526040820152f35b600080fd5b34610294576020366003190112610294576001600160a01b036102ba611dc4565b16600052600d602052604060002060405190816020825491828152019160005260206000209060005b81811061030a57610306856102fa81870382611fee565b60405191829182611e10565b0390f35b82548452602090930192600192830192016102e3565b346102945760203660031901126102945760043561ffff8116808203610294577f61ffe63469fb8786675a96532a0fed8083715a6329d830492078cedd3bd9c0d69160409161036d61254e565b6006805461ffff60b01b19811660b094851b61ffff60b01b16179091558351921c61ffff1682526020820152a1005b346102945760003660031901126102945760206103b7612376565b604051908152f35b34610294576020366003190112610294576004356103db6126a9565b33600090815260008051602061283483398151915260205260409020546104049060ff16611e9c565b80600052600b60205260406000206104576004820191610436600160ff855460101c1661043081611df0565b14612220565b6003805460028301549290910154916001600160a01b03908116911661279c565b805462ff00001916620300001790556000818152601060205260408120805460ff191660011790557e63c7a53686b11e863c5f827c066bfbe9430ca95b1949d61445ce106261aca29080a26001600055005b34610294576040366003190112610294576104ee6004356104c8611dae565b906104e96104e482600052600260205260016040600020015490565b6125c0565b612716565b005b346102945760203660031901126102945733600090815260008051602061283483398151915260205260409020546004359061052e9060ff16611e9c565b6105366126a9565b80600052600b6020527fd61e48d1b98bb8a0619b412553ca708bd20adc84aadea59cda5df4b36efb5c1060406000206004810190815491610582600160ff8560101c1661043081611df0565b6000600383019361ffff855491168015158061064a575b610626575b5060035460018501546105be92916001600160a01b03918216911661279c565b80610603575b50805462ff0000191662020000179055600201549054604080516001600160a01b039390931683526020830191909152819081015b0390a26001600055005b60035460065461062092916001600160a01b03918216911661279c565b856105c4565b81925061271061063c610644926105be9461213c565b048093611f93565b9061059e565b506006546001600160a01b03161515610599565b34610294576020366003190112610294577f8f93286d6f131e956d1aa672d3ecdc817f24efc20b223b0de5d591f454edc347604061069a611dc4565b6106a261254e565b600680546001600160a01b039283166001600160a01b0319821681179092558351921682526020820152a1005b34610294576106dd36611dda565b9080600052600a6020526106ff60018060a01b036040600020541615156120f9565b600052600a6020526005604060002061072260018060a01b03825416331461216f565b61073e600160ff60068401541661073881611df0565b14611edc565b61078e610749612376565b61271061077c61ffff60065460b01c169261ffff610775846102738361076e8961226a565b168561213c565b169061213c565b04908510159081610792575b50612292565b0155005b905084111585610788565b34610294576020366003190112610294576107b66122d3565b50600435600052600c60205260c06107d16040600020612304565b6107de6040518092611e4a565bf35b34610294576020366003190112610294576004356107fc612376565b90670de0b6b3a7640000810290808204670de0b6b3a7640000149015171561082a576020916103b79161214f565b634e487b7160e01b600052601160045260246000fd5b346102945760203660031901126102945760043561085c6126a9565b33600090815260008051602061283483398151915260205260409020546108859060ff16611e9c565b80600052600c602052604060002060048101906108ae600160ff845460101c1661043081611df0565b8054600052600a6020526108d1600260036040600020930154920191825461225d565b9055805462ff00001916620300001790556000818152601060205260408120805460ff191660011790557f974ec1b137d0b76fd7cdab57c57bac61d82c6038046beccecdd622610b4d79d69080a26001600055005b34610294576000366003190112610294576004546040516001600160a01b039091168152602090f35b3461029457600036600319011261029457602061ffff60065460b01c16604051908152f35b3461029457600036600319011261029457602060405160008152f35b34610294576000366003190112610294576003546040516001600160a01b039091168152602090f35b34610294576020366003190112610294576109d26122d3565b50600435600052600b60205260c06107d16040600020612304565b34610294576020366003190112610294576001600160a01b03610a0e611dc4565b16600052600e602052604060002060405190816020825491828152019160005260206000209060005b818110610a4e57610306856102fa81870382611fee565b8254845260209093019260019283019201610a37565b3461029457604036600319011261029457610a7d611dae565b600435600052600260205260406000209060018060a01b0316600052602052602060ff604060002054166040519015158152f35b3461029457600036600319011261029457610aca61254e565b610ad261268c565b600160ff19815416176001557f62e78cea01bee320cd4e420270b5ea74000d11b0c9f74754ebdbfc544b05a2586020604051338152a1005b34610294576080366003190112610294576020602435600435606435604435610b3161268c565b610b396126a9565b610b47600754841015611f1b565b83811180610d10575b610b59906121a8565b610b9a610b64612376565b612710610b8961ffff60065460b01c169261ffff610775846102738361076e8961226a565b04908410159081610d055750612292565b600854610ba6816120ea565b600855604051868101913360601b8352856034830152605482015242607482015260748152610bd6609482611fee565b51902093610bf28460018060a01b0360035416309033906126cb565b604051610bfe81611fd2565b3381526006878201918683526040810187815260608201858152608083019087825260a084019289845260c0850196600188528c600052600a8e5260406000209560018060a01b039060018060a01b03905116166bffffffffffffffffffffffff60a01b875416178655516001860155516002850155516003840155516004830155516005820155019051610c9281611df0565b610c9b81611df0565b60ff8019835416911617905533600052600d8652610cbd8560406000206120a6565b6040519384528584015260408301526060820152817f6bcbd6ab6d795a7e990431a97ea8f8808e81b8580fb9d6d581e5fcbb16e3d12760803393a36001600055604051908152f35b905083111587610788565b5082811115610b50565b3461029457600036600319011261029457602061ffff60065460a01c16604051908152f35b3461029457602036600319011261029457600435610d5b6126a9565b3360009081526000805160206128348339815191526020526040902054610d849060ff16611e9c565b80600052600c60205260406000206004810190610db3600160ff845460101c16610dad81611df0565b146121e4565b8054600052600a602052610dd6600260036040600020930154920191825461225d565b9055805462ff00001916620400001790557f4e09303ea9c3932854b42432aa9f65348205f9681747864bf122101b35371503600080a26001600055005b34610294576020366003190112610294576004356000526010602052602060ff604060002054166040519015158152f35b34610294576000366003190112610294576005546040516001600160a01b039091168152602090f35b34610294576000366003190112610294576020600754604051908152f35b346102945760003660031901126102945760206040517fa49807205ce4d355092ef5a8a18f56e8913cf4a201fbe287825b095693c217758152f35b3461029457602036600319011261029457600435610ee26126a9565b80600052600a60205260406000209060018060a01b038254169081331480156110a5575b610f0f9061216f565b60068301918254610f28600160ff8316610dad81611df0565b82600052600f6020526040600020936040518086602082985493848152019060005260206000209260005b81811061108c575050610f6892500386611fee565b60005b855181101561102657600060208260051b880101518152600c60205260ff600460408320015460101c16610f9e81611df0565b60028114918215611011575b8215610ffb575b505015610fc057600101610f6b565b60405162461bcd60e51b8152602060048201526013602482015272151c985919481b9bdd08199a5b985b1a5e9959606a1b6044820152606490fd5b600492505061100981611df0565b148880610fb1565b915061101c81611df0565b6003811491610faa565b506000906002870190600382549460ff1916179055558061106f575b827f5152abf959f6564662358c2e52b702259b78bac5ee7842a0f01937e670efcc7d600080a26001600055005b60035461108592906001600160a01b031661279c565b8180611042565b845483526001948501948a945060209093019201610f53565b50336000908152600080516020612834833981519152602052604090205460ff16610f06565b346102945760203660031901126102945760043567ffffffffffffffff8111610294573660238201121561029457806004013567ffffffffffffffff8111610294573660248260051b840101116102945733600090815260008051602061283483398151915260205260409020546111459060ff16611e9c565b60005b818110156104ee57600190600060248260051b8601013590818152600c6020526040812090600482018560ff825460101c1661118381611df0565b14611193575b5050505001611148565b827f974ec1b137d0b76fd7cdab57c57bac61d82c6038046beccecdd622610b4d79d693548352600a6020526111d66002600360408620930154920191825461225d565b9055805462ff000019166203000017905580a284808080611189565b34610294576020366003190112610294573360009081526000805160206128348339815191526020526040902054600435906112309060ff16611e9c565b6112386126a9565b80600052600c6020527f3b3deea4ef69c5f108641489e2d205b77eb559f74e51e038b7df69bb76d9590660406000206004810190815491611284600160ff8560101c1661043081611df0565b600061ffff6003840154941680151580611343575b611322575b50600354600293909301805490936112c49186916001600160a01b03918216911661279c565b806112ff575b50805462ff000019166202000017905554604080516001600160a01b03929092168252602082019290925290819081016105f9565b60035460065461131c92916001600160a01b03918216911661279c565b856112ca565b61133c9150611334612710918661213c565b048094611f93565b928661129e565b506006546001600160a01b03161515611299565b3461029457602036600319011261029457600435600052600f602052604060002060405190816020825491828152019160005260206000209060005b8181106113aa57610306856102fa81870382611fee565b8254845260209093019260019283019201611393565b34610294576020366003190112610294576113d9611dc4565b6113e161254e565b6001600160a01b0316801561140d576bffffffffffffffffffffffff60a01b6005541617600555600080f35b60405162461bcd60e51b815260206004820152600c60248201526b24b73b30b634b2103830b4b960a11b6044820152606490fd5b3461029457600036600319011261029457602060ff600154166040519015158152f35b3461029457602036600319011261029457600060c060405161148581611fd2565b8281528260208201528260408201528260608201528260808201528260a08201520152600435600052600a60205260e06040600020604051906114c782611fd2565b80546001600160a01b03168252600181015460208301908152600282015460408401908152600383015460608501908152600484015460808601908152600585015460a0870190815260069095015460c0870195949193919060ff1661152c81611df0565b86526040805197516001600160a01b03168852905160208801529051908601525160608501525160808401525160a08301525161156881611df0565b60c0820152f35b346102945760203660031901126102945760043561158b6126a9565b33600090815260008051602061283483398151915260205260409020546115b49060ff16611e9c565b80600052600b60205260406000206115e06004820191610436600160ff855460101c16610dad81611df0565b805462ff00001916620400001790557ff903f4774c7bd27355f9d7fcbc382b079b164a697a44ac5d95267a4c3cb3bb22600080a26001600055005b34610294576060366003190112610294576004356000818152600a6020526040902054604435916024359161165a906001600160a01b031615156120f9565b600052600a602052604060002061167b60018060a01b03825416331461216f565b611691600160ff60068401541661073881611df0565b61169c8284116121a8565b600181015483116116b65760049160038201550155600080f35b60405162461bcd60e51b815260206004820152601160248201527013585e08195e18d959591cc81d1bdd185b607a1b6044820152606490fd5b34610294576020670de0b6b3a764000061173661170b36611dda565b90600052600a84526005604060002061172e60018060a01b0382541615156120f9565b01549061213c565b04604051908152f35b346102945760003660031901126102945761175861254e565b60015460ff8116156117975760ff19166001557f5db9ee0a495bf2e6ff9c91a7834c1ba4fdd244a5e8aa4e537bd38aeae4b073aa6020604051338152a1005b638dfc202b60e01b60005260046000fd5b34610294576040366003190112610294576117c1611dae565b336001600160a01b038216036117dd576104ee90600435612716565b63334bd91960e11b60005260046000fd5b346102945760603660031901126102945760043561180a611dae565b6044359061181661268c565b61181e6126a9565b6001600160a01b031691821561198d576020927f40948e3e47ac26599994072f13321706ac61efad4125c7c7a933d48d1d60e72f61197284611864611944961515611f1b565b600954611870816120ea565b600955604051888101918783523360601b60408301528360548301526074820152426094820152609481526118a660b482611fee565b51902095869485600052600b89526118ce60018060a01b036001604060002001541615611f58565b6003546118e9908490309033906001600160a01b03166126cb565b6006546001600160a01b038116156119825761ffff809160a01c165b6040519261191284611fa0565b8984528b840152336040840152846060840152166080820152600160a082015285600052600b89526040600020612010565b33600052600e875261195a8460406000206120a6565b60408051338152602081019290925290918291820190565b0390a36001600055604051908152f35b5061ffff6000611905565b60405162461bcd60e51b815260206004820152600e60248201526d24b73b30b634b21039b2b63632b960911b6044820152606490fd5b34610294576040366003190112610294576104ee6004356119e2611dae565b906119fe6104e482600052600260205260016040600020015490565b6125fd565b346102945760203660031901126102945760043561ffff8116808203610294576103e890611a2f61254e565b11611a55576006805461ffff60a01b191660a09290921b61ffff60a01b16919091179055005b60405162461bcd60e51b815260206004820152600c60248201526b08ccaca40e8dede40d0d2ced60a31b6044820152606490fd5b346102945760203660031901126102945760206103b7600435600052600260205260016040600020015490565b34610294576080366003190112610294576024356004356044356001600160a01b038116908181036102945733600090815260008051602061283483398151915260205260409020546064359190611b109060ff16611e9c565b84600052600a602052604060002092611b35600160ff60068701541661073881611df0565b60028401908154808511611c675785611c1393611bb28761ffff9460037f7450e1364879cff4a1f1f2aa6c91de7ba540801fe2abb06fc6a5a8d3b8f670a49b015482101580611c59575b611b8890611f1b565b60008c8152600c6020526040902060010154611bad906001600160a01b031615611f58565b611f93565b9055546006546001600160a01b039182169391811615611c505760a01c8216905b60405193611be085611fa0565b8a855260208501526040840152856060840152166080820152600160a082015285600052600c6020526040600020612010565b84600052600f602052611c2a8460406000206120a6565b604080516001600160a01b039290921682526020820192909252a3602060405160018152f35b50600090611bd3565b506004850154821115611b7f565b60405162461bcd60e51b8152602060048201526011602482015270125b9cdd59999a58da595b9d081554d115607a1b6044820152606490fd5b346102945760003660031901126102945760206040517f751b795d24b92e3d92d1d0d8f2885f4e9c9c269da350af36ae6b49069babf4bf8152f35b346102945760203660031901126102945760043563ffffffff60e01b811680910361029457602090637965db0b60e01b8114908115611d20575b506040519015158152f35b6301ffc9a760e01b14905082611d15565b34610294576000366003190112610294576006546040516001600160a01b039091168152602090f35b34610294576020366003190112610294577fd697357021bb5c8f09a6c16004ed15487b82d773b5a8c20ff3a7cbf87a95bc636040600435611d9961254e565b600754908060075582519182526020820152a1005b602435906001600160a01b038216820361029457565b600435906001600160a01b038216820361029457565b6040906003190112610294576004359060243590565b60051115611dfa57565b634e487b7160e01b600052602160045260246000fd5b602060408183019282815284518094520192019060005b818110611e345750505090565b8251845260209384019390920191600101611e27565b60a0809180518452600180831b036020820151166020850152600180831b0360408201511660408501526060810151606085015261ffff6080820151166080850152015191611e9883611df0565b0152565b15611ea357565b60405162461bcd60e51b815260206004820152601160248201527027b7363c90313934b233b29030b236b4b760791b6044820152606490fd5b15611ee357565b60405162461bcd60e51b815260206004820152601060248201526f4f72646572206e6f742061637469766560801b6044820152606490fd5b15611f2257565b60405162461bcd60e51b815260206004820152600e60248201526d125b9d985b1a5908185b5bdd5b9d60921b6044820152606490fd5b15611f5f57565b60405162461bcd60e51b815260206004820152600c60248201526b54726164652065786973747360a01b6044820152606490fd5b9190820391821161082a57565b60c0810190811067ffffffffffffffff821117611fbc57604052565b634e487b7160e01b600052604160045260246000fd5b60e0810190811067ffffffffffffffff821117611fbc57604052565b90601f8019910116810190811067ffffffffffffffff821117611fbc57604052565b8151815560208201516001820180546001600160a01b039283166001600160a01b03199182161790915560408401516002840180549190931691161790556060820151600382015560808201516004909101805461ffff90921661ffff1990921691909117815560a09091015161208681611df0565b61208f81611df0565b62ff000082549160101b169062ff00001916179055565b80549068010000000000000000821015611fbc57600182018082558210156120d45760005260206000200155565b634e487b7160e01b600052603260045260246000fd5b600019811461082a5760010190565b1561210057565b60405162461bcd60e51b815260206004820152601460248201527313dc99195c88191bd95cc81b9bdd08195e1a5cdd60621b6044820152606490fd5b8181029291811591840414171561082a57565b8115612159570490565b634e487b7160e01b600052601260045260246000fd5b1561217657565b60405162461bcd60e51b815260206004820152600a6024820152692737ba1039b2b63632b960b11b6044820152606490fd5b156121af57565b60405162461bcd60e51b815260206004820152600d60248201526c496e76616c69642072616e676560981b6044820152606490fd5b156121eb57565b60405162461bcd60e51b815260206004820152600d60248201526c10d85b9b9bdd0818d85b98d95b609a1b6044820152606490fd5b1561222757565b60405162461bcd60e51b815260206004820152600e60248201526d496e76616c69642073746174757360901b6044820152606490fd5b9190820180921161082a57565b61ffff16612710039061ffff821161082a57565b61ffff16612710019061ffff821161082a57565b1561229957565b60405162461bcd60e51b81526020600482015260126024820152715072696365206f7574206f662072616e676560701b6044820152606490fd5b604051906122e082611fa0565b600060a0838281528260208201528260408201528260608201528260808201520152565b9060405161231181611fa0565b8254815260018301546001600160a01b0390811660208301526002840154166040820152600383015460608201526004929092015461ffff8116608084015260101c60ff1660a083611e9883611df0565b51906001600160701b038216820361029457565b600554604051630240bc6b60e21b81526001600160a01b0390911690606081600481855afa91821561249b5760009182936124f1575b506001600160701b0382161515806124df575b156124a757602060049160405192838092630dfe168160e01b82525afa90811561249b57600091612452575b506004546001600160a01b03918216911603612444576001600160701b0390915b16670de0b6b3a7640000810290808204670de0b6b3a7640000149015171561082a576001600160701b0361244192169061214f565b90565b6001600160701b039061240c565b6020813d602011612493575b8161246b60209383611fee565b8101031261248f5751906001600160a01b038216820361248c5750386123eb565b80fd5b5080fd5b3d915061245e565b6040513d6000823e3d90fd5b60405162461bcd60e51b815260206004820152601060248201526f496e76616c696420726573657276657360801b6044820152606490fd5b506001600160701b03831615156123bf565b919092506060823d606011612546575b8161250e60609383611fee565b8101031261248c5761251f82612362565b90604061252e60208501612362565b93015163ffffffff81160361248c57509091386123ac565b3d9150612501565b3360009081527fe5ebfa64fca8d502a8e50c1edffd2c31ef4dad5b396e65d9f397fb028f74abc5602052604090205460ff161561258757565b63e2517d3f60e01b600052336004527fa49807205ce4d355092ef5a8a18f56e8913cf4a201fbe287825b095693c2177560245260446000fd5b600081815260026020908152604080832033845290915290205460ff16156125e55750565b63e2517d3f60e01b6000523360045260245260446000fd5b60008181526002602090815260408083206001600160a01b038616845290915290205460ff166126855760008181526002602090815260408083206001600160a01b0395909516808452949091528120805460ff19166001179055339291907f2f8788117e7eff1d82e926ec794901d17c78024a50270940304540a733656f0d9080a4600190565b5050600090565b60ff6001541661269857565b63d93c066560e01b60005260046000fd5b6002600054146126ba576002600055565b633ee5aeb560e01b60005260046000fd5b6040516323b872dd60e01b60208201526001600160a01b0392831660248201529290911660448301526064808301939093529181526127149161270f608483611fee565b6127d8565b565b60008181526002602090815260408083206001600160a01b038616845290915290205460ff16156126855760008181526002602090815260408083206001600160a01b0395909516808452949091528120805460ff19169055339291907ff6391f5c32d9c69d2a47ea670b442974b53935d1edc7fd64eb21e047a839171b9080a4600190565b60405163a9059cbb60e01b60208201526001600160a01b039290921660248301526044808301939093529181526127149161270f606483611fee565b906000602091828151910182855af11561249b576000513d61282a57506001600160a01b0381163b155b6128095750565b635274afe760e01b60009081526001600160a01b0391909116600452602490fd5b6001141561280256fe1cb987f031316f2ee4a2088d9df91ba5fcb0a156171fcb58dedd9cae89efd2f0a264697066735822122086ed4f30a22cc2c8e02d8e90ef6c7c9606cac2fce153772c5d64fc64347cf84764736f6c634300081c00332f8788117e7eff1d82e926ec794901d17c78024a50270940304540a733656f0d1cb987f031316f2ee4a2088d9df91ba5fcb0a156171fcb58dedd9cae89efd2f0ac33ff75c19e70fe83507db0d683fd3465c996598dc972688b7ace676c89077be5ebfa64fca8d502a8e50c1edffd2c31ef4dad5b396e65d9f397fb028f74abc5",
          "opcodes": "PUSH1 0x80 CALLVALUE PUSH2 0x1C5 JUMPI PUSH1 0x1F PUSH2 0x2CAA CODESIZE DUP2 SWAP1 SUB SWAP2 DUP3 ADD PUSH1 0x1F NOT AND DUP4 ADD SWAP2 PUSH1 0x1 PUSH1 0x1 PUSH1 0x40 SHL SUB DUP4 GT DUP5 DUP5 LT OR PUSH2 0x1CA JUMPI DUP1 DUP5 SWAP3 PUSH1 0x80 SWAP5 PUSH1 0x40 MSTORE DUP4 CODECOPY DUP2 ADD SUB SLT PUSH2 0x1C5 JUMPI PUSH2 0x47 DUP2 PUSH2 0x1E0 JUMP JUMPDEST SWAP1 PUSH2 0x54 PUSH1 0x20 DUP3 ADD PUSH2 0x1E0 JUMP JUMPDEST PUSH2 0x6C PUSH1 0x60 PUSH2 0x65 PUSH1 0x40 DUP6 ADD PUSH2 0x1E0 JUMP JUMPDEST SWAP4 ADD PUSH2 0x1E0 JUMP JUMPDEST PUSH1 0x1 PUSH1 0x0 SSTORE PUSH1 0x6 SLOAD SWAP4 SWAP1 SWAP3 PUSH1 0x1 PUSH1 0x1 PUSH1 0xA0 SHL SUB SWAP1 SWAP2 AND SWAP2 DUP3 ISZERO PUSH2 0x191 JUMPI PUSH1 0x1 PUSH1 0x1 PUSH1 0xA0 SHL SUB AND SWAP1 DUP2 ISZERO PUSH2 0x15E JUMPI PUSH1 0x1 PUSH1 0x1 PUSH1 0xA0 SHL SUB AND SWAP2 DUP3 ISZERO PUSH2 0x12A JUMPI PUSH1 0x3 DUP1 SLOAD PUSH1 0x1 PUSH1 0x1 PUSH1 0xA0 SHL SUB NOT SWAP1 DUP2 AND SWAP3 SWAP1 SWAP3 OR SWAP1 SSTORE PUSH1 0x4 DUP1 SLOAD DUP3 AND SWAP3 SWAP1 SWAP3 OR SWAP1 SWAP2 SSTORE PUSH1 0x5 DUP1 SLOAD SWAP1 SWAP2 AND SWAP2 SWAP1 SWAP2 OR SWAP1 SSTORE PUSH1 0x1 PUSH1 0x1 PUSH1 0xC0 SHL SUB NOT SWAP1 SWAP2 AND PUSH1 0x1 PUSH1 0x1 PUSH1 0xA0 SHL SUB SWAP2 SWAP1 SWAP2 AND OR PUSH3 0xFA0019 PUSH1 0xA2 SHL OR PUSH1 0x6 SSTORE PUSH2 0x106 CALLER PUSH2 0x1F4 JUMP JUMPDEST POP PUSH2 0x110 CALLER PUSH2 0x270 JUMP JUMPDEST POP PUSH2 0x11A CALLER PUSH2 0x308 JUMP JUMPDEST POP PUSH1 0x40 MLOAD PUSH2 0x2889 SWAP1 DUP2 PUSH2 0x3A1 DUP3 CODECOPY RETURN JUMPDEST PUSH1 0x40 MLOAD PUSH3 0x461BCD PUSH1 0xE5 SHL DUP2 MSTORE PUSH1 0x20 PUSH1 0x4 DUP3 ADD MSTORE PUSH1 0xC PUSH1 0x24 DUP3 ADD MSTORE PUSH12 0x24B73B30B634B2103830B4B9 PUSH1 0xA1 SHL PUSH1 0x44 DUP3 ADD MSTORE PUSH1 0x64 SWAP1 REVERT JUMPDEST PUSH1 0x40 MLOAD PUSH3 0x461BCD PUSH1 0xE5 SHL DUP2 MSTORE PUSH1 0x20 PUSH1 0x4 DUP3 ADD MSTORE PUSH1 0xB PUSH1 0x24 DUP3 ADD MSTORE PUSH11 0x496E76616C69642050494F PUSH1 0xA8 SHL PUSH1 0x44 DUP3 ADD MSTORE PUSH1 0x64 SWAP1 REVERT JUMPDEST PUSH1 0x40 MLOAD PUSH3 0x461BCD PUSH1 0xE5 SHL DUP2 MSTORE PUSH1 0x20 PUSH1 0x4 DUP3 ADD MSTORE PUSH1 0xC PUSH1 0x24 DUP3 ADD MSTORE PUSH12 0x125B9D985B1A59081554D115 PUSH1 0xA2 SHL PUSH1 0x44 DUP3 ADD MSTORE PUSH1 0x64 SWAP1 REVERT JUMPDEST PUSH1 0x0 DUP1 REVERT JUMPDEST PUSH4 0x4E487B71 PUSH1 0xE0 SHL PUSH1 0x0 MSTORE PUSH1 0x41 PUSH1 0x4 MSTORE PUSH1 0x24 PUSH1 0x0 REVERT JUMPDEST MLOAD SWAP1 PUSH1 0x1 PUSH1 0x1 PUSH1 0xA0 SHL SUB DUP3 AND DUP3 SUB PUSH2 0x1C5 JUMPI JUMP JUMPDEST PUSH1 0x1 PUSH1 0x1 PUSH1 0xA0 SHL SUB DUP2 AND PUSH1 0x0 SWAP1 DUP2 MSTORE PUSH1 0x0 DUP1 MLOAD PUSH1 0x20 PUSH2 0x2C6A DUP4 CODECOPY DUP2 MLOAD SWAP2 MSTORE PUSH1 0x20 MSTORE PUSH1 0x40 SWAP1 KECCAK256 SLOAD PUSH1 0xFF AND PUSH2 0x26A JUMPI PUSH1 0x1 PUSH1 0x1 PUSH1 0xA0 SHL SUB AND PUSH1 0x0 DUP2 DUP2 MSTORE PUSH1 0x0 DUP1 MLOAD PUSH1 0x20 PUSH2 0x2C6A DUP4 CODECOPY DUP2 MLOAD SWAP2 MSTORE PUSH1 0x20 MSTORE PUSH1 0x40 DUP2 KECCAK256 DUP1 SLOAD PUSH1 0xFF NOT AND PUSH1 0x1 OR SWAP1 SSTORE CALLER SWAP2 SWAP1 PUSH1 0x0 DUP1 MLOAD PUSH1 0x20 PUSH2 0x2C2A DUP4 CODECOPY DUP2 MLOAD SWAP2 MSTORE DUP2 DUP1 LOG4 PUSH1 0x1 SWAP1 JUMP JUMPDEST POP PUSH1 0x0 SWAP1 JUMP JUMPDEST PUSH1 0x1 PUSH1 0x1 PUSH1 0xA0 SHL SUB DUP2 AND PUSH1 0x0 SWAP1 DUP2 MSTORE PUSH1 0x0 DUP1 MLOAD PUSH1 0x20 PUSH2 0x2C8A DUP4 CODECOPY DUP2 MLOAD SWAP2 MSTORE PUSH1 0x20 MSTORE PUSH1 0x40 SWAP1 KECCAK256 SLOAD PUSH1 0xFF AND PUSH2 0x26A JUMPI PUSH1 0x1 PUSH1 0x1 PUSH1 0xA0 SHL SUB AND PUSH1 0x0 DUP2 DUP2 MSTORE PUSH1 0x0 DUP1 MLOAD PUSH1 0x20 PUSH2 0x2C8A DUP4 CODECOPY DUP2 MLOAD SWAP2 MSTORE PUSH1 0x20 MSTORE PUSH1 0x40 DUP2 KECCAK256 DUP1 SLOAD PUSH1 0xFF NOT AND PUSH1 0x1 OR SWAP1 SSTORE CALLER SWAP2 SWAP1 PUSH32 0xA49807205CE4D355092EF5A8A18F56E8913CF4A201FBE287825B095693C21775 SWAP1 PUSH1 0x0 DUP1 MLOAD PUSH1 0x20 PUSH2 0x2C2A DUP4 CODECOPY DUP2 MLOAD SWAP2 MSTORE SWAP1 DUP1 LOG4 PUSH1 0x1 SWAP1 JUMP JUMPDEST PUSH1 0x1 PUSH1 0x1 PUSH1 0xA0 SHL SUB DUP2 AND PUSH1 0x0 SWAP1 DUP2 MSTORE PUSH1 0x0 DUP1 MLOAD PUSH1 0x20 PUSH2 0x2C4A DUP4 CODECOPY DUP2 MLOAD SWAP2 MSTORE PUSH1 0x20 MSTORE PUSH1 0x40 SWAP1 KECCAK256 SLOAD PUSH1 0xFF AND PUSH2 0x26A JUMPI PUSH1 0x1 PUSH1 0x1 PUSH1 0xA0 SHL SUB AND PUSH1 0x0 DUP2 DUP2 MSTORE PUSH1 0x0 DUP1 MLOAD PUSH1 0x20 PUSH2 0x2C4A DUP4 CODECOPY DUP2 MLOAD SWAP2 MSTORE PUSH1 0x20 MSTORE PUSH1 0x40 DUP2 KECCAK256 DUP1 SLOAD PUSH1 0xFF NOT AND PUSH1 0x1 OR SWAP1 SSTORE CALLER SWAP2 SWAP1 PUSH32 0x751B795D24B92E3D92D1D0D8F2885F4E9C9C269DA350AF36AE6B49069BABF4BF SWAP1 PUSH1 0x0 DUP1 MLOAD PUSH1 0x20 PUSH2 0x2C2A DUP4 CODECOPY DUP2 MLOAD SWAP2 MSTORE SWAP1 DUP1 LOG4 PUSH1 0x1 SWAP1 JUMP INVALID PUSH1 0x80 PUSH1 0x40 MSTORE PUSH1 0x4 CALLDATASIZE LT ISZERO PUSH2 0x12 JUMPI PUSH1 0x0 DUP1 REVERT JUMPDEST PUSH1 0x0 CALLDATALOAD PUSH1 0xE0 SHR DUP1 PUSH4 0x17E5AAE EQ PUSH2 0x1D5A JUMPI DUP1 PUSH4 0x17E7E58 EQ PUSH2 0x1D31 JUMPI DUP1 PUSH4 0x1FFC9A7 EQ PUSH2 0x1CDB JUMPI DUP1 PUSH4 0x118C38C7 EQ PUSH2 0x1CA0 JUMPI DUP1 PUSH4 0x15DDB393 EQ PUSH2 0x1AB6 JUMPI DUP1 PUSH4 0x248A9CA3 EQ PUSH2 0x1A89 JUMPI DUP1 PUSH4 0x2C6CDA93 EQ PUSH2 0x1A03 JUMPI DUP1 PUSH4 0x2F2FF15D EQ PUSH2 0x19C3 JUMPI DUP1 PUSH4 0x35B109E6 EQ PUSH2 0x17EE JUMPI DUP1 PUSH4 0x36568ABE EQ PUSH2 0x17A8 JUMPI DUP1 PUSH4 0x3F4BA83A EQ PUSH2 0x173F JUMPI DUP1 PUSH4 0x42F868A6 EQ PUSH2 0x16EF JUMPI DUP1 PUSH4 0x4D091A42 EQ PUSH2 0x161B JUMPI DUP1 PUSH4 0x50125546 EQ PUSH2 0x156F JUMPI DUP1 PUSH4 0x5778472A EQ PUSH2 0x1464 JUMPI DUP1 PUSH4 0x5C975ABB EQ PUSH2 0x1441 JUMPI DUP1 PUSH4 0x5F2D95AD EQ PUSH2 0x13C0 JUMPI DUP1 PUSH4 0x5F6752C8 EQ PUSH2 0x1357 JUMPI DUP1 PUSH4 0x63E31F4B EQ PUSH2 0x11F2 JUMPI DUP1 PUSH4 0x65D0E404 EQ PUSH2 0x10CB JUMPI DUP1 PUSH4 0x7489EC23 EQ PUSH2 0xEC6 JUMPI DUP1 PUSH4 0x75B238FC EQ PUSH2 0xE8B JUMPI DUP1 PUSH4 0x764D3D44 EQ PUSH2 0xE6D JUMPI DUP1 PUSH4 0x7B7F549C EQ PUSH2 0xE44 JUMPI DUP1 PUSH4 0x7B8D8008 EQ PUSH2 0xE13 JUMPI DUP1 PUSH4 0x7CFB41B8 EQ PUSH2 0xD3F JUMPI DUP1 PUSH4 0x7FD6F15C EQ PUSH2 0xD1A JUMPI DUP1 PUSH4 0x80148F96 EQ PUSH2 0xB0A JUMPI DUP1 PUSH4 0x8456CB59 EQ PUSH2 0xAB1 JUMPI DUP1 PUSH4 0x91D14854 EQ PUSH2 0xA64 JUMPI DUP1 PUSH4 0x927C7742 EQ PUSH2 0x9ED JUMPI DUP1 PUSH4 0x92AEEE7E EQ PUSH2 0x9B9 JUMPI DUP1 PUSH4 0x9AB4A445 EQ PUSH2 0x990 JUMPI DUP1 PUSH4 0xA217FDDF EQ PUSH2 0x974 JUMPI DUP1 PUSH4 0xA7DCF3C3 EQ PUSH2 0x94F JUMPI DUP1 PUSH4 0xA9FAA72E EQ PUSH2 0x926 JUMPI DUP1 PUSH4 0xB0091F69 EQ PUSH2 0x840 JUMPI DUP1 PUSH4 0xB730083E EQ PUSH2 0x7E0 JUMPI DUP1 PUSH4 0xC8408113 EQ PUSH2 0x79D JUMPI DUP1 PUSH4 0xCDD1B603 EQ PUSH2 0x6CF JUMPI DUP1 PUSH4 0xCDEC2F23 EQ PUSH2 0x65E JUMPI DUP1 PUSH4 0xD2896DD9 EQ PUSH2 0x4F0 JUMPI DUP1 PUSH4 0xD547741F EQ PUSH2 0x4A9 JUMPI DUP1 PUSH4 0xDCD11A3F EQ PUSH2 0x3BF JUMPI DUP1 PUSH4 0xE1A75BFC EQ PUSH2 0x39C JUMPI DUP1 PUSH4 0xE24DDE39 EQ PUSH2 0x320 JUMPI DUP1 PUSH4 0xE4CBAC40 EQ PUSH2 0x299 JUMPI PUSH4 0xF8CA2BE7 EQ PUSH2 0x22C JUMPI PUSH1 0x0 DUP1 REVERT JUMPDEST CALLVALUE PUSH2 0x294 JUMPI PUSH1 0x0 CALLDATASIZE PUSH1 0x3 NOT ADD SLT PUSH2 0x294 JUMPI PUSH1 0x60 PUSH2 0x247 PUSH2 0x2376 JUMP JUMPDEST PUSH2 0xFFFF PUSH1 0x6 SLOAD PUSH1 0xB0 SHR AND SWAP1 PUSH2 0x2710 PUSH2 0x281 PUSH2 0xFFFF PUSH2 0x27A DUP4 PUSH2 0x273 DUP4 PUSH2 0x26C DUP10 PUSH2 0x226A JUMP JUMPDEST AND DUP8 PUSH2 0x213C JUMP JUMPDEST DIV SWAP6 PUSH2 0x227E JUMP JUMPDEST AND DUP4 PUSH2 0x213C JUMP JUMPDEST DIV PUSH1 0x40 MLOAD SWAP3 DUP4 MSTORE PUSH1 0x20 DUP4 ADD MSTORE PUSH1 0x40 DUP3 ADD MSTORE RETURN JUMPDEST PUSH1 0x0 DUP1 REVERT JUMPDEST CALLVALUE PUSH2 0x294 JUMPI PUSH1 0x20 CALLDATASIZE PUSH1 0x3 NOT ADD SLT PUSH2 0x294 JUMPI PUSH1 0x1 PUSH1 0x1 PUSH1 0xA0 SHL SUB PUSH2 0x2BA PUSH2 0x1DC4 JUMP JUMPDEST AND PUSH1 0x0 MSTORE PUSH1 0xD PUSH1 0x20 MSTORE PUSH1 0x40 PUSH1 0x0 KECCAK256 PUSH1 0x40 MLOAD SWAP1 DUP2 PUSH1 0x20 DUP3 SLOAD SWAP2 DUP3 DUP2 MSTORE ADD SWAP2 PUSH1 0x0 MSTORE PUSH1 0x20 PUSH1 0x0 KECCAK256 SWAP1 PUSH1 0x0 JUMPDEST DUP2 DUP2 LT PUSH2 0x30A JUMPI PUSH2 0x306 DUP6 PUSH2 0x2FA DUP2 DUP8 SUB DUP3 PUSH2 0x1FEE JUMP JUMPDEST PUSH1 0x40 MLOAD SWAP2 DUP3 SWAP2 DUP3 PUSH2 0x1E10 JUMP JUMPDEST SUB SWAP1 RETURN JUMPDEST DUP3 SLOAD DUP5 MSTORE PUSH1 0x20 SWAP1 SWAP4 ADD SWAP3 PUSH1 0x1 SWAP3 DUP4 ADD SWAP3 ADD PUSH2 0x2E3 JUMP JUMPDEST CALLVALUE PUSH2 0x294 JUMPI PUSH1 0x20 CALLDATASIZE PUSH1 0x3 NOT ADD SLT PUSH2 0x294 JUMPI PUSH1 0x4 CALLDATALOAD PUSH2 0xFFFF DUP2 AND DUP1 DUP3 SUB PUSH2 0x294 JUMPI PUSH32 0x61FFE63469FB8786675A96532A0FED8083715A6329D830492078CEDD3BD9C0D6 SWAP2 PUSH1 0x40 SWAP2 PUSH2 0x36D PUSH2 0x254E JUMP JUMPDEST PUSH1 0x6 DUP1 SLOAD PUSH2 0xFFFF PUSH1 0xB0 SHL NOT DUP2 AND PUSH1 0xB0 SWAP5 DUP6 SHL PUSH2 0xFFFF PUSH1 0xB0 SHL AND OR SWAP1 SWAP2 SSTORE DUP4 MLOAD SWAP3 SHR PUSH2 0xFFFF AND DUP3 MSTORE PUSH1 0x20 DUP3 ADD MSTORE LOG1 STOP JUMPDEST CALLVALUE PUSH2 0x294 JUMPI PUSH1 0x0 CALLDATASIZE PUSH1 0x3 NOT ADD SLT PUSH2 0x294 JUMPI PUSH1 0x20 PUSH2 0x3B7 PUSH2 0x2376 JUMP JUMPDEST PUSH1 0x40 MLOAD SWAP1 DUP2 MSTORE RETURN JUMPDEST CALLVALUE PUSH2 0x294 JUMPI PUSH1 0x20 CALLDATASIZE PUSH1 0x3 NOT ADD SLT PUSH2 0x294 JUMPI PUSH1 0x4 CALLDATALOAD PUSH2 0x3DB PUSH2 0x26A9 JUMP JUMPDEST CALLER PUSH1 0x0 SWAP1 DUP2 MSTORE PUSH1 0x0 DUP1 MLOAD PUSH1 0x20 PUSH2 0x2834 DUP4 CODECOPY DUP2 MLOAD SWAP2 MSTORE PUSH1 0x20 MSTORE PUSH1 0x40 SWAP1 KECCAK256 SLOAD PUSH2 0x404 SWAP1 PUSH1 0xFF AND PUSH2 0x1E9C JUMP JUMPDEST DUP1 PUSH1 0x0 MSTORE PUSH1 0xB PUSH1 0x20 MSTORE PUSH1 0x40 PUSH1 0x0 KECCAK256 PUSH2 0x457 PUSH1 0x4 DUP3 ADD SWAP2 PUSH2 0x436 PUSH1 0x1 PUSH1 0xFF DUP6 SLOAD PUSH1 0x10 SHR AND PUSH2 0x430 DUP2 PUSH2 0x1DF0 JUMP JUMPDEST EQ PUSH2 0x2220 JUMP JUMPDEST PUSH1 0x3 DUP1 SLOAD PUSH1 0x2 DUP4 ADD SLOAD SWAP3 SWAP1 SWAP2 ADD SLOAD SWAP2 PUSH1 0x1 PUSH1 0x1 PUSH1 0xA0 SHL SUB SWAP1 DUP2 AND SWAP2 AND PUSH2 0x279C JUMP JUMPDEST DUP1 SLOAD PUSH3 0xFF0000 NOT AND PUSH3 0x30000 OR SWAP1 SSTORE PUSH1 0x0 DUP2 DUP2 MSTORE PUSH1 0x10 PUSH1 0x20 MSTORE PUSH1 0x40 DUP2 KECCAK256 DUP1 SLOAD PUSH1 0xFF NOT AND PUSH1 0x1 OR SWAP1 SSTORE PUSH31 0x63C7A53686B11E863C5F827C066BFBE9430CA95B1949D61445CE106261ACA2 SWAP1 DUP1 LOG2 PUSH1 0x1 PUSH1 0x0 SSTORE STOP JUMPDEST CALLVALUE PUSH2 0x294 JUMPI PUSH1 0x40 CALLDATASIZE PUSH1 0x3 NOT ADD SLT PUSH2 0x294 JUMPI PUSH2 0x4EE PUSH1 0x4 CALLDATALOAD PUSH2 0x4C8 PUSH2 0x1DAE JUMP JUMPDEST SWAP1 PUSH2 0x4E9 PUSH2 0x4E4 DUP3 PUSH1 0x0 MSTORE PUSH1 0x2 PUSH1 0x20 MSTORE PUSH1 0x1 PUSH1 0x40 PUSH1 0x0 KECCAK256 ADD SLOAD SWAP1 JUMP JUMPDEST PUSH2 0x25C0 JUMP JUMPDEST PUSH2 0x2716 JUMP JUMPDEST STOP JUMPDEST CALLVALUE PUSH2 0x294 JUMPI PUSH1 0x20 CALLDATASIZE PUSH1 0x3 NOT ADD SLT PUSH2 0x294 JUMPI CALLER PUSH1 0x0 SWAP1 DUP2 MSTORE PUSH1 0x0 DUP1 MLOAD PUSH1 0x20 PUSH2 0x2834 DUP4 CODECOPY DUP2 MLOAD SWAP2 MSTORE PUSH1 0x20 MSTORE PUSH1 0x40 SWAP1 KECCAK256 SLOAD PUSH1 0x4 CALLDATALOAD SWAP1 PUSH2 0x52E SWAP1 PUSH1 0xFF AND PUSH2 0x1E9C JUMP JUMPDEST PUSH2 0x536 PUSH2 0x26A9 JUMP JUMPDEST DUP1 PUSH1 0x0 MSTORE PUSH1 0xB PUSH1 0x20 MSTORE PUSH32 0xD61E48D1B98BB8A0619B412553CA708BD20ADC84AADEA59CDA5DF4B36EFB5C10 PUSH1 0x40 PUSH1 0x0 KECCAK256 PUSH1 0x4 DUP2 ADD SWAP1 DUP2 SLOAD SWAP2 PUSH2 0x582 PUSH1 0x1 PUSH1 0xFF DUP6 PUSH1 0x10 SHR AND PUSH2 0x430 DUP2 PUSH2 0x1DF0 JUMP JUMPDEST PUSH1 0x0 PUSH1 0x3 DUP4 ADD SWAP4 PUSH2 0xFFFF DUP6 SLOAD SWAP2 AND DUP1 ISZERO ISZERO DUP1 PUSH2 0x64A JUMPI JUMPDEST PUSH2 0x626 JUMPI JUMPDEST POP PUSH1 0x3 SLOAD PUSH1 0x1 DUP6 ADD SLOAD PUSH2 0x5BE SWAP3 SWAP2 PUSH1 0x1 PUSH1 0x1 PUSH1 0xA0 SHL SUB SWAP2 DUP3 AND SWAP2 AND PUSH2 0x279C JUMP JUMPDEST DUP1 PUSH2 0x603 JUMPI JUMPDEST POP DUP1 SLOAD PUSH3 0xFF0000 NOT AND PUSH3 0x20000 OR SWAP1 SSTORE PUSH1 0x2 ADD SLOAD SWAP1 SLOAD PUSH1 0x40 DUP1 MLOAD PUSH1 0x1 PUSH1 0x1 PUSH1 0xA0 SHL SUB SWAP4 SWAP1 SWAP4 AND DUP4 MSTORE PUSH1 0x20 DUP4 ADD SWAP2 SWAP1 SWAP2 MSTORE DUP2 SWAP1 DUP2 ADD JUMPDEST SUB SWAP1 LOG2 PUSH1 0x1 PUSH1 0x0 SSTORE STOP JUMPDEST PUSH1 0x3 SLOAD PUSH1 0x6 SLOAD PUSH2 0x620 SWAP3 SWAP2 PUSH1 0x1 PUSH1 0x1 PUSH1 0xA0 SHL SUB SWAP2 DUP3 AND SWAP2 AND PUSH2 0x279C JUMP JUMPDEST DUP6 PUSH2 0x5C4 JUMP JUMPDEST DUP2 SWAP3 POP PUSH2 0x2710 PUSH2 0x63C PUSH2 0x644 SWAP3 PUSH2 0x5BE SWAP5 PUSH2 0x213C JUMP JUMPDEST DIV DUP1 SWAP4 PUSH2 0x1F93 JUMP JUMPDEST SWAP1 PUSH2 0x59E JUMP JUMPDEST POP PUSH1 0x6 SLOAD PUSH1 0x1 PUSH1 0x1 PUSH1 0xA0 SHL SUB AND ISZERO ISZERO PUSH2 0x599 JUMP JUMPDEST CALLVALUE PUSH2 0x294 JUMPI PUSH1 0x20 CALLDATASIZE PUSH1 0x3 NOT ADD SLT PUSH2 0x294 JUMPI PUSH32 0x8F93286D6F131E956D1AA672D3ECDC817F24EFC20B223B0DE5D591F454EDC347 PUSH1 0x40 PUSH2 0x69A PUSH2 0x1DC4 JUMP JUMPDEST PUSH2 0x6A2 PUSH2 0x254E JUMP JUMPDEST PUSH1 0x6 DUP1 SLOAD PUSH1 0x1 PUSH1 0x1 PUSH1 0xA0 SHL SUB SWAP3 DUP4 AND PUSH1 0x1 PUSH1 0x1 PUSH1 0xA0 SHL SUB NOT DUP3 AND DUP2 OR SWAP1 SWAP3 SSTORE DUP4 MLOAD SWAP3 AND DUP3 MSTORE PUSH1 0x20 DUP3 ADD MSTORE LOG1 STOP JUMPDEST CALLVALUE PUSH2 0x294 JUMPI PUSH2 0x6DD CALLDATASIZE PUSH2 0x1DDA JUMP JUMPDEST SWAP1 DUP1 PUSH1 0x0 MSTORE PUSH1 0xA PUSH1 0x20 MSTORE PUSH2 0x6FF PUSH1 0x1 DUP1 PUSH1 0xA0 SHL SUB PUSH1 0x40 PUSH1 0x0 KECCAK256 SLOAD AND ISZERO ISZERO PUSH2 0x20F9 JUMP JUMPDEST PUSH1 0x0 MSTORE PUSH1 0xA PUSH1 0x20 MSTORE PUSH1 0x5 PUSH1 0x40 PUSH1 0x0 KECCAK256 PUSH2 0x722 PUSH1 0x1 DUP1 PUSH1 0xA0 SHL SUB DUP3 SLOAD AND CALLER EQ PUSH2 0x216F JUMP JUMPDEST PUSH2 0x73E PUSH1 0x1 PUSH1 0xFF PUSH1 0x6 DUP5 ADD SLOAD AND PUSH2 0x738 DUP2 PUSH2 0x1DF0 JUMP JUMPDEST EQ PUSH2 0x1EDC JUMP JUMPDEST PUSH2 0x78E PUSH2 0x749 PUSH2 0x2376 JUMP JUMPDEST PUSH2 0x2710 PUSH2 0x77C PUSH2 0xFFFF PUSH1 0x6 SLOAD PUSH1 0xB0 SHR AND SWAP3 PUSH2 0xFFFF PUSH2 0x775 DUP5 PUSH2 0x273 DUP4 PUSH2 0x76E DUP10 PUSH2 0x226A JUMP JUMPDEST AND DUP6 PUSH2 0x213C JUMP JUMPDEST AND SWAP1 PUSH2 0x213C JUMP JUMPDEST DIV SWAP1 DUP6 LT ISZERO SWAP1 DUP2 PUSH2 0x792 JUMPI JUMPDEST POP PUSH2 0x2292 JUMP JUMPDEST ADD SSTORE STOP JUMPDEST SWAP1 POP DUP5 GT ISZERO DUP6 PUSH2 0x788 JUMP JUMPDEST CALLVALUE PUSH2 0x294 JUMPI PUSH1 0x20 CALLDATASIZE PUSH1 0x3 NOT ADD SLT PUSH2 0x294 JUMPI PUSH2 0x7B6 PUSH2 0x22D3 JUMP JUMPDEST POP PUSH1 0x4 CALLDATALOAD PUSH1 0x0 MSTORE PUSH1 0xC PUSH1 0x20 MSTORE PUSH1 0xC0 PUSH2 0x7D1 PUSH1 0x40 PUSH1 0x0 KECCAK256 PUSH2 0x2304 JUMP JUMPDEST PUSH2 0x7DE PUSH1 0x40 MLOAD DUP1 SWAP3 PUSH2 0x1E4A JUMP JUMPDEST RETURN JUMPDEST CALLVALUE PUSH2 0x294 JUMPI PUSH1 0x20 CALLDATASIZE PUSH1 0x3 NOT ADD SLT PUSH2 0x294 JUMPI PUSH1 0x4 CALLDATALOAD PUSH2 0x7FC PUSH2 0x2376 JUMP JUMPDEST SWAP1 PUSH8 0xDE0B6B3A7640000 DUP2 MUL SWAP1 DUP1 DUP3 DIV PUSH8 0xDE0B6B3A7640000 EQ SWAP1 ISZERO OR ISZERO PUSH2 0x82A JUMPI PUSH1 0x20 SWAP2 PUSH2 0x3B7 SWAP2 PUSH2 0x214F JUMP JUMPDEST PUSH4 0x4E487B71 PUSH1 0xE0 SHL PUSH1 0x0 MSTORE PUSH1 0x11 PUSH1 0x4 MSTORE PUSH1 0x24 PUSH1 0x0 REVERT JUMPDEST CALLVALUE PUSH2 0x294 JUMPI PUSH1 0x20 CALLDATASIZE PUSH1 0x3 NOT ADD SLT PUSH2 0x294 JUMPI PUSH1 0x4 CALLDATALOAD PUSH2 0x85C PUSH2 0x26A9 JUMP JUMPDEST CALLER PUSH1 0x0 SWAP1 DUP2 MSTORE PUSH1 0x0 DUP1 MLOAD PUSH1 0x20 PUSH2 0x2834 DUP4 CODECOPY DUP2 MLOAD SWAP2 MSTORE PUSH1 0x20 MSTORE PUSH1 0x40 SWAP1 KECCAK256 SLOAD PUSH2 0x885 SWAP1 PUSH1 0xFF AND PUSH2 0x1E9C JUMP JUMPDEST DUP1 PUSH1 0x0 MSTORE PUSH1 0xC PUSH1 0x20 MSTORE PUSH1 0x40 PUSH1 0x0 KECCAK256 PUSH1 0x4 DUP2 ADD SWAP1 PUSH2 0x8AE PUSH1 0x1 PUSH1 0xFF DUP5 SLOAD PUSH1 0x10 SHR AND PUSH2 0x430 DUP2 PUSH2 0x1DF0 JUMP JUMPDEST DUP1 SLOAD PUSH1 0x0 MSTORE PUSH1 0xA PUSH1 0x20 MSTORE PUSH2 0x8D1 PUSH1 0x2 PUSH1 0x3 PUSH1 0x40 PUSH1 0x0 KECCAK256 SWAP4 ADD SLOAD SWAP3 ADD SWAP2 DUP3 SLOAD PUSH2 0x225D JUMP JUMPDEST SWAP1 SSTORE DUP1 SLOAD PUSH3 0xFF0000 NOT AND PUSH3 0x30000 OR SWAP1 SSTORE PUSH1 0x0 DUP2 DUP2 MSTORE PUSH1 0x10 PUSH1 0x20 MSTORE PUSH1 0x40 DUP2 KECCAK256 DUP1 SLOAD PUSH1 0xFF NOT AND PUSH1 0x1 OR SWAP1 SSTORE PUSH32 0x974EC1B137D0B76FD7CDAB57C57BAC61D82C6038046BECCECDD622610B4D79D6 SWAP1 DUP1 LOG2 PUSH1 0x1 PUSH1 0x0 SSTORE STOP JUMPDEST CALLVALUE PUSH2 0x294 JUMPI PUSH1 0x0 CALLDATASIZE PUSH1 0x3 NOT ADD SLT PUSH2 0x294 JUMPI PUSH1 0x4 SLOAD PUSH1 0x40 MLOAD PUSH1 0x1 PUSH1 0x1 PUSH1 0xA0 SHL SUB SWAP1 SWAP2 AND DUP2 MSTORE PUSH1 0x20 SWAP1 RETURN JUMPDEST CALLVALUE PUSH2 0x294 JUMPI PUSH1 0x0 CALLDATASIZE PUSH1 0x3 NOT ADD SLT PUSH2 0x294 JUMPI PUSH1 0x20 PUSH2 0xFFFF PUSH1 0x6 SLOAD PUSH1 0xB0 SHR AND PUSH1 0x40 MLOAD SWAP1 DUP2 MSTORE RETURN JUMPDEST CALLVALUE PUSH2 0x294 JUMPI PUSH1 0x0 CALLDATASIZE PUSH1 0x3 NOT ADD SLT PUSH2 0x294 JUMPI PUSH1 0x20 PUSH1 0x40 MLOAD PUSH1 0x0 DUP2 MSTORE RETURN JUMPDEST CALLVALUE PUSH2 0x294 JUMPI PUSH1 0x0 CALLDATASIZE PUSH1 0x3 NOT ADD SLT PUSH2 0x294 JUMPI PUSH1 0x3 SLOAD PUSH1 0x40 MLOAD PUSH1 0x1 PUSH1 0x1 PUSH1 0xA0 SHL SUB SWAP1 SWAP2 AND DUP2 MSTORE PUSH1 0x20 SWAP1 RETURN JUMPDEST CALLVALUE PUSH2 0x294 JUMPI PUSH1 0x20 CALLDATASIZE PUSH1 0x3 NOT ADD SLT PUSH2 0x294 JUMPI PUSH2 0x9D2 PUSH2 0x22D3 JUMP JUMPDEST POP PUSH1 0x4 CALLDATALOAD PUSH1 0x0 MSTORE PUSH1 0xB PUSH1 0x20 MSTORE PUSH1 0xC0 PUSH2 0x7D1 PUSH1 0x40 PUSH1 0x0 KECCAK256 PUSH2 0x2304 JUMP JUMPDEST CALLVALUE PUSH2 0x294 JUMPI PUSH1 0x20 CALLDATASIZE PUSH1 0x3 NOT ADD SLT PUSH2 0x294 JUMPI PUSH1 0x1 PUSH1 0x1 PUSH1 0xA0 SHL SUB PUSH2 0xA0E PUSH2 0x1DC4 JUMP JUMPDEST AND PUSH1 0x0 MSTORE PUSH1 0xE PUSH1 0x20 MSTORE PUSH1 0x40 PUSH1 0x0 KECCAK256 PUSH1 0x40 MLOAD SWAP1 DUP2 PUSH1 0x20 DUP3 SLOAD SWAP2 DUP3 DUP2 MSTORE ADD SWAP2 PUSH1 0x0 MSTORE PUSH1 0x20 PUSH1 0x0 KECCAK256 SWAP1 PUSH1 0x0 JUMPDEST DUP2 DUP2 LT PUSH2 0xA4E JUMPI PUSH2 0x306 DUP6 PUSH2 0x2FA DUP2 DUP8 SUB DUP3 PUSH2 0x1FEE JUMP JUMPDEST DUP3 SLOAD DUP5 MSTORE PUSH1 0x20 SWAP1 SWAP4 ADD SWAP3 PUSH1 0x1 SWAP3 DUP4 ADD SWAP3 ADD PUSH2 0xA37 JUMP JUMPDEST CALLVALUE PUSH2 0x294 JUMPI PUSH1 0x40 CALLDATASIZE PUSH1 0x3 NOT ADD SLT PUSH2 0x294 JUMPI PUSH2 0xA7D PUSH2 0x1DAE JUMP JUMPDEST PUSH1 0x4 CALLDATALOAD PUSH1 0x0 MSTORE PUSH1 0x2 PUSH1 0x20 MSTORE PUSH1 0x40 PUSH1 0x0 KECCAK256 SWAP1 PUSH1 0x1 DUP1 PUSH1 0xA0 SHL SUB AND PUSH1 0x0 MSTORE PUSH1 0x20 MSTORE PUSH1 0x20 PUSH1 0xFF PUSH1 0x40 PUSH1 0x0 KECCAK256 SLOAD AND PUSH1 0x40 MLOAD SWAP1 ISZERO ISZERO DUP2 MSTORE RETURN JUMPDEST CALLVALUE PUSH2 0x294 JUMPI PUSH1 0x0 CALLDATASIZE PUSH1 0x3 NOT ADD SLT PUSH2 0x294 JUMPI PUSH2 0xACA PUSH2 0x254E JUMP JUMPDEST PUSH2 0xAD2 PUSH2 0x268C JUMP JUMPDEST PUSH1 0x1 PUSH1 0xFF NOT DUP2 SLOAD AND OR PUSH1 0x1 SSTORE PUSH32 0x62E78CEA01BEE320CD4E420270B5EA74000D11B0C9F74754EBDBFC544B05A258 PUSH1 0x20 PUSH1 0x40 MLOAD CALLER DUP2 MSTORE LOG1 STOP JUMPDEST CALLVALUE PUSH2 0x294 JUMPI PUSH1 0x80 CALLDATASIZE PUSH1 0x3 NOT ADD SLT PUSH2 0x294 JUMPI PUSH1 0x20 PUSH1 0x24 CALLDATALOAD PUSH1 0x4 CALLDATALOAD PUSH1 0x64 CALLDATALOAD PUSH1 0x44 CALLDATALOAD PUSH2 0xB31 PUSH2 0x268C JUMP JUMPDEST PUSH2 0xB39 PUSH2 0x26A9 JUMP JUMPDEST PUSH2 0xB47 PUSH1 0x7 SLOAD DUP5 LT ISZERO PUSH2 0x1F1B JUMP JUMPDEST DUP4 DUP2 GT DUP1 PUSH2 0xD10 JUMPI JUMPDEST PUSH2 0xB59 SWAP1 PUSH2 0x21A8 JUMP JUMPDEST PUSH2 0xB9A PUSH2 0xB64 PUSH2 0x2376 JUMP JUMPDEST PUSH2 0x2710 PUSH2 0xB89 PUSH2 0xFFFF PUSH1 0x6 SLOAD PUSH1 0xB0 SHR AND SWAP3 PUSH2 0xFFFF PUSH2 0x775 DUP5 PUSH2 0x273 DUP4 PUSH2 0x76E DUP10 PUSH2 0x226A JUMP JUMPDEST DIV SWAP1 DUP5 LT ISZERO SWAP1 DUP2 PUSH2 0xD05 JUMPI POP PUSH2 0x2292 JUMP JUMPDEST PUSH1 0x8 SLOAD PUSH2 0xBA6 DUP2 PUSH2 0x20EA JUMP JUMPDEST PUSH1 0x8 SSTORE PUSH1 0x40 MLOAD DUP7 DUP2 ADD SWAP2 CALLER PUSH1 0x60 SHL DUP4 MSTORE DUP6 PUSH1 0x34 DUP4 ADD MSTORE PUSH1 0x54 DUP3 ADD MSTORE TIMESTAMP PUSH1 0x74 DUP3 ADD MSTORE PUSH1 0x74 DUP2 MSTORE PUSH2 0xBD6 PUSH1 0x94 DUP3 PUSH2 0x1FEE JUMP JUMPDEST MLOAD SWAP1 KECCAK256 SWAP4 PUSH2 0xBF2 DUP5 PUSH1 0x1 DUP1 PUSH1 0xA0 SHL SUB PUSH1 0x3 SLOAD AND ADDRESS SWAP1 CALLER SWAP1 PUSH2 0x26CB JUMP JUMPDEST PUSH1 0x40 MLOAD PUSH2 0xBFE DUP2 PUSH2 0x1FD2 JUMP JUMPDEST CALLER DUP2 MSTORE PUSH1 0x6 DUP8 DUP3 ADD SWAP2 DUP7 DUP4 MSTORE PUSH1 0x40 DUP2 ADD DUP8 DUP2 MSTORE PUSH1 0x60 DUP3 ADD DUP6 DUP2 MSTORE PUSH1 0x80 DUP4 ADD SWAP1 DUP8 DUP3 MSTORE PUSH1 0xA0 DUP5 ADD SWAP3 DUP10 DUP5 MSTORE PUSH1 0xC0 DUP6 ADD SWAP7 PUSH1 0x1 DUP9 MSTORE DUP13 PUSH1 0x0 MSTORE PUSH1 0xA DUP15 MSTORE PUSH1 0x40 PUSH1 0x0 KECCAK256 SWAP6 PUSH1 0x1 DUP1 PUSH1 0xA0 SHL SUB SWAP1 PUSH1 0x1 DUP1 PUSH1 0xA0 SHL SUB SWAP1 MLOAD AND AND PUSH12 0xFFFFFFFFFFFFFFFFFFFFFFFF PUSH1 0xA0 SHL DUP8 SLOAD AND OR DUP7 SSTORE MLOAD PUSH1 0x1 DUP7 ADD SSTORE MLOAD PUSH1 0x2 DUP6 ADD SSTORE MLOAD PUSH1 0x3 DUP5 ADD SSTORE MLOAD PUSH1 0x4 DUP4 ADD SSTORE MLOAD PUSH1 0x5 DUP3 ADD SSTORE ADD SWAP1 MLOAD PUSH2 0xC92 DUP2 PUSH2 0x1DF0 JUMP JUMPDEST PUSH2 0xC9B DUP2 PUSH2 0x1DF0 JUMP JUMPDEST PUSH1 0xFF DUP1 NOT DUP4 SLOAD AND SWAP2 AND OR SWAP1 SSTORE CALLER PUSH1 0x0 MSTORE PUSH1 0xD DUP7 MSTORE PUSH2 0xCBD DUP6 PUSH1 0x40 PUSH1 0x0 KECCAK256 PUSH2 0x20A6 JUMP JUMPDEST PUSH1 0x40 MLOAD SWAP4 DUP5 MSTORE DUP6 DUP5 ADD MSTORE PUSH1 0x40 DUP4 ADD MSTORE PUSH1 0x60 DUP3 ADD MSTORE DUP2 PUSH32 0x6BCBD6AB6D795A7E990431A97EA8F8808E81B8580FB9D6D581E5FCBB16E3D127 PUSH1 0x80 CALLER SWAP4 LOG3 PUSH1 0x1 PUSH1 0x0 SSTORE PUSH1 0x40 MLOAD SWAP1 DUP2 MSTORE RETURN JUMPDEST SWAP1 POP DUP4 GT ISZERO DUP8 PUSH2 0x788 JUMP JUMPDEST POP DUP3 DUP2 GT ISZERO PUSH2 0xB50 JUMP JUMPDEST CALLVALUE PUSH2 0x294 JUMPI PUSH1 0x0 CALLDATASIZE PUSH1 0x3 NOT ADD SLT PUSH2 0x294 JUMPI PUSH1 0x20 PUSH2 0xFFFF PUSH1 0x6 SLOAD PUSH1 0xA0 SHR AND PUSH1 0x40 MLOAD SWAP1 DUP2 MSTORE RETURN JUMPDEST CALLVALUE PUSH2 0x294 JUMPI PUSH1 0x20 CALLDATASIZE PUSH1 0x3 NOT ADD SLT PUSH2 0x294 JUMPI PUSH1 0x4 CALLDATALOAD PUSH2 0xD5B PUSH2 0x26A9 JUMP JUMPDEST CALLER PUSH1 0x0 SWAP1 DUP2 MSTORE PUSH1 0x0 DUP1 MLOAD PUSH1 0x20 PUSH2 0x2834 DUP4 CODECOPY DUP2 MLOAD SWAP2 MSTORE PUSH1 0x20 MSTORE PUSH1 0x40 SWAP1 KECCAK256 SLOAD PUSH2 0xD84 SWAP1 PUSH1 0xFF AND PUSH2 0x1E9C JUMP JUMPDEST DUP1 PUSH1 0x0 MSTORE PUSH1 0xC PUSH1 0x20 MSTORE PUSH1 0x40 PUSH1 0x0 KECCAK256 PUSH1 0x4 DUP2 ADD SWAP1 PUSH2 0xDB3 PUSH1 0x1 PUSH1 0xFF DUP5 SLOAD PUSH1 0x10 SHR AND PUSH2 0xDAD DUP2 PUSH2 0x1DF0 JUMP JUMPDEST EQ PUSH2 0x21E4 JUMP JUMPDEST DUP1 SLOAD PUSH1 0x0 MSTORE PUSH1 0xA PUSH1 0x20 MSTORE PUSH2 0xDD6 PUSH1 0x2 PUSH1 0x3 PUSH1 0x40 PUSH1 0x0 KECCAK256 SWAP4 ADD SLOAD SWAP3 ADD SWAP2 DUP3 SLOAD PUSH2 0x225D JUMP JUMPDEST SWAP1 SSTORE DUP1 SLOAD PUSH3 0xFF0000 NOT AND PUSH3 0x40000 OR SWAP1 SSTORE PUSH32 0x4E09303EA9C3932854B42432AA9F65348205F9681747864BF122101B35371503 PUSH1 0x0 DUP1 LOG2 PUSH1 0x1 PUSH1 0x0 SSTORE STOP JUMPDEST CALLVALUE PUSH2 0x294 JUMPI PUSH1 0x20 CALLDATASIZE PUSH1 0x3 NOT ADD SLT PUSH2 0x294 JUMPI PUSH1 0x4 CALLDATALOAD PUSH1 0x0 MSTORE PUSH1 0x10 PUSH1 0x20 MSTORE PUSH1 0x20 PUSH1 0xFF PUSH1 0x40 PUSH1 0x0 KECCAK256 SLOAD AND PUSH1 0x40 MLOAD SWAP1 ISZERO ISZERO DUP2 MSTORE RETURN JUMPDEST CALLVALUE PUSH2 0x294 JUMPI PUSH1 0x0 CALLDATASIZE PUSH1 0x3 NOT ADD SLT PUSH2 0x294 JUMPI PUSH1 0x5 SLOAD PUSH1 0x40 MLOAD PUSH1 0x1 PUSH1 0x1 PUSH1 0xA0 SHL SUB SWAP1 SWAP2 AND DUP2 MSTORE PUSH1 0x20 SWAP1 RETURN JUMPDEST CALLVALUE PUSH2 0x294 JUMPI PUSH1 0x0 CALLDATASIZE PUSH1 0x3 NOT ADD SLT PUSH2 0x294 JUMPI PUSH1 0x20 PUSH1 0x7 SLOAD PUSH1 0x40 MLOAD SWAP1 DUP2 MSTORE RETURN JUMPDEST CALLVALUE PUSH2 0x294 JUMPI PUSH1 0x0 CALLDATASIZE PUSH1 0x3 NOT ADD SLT PUSH2 0x294 JUMPI PUSH1 0x20 PUSH1 0x40 MLOAD PUSH32 0xA49807205CE4D355092EF5A8A18F56E8913CF4A201FBE287825B095693C21775 DUP2 MSTORE RETURN JUMPDEST CALLVALUE PUSH2 0x294 JUMPI PUSH1 0x20 CALLDATASIZE PUSH1 0x3 NOT ADD SLT PUSH2 0x294 JUMPI PUSH1 0x4 CALLDATALOAD PUSH2 0xEE2 PUSH2 0x26A9 JUMP JUMPDEST DUP1 PUSH1 0x0 MSTORE PUSH1 0xA PUSH1 0x20 MSTORE PUSH1 0x40 PUSH1 0x0 KECCAK256 SWAP1 PUSH1 0x1 DUP1 PUSH1 0xA0 SHL SUB DUP3 SLOAD AND SWAP1 DUP2 CALLER EQ DUP1 ISZERO PUSH2 0x10A5 JUMPI JUMPDEST PUSH2 0xF0F SWAP1 PUSH2 0x216F JUMP JUMPDEST PUSH1 0x6 DUP4 ADD SWAP2 DUP3 SLOAD PUSH2 0xF28 PUSH1 0x1 PUSH1 0xFF DUP4 AND PUSH2 0xDAD DUP2 PUSH2 0x1DF0 JUMP JUMPDEST DUP3 PUSH1 0x0 MSTORE PUSH1 0xF PUSH1 0x20 MSTORE PUSH1 0x40 PUSH1 0x0 KECCAK256 SWAP4 PUSH1 0x40 MLOAD DUP1 DUP7 PUSH1 0x20 DUP3 SWAP9 SLOAD SWAP4 DUP5 DUP2 MSTORE ADD SWAP1 PUSH1 0x0 MSTORE PUSH1 0x20 PUSH1 0x0 KECCAK256 SWAP3 PUSH1 0x0 JUMPDEST DUP2 DUP2 LT PUSH2 0x108C JUMPI POP POP PUSH2 0xF68 SWAP3 POP SUB DUP7 PUSH2 0x1FEE JUMP JUMPDEST PUSH1 0x0 JUMPDEST DUP6 MLOAD DUP2 LT ISZERO PUSH2 0x1026 JUMPI PUSH1 0x0 PUSH1 0x20 DUP3 PUSH1 0x5 SHL DUP9 ADD ADD MLOAD DUP2 MSTORE PUSH1 0xC PUSH1 0x20 MSTORE PUSH1 0xFF PUSH1 0x4 PUSH1 0x40 DUP4 KECCAK256 ADD SLOAD PUSH1 0x10 SHR AND PUSH2 0xF9E DUP2 PUSH2 0x1DF0 JUMP JUMPDEST PUSH1 0x2 DUP2 EQ SWAP2 DUP3 ISZERO PUSH2 0x1011 JUMPI JUMPDEST DUP3 ISZERO PUSH2 0xFFB JUMPI JUMPDEST POP POP ISZERO PUSH2 0xFC0 JUMPI PUSH1 0x1 ADD PUSH2 0xF6B JUMP JUMPDEST PUSH1 0x40 MLOAD PUSH3 0x461BCD PUSH1 0xE5 SHL DUP2 MSTORE PUSH1 0x20 PUSH1 0x4 DUP3 ADD MSTORE PUSH1 0x13 PUSH1 0x24 DUP3 ADD MSTORE PUSH19 0x151C985919481B9BDD08199A5B985B1A5E9959 PUSH1 0x6A SHL PUSH1 0x44 DUP3 ADD MSTORE PUSH1 0x64 SWAP1 REVERT JUMPDEST PUSH1 0x4 SWAP3 POP POP PUSH2 0x1009 DUP2 PUSH2 0x1DF0 JUMP JUMPDEST EQ DUP9 DUP1 PUSH2 0xFB1 JUMP JUMPDEST SWAP2 POP PUSH2 0x101C DUP2 PUSH2 0x1DF0 JUMP JUMPDEST PUSH1 0x3 DUP2 EQ SWAP2 PUSH2 0xFAA JUMP JUMPDEST POP PUSH1 0x0 SWAP1 PUSH1 0x2 DUP8 ADD SWAP1 PUSH1 0x3 DUP3 SLOAD SWAP5 PUSH1 0xFF NOT AND OR SWAP1 SSTORE SSTORE DUP1 PUSH2 0x106F JUMPI JUMPDEST DUP3 PUSH32 0x5152ABF959F6564662358C2E52B702259B78BAC5EE7842A0F01937E670EFCC7D PUSH1 0x0 DUP1 LOG2 PUSH1 0x1 PUSH1 0x0 SSTORE STOP JUMPDEST PUSH1 0x3 SLOAD PUSH2 0x1085 SWAP3 SWAP1 PUSH1 0x1 PUSH1 0x1 PUSH1 0xA0 SHL SUB AND PUSH2 0x279C JUMP JUMPDEST DUP2 DUP1 PUSH2 0x1042 JUMP JUMPDEST DUP5 SLOAD DUP4 MSTORE PUSH1 0x1 SWAP5 DUP6 ADD SWAP5 DUP11 SWAP5 POP PUSH1 0x20 SWAP1 SWAP4 ADD SWAP3 ADD PUSH2 0xF53 JUMP JUMPDEST POP CALLER PUSH1 0x0 SWAP1 DUP2 MSTORE PUSH1 0x0 DUP1 MLOAD PUSH1 0x20 PUSH2 0x2834 DUP4 CODECOPY DUP2 MLOAD SWAP2 MSTORE PUSH1 0x20 MSTORE PUSH1 0x40 SWAP1 KECCAK256 SLOAD PUSH1 0xFF AND PUSH2 0xF06 JUMP JUMPDEST CALLVALUE PUSH2 0x294 JUMPI PUSH1 0x20 CALLDATASIZE PUSH1 0x3 NOT ADD SLT PUSH2 0x294 JUMPI PUSH1 0x4 CALLDATALOAD PUSH8 0xFFFFFFFFFFFFFFFF DUP2 GT PUSH2 0x294 JUMPI CALLDATASIZE PUSH1 0x23 DUP3 ADD SLT ISZERO PUSH2 0x294 JUMPI DUP1 PUSH1 0x4 ADD CALLDATALOAD PUSH8 0xFFFFFFFFFFFFFFFF DUP2 GT PUSH2 0x294 JUMPI CALLDATASIZE PUSH1 0x24 DUP3 PUSH1 0x5 SHL DUP5 ADD ADD GT PUSH2 0x294 JUMPI CALLER PUSH1 0x0 SWAP1 DUP2 MSTORE PUSH1 0x0 DUP1 MLOAD PUSH1 0x20 PUSH2 0x2834 DUP4 CODECOPY DUP2 MLOAD SWAP2 MSTORE PUSH1 0x20 MSTORE PUSH1 0x40 SWAP1 KECCAK256 SLOAD PUSH2 0x1145 SWAP1 PUSH1 0xFF AND PUSH2 0x1E9C JUMP JUMPDEST PUSH1 0x0 JUMPDEST DUP2 DUP2 LT ISZERO PUSH2 0x4EE JUMPI PUSH1 0x1 SWAP1 PUSH1 0x0 PUSH1 0x24 DUP3 PUSH1 0x5 SHL DUP7 ADD ADD CALLDATALOAD SWAP1 DUP2 DUP2 MSTORE PUSH1 0xC PUSH1 0x20 MSTORE PUSH1 0x40 DUP2 KECCAK256 SWAP1 PUSH1 0x4 DUP3 ADD DUP6 PUSH1 0xFF DUP3 SLOAD PUSH1 0x10 SHR AND PUSH2 0x1183 DUP2 PUSH2 0x1DF0 JUMP JUMPDEST EQ PUSH2 0x1193 JUMPI JUMPDEST POP POP POP POP ADD PUSH2 0x1148 JUMP JUMPDEST DUP3 PUSH32 0x974EC1B137D0B76FD7CDAB57C57BAC61D82C6038046BECCECDD622610B4D79D6 SWAP4 SLOAD DUP4 MSTORE PUSH1 0xA PUSH1 0x20 MSTORE PUSH2 0x11D6 PUSH1 0x2 PUSH1 0x3 PUSH1 0x40 DUP7 KECCAK256 SWAP4 ADD SLOAD SWAP3 ADD SWAP2 DUP3 SLOAD PUSH2 0x225D JUMP JUMPDEST SWAP1 SSTORE DUP1 SLOAD PUSH3 0xFF0000 NOT AND PUSH3 0x30000 OR SWAP1 SSTORE DUP1 LOG2 DUP5 DUP1 DUP1 DUP1 PUSH2 0x1189 JUMP JUMPDEST CALLVALUE PUSH2 0x294 JUMPI PUSH1 0x20 CALLDATASIZE PUSH1 0x3 NOT ADD SLT PUSH2 0x294 JUMPI CALLER PUSH1 0x0 SWAP1 DUP2 MSTORE PUSH1 0x0 DUP1 MLOAD PUSH1 0x20 PUSH2 0x2834 DUP4 CODECOPY DUP2 MLOAD SWAP2 MSTORE PUSH1 0x20 MSTORE PUSH1 0x40 SWAP1 KECCAK256 SLOAD PUSH1 0x4 CALLDATALOAD SWAP1 PUSH2 0x1230 SWAP1 PUSH1 0xFF AND PUSH2 0x1E9C JUMP JUMPDEST PUSH2 0x1238 PUSH2 0x26A9 JUMP JUMPDEST DUP1 PUSH1 0x0 MSTORE PUSH1 0xC PUSH1 0x20 MSTORE PUSH32 0x3B3DEEA4EF69C5F108641489E2D205B77EB559F74E51E038B7DF69BB76D95906 PUSH1 0x40 PUSH1 0x0 KECCAK256 PUSH1 0x4 DUP2 ADD SWAP1 DUP2 SLOAD SWAP2 PUSH2 0x1284 PUSH1 0x1 PUSH1 0xFF DUP6 PUSH1 0x10 SHR AND PUSH2 0x430 DUP2 PUSH2 0x1DF0 JUMP JUMPDEST PUSH1 0x0 PUSH2 0xFFFF PUSH1 0x3 DUP5 ADD SLOAD SWAP5 AND DUP1 ISZERO ISZERO DUP1 PUSH2 0x1343 JUMPI JUMPDEST PUSH2 0x1322 JUMPI JUMPDEST POP PUSH1 0x3 SLOAD PUSH1 0x2 SWAP4 SWAP1 SWAP4 ADD DUP1 SLOAD SWAP1 SWAP4 PUSH2 0x12C4 SWAP2 DUP7 SWAP2 PUSH1 0x1 PUSH1 0x1 PUSH1 0xA0 SHL SUB SWAP2 DUP3 AND SWAP2 AND PUSH2 0x279C JUMP JUMPDEST DUP1 PUSH2 0x12FF JUMPI JUMPDEST POP DUP1 SLOAD PUSH3 0xFF0000 NOT AND PUSH3 0x20000 OR SWAP1 SSTORE SLOAD PUSH1 0x40 DUP1 MLOAD PUSH1 0x1 PUSH1 0x1 PUSH1 0xA0 SHL SUB SWAP3 SWAP1 SWAP3 AND DUP3 MSTORE PUSH1 0x20 DUP3 ADD SWAP3 SWAP1 SWAP3 MSTORE SWAP1 DUP2 SWAP1 DUP2 ADD PUSH2 0x5F9 JUMP JUMPDEST PUSH1 0x3 SLOAD PUSH1 0x6 SLOAD PUSH2 0x131C SWAP3 SWAP2 PUSH1 0x1 PUSH1 0x1 PUSH1 0xA0 SHL SUB SWAP2 DUP3 AND SWAP2 AND PUSH2 0x279C JUMP JUMPDEST DUP6 PUSH2 0x12CA JUMP JUMPDEST PUSH2 0x133C SWAP2 POP PUSH2 0x1334 PUSH2 0x2710 SWAP2 DUP7 PUSH2 0x213C JUMP JUMPDEST DIV DUP1 SWAP5 PUSH2 0x1F93 JUMP JUMPDEST SWAP3 DUP7 PUSH2 0x129E JUMP JUMPDEST POP PUSH1 0x6 SLOAD PUSH1 0x1 PUSH1 0x1 PUSH1 0xA0 SHL SUB AND ISZERO ISZERO PUSH2 0x1299 JUMP JUMPDEST CALLVALUE PUSH2 0x294 JUMPI PUSH1 0x20 CALLDATASIZE PUSH1 0x3 NOT ADD SLT PUSH2 0x294 JUMPI PUSH1 0x4 CALLDATALOAD PUSH1 0x0 MSTORE PUSH1 0xF PUSH1 0x20 MSTORE PUSH1 0x40 PUSH1 0x0 KECCAK256 PUSH1 0x40 MLOAD SWAP1 DUP2 PUSH1 0x20 DUP3 SLOAD SWAP2 DUP3 DUP2 MSTORE ADD SWAP2 PUSH1 0x0 MSTORE PUSH1 0x20 PUSH1 0x0 KECCAK256 SWAP1 PUSH1 0x0 JUMPDEST DUP2 DUP2 LT PUSH2 0x13AA JUMPI PUSH2 0x306 DUP6 PUSH2 0x2FA DUP2 DUP8 SUB DUP3 PUSH2 0x1FEE JUMP JUMPDEST DUP3 SLOAD DUP5 MSTORE PUSH1 0x20 SWAP1 SWAP4 ADD SWAP3 PUSH1 0x1 SWAP3 DUP4 ADD SWAP3 ADD PUSH2 0x1393 JUMP JUMPDEST CALLVALUE PUSH2 0x294 JUMPI PUSH1 0x20 CALLDATASIZE PUSH1 0x3 NOT ADD SLT PUSH2 0x294 JUMPI PUSH2 0x13D9 PUSH2 0x1DC4 JUMP JUMPDEST PUSH2 0x13E1 PUSH2 0x254E JUMP JUMPDEST PUSH1 0x1 PUSH1 0x1 PUSH1 0xA0 SHL SUB AND DUP1 ISZERO PUSH2 0x140D JUMPI PUSH12 0xFFFFFFFFFFFFFFFFFFFFFFFF PUSH1 0xA0 SHL PUSH1 0x5 SLOAD AND OR PUSH1 0x5 SSTORE PUSH1 0x0 DUP1 RETURN JUMPDEST PUSH1 0x40 MLOAD PUSH3 0x461BCD PUSH1 0xE5 SHL DUP2 MSTORE PUSH1 0x20 PUSH1 0x4 DUP3 ADD MSTORE PUSH1 0xC PUSH1 0x24 DUP3 ADD MSTORE PUSH12 0x24B73B30B634B2103830B4B9 PUSH1 0xA1 SHL PUSH1 0x44 DUP3 ADD MSTORE PUSH1 0x64 SWAP1 REVERT JUMPDEST CALLVALUE PUSH2 0x294 JUMPI PUSH1 0x0 CALLDATASIZE PUSH1 0x3 NOT ADD SLT PUSH2 0x294 JUMPI PUSH1 0x20 PUSH1 0xFF PUSH1 0x1 SLOAD AND PUSH1 0x40 MLOAD SWAP1 ISZERO ISZERO DUP2 MSTORE RETURN JUMPDEST CALLVALUE PUSH2 0x294 JUMPI PUSH1 0x20 CALLDATASIZE PUSH1 0x3 NOT ADD SLT PUSH2 0x294 JUMPI PUSH1 0x0 PUSH1 0xC0 PUSH1 0x40 MLOAD PUSH2 0x1485 DUP2 PUSH2 0x1FD2 JUMP JUMPDEST DUP3 DUP2 MSTORE DUP3 PUSH1 0x20 DUP3 ADD MSTORE DUP3 PUSH1 0x40 DUP3 ADD MSTORE DUP3 PUSH1 0x60 DUP3 ADD MSTORE DUP3 PUSH1 0x80 DUP3 ADD MSTORE DUP3 PUSH1 0xA0 DUP3 ADD MSTORE ADD MSTORE PUSH1 0x4 CALLDATALOAD PUSH1 0x0 MSTORE PUSH1 0xA PUSH1 0x20 MSTORE PUSH1 0xE0 PUSH1 0x40 PUSH1 0x0 KECCAK256 PUSH1 0x40 MLOAD SWAP1 PUSH2 0x14C7 DUP3 PUSH2 0x1FD2 JUMP JUMPDEST DUP1 SLOAD PUSH1 0x1 PUSH1 0x1 PUSH1 0xA0 SHL SUB AND DUP3 MSTORE PUSH1 0x1 DUP2 ADD SLOAD PUSH1 0x20 DUP4 ADD SWAP1 DUP2 MSTORE PUSH1 0x2 DUP3 ADD SLOAD PUSH1 0x40 DUP5 ADD SWAP1 DUP2 MSTORE PUSH1 0x3 DUP4 ADD SLOAD PUSH1 0x60 DUP6 ADD SWAP1 DUP2 MSTORE PUSH1 0x4 DUP5 ADD SLOAD PUSH1 0x80 DUP7 ADD SWAP1 DUP2 MSTORE PUSH1 0x5 DUP6 ADD SLOAD PUSH1 0xA0 DUP8 ADD SWAP1 DUP2 MSTORE PUSH1 0x6 SWAP1 SWAP6 ADD SLOAD PUSH1 0xC0 DUP8 ADD SWAP6 SWAP5 SWAP2 SWAP4 SWAP2 SWAP1 PUSH1 0xFF AND PUSH2 0x152C DUP2 PUSH2 0x1DF0 JUMP JUMPDEST DUP7 MSTORE PUSH1 0x40 DUP1 MLOAD SWAP8 MLOAD PUSH1 0x1 PUSH1 0x1 PUSH1 0xA0 SHL SUB AND DUP9 MSTORE SWAP1 MLOAD PUSH1 0x20 DUP9 ADD MSTORE SWAP1 MLOAD SWAP1 DUP7 ADD MSTORE MLOAD PUSH1 0x60 DUP6 ADD MSTORE MLOAD PUSH1 0x80 DUP5 ADD MSTORE MLOAD PUSH1 0xA0 DUP4 ADD MSTORE MLOAD PUSH2 0x1568 DUP2 PUSH2 0x1DF0 JUMP JUMPDEST PUSH1 0xC0 DUP3 ADD MSTORE RETURN JUMPDEST CALLVALUE PUSH2 0x294 JUMPI PUSH1 0x20 CALLDATASIZE PUSH1 0x3 NOT ADD SLT PUSH2 0x294 JUMPI PUSH1 0x4 CALLDATALOAD PUSH2 0x158B PUSH2 0x26A9 JUMP JUMPDEST CALLER PUSH1 0x0 SWAP1 DUP2 MSTORE PUSH1 0x0 DUP1 MLOAD PUSH1 0x20 PUSH2 0x2834 DUP4 CODECOPY DUP2 MLOAD SWAP2 MSTORE PUSH1 0x20 MSTORE PUSH1 0x40 SWAP1 KECCAK256 SLOAD PUSH2 0x15B4 SWAP1 PUSH1 0xFF AND PUSH2 0x1E9C JUMP JUMPDEST DUP1 PUSH1 0x0 MSTORE PUSH1 0xB PUSH1 0x20 MSTORE PUSH1 0x40 PUSH1 0x0 KECCAK256 PUSH2 0x15E0 PUSH1 0x4 DUP3 ADD SWAP2 PUSH2 0x436 PUSH1 0x1 PUSH1 0xFF DUP6 SLOAD PUSH1 0x10 SHR AND PUSH2 0xDAD DUP2 PUSH2 0x1DF0 JUMP JUMPDEST DUP1 SLOAD PUSH3 0xFF0000 NOT AND PUSH3 0x40000 OR SWAP1 SSTORE PUSH32 0xF903F4774C7BD27355F9D7FCBC382B079B164A697A44AC5D95267A4C3CB3BB22 PUSH1 0x0 DUP1 LOG2 PUSH1 0x1 PUSH1 0x0 SSTORE STOP JUMPDEST CALLVALUE PUSH2 0x294 JUMPI PUSH1 0x60 CALLDATASIZE PUSH1 0x3 NOT ADD SLT PUSH2 0x294 JUMPI PUSH1 0x4 CALLDATALOAD PUSH1 0x0 DUP2 DUP2 MSTORE PUSH1 0xA PUSH1 0x20 MSTORE PUSH1 0x40 SWAP1 KECCAK256 SLOAD PUSH1 0x44 CALLDATALOAD SWAP2 PUSH1 0x24 CALLDATALOAD SWAP2 PUSH2 0x165A SWAP1 PUSH1 0x1 PUSH1 0x1 PUSH1 0xA0 SHL SUB AND ISZERO ISZERO PUSH2 0x20F9 JUMP JUMPDEST PUSH1 0x0 MSTORE PUSH1 0xA PUSH1 0x20 MSTORE PUSH1 0x40 PUSH1 0x0 KECCAK256 PUSH2 0x167B PUSH1 0x1 DUP1 PUSH1 0xA0 SHL SUB DUP3 SLOAD AND CALLER EQ PUSH2 0x216F JUMP JUMPDEST PUSH2 0x1691 PUSH1 0x1 PUSH1 0xFF PUSH1 0x6 DUP5 ADD SLOAD AND PUSH2 0x738 DUP2 PUSH2 0x1DF0 JUMP JUMPDEST PUSH2 0x169C DUP3 DUP5 GT PUSH2 0x21A8 JUMP JUMPDEST PUSH1 0x1 DUP2 ADD SLOAD DUP4 GT PUSH2 0x16B6 JUMPI PUSH1 0x4 SWAP2 PUSH1 0x3 DUP3 ADD SSTORE ADD SSTORE PUSH1 0x0 DUP1 RETURN JUMPDEST PUSH1 0x40 MLOAD PUSH3 0x461BCD PUSH1 0xE5 SHL DUP2 MSTORE PUSH1 0x20 PUSH1 0x4 DUP3 ADD MSTORE PUSH1 0x11 PUSH1 0x24 DUP3 ADD MSTORE PUSH17 0x13585E08195E18D959591CC81D1BDD185B PUSH1 0x7A SHL PUSH1 0x44 DUP3 ADD MSTORE PUSH1 0x64 SWAP1 REVERT JUMPDEST CALLVALUE PUSH2 0x294 JUMPI PUSH1 0x20 PUSH8 0xDE0B6B3A7640000 PUSH2 0x1736 PUSH2 0x170B CALLDATASIZE PUSH2 0x1DDA JUMP JUMPDEST SWAP1 PUSH1 0x0 MSTORE PUSH1 0xA DUP5 MSTORE PUSH1 0x5 PUSH1 0x40 PUSH1 0x0 KECCAK256 PUSH2 0x172E PUSH1 0x1 DUP1 PUSH1 0xA0 SHL SUB DUP3 SLOAD AND ISZERO ISZERO PUSH2 0x20F9 JUMP JUMPDEST ADD SLOAD SWAP1 PUSH2 0x213C JUMP JUMPDEST DIV PUSH1 0x40 MLOAD SWAP1 DUP2 MSTORE RETURN JUMPDEST CALLVALUE PUSH2 0x294 JUMPI PUSH1 0x0 CALLDATASIZE PUSH1 0x3 NOT ADD SLT PUSH2 0x294 JUMPI PUSH2 0x1758 PUSH2 0x254E JUMP JUMPDEST PUSH1 0x1 SLOAD PUSH1 0xFF DUP2 AND ISZERO PUSH2 0x1797 JUMPI PUSH1 0xFF NOT AND PUSH1 0x1 SSTORE PUSH32 0x5DB9EE0A495BF2E6FF9C91A7834C1BA4FDD244A5E8AA4E537BD38AEAE4B073AA PUSH1 0x20 PUSH1 0x40 MLOAD CALLER DUP2 MSTORE LOG1 STOP JUMPDEST PUSH4 0x8DFC202B PUSH1 0xE0 SHL PUSH1 0x0 MSTORE PUSH1 0x4 PUSH1 0x0 REVERT JUMPDEST CALLVALUE PUSH2 0x294 JUMPI PUSH1 0x40 CALLDATASIZE PUSH1 0x3 NOT ADD SLT PUSH2 0x294 JUMPI PUSH2 0x17C1 PUSH2 0x1DAE JUMP JUMPDEST CALLER PUSH1 0x1 PUSH1 0x1 PUSH1 0xA0 SHL SUB DUP3 AND SUB PUSH2 0x17DD JUMPI PUSH2 0x4EE SWAP1 PUSH1 0x4 CALLDATALOAD PUSH2 0x2716 JUMP JUMPDEST PUSH4 0x334BD919 PUSH1 0xE1 SHL PUSH1 0x0 MSTORE PUSH1 0x4 PUSH1 0x0 REVERT JUMPDEST CALLVALUE PUSH2 0x294 JUMPI PUSH1 0x60 CALLDATASIZE PUSH1 0x3 NOT ADD SLT PUSH2 0x294 JUMPI PUSH1 0x4 CALLDATALOAD PUSH2 0x180A PUSH2 0x1DAE JUMP JUMPDEST PUSH1 0x44 CALLDATALOAD SWAP1 PUSH2 0x1816 PUSH2 0x268C JUMP JUMPDEST PUSH2 0x181E PUSH2 0x26A9 JUMP JUMPDEST PUSH1 0x1 PUSH1 0x1 PUSH1 0xA0 SHL SUB AND SWAP2 DUP3 ISZERO PUSH2 0x198D JUMPI PUSH1 0x20 SWAP3 PUSH32 0x40948E3E47AC26599994072F13321706AC61EFAD4125C7C7A933D48D1D60E72F PUSH2 0x1972 DUP5 PUSH2 0x1864 PUSH2 0x1944 SWAP7 ISZERO ISZERO PUSH2 0x1F1B JUMP JUMPDEST PUSH1 0x9 SLOAD PUSH2 0x1870 DUP2 PUSH2 0x20EA JUMP JUMPDEST PUSH1 0x9 SSTORE PUSH1 0x40 MLOAD DUP9 DUP2 ADD SWAP2 DUP8 DUP4 MSTORE CALLER PUSH1 0x60 SHL PUSH1 0x40 DUP4 ADD MSTORE DUP4 PUSH1 0x54 DUP4 ADD MSTORE PUSH1 0x74 DUP3 ADD MSTORE TIMESTAMP PUSH1 0x94 DUP3 ADD MSTORE PUSH1 0x94 DUP2 MSTORE PUSH2 0x18A6 PUSH1 0xB4 DUP3 PUSH2 0x1FEE JUMP JUMPDEST MLOAD SWAP1 KECCAK256 SWAP6 DUP7 SWAP5 DUP6 PUSH1 0x0 MSTORE PUSH1 0xB DUP10 MSTORE PUSH2 0x18CE PUSH1 0x1 DUP1 PUSH1 0xA0 SHL SUB PUSH1 0x1 PUSH1 0x40 PUSH1 0x0 KECCAK256 ADD SLOAD AND ISZERO PUSH2 0x1F58 JUMP JUMPDEST PUSH1 0x3 SLOAD PUSH2 0x18E9 SWAP1 DUP5 SWAP1 ADDRESS SWAP1 CALLER SWAP1 PUSH1 0x1 PUSH1 0x1 PUSH1 0xA0 SHL SUB AND PUSH2 0x26CB JUMP JUMPDEST PUSH1 0x6 SLOAD PUSH1 0x1 PUSH1 0x1 PUSH1 0xA0 SHL SUB DUP2 AND ISZERO PUSH2 0x1982 JUMPI PUSH2 0xFFFF DUP1 SWAP2 PUSH1 0xA0 SHR AND JUMPDEST PUSH1 0x40 MLOAD SWAP3 PUSH2 0x1912 DUP5 PUSH2 0x1FA0 JUMP JUMPDEST DUP10 DUP5 MSTORE DUP12 DUP5 ADD MSTORE CALLER PUSH1 0x40 DUP5 ADD MSTORE DUP5 PUSH1 0x60 DUP5 ADD MSTORE AND PUSH1 0x80 DUP3 ADD MSTORE PUSH1 0x1 PUSH1 0xA0 DUP3 ADD MSTORE DUP6 PUSH1 0x0 MSTORE PUSH1 0xB DUP10 MSTORE PUSH1 0x40 PUSH1 0x0 KECCAK256 PUSH2 0x2010 JUMP JUMPDEST CALLER PUSH1 0x0 MSTORE PUSH1 0xE DUP8 MSTORE PUSH2 0x195A DUP5 PUSH1 0x40 PUSH1 0x0 KECCAK256 PUSH2 0x20A6 JUMP JUMPDEST PUSH1 0x40 DUP1 MLOAD CALLER DUP2 MSTORE PUSH1 0x20 DUP2 ADD SWAP3 SWAP1 SWAP3 MSTORE SWAP1 SWAP2 DUP3 SWAP2 DUP3 ADD SWAP1 JUMP JUMPDEST SUB SWAP1 LOG3 PUSH1 0x1 PUSH1 0x0 SSTORE PUSH1 0x40 MLOAD SWAP1 DUP2 MSTORE RETURN JUMPDEST POP PUSH2 0xFFFF PUSH1 0x0 PUSH2 0x1905 JUMP JUMPDEST PUSH1 0x40 MLOAD PUSH3 0x461BCD PUSH1 0xE5 SHL DUP2 MSTORE PUSH1 0x20 PUSH1 0x4 DUP3 ADD MSTORE PUSH1 0xE PUSH1 0x24 DUP3 ADD MSTORE PUSH14 0x24B73B30B634B21039B2B63632B9 PUSH1 0x91 SHL PUSH1 0x44 DUP3 ADD MSTORE PUSH1 0x64 SWAP1 REVERT JUMPDEST CALLVALUE PUSH2 0x294 JUMPI PUSH1 0x40 CALLDATASIZE PUSH1 0x3 NOT ADD SLT PUSH2 0x294 JUMPI PUSH2 0x4EE PUSH1 0x4 CALLDATALOAD PUSH2 0x19E2 PUSH2 0x1DAE JUMP JUMPDEST SWAP1 PUSH2 0x19FE PUSH2 0x4E4 DUP3 PUSH1 0x0 MSTORE PUSH1 0x2 PUSH1 0x20 MSTORE PUSH1 0x1 PUSH1 0x40 PUSH1 0x0 KECCAK256 ADD SLOAD SWAP1 JUMP JUMPDEST PUSH2 0x25FD JUMP JUMPDEST CALLVALUE PUSH2 0x294 JUMPI PUSH1 0x20 CALLDATASIZE PUSH1 0x3 NOT ADD SLT PUSH2 0x294 JUMPI PUSH1 0x4 CALLDATALOAD PUSH2 0xFFFF DUP2 AND DUP1 DUP3 SUB PUSH2 0x294 JUMPI PUSH2 0x3E8 SWAP1 PUSH2 0x1A2F PUSH2 0x254E JUMP JUMPDEST GT PUSH2 0x1A55 JUMPI PUSH1 0x6 DUP1 SLOAD PUSH2 0xFFFF PUSH1 0xA0 SHL NOT AND PUSH1 0xA0 SWAP3 SWAP1 SWAP3 SHL PUSH2 0xFFFF PUSH1 0xA0 SHL AND SWAP2 SWAP1 SWAP2 OR SWAP1 SSTORE STOP JUMPDEST PUSH1 0x40 MLOAD PUSH3 0x461BCD PUSH1 0xE5 SHL DUP2 MSTORE PUSH1 0x20 PUSH1 0x4 DUP3 ADD MSTORE PUSH1 0xC PUSH1 0x24 DUP3 ADD MSTORE PUSH12 0x8CCACA40E8DEDE40D0D2CED PUSH1 0xA3 SHL PUSH1 0x44 DUP3 ADD MSTORE PUSH1 0x64 SWAP1 REVERT JUMPDEST CALLVALUE PUSH2 0x294 JUMPI PUSH1 0x20 CALLDATASIZE PUSH1 0x3 NOT ADD SLT PUSH2 0x294 JUMPI PUSH1 0x20 PUSH2 0x3B7 PUSH1 0x4 CALLDATALOAD PUSH1 0x0 MSTORE PUSH1 0x2 PUSH1 0x20 MSTORE PUSH1 0x1 PUSH1 0x40 PUSH1 0x0 KECCAK256 ADD SLOAD SWAP1 JUMP JUMPDEST CALLVALUE PUSH2 0x294 JUMPI PUSH1 0x80 CALLDATASIZE PUSH1 0x3 NOT ADD SLT PUSH2 0x294 JUMPI PUSH1 0x24 CALLDATALOAD PUSH1 0x4 CALLDATALOAD PUSH1 0x44 CALLDATALOAD PUSH1 0x1 PUSH1 0x1 PUSH1 0xA0 SHL SUB DUP2 AND SWAP1 DUP2 DUP2 SUB PUSH2 0x294 JUMPI CALLER PUSH1 0x0 SWAP1 DUP2 MSTORE PUSH1 0x0 DUP1 MLOAD PUSH1 0x20 PUSH2 0x2834 DUP4 CODECOPY DUP2 MLOAD SWAP2 MSTORE PUSH1 0x20 MSTORE PUSH1 0x40 SWAP1 KECCAK256 SLOAD PUSH1 0x64 CALLDATALOAD SWAP2 SWAP1 PUSH2 0x1B10 SWAP1 PUSH1 0xFF AND PUSH2 0x1E9C JUMP JUMPDEST DUP5 PUSH1 0x0 MSTORE PUSH1 0xA PUSH1 0x20 MSTORE PUSH1 0x40 PUSH1 0x0 KECCAK256 SWAP3 PUSH2 0x1B35 PUSH1 0x1 PUSH1 0xFF PUSH1 0x6 DUP8 ADD SLOAD AND PUSH2 0x738 DUP2 PUSH2 0x1DF0 JUMP JUMPDEST PUSH1 0x2 DUP5 ADD SWAP1 DUP2 SLOAD DUP1 DUP6 GT PUSH2 0x1C67 JUMPI DUP6 PUSH2 0x1C13 SWAP4 PUSH2 0x1BB2 DUP8 PUSH2 0xFFFF SWAP5 PUSH1 0x3 PUSH32 0x7450E1364879CFF4A1F1F2AA6C91DE7BA540801FE2ABB06FC6A5A8D3B8F670A4 SWAP12 ADD SLOAD DUP3 LT ISZERO DUP1 PUSH2 0x1C59 JUMPI JUMPDEST PUSH2 0x1B88 SWAP1 PUSH2 0x1F1B JUMP JUMPDEST PUSH1 0x0 DUP13 DUP2 MSTORE PUSH1 0xC PUSH1 0x20 MSTORE PUSH1 0x40 SWAP1 KECCAK256 PUSH1 0x1 ADD SLOAD PUSH2 0x1BAD SWAP1 PUSH1 0x1 PUSH1 0x1 PUSH1 0xA0 SHL SUB AND ISZERO PUSH2 0x1F58 JUMP JUMPDEST PUSH2 0x1F93 JUMP JUMPDEST SWAP1 SSTORE SLOAD PUSH1 0x6 SLOAD PUSH1 0x1 PUSH1 0x1 PUSH1 0xA0 SHL SUB SWAP2 DUP3 AND SWAP4 SWAP2 DUP2 AND ISZERO PUSH2 0x1C50 JUMPI PUSH1 0xA0 SHR DUP3 AND SWAP1 JUMPDEST PUSH1 0x40 MLOAD SWAP4 PUSH2 0x1BE0 DUP6 PUSH2 0x1FA0 JUMP JUMPDEST DUP11 DUP6 MSTORE PUSH1 0x20 DUP6 ADD MSTORE PUSH1 0x40 DUP5 ADD MSTORE DUP6 PUSH1 0x60 DUP5 ADD MSTORE AND PUSH1 0x80 DUP3 ADD MSTORE PUSH1 0x1 PUSH1 0xA0 DUP3 ADD MSTORE DUP6 PUSH1 0x0 MSTORE PUSH1 0xC PUSH1 0x20 MSTORE PUSH1 0x40 PUSH1 0x0 KECCAK256 PUSH2 0x2010 JUMP JUMPDEST DUP5 PUSH1 0x0 MSTORE PUSH1 0xF PUSH1 0x20 MSTORE PUSH2 0x1C2A DUP5 PUSH1 0x40 PUSH1 0x0 KECCAK256 PUSH2 0x20A6 JUMP JUMPDEST PUSH1 0x40 DUP1 MLOAD PUSH1 0x1 PUSH1 0x1 PUSH1 0xA0 SHL SUB SWAP3 SWAP1 SWAP3 AND DUP3 MSTORE PUSH1 0x20 DUP3 ADD SWAP3 SWAP1 SWAP3 MSTORE LOG3 PUSH1 0x20 PUSH1 0x40 MLOAD PUSH1 0x1 DUP2 MSTORE RETURN JUMPDEST POP PUSH1 0x0 SWAP1 PUSH2 0x1BD3 JUMP JUMPDEST POP PUSH1 0x4 DUP6 ADD SLOAD DUP3 GT ISZERO PUSH2 0x1B7F JUMP JUMPDEST PUSH1 0x40 MLOAD PUSH3 0x461BCD PUSH1 0xE5 SHL DUP2 MSTORE PUSH1 0x20 PUSH1 0x4 DUP3 ADD MSTORE PUSH1 0x11 PUSH1 0x24 DUP3 ADD MSTORE PUSH17 0x125B9CDD59999A58DA595B9D081554D115 PUSH1 0x7A SHL PUSH1 0x44 DUP3 ADD MSTORE PUSH1 0x64 SWAP1 REVERT JUMPDEST CALLVALUE PUSH2 0x294 JUMPI PUSH1 0x0 CALLDATASIZE PUSH1 0x3 NOT ADD SLT PUSH2 0x294 JUMPI PUSH1 0x20 PUSH1 0x40 MLOAD PUSH32 0x751B795D24B92E3D92D1D0D8F2885F4E9C9C269DA350AF36AE6B49069BABF4BF DUP2 MSTORE RETURN JUMPDEST CALLVALUE PUSH2 0x294 JUMPI PUSH1 0x20 CALLDATASIZE PUSH1 0x3 NOT ADD SLT PUSH2 0x294 JUMPI PUSH1 0x4 CALLDATALOAD PUSH4 0xFFFFFFFF PUSH1 0xE0 SHL DUP2 AND DUP1 SWAP2 SUB PUSH2 0x294 JUMPI PUSH1 0x20 SWAP1 PUSH4 0x7965DB0B PUSH1 0xE0 SHL DUP2 EQ SWAP1 DUP2 ISZERO PUSH2 0x1D20 JUMPI JUMPDEST POP PUSH1 0x40 MLOAD SWAP1 ISZERO ISZERO DUP2 MSTORE RETURN JUMPDEST PUSH4 0x1FFC9A7 PUSH1 0xE0 SHL EQ SWAP1 POP DUP3 PUSH2 0x1D15 JUMP JUMPDEST CALLVALUE PUSH2 0x294 JUMPI PUSH1 0x0 CALLDATASIZE PUSH1 0x3 NOT ADD SLT PUSH2 0x294 JUMPI PUSH1 0x6 SLOAD PUSH1 0x40 MLOAD PUSH1 0x1 PUSH1 0x1 PUSH1 0xA0 SHL SUB SWAP1 SWAP2 AND DUP2 MSTORE PUSH1 0x20 SWAP1 RETURN JUMPDEST CALLVALUE PUSH2 0x294 JUMPI PUSH1 0x20 CALLDATASIZE PUSH1 0x3 NOT ADD SLT PUSH2 0x294 JUMPI PUSH32 0xD697357021BB5C8F09A6C16004ED15487B82D773B5A8C20FF3A7CBF87A95BC63 PUSH1 0x40 PUSH1 0x4 CALLDATALOAD PUSH2 0x1D99 PUSH2 0x254E JUMP JUMPDEST PUSH1 0x7 SLOAD SWAP1 DUP1 PUSH1 0x7 SSTORE DUP3 MLOAD SWAP2 DUP3 MSTORE PUSH1 0x20 DUP3 ADD MSTORE LOG1 STOP JUMPDEST PUSH1 0x24 CALLDATALOAD SWAP1 PUSH1 0x1 PUSH1 0x1 PUSH1 0xA0 SHL SUB DUP3 AND DUP3 SUB PUSH2 0x294 JUMPI JUMP JUMPDEST PUSH1 0x4 CALLDATALOAD SWAP1 PUSH1 0x1 PUSH1 0x1 PUSH1 0xA0 SHL SUB DUP3 AND DUP3 SUB PUSH2 0x294 JUMPI JUMP JUMPDEST PUSH1 0x40 SWAP1 PUSH1 0x3 NOT ADD SLT PUSH2 0x294 JUMPI PUSH1 0x4 CALLDATALOAD SWAP1 PUSH1 0x24 CALLDATALOAD SWAP1 JUMP JUMPDEST PUSH1 0x5 GT ISZERO PUSH2 0x1DFA JUMPI JUMP JUMPDEST PUSH4 0x4E487B71 PUSH1 0xE0 SHL PUSH1 0x0 MSTORE PUSH1 0x21 PUSH1 0x4 MSTORE PUSH1 0x24 PUSH1 0x0 REVERT JUMPDEST PUSH1 0x20 PUSH1 0x40 DUP2 DUP4 ADD SWAP3 DUP3 DUP2 MSTORE DUP5 MLOAD DUP1 SWAP5 MSTORE ADD SWAP3 ADD SWAP1 PUSH1 0x0 JUMPDEST DUP2 DUP2 LT PUSH2 0x1E34 JUMPI POP POP POP SWAP1 JUMP JUMPDEST DUP3 MLOAD DUP5 MSTORE PUSH1 0x20 SWAP4 DUP5 ADD SWAP4 SWAP1 SWAP3 ADD SWAP2 PUSH1 0x1 ADD PUSH2 0x1E27 JUMP JUMPDEST PUSH1 0xA0 DUP1 SWAP2 DUP1 MLOAD DUP5 MSTORE PUSH1 0x1 DUP1 DUP4 SHL SUB PUSH1 0x20 DUP3 ADD MLOAD AND PUSH1 0x20 DUP6 ADD MSTORE PUSH1 0x1 DUP1 DUP4 SHL SUB PUSH1 0x40 DUP3 ADD MLOAD AND PUSH1 0x40 DUP6 ADD MSTORE PUSH1 0x60 DUP2 ADD MLOAD PUSH1 0x60 DUP6 ADD MSTORE PUSH2 0xFFFF PUSH1 0x80 DUP3 ADD MLOAD AND PUSH1 0x80 DUP6 ADD MSTORE ADD MLOAD SWAP2 PUSH2 0x1E98 DUP4 PUSH2 0x1DF0 JUMP JUMPDEST ADD MSTORE JUMP JUMPDEST ISZERO PUSH2 0x1EA3 JUMPI JUMP JUMPDEST PUSH1 0x40 MLOAD PUSH3 0x461BCD PUSH1 0xE5 SHL DUP2 MSTORE PUSH1 0x20 PUSH1 0x4 DUP3 ADD MSTORE PUSH1 0x11 PUSH1 0x24 DUP3 ADD MSTORE PUSH17 0x27B7363C90313934B233B29030B236B4B7 PUSH1 0x79 SHL PUSH1 0x44 DUP3 ADD MSTORE PUSH1 0x64 SWAP1 REVERT JUMPDEST ISZERO PUSH2 0x1EE3 JUMPI JUMP JUMPDEST PUSH1 0x40 MLOAD PUSH3 0x461BCD PUSH1 0xE5 SHL DUP2 MSTORE PUSH1 0x20 PUSH1 0x4 DUP3 ADD MSTORE PUSH1 0x10 PUSH1 0x24 DUP3 ADD MSTORE PUSH16 0x4F72646572206E6F7420616374697665 PUSH1 0x80 SHL PUSH1 0x44 DUP3 ADD MSTORE PUSH1 0x64 SWAP1 REVERT JUMPDEST ISZERO PUSH2 0x1F22 JUMPI JUMP JUMPDEST PUSH1 0x40 MLOAD PUSH3 0x461BCD PUSH1 0xE5 SHL DUP2 MSTORE PUSH1 0x20 PUSH1 0x4 DUP3 ADD MSTORE PUSH1 0xE PUSH1 0x24 DUP3 ADD MSTORE PUSH14 0x125B9D985B1A5908185B5BDD5B9D PUSH1 0x92 SHL PUSH1 0x44 DUP3 ADD MSTORE PUSH1 0x64 SWAP1 REVERT JUMPDEST ISZERO PUSH2 0x1F5F JUMPI JUMP JUMPDEST PUSH1 0x40 MLOAD PUSH3 0x461BCD PUSH1 0xE5 SHL DUP2 MSTORE PUSH1 0x20 PUSH1 0x4 DUP3 ADD MSTORE PUSH1 0xC PUSH1 0x24 DUP3 ADD MSTORE PUSH12 0x547261646520657869737473 PUSH1 0xA0 SHL PUSH1 0x44 DUP3 ADD MSTORE PUSH1 0x64 SWAP1 REVERT JUMPDEST SWAP2 SWAP1 DUP3 SUB SWAP2 DUP3 GT PUSH2 0x82A JUMPI JUMP JUMPDEST PUSH1 0xC0 DUP2 ADD SWAP1 DUP2 LT PUSH8 0xFFFFFFFFFFFFFFFF DUP3 GT OR PUSH2 0x1FBC JUMPI PUSH1 0x40 MSTORE JUMP JUMPDEST PUSH4 0x4E487B71 PUSH1 0xE0 SHL PUSH1 0x0 MSTORE PUSH1 0x41 PUSH1 0x4 MSTORE PUSH1 0x24 PUSH1 0x0 REVERT JUMPDEST PUSH1 0xE0 DUP2 ADD SWAP1 DUP2 LT PUSH8 0xFFFFFFFFFFFFFFFF DUP3 GT OR PUSH2 0x1FBC JUMPI PUSH1 0x40 MSTORE JUMP JUMPDEST SWAP1 PUSH1 0x1F DUP1 NOT SWAP2 ADD AND DUP2 ADD SWAP1 DUP2 LT PUSH8 0xFFFFFFFFFFFFFFFF DUP3 GT OR PUSH2 0x1FBC JUMPI PUSH1 0x40 MSTORE JUMP JUMPDEST DUP2 MLOAD DUP2 SSTORE PUSH1 0x20 DUP3 ADD MLOAD PUSH1 0x1 DUP3 ADD DUP1 SLOAD PUSH1 0x1 PUSH1 0x1 PUSH1 0xA0 SHL SUB SWAP3 DUP4 AND PUSH1 0x1 PUSH1 0x1 PUSH1 0xA0 SHL SUB NOT SWAP2 DUP3 AND OR SWAP1 SWAP2 SSTORE PUSH1 0x40 DUP5 ADD MLOAD PUSH1 0x2 DUP5 ADD DUP1 SLOAD SWAP2 SWAP1 SWAP4 AND SWAP2 AND OR SWAP1 SSTORE PUSH1 0x60 DUP3 ADD MLOAD PUSH1 0x3 DUP3 ADD SSTORE PUSH1 0x80 DUP3 ADD MLOAD PUSH1 0x4 SWAP1 SWAP2 ADD DUP1 SLOAD PUSH2 0xFFFF SWAP1 SWAP3 AND PUSH2 0xFFFF NOT SWAP1 SWAP3 AND SWAP2 SWAP1 SWAP2 OR DUP2 SSTORE PUSH1 0xA0 SWAP1 SWAP2 ADD MLOAD PUSH2 0x2086 DUP2 PUSH2 0x1DF0 JUMP JUMPDEST PUSH2 0x208F DUP2 PUSH2 0x1DF0 JUMP JUMPDEST PUSH3 0xFF0000 DUP3 SLOAD SWAP2 PUSH1 0x10 SHL AND SWAP1 PUSH3 0xFF0000 NOT AND OR SWAP1 SSTORE JUMP JUMPDEST DUP1 SLOAD SWAP1 PUSH9 0x10000000000000000 DUP3 LT ISZERO PUSH2 0x1FBC JUMPI PUSH1 0x1 DUP3 ADD DUP1 DUP3 SSTORE DUP3 LT ISZERO PUSH2 0x20D4 JUMPI PUSH1 0x0 MSTORE PUSH1 0x20 PUSH1 0x0 KECCAK256 ADD SSTORE JUMP JUMPDEST PUSH4 0x4E487B71 PUSH1 0xE0 SHL PUSH1 0x0 MSTORE PUSH1 0x32 PUSH1 0x4 MSTORE PUSH1 0x24 PUSH1 0x0 REVERT JUMPDEST PUSH1 0x0 NOT DUP2 EQ PUSH2 0x82A JUMPI PUSH1 0x1 ADD SWAP1 JUMP JUMPDEST ISZERO PUSH2 0x2100 JUMPI JUMP JUMPDEST PUSH1 0x40 MLOAD PUSH3 0x461BCD PUSH1 0xE5 SHL DUP2 MSTORE PUSH1 0x20 PUSH1 0x4 DUP3 ADD MSTORE PUSH1 0x14 PUSH1 0x24 DUP3 ADD MSTORE PUSH20 0x13DC99195C88191BD95CC81B9BDD08195E1A5CDD PUSH1 0x62 SHL PUSH1 0x44 DUP3 ADD MSTORE PUSH1 0x64 SWAP1 REVERT JUMPDEST DUP2 DUP2 MUL SWAP3 SWAP2 DUP2 ISZERO SWAP2 DUP5 DIV EQ OR ISZERO PUSH2 0x82A JUMPI JUMP JUMPDEST DUP2 ISZERO PUSH2 0x2159 JUMPI DIV SWAP1 JUMP JUMPDEST PUSH4 0x4E487B71 PUSH1 0xE0 SHL PUSH1 0x0 MSTORE PUSH1 0x12 PUSH1 0x4 MSTORE PUSH1 0x24 PUSH1 0x0 REVERT JUMPDEST ISZERO PUSH2 0x2176 JUMPI JUMP JUMPDEST PUSH1 0x40 MLOAD PUSH3 0x461BCD PUSH1 0xE5 SHL DUP2 MSTORE PUSH1 0x20 PUSH1 0x4 DUP3 ADD MSTORE PUSH1 0xA PUSH1 0x24 DUP3 ADD MSTORE PUSH10 0x2737BA1039B2B63632B9 PUSH1 0xB1 SHL PUSH1 0x44 DUP3 ADD MSTORE PUSH1 0x64 SWAP1 REVERT JUMPDEST ISZERO PUSH2 0x21AF JUMPI JUMP JUMPDEST PUSH1 0x40 MLOAD PUSH3 0x461BCD PUSH1 0xE5 SHL DUP2 MSTORE PUSH1 0x20 PUSH1 0x4 DUP3 ADD MSTORE PUSH1 0xD PUSH1 0x24 DUP3 ADD MSTORE PUSH13 0x496E76616C69642072616E6765 PUSH1 0x98 SHL PUSH1 0x44 DUP3 ADD MSTORE PUSH1 0x64 SWAP1 REVERT JUMPDEST ISZERO PUSH2 0x21EB JUMPI JUMP JUMPDEST PUSH1 0x40 MLOAD PUSH3 0x461BCD PUSH1 0xE5 SHL DUP2 MSTORE PUSH1 0x20 PUSH1 0x4 DUP3 ADD MSTORE PUSH1 0xD PUSH1 0x24 DUP3 ADD MSTORE PUSH13 0x10D85B9B9BDD0818D85B98D95B PUSH1 0x9A SHL PUSH1 0x44 DUP3 ADD MSTORE PUSH1 0x64 SWAP1 REVERT JUMPDEST ISZERO PUSH2 0x2227 JUMPI JUMP JUMPDEST PUSH1 0x40 MLOAD PUSH3 0x461BCD PUSH1 0xE5 SHL DUP2 MSTORE PUSH1 0x20 PUSH1 0x4 DUP3 ADD MSTORE PUSH1 0xE PUSH1 0x24 DUP3 ADD MSTORE PUSH14 0x496E76616C696420737461747573 PUSH1 0x90 SHL PUSH1 0x44 DUP3 ADD MSTORE PUSH1 0x64 SWAP1 REVERT JUMPDEST SWAP2 SWAP1 DUP3 ADD DUP1 SWAP3 GT PUSH2 0x82A JUMPI JUMP JUMPDEST PUSH2 0xFFFF AND PUSH2 0x2710 SUB SWAP1 PUSH2 0xFFFF DUP3 GT PUSH2 0x82A JUMPI JUMP JUMPDEST PUSH2 0xFFFF AND PUSH2 0x2710 ADD SWAP1 PUSH2 0xFFFF DUP3 GT PUSH2 0x82A JUMPI JUMP JUMPDEST ISZERO PUSH2 0x2299 JUMPI JUMP JUMPDEST PUSH1 0x40 MLOAD PUSH3 0x461BCD PUSH1 0xE5 SHL DUP2 MSTORE PUSH1 0x20 PUSH1 0x4 DUP3 ADD MSTORE PUSH1 0x12 PUSH1 0x24 DUP3 ADD MSTORE PUSH18 0x5072696365206F7574206F662072616E6765 PUSH1 0x70 SHL PUSH1 0x44 DUP3 ADD MSTORE PUSH1 0x64 SWAP1 REVERT JUMPDEST PUSH1 0x40 MLOAD SWAP1 PUSH2 0x22E0 DUP3 PUSH2 0x1FA0 JUMP JUMPDEST PUSH1 0x0 PUSH1 0xA0 DUP4 DUP3 DUP2 MSTORE DUP3 PUSH1 0x20 DUP3 ADD MSTORE DUP3 PUSH1 0x40 DUP3 ADD MSTORE DUP3 PUSH1 0x60 DUP3 ADD MSTORE DUP3 PUSH1 0x80 DUP3 ADD MSTORE ADD MSTORE JUMP JUMPDEST SWAP1 PUSH1 0x40 MLOAD PUSH2 0x2311 DUP2 PUSH2 0x1FA0 JUMP JUMPDEST DUP3 SLOAD DUP2 MSTORE PUSH1 0x1 DUP4 ADD SLOAD PUSH1 0x1 PUSH1 0x1 PUSH1 0xA0 SHL SUB SWAP1 DUP2 AND PUSH1 0x20 DUP4 ADD MSTORE PUSH1 0x2 DUP5 ADD SLOAD AND PUSH1 0x40 DUP3 ADD MSTORE PUSH1 0x3 DUP4 ADD SLOAD PUSH1 0x60 DUP3 ADD MSTORE PUSH1 0x4 SWAP3 SWAP1 SWAP3 ADD SLOAD PUSH2 0xFFFF DUP2 AND PUSH1 0x80 DUP5 ADD MSTORE PUSH1 0x10 SHR PUSH1 0xFF AND PUSH1 0xA0 DUP4 PUSH2 0x1E98 DUP4 PUSH2 0x1DF0 JUMP JUMPDEST MLOAD SWAP1 PUSH1 0x1 PUSH1 0x1 PUSH1 0x70 SHL SUB DUP3 AND DUP3 SUB PUSH2 0x294 JUMPI JUMP JUMPDEST PUSH1 0x5 SLOAD PUSH1 0x40 MLOAD PUSH4 0x240BC6B PUSH1 0xE2 SHL DUP2 MSTORE PUSH1 0x1 PUSH1 0x1 PUSH1 0xA0 SHL SUB SWAP1 SWAP2 AND SWAP1 PUSH1 0x60 DUP2 PUSH1 0x4 DUP2 DUP6 GAS STATICCALL SWAP2 DUP3 ISZERO PUSH2 0x249B JUMPI PUSH1 0x0 SWAP2 DUP3 SWAP4 PUSH2 0x24F1 JUMPI JUMPDEST POP PUSH1 0x1 PUSH1 0x1 PUSH1 0x70 SHL SUB DUP3 AND ISZERO ISZERO DUP1 PUSH2 0x24DF JUMPI JUMPDEST ISZERO PUSH2 0x24A7 JUMPI PUSH1 0x20 PUSH1 0x4 SWAP2 PUSH1 0x40 MLOAD SWAP3 DUP4 DUP1 SWAP3 PUSH4 0xDFE1681 PUSH1 0xE0 SHL DUP3 MSTORE GAS STATICCALL SWAP1 DUP2 ISZERO PUSH2 0x249B JUMPI PUSH1 0x0 SWAP2 PUSH2 0x2452 JUMPI JUMPDEST POP PUSH1 0x4 SLOAD PUSH1 0x1 PUSH1 0x1 PUSH1 0xA0 SHL SUB SWAP2 DUP3 AND SWAP2 AND SUB PUSH2 0x2444 JUMPI PUSH1 0x1 PUSH1 0x1 PUSH1 0x70 SHL SUB SWAP1 SWAP2 JUMPDEST AND PUSH8 0xDE0B6B3A7640000 DUP2 MUL SWAP1 DUP1 DUP3 DIV PUSH8 0xDE0B6B3A7640000 EQ SWAP1 ISZERO OR ISZERO PUSH2 0x82A JUMPI PUSH1 0x1 PUSH1 0x1 PUSH1 0x70 SHL SUB PUSH2 0x2441 SWAP3 AND SWAP1 PUSH2 0x214F JUMP JUMPDEST SWAP1 JUMP JUMPDEST PUSH1 0x1 PUSH1 0x1 PUSH1 0x70 SHL SUB SWAP1 PUSH2 0x240C JUMP JUMPDEST PUSH1 0x20 DUP2 RETURNDATASIZE PUSH1 0x20 GT PUSH2 0x2493 JUMPI JUMPDEST DUP2 PUSH2 0x246B PUSH1 0x20 SWAP4 DUP4 PUSH2 0x1FEE JUMP JUMPDEST DUP2 ADD SUB SLT PUSH2 0x248F JUMPI MLOAD SWAP1 PUSH1 0x1 PUSH1 0x1 PUSH1 0xA0 SHL SUB DUP3 AND DUP3 SUB PUSH2 0x248C JUMPI POP CODESIZE PUSH2 0x23EB JUMP JUMPDEST DUP1 REVERT JUMPDEST POP DUP1 REVERT JUMPDEST RETURNDATASIZE SWAP2 POP PUSH2 0x245E JUMP JUMPDEST PUSH1 0x40 MLOAD RETURNDATASIZE PUSH1 0x0 DUP3 RETURNDATACOPY RETURNDATASIZE SWAP1 REVERT JUMPDEST PUSH1 0x40 MLOAD PUSH3 0x461BCD PUSH1 0xE5 SHL DUP2 MSTORE PUSH1 0x20 PUSH1 0x4 DUP3 ADD MSTORE PUSH1 0x10 PUSH1 0x24 DUP3 ADD MSTORE PUSH16 0x496E76616C6964207265736572766573 PUSH1 0x80 SHL PUSH1 0x44 DUP3 ADD MSTORE PUSH1 0x64 SWAP1 REVERT JUMPDEST POP PUSH1 0x1 PUSH1 0x1 PUSH1 0x70 SHL SUB DUP4 AND ISZERO ISZERO PUSH2 0x23BF JUMP JUMPDEST SWAP2 SWAP1 SWAP3 POP PUSH1 0x60 DUP3 RETURNDATASIZE PUSH1 0x60 GT PUSH2 0x2546 JUMPI JUMPDEST DUP2 PUSH2 0x250E PUSH1 0x60 SWAP4 DUP4 PUSH2 0x1FEE JUMP JUMPDEST DUP2 ADD SUB SLT PUSH2 0x248C JUMPI PUSH2 0x251F DUP3 PUSH2 0x2362 JUMP JUMPDEST SWAP1 PUSH1 0x40 PUSH2 0x252E PUSH1 0x20 DUP6 ADD PUSH2 0x2362 JUMP JUMPDEST SWAP4 ADD MLOAD PUSH4 0xFFFFFFFF DUP2 AND SUB PUSH2 0x248C JUMPI POP SWAP1 SWAP2 CODESIZE PUSH2 0x23AC JUMP JUMPDEST RETURNDATASIZE SWAP2 POP PUSH2 0x2501 JUMP JUMPDEST CALLER PUSH1 0x0 SWAP1 DUP2 MSTORE PUSH32 0xE5EBFA64FCA8D502A8E50C1EDFFD2C31EF4DAD5B396E65D9F397FB028F74ABC5 PUSH1 0x20 MSTORE PUSH1 0x40 SWAP1 KECCAK256 SLOAD PUSH1 0xFF AND ISZERO PUSH2 0x2587 JUMPI JUMP JUMPDEST PUSH4 0xE2517D3F PUSH1 0xE0 SHL PUSH1 0x0 MSTORE CALLER PUSH1 0x4 MSTORE PUSH32 0xA49807205CE4D355092EF5A8A18F56E8913CF4A201FBE287825B095693C21775 PUSH1 0x24 MSTORE PUSH1 0x44 PUSH1 0x0 REVERT JUMPDEST PUSH1 0x0 DUP2 DUP2 MSTORE PUSH1 0x2 PUSH1 0x20 SWAP1 DUP2 MSTORE PUSH1 0x40 DUP1 DUP4 KECCAK256 CALLER DUP5 MSTORE SWAP1 SWAP2 MSTORE SWAP1 KECCAK256 SLOAD PUSH1 0xFF AND ISZERO PUSH2 0x25E5 JUMPI POP JUMP JUMPDEST PUSH4 0xE2517D3F PUSH1 0xE0 SHL PUSH1 0x0 MSTORE CALLER PUSH1 0x4 MSTORE PUSH1 0x24 MSTORE PUSH1 0x44 PUSH1 0x0 REVERT JUMPDEST PUSH1 0x0 DUP2 DUP2 MSTORE PUSH1 0x2 PUSH1 0x20 SWAP1 DUP2 MSTORE PUSH1 0x40 DUP1 DUP4 KECCAK256 PUSH1 0x1 PUSH1 0x1 PUSH1 0xA0 SHL SUB DUP7 AND DUP5 MSTORE SWAP1 SWAP2 MSTORE SWAP1 KECCAK256 SLOAD PUSH1 0xFF AND PUSH2 0x2685 JUMPI PUSH1 0x0 DUP2 DUP2 MSTORE PUSH1 0x2 PUSH1 0x20 SWAP1 DUP2 MSTORE PUSH1 0x40 DUP1 DUP4 KECCAK256 PUSH1 0x1 PUSH1 0x1 PUSH1 0xA0 SHL SUB SWAP6 SWAP1 SWAP6 AND DUP1 DUP5 MSTORE SWAP5 SWAP1 SWAP2 MSTORE DUP2 KECCAK256 DUP1 SLOAD PUSH1 0xFF NOT AND PUSH1 0x1 OR SWAP1 SSTORE CALLER SWAP3 SWAP2 SWAP1 PUSH32 0x2F8788117E7EFF1D82E926EC794901D17C78024A50270940304540A733656F0D SWAP1 DUP1 LOG4 PUSH1 0x1 SWAP1 JUMP JUMPDEST POP POP PUSH1 0x0 SWAP1 JUMP JUMPDEST PUSH1 0xFF PUSH1 0x1 SLOAD AND PUSH2 0x2698 JUMPI JUMP JUMPDEST PUSH4 0xD93C0665 PUSH1 0xE0 SHL PUSH1 0x0 MSTORE PUSH1 0x4 PUSH1 0x0 REVERT JUMPDEST PUSH1 0x2 PUSH1 0x0 SLOAD EQ PUSH2 0x26BA JUMPI PUSH1 0x2 PUSH1 0x0 SSTORE JUMP JUMPDEST PUSH4 0x3EE5AEB5 PUSH1 0xE0 SHL PUSH1 0x0 MSTORE PUSH1 0x4 PUSH1 0x0 REVERT JUMPDEST PUSH1 0x40 MLOAD PUSH4 0x23B872DD PUSH1 0xE0 SHL PUSH1 0x20 DUP3 ADD MSTORE PUSH1 0x1 PUSH1 0x1 PUSH1 0xA0 SHL SUB SWAP3 DUP4 AND PUSH1 0x24 DUP3 ADD MSTORE SWAP3 SWAP1 SWAP2 AND PUSH1 0x44 DUP4 ADD MSTORE PUSH1 0x64 DUP1 DUP4 ADD SWAP4 SWAP1 SWAP4 MSTORE SWAP2 DUP2 MSTORE PUSH2 0x2714 SWAP2 PUSH2 0x270F PUSH1 0x84 DUP4 PUSH2 0x1FEE JUMP JUMPDEST PUSH2 0x27D8 JUMP JUMPDEST JUMP JUMPDEST PUSH1 0x0 DUP2 DUP2 MSTORE PUSH1 0x2 PUSH1 0x20 SWAP1 DUP2 MSTORE PUSH1 0x40 DUP1 DUP4 KECCAK256 PUSH1 0x1 PUSH1 0x1 PUSH1 0xA0 SHL SUB DUP7 AND DUP5 MSTORE SWAP1 SWAP2 MSTORE SWAP1 KECCAK256 SLOAD PUSH1 0xFF AND ISZERO PUSH2 0x2685 JUMPI PUSH1 0x0 DUP2 DUP2 MSTORE PUSH1 0x2 PUSH1 0x20 SWAP1 DUP2 MSTORE PUSH1 0x40 DUP1 DUP4 KECCAK256 PUSH1 0x1 PUSH1 0x1 PUSH1 0xA0 SHL SUB SWAP6 SWAP1 SWAP6 AND DUP1 DUP5 MSTORE SWAP5 SWAP1 SWAP2 MSTORE DUP2 KECCAK256 DUP1 SLOAD PUSH1 0xFF NOT AND SWAP1 SSTORE CALLER SWAP3 SWAP2 SWAP1 PUSH32 0xF6391F5C32D9C69D2A47EA670B442974B53935D1EDC7FD64EB21E047A839171B SWAP1 DUP1 LOG4 PUSH1 0x1 SWAP1 JUMP JUMPDEST PUSH1 0x40 MLOAD PUSH4 0xA9059CBB PUSH1 0xE0 SHL PUSH1 0x20 DUP3 ADD MSTORE PUSH1 0x1 PUSH1 0x1 PUSH1 0xA0 SHL SUB SWAP3 SWAP1 SWAP3 AND PUSH1 0x24 DUP4 ADD MSTORE PUSH1 0x44 DUP1 DUP4 ADD SWAP4 SWAP1 SWAP4 MSTORE SWAP2 DUP2 MSTORE PUSH2 0x2714 SWAP2 PUSH2 0x270F PUSH1 0x64 DUP4 PUSH2 0x1FEE JUMP JUMPDEST SWAP1 PUSH1 0x0 PUSH1 0x20 SWAP2 DUP3 DUP2 MLOAD SWAP2 ADD DUP3 DUP6 GAS CALL ISZERO PUSH2 0x249B JUMPI PUSH1 0x0 MLOAD RETURNDATASIZE PUSH2 0x282A JUMPI POP PUSH1 0x1 PUSH1 0x1 PUSH1 0xA0 SHL SUB DUP2 AND EXTCODESIZE ISZERO JUMPDEST PUSH2 0x2809 JUMPI POP JUMP JUMPDEST PUSH4 0x5274AFE7 PUSH1 0xE0 SHL PUSH1 0x0 SWAP1 DUP2 MSTORE PUSH1 0x1 PUSH1 0x1 PUSH1 0xA0 SHL SUB SWAP2 SWAP1 SWAP2 AND PUSH1 0x4 MSTORE PUSH1 0x24 SWAP1 REVERT JUMPDEST PUSH1 0x1 EQ ISZERO PUSH2 0x2802 JUMP INVALID SHR 0xB9 DUP8 CREATE BALANCE BALANCE PUSH16 0x2EE4A2088D9DF91BA5FCB0A156171FCB PC 0xDE 0xDD SWAP13 0xAE DUP10 0xEF 0xD2 CREATE LOG2 PUSH5 0x6970667358 0x22 SLT KECCAK256 DUP7 0xED 0x4F ADDRESS LOG2 0x2C 0xC2 0xC8 0xE0 0x2D DUP15 SWAP1 0xEF PUSH13 0x7C9606CAC2FCE153772C5D64FC PUSH5 0x347CF84764 PUSH20 0x6F6C634300081C00332F8788117E7EFF1D82E926 0xEC PUSH26 0x4901D17C78024A50270940304540A733656F0D1CB987F031316F 0x2E 0xE4 LOG2 ADDMOD DUP14 SWAP14 0xF9 SHL 0xA5 0xFC 0xB0 LOG1 JUMP OR 0x1F 0xCB PC 0xDE 0xDD SWAP13 0xAE DUP10 0xEF 0xD2 CREATE 0xAC CALLER SELFDESTRUCT PUSH22 0xC19E70FE83507DB0D683FD3465C996598DC972688B7A 0xCE PUSH8 0x6C89077BE5EBFA64 0xFC 0xA8 0xD5 MUL 0xA8 0xE5 0xC 0x1E 0xDF REVERT 0x2C BALANCE 0xEF 0x4D 0xAD JUMPDEST CODECOPY PUSH15 0x65D9F397FB028F74ABC50000000000 "
        },
        "methodIdentifiers": {
          "ADMIN_ROLE()": "75b238fc",
          "BRIDGE_ADMIN_ROLE()": "118c38c7",
          "DEFAULT_ADMIN_ROLE()": "a217fddf",
          "batchExpireTrades(bytes32[])": "65d0e404",
          "cancelOrder(bytes32)": "7489ec23",
          "cancelRequest(bytes32)": "50125546",
          "cancelTrade(bytes32)": "7cfb41b8",
          "createOrder(uint256,uint256,uint256,uint256)": "80148f96",
          "createTrade(bytes32,bytes32,address,uint256)": "15ddb393",
          "createTradeRequest(bytes32,address,uint256)": "35b109e6",
          "crossChainExpireSynced(bytes32)": "7b8d8008",
          "estimatePIOAmount(uint256)": "b730083e",
          "estimateUSDTForOrder(bytes32,uint256)": "42f868a6",
          "expireRequest(bytes32)": "dcd11a3f",
          "expireTrade(bytes32)": "b0091f69",
          "feePercent()": "7fd6f15c",
          "feeTo()": "017e7e58",
          "getBuyPIOTrade(bytes32)": "92aeee7e",
          "getCurrentPIOPrice()": "e1a75bfc",
          "getOrder(bytes32)": "5778472a",
          "getOrderTrades(bytes32)": "5f6752c8",
          "getPriceRange()": "f8ca2be7",
          "getRoleAdmin(bytes32)": "248a9ca3",
          "getSellUSDTTrade(bytes32)": "c8408113",
          "getSellerOrders(address)": "e4cbac40",
          "getUserTrades(address)": "927c7742",
          "grantRole(bytes32,address)": "2f2ff15d",
          "hasRole(bytes32,address)": "91d14854",
          "minUsdtForSell()": "764d3d44",
          "pancakePairAddress()": "7b7f549c",
          "pause()": "8456cb59",
          "paused()": "5c975abb",
          "pioTokenAddress()": "a9faa72e",
          "priceTolerancePercent()": "a7dcf3c3",
          "releaseUSDTForBuyer(bytes32)": "63e31f4b",
          "releaseUSDTForSeller(bytes32)": "d2896dd9",
          "renounceRole(bytes32,address)": "36568abe",
          "revokeRole(bytes32,address)": "d547741f",
          "supportsInterface(bytes4)": "01ffc9a7",
          "unpause()": "3f4ba83a",
          "updateFee(uint16)": "2c6cda93",
          "updateFeeTo(address)": "cdec2f23",
          "updateMinUsdtForSell(uint256)": "017e5aae",
          "updateOrderLimits(bytes32,uint256,uint256)": "4d091a42",
          "updateOrderPrice(bytes32,uint256)": "cdd1b603",
          "updatePancakePair(address)": "5f2d95ad",
          "updatePriceTolerance(uint16)": "e24dde39",
          "usdtAddress()": "9ab4a445"
        }
      }
    }
  }
}