{
  "_format": "hh-sol-artifact-1",
  "contractName": "BSCP2PEscrow",
  "sourceName": "contracts/BSCP2PEscrow.sol",
  "abi": [
    {
      "inputs": [
        {
          "internalType": "address",
          "name": "_usdtAddress",
          "type": "address"
        },
        {
          "internalType": "address",
          "name": "_pioTokenAddress",
          "type": "address"
        },
        {
          "internalType": "address",
          "name": "_pancakePairAddress",
          "type": "address"
        },
        {
          "internalType": "address",
          "name": "_feeTo",
          "type": "address"
        }
      ],
      "stateMutability": "nonpayable",
      "type": "constructor"
    },
    {
      "inputs": [],
      "name": "AccessControlBadConfirmation",
      "type": "error"
    },
    {
      "inputs": [
        {
          "internalType": "address",
          "name": "account",
          "type": "address"
        },
        {
          "internalType": "bytes32",
          "name": "neededRole",
          "type": "bytes32"
        }
      ],
      "name": "AccessControlUnauthorizedAccount",
      "type": "error"
    },
    {
      "inputs": [],
      "name": "EnforcedPause",
      "type": "error"
    },
    {
      "inputs": [],
      "name": "ExpectedPause",
      "type": "error"
    },
    {
      "inputs": [],
      "name": "ReentrancyGuardReentrantCall",
      "type": "error"
    },
    {
      "inputs": [
        {
          "internalType": "address",
          "name": "token",
          "type": "address"
        }
      ],
      "name": "SafeERC20FailedOperation",
      "type": "error"
    },
    {
      "anonymous": false,
      "inputs": [
        {
          "indexed": false,
          "internalType": "address",
          "name": "oldAddress",
          "type": "address"
        },
        {
          "indexed": false,
          "internalType": "address",
          "name": "newAddress",
          "type": "address"
        }
      ],
      "name": "FeeToUpdated",
      "type": "event"
    },
    {
      "anonymous": false,
      "inputs": [
        {
          "indexed": false,
          "internalType": "uint256",
          "name": "oldValue",
          "type": "uint256"
        },
        {
          "indexed": false,
          "internalType": "uint256",
          "name": "newValue",
          "type": "uint256"
        }
      ],
      "name": "MinUsdtForSellUpdated",
      "type": "event"
    },
    {
      "anonymous": false,
      "inputs": [
        {
          "indexed": true,
          "internalType": "bytes32",
          "name": "orderId",
          "type": "bytes32"
        }
      ],
      "name": "OrderCancelled",
      "type": "event"
    },
    {
      "anonymous": false,
      "inputs": [
        {
          "indexed": true,
          "internalType": "bytes32",
          "name": "orderId",
          "type": "bytes32"
        },
        {
          "indexed": true,
          "internalType": "address",
          "name": "seller",
          "type": "address"
        },
        {
          "indexed": false,
          "internalType": "uint256",
          "name": "totalUSDT",
          "type": "uint256"
        },
        {
          "indexed": false,
          "internalType": "uint256",
          "name": "minPerTrade",
          "type": "uint256"
        },
        {
          "indexed": false,
          "internalType": "uint256",
          "name": "maxPerTrade",
          "type": "uint256"
        },
        {
          "indexed": false,
          "internalType": "uint256",
          "name": "pricePerPIO",
          "type": "uint256"
        }
      ],
      "name": "OrderCreated",
      "type": "event"
    },
    {
      "anonymous": false,
      "inputs": [
        {
          "indexed": false,
          "internalType": "address",
          "name": "account",
          "type": "address"
        }
      ],
      "name": "Paused",
      "type": "event"
    },
    {
      "anonymous": false,
      "inputs": [
        {
          "indexed": false,
          "internalType": "uint16",
          "name": "oldValue",
          "type": "uint16"
        },
        {
          "indexed": false,
          "internalType": "uint16",
          "name": "newValue",
          "type": "uint16"
        }
      ],
      "name": "PriceToleranceUpdated",
      "type": "event"
    },
    {
      "anonymous": false,
      "inputs": [
        {
          "indexed": true,
          "internalType": "bytes32",
          "name": "tradeId",
          "type": "bytes32"
        }
      ],
      "name": "RequestCancelled",
      "type": "event"
    },
    {
      "anonymous": false,
      "inputs": [
        {
          "indexed": true,
          "internalType": "bytes32",
          "name": "tradeId",
          "type": "bytes32"
        }
      ],
      "name": "RequestExpired",
      "type": "event"
    },
    {
      "anonymous": false,
      "inputs": [
        {
          "indexed": true,
          "internalType": "bytes32",
          "name": "role",
          "type": "bytes32"
        },
        {
          "indexed": true,
          "internalType": "bytes32",
          "name": "previousAdminRole",
          "type": "bytes32"
        },
        {
          "indexed": true,
          "internalType": "bytes32",
          "name": "newAdminRole",
          "type": "bytes32"
        }
      ],
      "name": "RoleAdminChanged",
      "type": "event"
    },
    {
      "anonymous": false,
      "inputs": [
        {
          "indexed": true,
          "internalType": "bytes32",
          "name": "role",
          "type": "bytes32"
        },
        {
          "indexed": true,
          "internalType": "address",
          "name": "account",
          "type": "address"
        },
        {
          "indexed": true,
          "internalType": "address",
          "name": "sender",
          "type": "address"
        }
      ],
      "name": "RoleGranted",
      "type": "event"
    },
    {
      "anonymous": false,
      "inputs": [
        {
          "indexed": true,
          "internalType": "bytes32",
          "name": "role",
          "type": "bytes32"
        },
        {
          "indexed": true,
          "internalType": "address",
          "name": "account",
          "type": "address"
        },
        {
          "indexed": true,
          "internalType": "address",
          "name": "sender",
          "type": "address"
        }
      ],
      "name": "RoleRevoked",
      "type": "event"
    },
    {
      "anonymous": false,
      "inputs": [
        {
          "indexed": true,
          "internalType": "bytes32",
          "name": "tradeId",
          "type": "bytes32"
        }
      ],
      "name": "TradeCancelled",
      "type": "event"
    },
    {
      "anonymous": false,
      "inputs": [
        {
          "indexed": true,
          "internalType": "bytes32",
          "name": "tradeId",
          "type": "bytes32"
        },
        {
          "indexed": true,
          "internalType": "bytes32",
          "name": "orderId",
          "type": "bytes32"
        },
        {
          "indexed": false,
          "internalType": "address",
          "name": "buyer",
          "type": "address"
        },
        {
          "indexed": false,
          "internalType": "uint256",
          "name": "usdtAmount",
          "type": "uint256"
        }
      ],
      "name": "TradeCreated",
      "type": "event"
    },
    {
      "anonymous": false,
      "inputs": [
        {
          "indexed": true,
          "internalType": "bytes32",
          "name": "tradeId",
          "type": "bytes32"
        }
      ],
      "name": "TradeExpired",
      "type": "event"
    },
    {
      "anonymous": false,
      "inputs": [
        {
          "indexed": true,
          "internalType": "bytes32",
          "name": "tradeId",
          "type": "bytes32"
        },
        {
          "indexed": true,
          "internalType": "bytes32",
          "name": "pioneOrderId",
          "type": "bytes32"
        },
        {
          "indexed": false,
          "internalType": "address",
          "name": "buyer",
          "type": "address"
        },
        {
          "indexed": false,
          "internalType": "uint256",
          "name": "usdtAmount",
          "type": "uint256"
        }
      ],
      "name": "TradeRequestCreated",
      "type": "event"
    },
    {
      "anonymous": false,
      "inputs": [
        {
          "indexed": true,
          "internalType": "bytes32",
          "name": "tradeId",
          "type": "bytes32"
        },
        {
          "indexed": false,
          "internalType": "address",
          "name": "buyer",
          "type": "address"
        },
        {
          "indexed": false,
          "internalType": "uint256",
          "name": "amount",
          "type": "uint256"
        }
      ],
      "name": "USDTPaid",
      "type": "event"
    },
    {
      "anonymous": false,
      "inputs": [
        {
          "indexed": true,
          "internalType": "bytes32",
          "name": "tradeId",
          "type": "bytes32"
        },
        {
          "indexed": false,
          "internalType": "address",
          "name": "recipient",
          "type": "address"
        },
        {
          "indexed": false,
          "internalType": "uint256",
          "name": "amount",
          "type": "uint256"
        }
      ],
      "name": "USDTReleased",
      "type": "event"
    },
    {
      "anonymous": false,
      "inputs": [
        {
          "indexed": false,
          "internalType": "address",
          "name": "account",
          "type": "address"
        }
      ],
      "name": "Unpaused",
      "type": "event"
    },
    {
      "inputs": [],
      "name": "ADMIN_ROLE",
      "outputs": [
        {
          "internalType": "bytes32",
          "name": "",
          "type": "bytes32"
        }
      ],
      "stateMutability": "view",
      "type": "function"
    },
    {
      "inputs": [],
      "name": "BRIDGE_ADMIN_ROLE",
      "outputs": [
        {
          "internalType": "bytes32",
          "name": "",
          "type": "bytes32"
        }
      ],
      "stateMutability": "view",
      "type": "function"
    },
    {
      "inputs": [],
      "name": "DEFAULT_ADMIN_ROLE",
      "outputs": [
        {
          "internalType": "bytes32",
          "name": "",
          "type": "bytes32"
        }
      ],
      "stateMutability": "view",
      "type": "function"
    },
    {
      "inputs": [
        {
          "internalType": "bytes32[]",
          "name": "_tradeIds",
          "type": "bytes32[]"
        }
      ],
      "name": "batchExpireTrades",
      "outputs": [],
      "stateMutability": "nonpayable",
      "type": "function"
    },
    {
      "inputs": [
        {
          "internalType": "bytes32",
          "name": "_orderId",
          "type": "bytes32"
        }
      ],
      "name": "cancelOrder",
      "outputs": [],
      "stateMutability": "nonpayable",
      "type": "function"
    },
    {
      "inputs": [
        {
          "internalType": "bytes32",
          "name": "_tradeId",
          "type": "bytes32"
        }
      ],
      "name": "cancelRequest",
      "outputs": [],
      "stateMutability": "nonpayable",
      "type": "function"
    },
    {
      "inputs": [
        {
          "internalType": "bytes32",
          "name": "_tradeId",
          "type": "bytes32"
        }
      ],
      "name": "cancelTrade",
      "outputs": [],
      "stateMutability": "nonpayable",
      "type": "function"
    },
    {
      "inputs": [
        {
          "internalType": "uint256",
          "name": "_usdtAmount",
          "type": "uint256"
        },
        {
          "internalType": "uint256",
          "name": "_minPerTrade",
          "type": "uint256"
        },
        {
          "internalType": "uint256",
          "name": "_maxPerTrade",
          "type": "uint256"
        },
        {
          "internalType": "uint256",
          "name": "_pricePerPIO",
          "type": "uint256"
        }
      ],
      "name": "createOrder",
      "outputs": [
        {
          "internalType": "bytes32",
          "name": "",
          "type": "bytes32"
        }
      ],
      "stateMutability": "nonpayable",
      "type": "function"
    },
    {
      "inputs": [
        {
          "internalType": "bytes32",
          "name": "_pioneTradeId",
          "type": "bytes32"
        },
        {
          "internalType": "bytes32",
          "name": "_orderId",
          "type": "bytes32"
        },
        {
          "internalType": "address",
          "name": "_buyer",
          "type": "address"
        },
        {
          "internalType": "uint256",
          "name": "_usdtAmount",
          "type": "uint256"
        }
      ],
      "name": "createTrade",
      "outputs": [
        {
          "internalType": "bool",
          "name": "",
          "type": "bool"
        }
      ],
      "stateMutability": "nonpayable",
      "type": "function"
    },
    {
      "inputs": [
        {
          "internalType": "bytes32",
          "name": "_pioneOrderId",
          "type": "bytes32"
        },
        {
          "internalType": "address",
          "name": "_seller",
          "type": "address"
        },
        {
          "internalType": "uint256",
          "name": "_usdtAmount",
          "type": "uint256"
        }
      ],
      "name": "createTradeRequest",
      "outputs": [
        {
          "internalType": "bytes32",
          "name": "tradeId",
          "type": "bytes32"
        }
      ],
      "stateMutability": "nonpayable",
      "type": "function"
    },
    {
      "inputs": [
        {
          "internalType": "bytes32",
          "name": "",
          "type": "bytes32"
        }
      ],
      "name": "crossChainExpireSynced",
      "outputs": [
        {
          "internalType": "bool",
          "name": "",
          "type": "bool"
        }
      ],
      "stateMutability": "view",
      "type": "function"
    },
    {
      "inputs": [
        {
          "internalType": "uint256",
          "name": "_usdtAmount",
          "type": "uint256"
        }
      ],
      "name": "estimatePIOAmount",
      "outputs": [
        {
          "internalType": "uint256",
          "name": "",
          "type": "uint256"
        }
      ],
      "stateMutability": "view",
      "type": "function"
    },
    {
      "inputs": [
        {
          "internalType": "bytes32",
          "name": "_orderId",
          "type": "bytes32"
        },
        {
          "internalType": "uint256",
          "name": "_pioAmount",
          "type": "uint256"
        }
      ],
      "name": "estimateUSDTForOrder",
      "outputs": [
        {
          "internalType": "uint256",
          "name": "",
          "type": "uint256"
        }
      ],
      "stateMutability": "view",
      "type": "function"
    },
    {
      "inputs": [
        {
          "internalType": "bytes32",
          "name": "_tradeId",
          "type": "bytes32"
        }
      ],
      "name": "expireRequest",
      "outputs": [],
      "stateMutability": "nonpayable",
      "type": "function"
    },
    {
      "inputs": [
        {
          "internalType": "bytes32",
          "name": "_tradeId",
          "type": "bytes32"
        }
      ],
      "name": "expireTrade",
      "outputs": [],
      "stateMutability": "nonpayable",
      "type": "function"
    },
    {
      "inputs": [],
      "name": "feePercent",
      "outputs": [
        {
          "internalType": "uint16",
          "name": "",
          "type": "uint16"
        }
      ],
      "stateMutability": "view",
      "type": "function"
    },
    {
      "inputs": [],
      "name": "feeTo",
      "outputs": [
        {
          "internalType": "address",
          "name": "",
          "type": "address"
        }
      ],
      "stateMutability": "view",
      "type": "function"
    },
    {
      "inputs": [
        {
          "internalType": "bytes32",
          "name": "_tradeId",
          "type": "bytes32"
        }
      ],
      "name": "getBuyPIOTrade",
      "outputs": [
        {
          "components": [
            {
              "internalType": "bytes32",
              "name": "pioneOrderId",
              "type": "bytes32"
            },
            {
              "internalType": "address",
              "name": "seller",
              "type": "address"
            },
            {
              "internalType": "address",
              "name": "buyer",
              "type": "address"
            },
            {
              "internalType": "uint256",
              "name": "usdtAmount",
              "type": "uint256"
            },
            {
              "internalType": "uint16",
              "name": "feeSnapshot",
              "type": "uint16"
            },
            {
              "internalType": "enum BSCP2PEscrow.TradeStatus",
              "name": "status",
              "type": "uint8"
            }
          ],
          "internalType": "struct BSCP2PEscrow.BuyPIOTrade",
          "name": "",
          "type": "tuple"
        }
      ],
      "stateMutability": "view",
      "type": "function"
    },
    {
      "inputs": [],
      "name": "getCurrentPIOPrice",
      "outputs": [
        {
          "internalType": "uint256",
          "name": "",
          "type": "uint256"
        }
      ],
      "stateMutability": "view",
      "type": "function"
    },
    {
      "inputs": [
        {
          "internalType": "bytes32",
          "name": "_orderId",
          "type": "bytes32"
        }
      ],
      "name": "getOrder",
      "outputs": [
        {
          "components": [
            {
              "internalType": "address",
              "name": "seller",
              "type": "address"
            },
            {
              "internalType": "uint256",
              "name": "totalUSDT",
              "type": "uint256"
            },
            {
              "internalType": "uint256",
              "name": "availableUSDT",
              "type": "uint256"
            },
            {
              "internalType": "uint256",
              "name": "minPerTrade",
              "type": "uint256"
            },
            {
              "internalType": "uint256",
              "name": "maxPerTrade",
              "type": "uint256"
            },
            {
              "internalType": "uint256",
              "name": "pricePerPIO",
              "type": "uint256"
            },
            {
              "internalType": "enum BSCP2PEscrow.OrderStatus",
              "name": "status",
              "type": "uint8"
            }
          ],
          "internalType": "struct BSCP2PEscrow.Order",
          "name": "",
          "type": "tuple"
        }
      ],
      "stateMutability": "view",
      "type": "function"
    },
    {
      "inputs": [
        {
          "internalType": "bytes32",
          "name": "_orderId",
          "type": "bytes32"
        }
      ],
      "name": "getOrderTrades",
      "outputs": [
        {
          "internalType": "bytes32[]",
          "name": "",
          "type": "bytes32[]"
        }
      ],
      "stateMutability": "view",
      "type": "function"
    },
    {
      "inputs": [],
      "name": "getPriceRange",
      "outputs": [
        {
          "internalType": "uint256",
          "name": "minPrice",
          "type": "uint256"
        },
        {
          "internalType": "uint256",
          "name": "maxPrice",
          "type": "uint256"
        },
        {
          "internalType": "uint256",
          "name": "currentPrice",
          "type": "uint256"
        }
      ],
      "stateMutability": "view",
      "type": "function"
    },
    {
      "inputs": [
        {
          "internalType": "bytes32",
          "name": "role",
          "type": "bytes32"
        }
      ],
      "name": "getRoleAdmin",
      "outputs": [
        {
          "internalType": "bytes32",
          "name": "",
          "type": "bytes32"
        }
      ],
      "stateMutability": "view",
      "type": "function"
    },
    {
      "inputs": [
        {
          "internalType": "bytes32",
          "name": "_tradeId",
          "type": "bytes32"
        }
      ],
      "name": "getSellUSDTTrade",
      "outputs": [
        {
          "components": [
            {
              "internalType": "bytes32",
              "name": "orderId",
              "type": "bytes32"
            },
            {
              "internalType": "address",
              "name": "seller",
              "type": "address"
            },
            {
              "internalType": "address",
              "name": "buyer",
              "type": "address"
            },
            {
              "internalType": "uint256",
              "name": "usdtAmount",
              "type": "uint256"
            },
            {
              "internalType": "uint16",
              "name": "feeSnapshot",
              "type": "uint16"
            },
            {
              "internalType": "enum BSCP2PEscrow.TradeStatus",
              "name": "status",
              "type": "uint8"
            }
          ],
          "internalType": "struct BSCP2PEscrow.SellUSDTTrade",
          "name": "",
          "type": "tuple"
        }
      ],
      "stateMutability": "view",
      "type": "function"
    },
    {
      "inputs": [
        {
          "internalType": "address",
          "name": "_seller",
          "type": "address"
        }
      ],
      "name": "getSellerOrders",
      "outputs": [
        {
          "internalType": "bytes32[]",
          "name": "",
          "type": "bytes32[]"
        }
      ],
      "stateMutability": "view",
      "type": "function"
    },
    {
      "inputs": [
        {
          "internalType": "address",
          "name": "_user",
          "type": "address"
        }
      ],
      "name": "getUserTrades",
      "outputs": [
        {
          "internalType": "bytes32[]",
          "name": "",
          "type": "bytes32[]"
        }
      ],
      "stateMutability": "view",
      "type": "function"
    },
    {
      "inputs": [
        {
          "internalType": "bytes32",
          "name": "role",
          "type": "bytes32"
        },
        {
          "internalType": "address",
          "name": "account",
          "type": "address"
        }
      ],
      "name": "grantRole",
      "outputs": [],
      "stateMutability": "nonpayable",
      "type": "function"
    },
    {
      "inputs": [
        {
          "internalType": "bytes32",
          "name": "role",
          "type": "bytes32"
        },
        {
          "internalType": "address",
          "name": "account",
          "type": "address"
        }
      ],
      "name": "hasRole",
      "outputs": [
        {
          "internalType": "bool",
          "name": "",
          "type": "bool"
        }
      ],
      "stateMutability": "view",
      "type": "function"
    },
    {
      "inputs": [],
      "name": "minUsdtForSell",
      "outputs": [
        {
          "internalType": "uint256",
          "name": "",
          "type": "uint256"
        }
      ],
      "stateMutability": "view",
      "type": "function"
    },
    {
      "inputs": [],
      "name": "pancakePairAddress",
      "outputs": [
        {
          "internalType": "address",
          "name": "",
          "type": "address"
        }
      ],
      "stateMutability": "view",
      "type": "function"
    },
    {
      "inputs": [],
      "name": "pause",
      "outputs": [],
      "stateMutability": "nonpayable",
      "type": "function"
    },
    {
      "inputs": [],
      "name": "paused",
      "outputs": [
        {
          "internalType": "bool",
          "name": "",
          "type": "bool"
        }
      ],
      "stateMutability": "view",
      "type": "function"
    },
    {
      "inputs": [],
      "name": "pioTokenAddress",
      "outputs": [
        {
          "internalType": "address",
          "name": "",
          "type": "address"
        }
      ],
      "stateMutability": "view",
      "type": "function"
    },
    {
      "inputs": [],
      "name": "priceTolerancePercent",
      "outputs": [
        {
          "internalType": "uint16",
          "name": "",
          "type": "uint16"
        }
      ],
      "stateMutability": "view",
      "type": "function"
    },
    {
      "inputs": [
        {
          "internalType": "bytes32",
          "name": "_tradeId",
          "type": "bytes32"
        }
      ],
      "name": "releaseUSDTForBuyer",
      "outputs": [],
      "stateMutability": "nonpayable",
      "type": "function"
    },
    {
      "inputs": [
        {
          "internalType": "bytes32",
          "name": "_tradeId",
          "type": "bytes32"
        }
      ],
      "name": "releaseUSDTForSeller",
      "outputs": [],
      "stateMutability": "nonpayable",
      "type": "function"
    },
    {
      "inputs": [
        {
          "internalType": "bytes32",
          "name": "role",
          "type": "bytes32"
        },
        {
          "internalType": "address",
          "name": "callerConfirmation",
          "type": "address"
        }
      ],
      "name": "renounceRole",
      "outputs": [],
      "stateMutability": "nonpayable",
      "type": "function"
    },
    {
      "inputs": [
        {
          "internalType": "bytes32",
          "name": "role",
          "type": "bytes32"
        },
        {
          "internalType": "address",
          "name": "account",
          "type": "address"
        }
      ],
      "name": "revokeRole",
      "outputs": [],
      "stateMutability": "nonpayable",
      "type": "function"
    },
    {
      "inputs": [
        {
          "internalType": "bytes4",
          "name": "interfaceId",
          "type": "bytes4"
        }
      ],
      "name": "supportsInterface",
      "outputs": [
        {
          "internalType": "bool",
          "name": "",
          "type": "bool"
        }
      ],
      "stateMutability": "view",
      "type": "function"
    },
    {
      "inputs": [],
      "name": "unpause",
      "outputs": [],
      "stateMutability": "nonpayable",
      "type": "function"
    },
    {
      "inputs": [
        {
          "internalType": "uint16",
          "name": "_newFee",
          "type": "uint16"
        }
      ],
      "name": "updateFee",
      "outputs": [],
      "stateMutability": "nonpayable",
      "type": "function"
    },
    {
      "inputs": [
        {
          "internalType": "address",
          "name": "_newFeeTo",
          "type": "address"
        }
      ],
      "name": "updateFeeTo",
      "outputs": [],
      "stateMutability": "nonpayable",
      "type": "function"
    },
    {
      "inputs": [
        {
          "internalType": "uint256",
          "name": "_newMin",
          "type": "uint256"
        }
      ],
      "name": "updateMinUsdtForSell",
      "outputs": [],
      "stateMutability": "nonpayable",
      "type": "function"
    },
    {
      "inputs": [
        {
          "internalType": "bytes32",
          "name": "_orderId",
          "type": "bytes32"
        },
        {
          "internalType": "uint256",
          "name": "_newMinPerTrade",
          "type": "uint256"
        },
        {
          "internalType": "uint256",
          "name": "_newMaxPerTrade",
          "type": "uint256"
        }
      ],
      "name": "updateOrderLimits",
      "outputs": [],
      "stateMutability": "nonpayable",
      "type": "function"
    },
    {
      "inputs": [
        {
          "internalType": "bytes32",
          "name": "_orderId",
          "type": "bytes32"
        },
        {
          "internalType": "uint256",
          "name": "_newPricePerPIO",
          "type": "uint256"
        }
      ],
      "name": "updateOrderPrice",
      "outputs": [],
      "stateMutability": "nonpayable",
      "type": "function"
    },
    {
      "inputs": [
        {
          "internalType": "address",
          "name": "_newPair",
          "type": "address"
        }
      ],
      "name": "updatePancakePair",
      "outputs": [],
      "stateMutability": "nonpayable",
      "type": "function"
    },
    {
      "inputs": [
        {
          "internalType": "uint16",
          "name": "_newTolerance",
          "type": "uint16"
        }
      ],
      "name": "updatePriceTolerance",
      "outputs": [],
      "stateMutability": "nonpayable",
      "type": "function"
    },
    {
      "inputs": [],
      "name": "usdtAddress",
      "outputs": [
        {
          "internalType": "address",
          "name": "",
          "type": "address"
        }
      ],
      "stateMutability": "view",
      "type": "function"
    }
  ],
  "bytecode": "0x6080346101c557601f612caa38819003918201601f19168301916001600160401b038311848410176101ca578084926080946040528339810103126101c557610047816101e0565b90610054602082016101e0565b61006c6060610065604085016101e0565b93016101e0565b60016000556006549390926001600160a01b03909116918215610191576001600160a01b031690811561015e576001600160a01b031691821561012a57600380546001600160a01b031990811692909217905560048054821692909217909155600580549091169190911790556001600160c01b03199091166001600160a01b03919091161762fa001960a21b17600655610106336101f4565b5061011033610270565b5061011a33610308565b5060405161288990816103a18239f35b60405162461bcd60e51b815260206004820152600c60248201526b24b73b30b634b2103830b4b960a11b6044820152606490fd5b60405162461bcd60e51b815260206004820152600b60248201526a496e76616c69642050494f60a81b6044820152606490fd5b60405162461bcd60e51b815260206004820152600c60248201526b125b9d985b1a59081554d11560a21b6044820152606490fd5b600080fd5b634e487b7160e01b600052604160045260246000fd5b51906001600160a01b03821682036101c557565b6001600160a01b0381166000908152600080516020612c6a833981519152602052604090205460ff1661026a576001600160a01b03166000818152600080516020612c6a83398151915260205260408120805460ff19166001179055339190600080516020612c2a8339815191528180a4600190565b50600090565b6001600160a01b0381166000908152600080516020612c8a833981519152602052604090205460ff1661026a576001600160a01b03166000818152600080516020612c8a83398151915260205260408120805460ff191660011790553391907fa49807205ce4d355092ef5a8a18f56e8913cf4a201fbe287825b095693c2177590600080516020612c2a8339815191529080a4600190565b6001600160a01b0381166000908152600080516020612c4a833981519152602052604090205460ff1661026a576001600160a01b03166000818152600080516020612c4a83398151915260205260408120805460ff191660011790553391907f751b795d24b92e3d92d1d0d8f2885f4e9c9c269da350af36ae6b49069babf4bf90600080516020612c2a8339815191529080a460019056fe6080604052600436101561001257600080fd5b60003560e01c8063017e5aae14611d5a578063017e7e5814611d3157806301ffc9a714611cdb578063118c38c714611ca057806315ddb39314611ab6578063248a9ca314611a895780632c6cda9314611a035780632f2ff15d146119c357806335b109e6146117ee57806336568abe146117a85780633f4ba83a1461173f57806342f868a6146116ef5780634d091a421461161b578063501255461461156f5780635778472a146114645780635c975abb146114415780635f2d95ad146113c05780635f6752c81461135757806363e31f4b146111f257806365d0e404146110cb5780637489ec2314610ec657806375b238fc14610e8b578063764d3d4414610e6d5780637b7f549c14610e445780637b8d800814610e135780637cfb41b814610d3f5780637fd6f15c14610d1a57806380148f9614610b0a5780638456cb5914610ab157806391d1485414610a64578063927c7742146109ed57806392aeee7e146109b95780639ab4a44514610990578063a217fddf14610974578063a7dcf3c31461094f578063a9faa72e14610926578063b0091f6914610840578063b730083e146107e0578063c84081131461079d578063cdd1b603146106cf578063cdec2f231461065e578063d2896dd9146104f0578063d547741f146104a9578063dcd11a3f146103bf578063e1a75bfc1461039c578063e24dde3914610320578063e4cbac40146102995763f8ca2be71461022c57600080fd5b34610294576000366003190112610294576060610247612376565b61ffff60065460b01c169061271061028161ffff61027a836102738361026c8961226a565b168761213c565b049561227e565b168361213c565b0460405192835260208301526040820152f35b600080fd5b34610294576020366003190112610294576001600160a01b036102ba611dc4565b16600052600d602052604060002060405190816020825491828152019160005260206000209060005b81811061030a57610306856102fa81870382611fee565b60405191829182611e10565b0390f35b82548452602090930192600192830192016102e3565b346102945760203660031901126102945760043561ffff8116808203610294577f61ffe63469fb8786675a96532a0fed8083715a6329d830492078cedd3bd9c0d69160409161036d61254e565b6006805461ffff60b01b19811660b094851b61ffff60b01b16179091558351921c61ffff1682526020820152a1005b346102945760003660031901126102945760206103b7612376565b604051908152f35b34610294576020366003190112610294576004356103db6126a9565b33600090815260008051602061283483398151915260205260409020546104049060ff16611e9c565b80600052600b60205260406000206104576004820191610436600160ff855460101c1661043081611df0565b14612220565b6003805460028301549290910154916001600160a01b03908116911661279c565b805462ff00001916620300001790556000818152601060205260408120805460ff191660011790557e63c7a53686b11e863c5f827c066bfbe9430ca95b1949d61445ce106261aca29080a26001600055005b34610294576040366003190112610294576104ee6004356104c8611dae565b906104e96104e482600052600260205260016040600020015490565b6125c0565b612716565b005b346102945760203660031901126102945733600090815260008051602061283483398151915260205260409020546004359061052e9060ff16611e9c565b6105366126a9565b80600052600b6020527fd61e48d1b98bb8a0619b412553ca708bd20adc84aadea59cda5df4b36efb5c1060406000206004810190815491610582600160ff8560101c1661043081611df0565b6000600383019361ffff855491168015158061064a575b610626575b5060035460018501546105be92916001600160a01b03918216911661279c565b80610603575b50805462ff0000191662020000179055600201549054604080516001600160a01b039390931683526020830191909152819081015b0390a26001600055005b60035460065461062092916001600160a01b03918216911661279c565b856105c4565b81925061271061063c610644926105be9461213c565b048093611f93565b9061059e565b506006546001600160a01b03161515610599565b34610294576020366003190112610294577f8f93286d6f131e956d1aa672d3ecdc817f24efc20b223b0de5d591f454edc347604061069a611dc4565b6106a261254e565b600680546001600160a01b039283166001600160a01b0319821681179092558351921682526020820152a1005b34610294576106dd36611dda565b9080600052600a6020526106ff60018060a01b036040600020541615156120f9565b600052600a6020526005604060002061072260018060a01b03825416331461216f565b61073e600160ff60068401541661073881611df0565b14611edc565b61078e610749612376565b61271061077c61ffff60065460b01c169261ffff610775846102738361076e8961226a565b168561213c565b169061213c565b04908510159081610792575b50612292565b0155005b905084111585610788565b34610294576020366003190112610294576107b66122d3565b50600435600052600c60205260c06107d16040600020612304565b6107de6040518092611e4a565bf35b34610294576020366003190112610294576004356107fc612376565b90670de0b6b3a7640000810290808204670de0b6b3a7640000149015171561082a576020916103b79161214f565b634e487b7160e01b600052601160045260246000fd5b346102945760203660031901126102945760043561085c6126a9565b33600090815260008051602061283483398151915260205260409020546108859060ff16611e9c565b80600052600c602052604060002060048101906108ae600160ff845460101c1661043081611df0565b8054600052600a6020526108d1600260036040600020930154920191825461225d565b9055805462ff00001916620300001790556000818152601060205260408120805460ff191660011790557f974ec1b137d0b76fd7cdab57c57bac61d82c6038046beccecdd622610b4d79d69080a26001600055005b34610294576000366003190112610294576004546040516001600160a01b039091168152602090f35b3461029457600036600319011261029457602061ffff60065460b01c16604051908152f35b3461029457600036600319011261029457602060405160008152f35b34610294576000366003190112610294576003546040516001600160a01b039091168152602090f35b34610294576020366003190112610294576109d26122d3565b50600435600052600b60205260c06107d16040600020612304565b34610294576020366003190112610294576001600160a01b03610a0e611dc4565b16600052600e602052604060002060405190816020825491828152019160005260206000209060005b818110610a4e57610306856102fa81870382611fee565b8254845260209093019260019283019201610a37565b3461029457604036600319011261029457610a7d611dae565b600435600052600260205260406000209060018060a01b0316600052602052602060ff604060002054166040519015158152f35b3461029457600036600319011261029457610aca61254e565b610ad261268c565b600160ff19815416176001557f62e78cea01bee320cd4e420270b5ea74000d11b0c9f74754ebdbfc544b05a2586020604051338152a1005b34610294576080366003190112610294576020602435600435606435604435610b3161268c565b610b396126a9565b610b47600754841015611f1b565b83811180610d10575b610b59906121a8565b610b9a610b64612376565b612710610b8961ffff60065460b01c169261ffff610775846102738361076e8961226a565b04908410159081610d055750612292565b600854610ba6816120ea565b600855604051868101913360601b8352856034830152605482015242607482015260748152610bd6609482611fee565b51902093610bf28460018060a01b0360035416309033906126cb565b604051610bfe81611fd2565b3381526006878201918683526040810187815260608201858152608083019087825260a084019289845260c0850196600188528c600052600a8e5260406000209560018060a01b039060018060a01b03905116166bffffffffffffffffffffffff60a01b875416178655516001860155516002850155516003840155516004830155516005820155019051610c9281611df0565b610c9b81611df0565b60ff8019835416911617905533600052600d8652610cbd8560406000206120a6565b6040519384528584015260408301526060820152817f6bcbd6ab6d795a7e990431a97ea8f8808e81b8580fb9d6d581e5fcbb16e3d12760803393a36001600055604051908152f35b905083111587610788565b5082811115610b50565b3461029457600036600319011261029457602061ffff60065460a01c16604051908152f35b3461029457602036600319011261029457600435610d5b6126a9565b3360009081526000805160206128348339815191526020526040902054610d849060ff16611e9c565b80600052600c60205260406000206004810190610db3600160ff845460101c16610dad81611df0565b146121e4565b8054600052600a602052610dd6600260036040600020930154920191825461225d565b9055805462ff00001916620400001790557f4e09303ea9c3932854b42432aa9f65348205f9681747864bf122101b35371503600080a26001600055005b34610294576020366003190112610294576004356000526010602052602060ff604060002054166040519015158152f35b34610294576000366003190112610294576005546040516001600160a01b039091168152602090f35b34610294576000366003190112610294576020600754604051908152f35b346102945760003660031901126102945760206040517fa49807205ce4d355092ef5a8a18f56e8913cf4a201fbe287825b095693c217758152f35b3461029457602036600319011261029457600435610ee26126a9565b80600052600a60205260406000209060018060a01b038254169081331480156110a5575b610f0f9061216f565b60068301918254610f28600160ff8316610dad81611df0565b82600052600f6020526040600020936040518086602082985493848152019060005260206000209260005b81811061108c575050610f6892500386611fee565b60005b855181101561102657600060208260051b880101518152600c60205260ff600460408320015460101c16610f9e81611df0565b60028114918215611011575b8215610ffb575b505015610fc057600101610f6b565b60405162461bcd60e51b8152602060048201526013602482015272151c985919481b9bdd08199a5b985b1a5e9959606a1b6044820152606490fd5b600492505061100981611df0565b148880610fb1565b915061101c81611df0565b6003811491610faa565b506000906002870190600382549460ff1916179055558061106f575b827f5152abf959f6564662358c2e52b702259b78bac5ee7842a0f01937e670efcc7d600080a26001600055005b60035461108592906001600160a01b031661279c565b8180611042565b845483526001948501948a945060209093019201610f53565b50336000908152600080516020612834833981519152602052604090205460ff16610f06565b346102945760203660031901126102945760043567ffffffffffffffff8111610294573660238201121561029457806004013567ffffffffffffffff8111610294573660248260051b840101116102945733600090815260008051602061283483398151915260205260409020546111459060ff16611e9c565b60005b818110156104ee57600190600060248260051b8601013590818152600c6020526040812090600482018560ff825460101c1661118381611df0565b14611193575b5050505001611148565b827f974ec1b137d0b76fd7cdab57c57bac61d82c6038046beccecdd622610b4d79d693548352600a6020526111d66002600360408620930154920191825461225d565b9055805462ff000019166203000017905580a284808080611189565b34610294576020366003190112610294573360009081526000805160206128348339815191526020526040902054600435906112309060ff16611e9c565b6112386126a9565b80600052600c6020527f3b3deea4ef69c5f108641489e2d205b77eb559f74e51e038b7df69bb76d9590660406000206004810190815491611284600160ff8560101c1661043081611df0565b600061ffff6003840154941680151580611343575b611322575b50600354600293909301805490936112c49186916001600160a01b03918216911661279c565b806112ff575b50805462ff000019166202000017905554604080516001600160a01b03929092168252602082019290925290819081016105f9565b60035460065461131c92916001600160a01b03918216911661279c565b856112ca565b61133c9150611334612710918661213c565b048094611f93565b928661129e565b506006546001600160a01b03161515611299565b3461029457602036600319011261029457600435600052600f602052604060002060405190816020825491828152019160005260206000209060005b8181106113aa57610306856102fa81870382611fee565b8254845260209093019260019283019201611393565b34610294576020366003190112610294576113d9611dc4565b6113e161254e565b6001600160a01b0316801561140d576bffffffffffffffffffffffff60a01b6005541617600555600080f35b60405162461bcd60e51b815260206004820152600c60248201526b24b73b30b634b2103830b4b960a11b6044820152606490fd5b3461029457600036600319011261029457602060ff600154166040519015158152f35b3461029457602036600319011261029457600060c060405161148581611fd2565b8281528260208201528260408201528260608201528260808201528260a08201520152600435600052600a60205260e06040600020604051906114c782611fd2565b80546001600160a01b03168252600181015460208301908152600282015460408401908152600383015460608501908152600484015460808601908152600585015460a0870190815260069095015460c0870195949193919060ff1661152c81611df0565b86526040805197516001600160a01b03168852905160208801529051908601525160608501525160808401525160a08301525161156881611df0565b60c0820152f35b346102945760203660031901126102945760043561158b6126a9565b33600090815260008051602061283483398151915260205260409020546115b49060ff16611e9c565b80600052600b60205260406000206115e06004820191610436600160ff855460101c16610dad81611df0565b805462ff00001916620400001790557ff903f4774c7bd27355f9d7fcbc382b079b164a697a44ac5d95267a4c3cb3bb22600080a26001600055005b34610294576060366003190112610294576004356000818152600a6020526040902054604435916024359161165a906001600160a01b031615156120f9565b600052600a602052604060002061167b60018060a01b03825416331461216f565b611691600160ff60068401541661073881611df0565b61169c8284116121a8565b600181015483116116b65760049160038201550155600080f35b60405162461bcd60e51b815260206004820152601160248201527013585e08195e18d959591cc81d1bdd185b607a1b6044820152606490fd5b34610294576020670de0b6b3a764000061173661170b36611dda565b90600052600a84526005604060002061172e60018060a01b0382541615156120f9565b01549061213c565b04604051908152f35b346102945760003660031901126102945761175861254e565b60015460ff8116156117975760ff19166001557f5db9ee0a495bf2e6ff9c91a7834c1ba4fdd244a5e8aa4e537bd38aeae4b073aa6020604051338152a1005b638dfc202b60e01b60005260046000fd5b34610294576040366003190112610294576117c1611dae565b336001600160a01b038216036117dd576104ee90600435612716565b63334bd91960e11b60005260046000fd5b346102945760603660031901126102945760043561180a611dae565b6044359061181661268c565b61181e6126a9565b6001600160a01b031691821561198d576020927f40948e3e47ac26599994072f13321706ac61efad4125c7c7a933d48d1d60e72f61197284611864611944961515611f1b565b600954611870816120ea565b600955604051888101918783523360601b60408301528360548301526074820152426094820152609481526118a660b482611fee565b51902095869485600052600b89526118ce60018060a01b036001604060002001541615611f58565b6003546118e9908490309033906001600160a01b03166126cb565b6006546001600160a01b038116156119825761ffff809160a01c165b6040519261191284611fa0565b8984528b840152336040840152846060840152166080820152600160a082015285600052600b89526040600020612010565b33600052600e875261195a8460406000206120a6565b60408051338152602081019290925290918291820190565b0390a36001600055604051908152f35b5061ffff6000611905565b60405162461bcd60e51b815260206004820152600e60248201526d24b73b30b634b21039b2b63632b960911b6044820152606490fd5b34610294576040366003190112610294576104ee6004356119e2611dae565b906119fe6104e482600052600260205260016040600020015490565b6125fd565b346102945760203660031901126102945760043561ffff8116808203610294576103e890611a2f61254e565b11611a55576006805461ffff60a01b191660a09290921b61ffff60a01b16919091179055005b60405162461bcd60e51b815260206004820152600c60248201526b08ccaca40e8dede40d0d2ced60a31b6044820152606490fd5b346102945760203660031901126102945760206103b7600435600052600260205260016040600020015490565b34610294576080366003190112610294576024356004356044356001600160a01b038116908181036102945733600090815260008051602061283483398151915260205260409020546064359190611b109060ff16611e9c565b84600052600a602052604060002092611b35600160ff60068701541661073881611df0565b60028401908154808511611c675785611c1393611bb28761ffff9460037f7450e1364879cff4a1f1f2aa6c91de7ba540801fe2abb06fc6a5a8d3b8f670a49b015482101580611c59575b611b8890611f1b565b60008c8152600c6020526040902060010154611bad906001600160a01b031615611f58565b611f93565b9055546006546001600160a01b039182169391811615611c505760a01c8216905b60405193611be085611fa0565b8a855260208501526040840152856060840152166080820152600160a082015285600052600c6020526040600020612010565b84600052600f602052611c2a8460406000206120a6565b604080516001600160a01b039290921682526020820192909252a3602060405160018152f35b50600090611bd3565b506004850154821115611b7f565b60405162461bcd60e51b8152602060048201526011602482015270125b9cdd59999a58da595b9d081554d115607a1b6044820152606490fd5b346102945760003660031901126102945760206040517f751b795d24b92e3d92d1d0d8f2885f4e9c9c269da350af36ae6b49069babf4bf8152f35b346102945760203660031901126102945760043563ffffffff60e01b811680910361029457602090637965db0b60e01b8114908115611d20575b506040519015158152f35b6301ffc9a760e01b14905082611d15565b34610294576000366003190112610294576006546040516001600160a01b039091168152602090f35b34610294576020366003190112610294577fd697357021bb5c8f09a6c16004ed15487b82d773b5a8c20ff3a7cbf87a95bc636040600435611d9961254e565b600754908060075582519182526020820152a1005b602435906001600160a01b038216820361029457565b600435906001600160a01b038216820361029457565b6040906003190112610294576004359060243590565b60051115611dfa57565b634e487b7160e01b600052602160045260246000fd5b602060408183019282815284518094520192019060005b818110611e345750505090565b8251845260209384019390920191600101611e27565b60a0809180518452600180831b036020820151166020850152600180831b0360408201511660408501526060810151606085015261ffff6080820151166080850152015191611e9883611df0565b0152565b15611ea357565b60405162461bcd60e51b815260206004820152601160248201527027b7363c90313934b233b29030b236b4b760791b6044820152606490fd5b15611ee357565b60405162461bcd60e51b815260206004820152601060248201526f4f72646572206e6f742061637469766560801b6044820152606490fd5b15611f2257565b60405162461bcd60e51b815260206004820152600e60248201526d125b9d985b1a5908185b5bdd5b9d60921b6044820152606490fd5b15611f5f57565b60405162461bcd60e51b815260206004820152600c60248201526b54726164652065786973747360a01b6044820152606490fd5b9190820391821161082a57565b60c0810190811067ffffffffffffffff821117611fbc57604052565b634e487b7160e01b600052604160045260246000fd5b60e0810190811067ffffffffffffffff821117611fbc57604052565b90601f8019910116810190811067ffffffffffffffff821117611fbc57604052565b8151815560208201516001820180546001600160a01b039283166001600160a01b03199182161790915560408401516002840180549190931691161790556060820151600382015560808201516004909101805461ffff90921661ffff1990921691909117815560a09091015161208681611df0565b61208f81611df0565b62ff000082549160101b169062ff00001916179055565b80549068010000000000000000821015611fbc57600182018082558210156120d45760005260206000200155565b634e487b7160e01b600052603260045260246000fd5b600019811461082a5760010190565b1561210057565b60405162461bcd60e51b815260206004820152601460248201527313dc99195c88191bd95cc81b9bdd08195e1a5cdd60621b6044820152606490fd5b8181029291811591840414171561082a57565b8115612159570490565b634e487b7160e01b600052601260045260246000fd5b1561217657565b60405162461bcd60e51b815260206004820152600a6024820152692737ba1039b2b63632b960b11b6044820152606490fd5b156121af57565b60405162461bcd60e51b815260206004820152600d60248201526c496e76616c69642072616e676560981b6044820152606490fd5b156121eb57565b60405162461bcd60e51b815260206004820152600d60248201526c10d85b9b9bdd0818d85b98d95b609a1b6044820152606490fd5b1561222757565b60405162461bcd60e51b815260206004820152600e60248201526d496e76616c69642073746174757360901b6044820152606490fd5b9190820180921161082a57565b61ffff16612710039061ffff821161082a57565b61ffff16612710019061ffff821161082a57565b1561229957565b60405162461bcd60e51b81526020600482015260126024820152715072696365206f7574206f662072616e676560701b6044820152606490fd5b604051906122e082611fa0565b600060a0838281528260208201528260408201528260608201528260808201520152565b9060405161231181611fa0565b8254815260018301546001600160a01b0390811660208301526002840154166040820152600383015460608201526004929092015461ffff8116608084015260101c60ff1660a083611e9883611df0565b51906001600160701b038216820361029457565b600554604051630240bc6b60e21b81526001600160a01b0390911690606081600481855afa91821561249b5760009182936124f1575b506001600160701b0382161515806124df575b156124a757602060049160405192838092630dfe168160e01b82525afa90811561249b57600091612452575b506004546001600160a01b03918216911603612444576001600160701b0390915b16670de0b6b3a7640000810290808204670de0b6b3a7640000149015171561082a576001600160701b0361244192169061214f565b90565b6001600160701b039061240c565b6020813d602011612493575b8161246b60209383611fee565b8101031261248f5751906001600160a01b038216820361248c5750386123eb565b80fd5b5080fd5b3d915061245e565b6040513d6000823e3d90fd5b60405162461bcd60e51b815260206004820152601060248201526f496e76616c696420726573657276657360801b6044820152606490fd5b506001600160701b03831615156123bf565b919092506060823d606011612546575b8161250e60609383611fee565b8101031261248c5761251f82612362565b90604061252e60208501612362565b93015163ffffffff81160361248c57509091386123ac565b3d9150612501565b3360009081527fe5ebfa64fca8d502a8e50c1edffd2c31ef4dad5b396e65d9f397fb028f74abc5602052604090205460ff161561258757565b63e2517d3f60e01b600052336004527fa49807205ce4d355092ef5a8a18f56e8913cf4a201fbe287825b095693c2177560245260446000fd5b600081815260026020908152604080832033845290915290205460ff16156125e55750565b63e2517d3f60e01b6000523360045260245260446000fd5b60008181526002602090815260408083206001600160a01b038616845290915290205460ff166126855760008181526002602090815260408083206001600160a01b0395909516808452949091528120805460ff19166001179055339291907f2f8788117e7eff1d82e926ec794901d17c78024a50270940304540a733656f0d9080a4600190565b5050600090565b60ff6001541661269857565b63d93c066560e01b60005260046000fd5b6002600054146126ba576002600055565b633ee5aeb560e01b60005260046000fd5b6040516323b872dd60e01b60208201526001600160a01b0392831660248201529290911660448301526064808301939093529181526127149161270f608483611fee565b6127d8565b565b60008181526002602090815260408083206001600160a01b038616845290915290205460ff16156126855760008181526002602090815260408083206001600160a01b0395909516808452949091528120805460ff19169055339291907ff6391f5c32d9c69d2a47ea670b442974b53935d1edc7fd64eb21e047a839171b9080a4600190565b60405163a9059cbb60e01b60208201526001600160a01b039290921660248301526044808301939093529181526127149161270f606483611fee565b906000602091828151910182855af11561249b576000513d61282a57506001600160a01b0381163b155b6128095750565b635274afe760e01b60009081526001600160a01b0391909116600452602490fd5b6001141561280256fe1cb987f031316f2ee4a2088d9df91ba5fcb0a156171fcb58dedd9cae89efd2f0a264697066735822122086ed4f30a22cc2c8e02d8e90ef6c7c9606cac2fce153772c5d64fc64347cf84764736f6c634300081c00332f8788117e7eff1d82e926ec794901d17c78024a50270940304540a733656f0d1cb987f031316f2ee4a2088d9df91ba5fcb0a156171fcb58dedd9cae89efd2f0ac33ff75c19e70fe83507db0d683fd3465c996598dc972688b7ace676c89077be5ebfa64fca8d502a8e50c1edffd2c31ef4dad5b396e65d9f397fb028f74abc5",
  "linkReferences": {},
  "deployedLinkReferences": {}
}