{
  "_format": "hh-sol-artifact-1",
  "contractName": "PioneP2PEscrow",
  "sourceName": "contracts/PioneP2PEscrow.sol",
  "abi": [
    {
      "inputs": [
        {
          "internalType": "address",
          "name": "_priceOracle",
          "type": "address"
        },
        {
          "internalType": "address",
          "name": "_feeTo",
          "type": "address"
        }
      ],
      "stateMutability": "nonpayable",
      "type": "constructor"
    },
    {
      "inputs": [],
      "name": "AccessControlBadConfirmation",
      "type": "error"
    },
    {
      "inputs": [
        {
          "internalType": "address",
          "name": "account",
          "type": "address"
        },
        {
          "internalType": "bytes32",
          "name": "neededRole",
          "type": "bytes32"
        }
      ],
      "name": "AccessControlUnauthorizedAccount",
      "type": "error"
    },
    {
      "inputs": [],
      "name": "EnforcedPause",
      "type": "error"
    },
    {
      "inputs": [],
      "name": "ExpectedPause",
      "type": "error"
    },
    {
      "inputs": [],
      "name": "ReentrancyGuardReentrantCall",
      "type": "error"
    },
    {
      "anonymous": false,
      "inputs": [
        {
          "indexed": false,
          "internalType": "address",
          "name": "oldAddress",
          "type": "address"
        },
        {
          "indexed": false,
          "internalType": "address",
          "name": "newAddress",
          "type": "address"
        }
      ],
      "name": "FeeToUpdated",
      "type": "event"
    },
    {
      "anonymous": false,
      "inputs": [
        {
          "indexed": false,
          "internalType": "uint256",
          "name": "oldValue",
          "type": "uint256"
        },
        {
          "indexed": false,
          "internalType": "uint256",
          "name": "newValue",
          "type": "uint256"
        }
      ],
      "name": "MinPioForSellUpdated",
      "type": "event"
    },
    {
      "anonymous": false,
      "inputs": [
        {
          "indexed": true,
          "internalType": "bytes32",
          "name": "orderId",
          "type": "bytes32"
        }
      ],
      "name": "OrderCancelled",
      "type": "event"
    },
    {
      "anonymous": false,
      "inputs": [
        {
          "indexed": true,
          "internalType": "bytes32",
          "name": "orderId",
          "type": "bytes32"
        },
        {
          "indexed": true,
          "internalType": "address",
          "name": "seller",
          "type": "address"
        },
        {
          "indexed": false,
          "internalType": "uint256",
          "name": "totalPIO",
          "type": "uint256"
        },
        {
          "indexed": false,
          "internalType": "uint256",
          "name": "minPerTrade",
          "type": "uint256"
        },
        {
          "indexed": false,
          "internalType": "uint256",
          "name": "maxPerTrade",
          "type": "uint256"
        },
        {
          "indexed": false,
          "internalType": "uint256",
          "name": "pricePerPIO",
          "type": "uint256"
        }
      ],
      "name": "OrderCreated",
      "type": "event"
    },
    {
      "anonymous": false,
      "inputs": [
        {
          "indexed": true,
          "internalType": "bytes32",
          "name": "tradeId",
          "type": "bytes32"
        },
        {
          "indexed": false,
          "internalType": "address",
          "name": "recipient",
          "type": "address"
        },
        {
          "indexed": false,
          "internalType": "uint256",
          "name": "amount",
          "type": "uint256"
        }
      ],
      "name": "PIOReleased",
      "type": "event"
    },
    {
      "anonymous": false,
      "inputs": [
        {
          "indexed": false,
          "internalType": "address",
          "name": "account",
          "type": "address"
        }
      ],
      "name": "Paused",
      "type": "event"
    },
    {
      "anonymous": false,
      "inputs": [
        {
          "indexed": false,
          "internalType": "uint16",
          "name": "oldValue",
          "type": "uint16"
        },
        {
          "indexed": false,
          "internalType": "uint16",
          "name": "newValue",
          "type": "uint16"
        }
      ],
      "name": "PriceToleranceUpdated",
      "type": "event"
    },
    {
      "anonymous": false,
      "inputs": [
        {
          "indexed": true,
          "internalType": "bytes32",
          "name": "tradeId",
          "type": "bytes32"
        }
      ],
      "name": "RequestCancelled",
      "type": "event"
    },
    {
      "anonymous": false,
      "inputs": [
        {
          "indexed": true,
          "internalType": "bytes32",
          "name": "tradeId",
          "type": "bytes32"
        }
      ],
      "name": "RequestExpired",
      "type": "event"
    },
    {
      "anonymous": false,
      "inputs": [
        {
          "indexed": true,
          "internalType": "bytes32",
          "name": "role",
          "type": "bytes32"
        },
        {
          "indexed": true,
          "internalType": "bytes32",
          "name": "previousAdminRole",
          "type": "bytes32"
        },
        {
          "indexed": true,
          "internalType": "bytes32",
          "name": "newAdminRole",
          "type": "bytes32"
        }
      ],
      "name": "RoleAdminChanged",
      "type": "event"
    },
    {
      "anonymous": false,
      "inputs": [
        {
          "indexed": true,
          "internalType": "bytes32",
          "name": "role",
          "type": "bytes32"
        },
        {
          "indexed": true,
          "internalType": "address",
          "name": "account",
          "type": "address"
        },
        {
          "indexed": true,
          "internalType": "address",
          "name": "sender",
          "type": "address"
        }
      ],
      "name": "RoleGranted",
      "type": "event"
    },
    {
      "anonymous": false,
      "inputs": [
        {
          "indexed": true,
          "internalType": "bytes32",
          "name": "role",
          "type": "bytes32"
        },
        {
          "indexed": true,
          "internalType": "address",
          "name": "account",
          "type": "address"
        },
        {
          "indexed": true,
          "internalType": "address",
          "name": "sender",
          "type": "address"
        }
      ],
      "name": "RoleRevoked",
      "type": "event"
    },
    {
      "anonymous": false,
      "inputs": [
        {
          "indexed": true,
          "internalType": "bytes32",
          "name": "tradeId",
          "type": "bytes32"
        }
      ],
      "name": "TradeCancelled",
      "type": "event"
    },
    {
      "anonymous": false,
      "inputs": [
        {
          "indexed": true,
          "internalType": "bytes32",
          "name": "tradeId",
          "type": "bytes32"
        },
        {
          "indexed": true,
          "internalType": "bytes32",
          "name": "orderId",
          "type": "bytes32"
        },
        {
          "indexed": false,
          "internalType": "address",
          "name": "buyer",
          "type": "address"
        },
        {
          "indexed": false,
          "internalType": "uint256",
          "name": "usdtAmount",
          "type": "uint256"
        }
      ],
      "name": "TradeCreated",
      "type": "event"
    },
    {
      "anonymous": false,
      "inputs": [
        {
          "indexed": true,
          "internalType": "bytes32",
          "name": "tradeId",
          "type": "bytes32"
        }
      ],
      "name": "TradeExpired",
      "type": "event"
    },
    {
      "anonymous": false,
      "inputs": [
        {
          "indexed": true,
          "internalType": "bytes32",
          "name": "tradeId",
          "type": "bytes32"
        },
        {
          "indexed": true,
          "internalType": "bytes32",
          "name": "bscOrderId",
          "type": "bytes32"
        },
        {
          "indexed": false,
          "internalType": "address",
          "name": "buyer",
          "type": "address"
        },
        {
          "indexed": false,
          "internalType": "uint256",
          "name": "pioAmount",
          "type": "uint256"
        }
      ],
      "name": "TradeRequestCreated",
      "type": "event"
    },
    {
      "anonymous": false,
      "inputs": [
        {
          "indexed": false,
          "internalType": "address",
          "name": "account",
          "type": "address"
        }
      ],
      "name": "Unpaused",
      "type": "event"
    },
    {
      "inputs": [],
      "name": "ADMIN_ROLE",
      "outputs": [
        {
          "internalType": "bytes32",
          "name": "",
          "type": "bytes32"
        }
      ],
      "stateMutability": "view",
      "type": "function"
    },
    {
      "inputs": [],
      "name": "BRIDGE_ADMIN_ROLE",
      "outputs": [
        {
          "internalType": "bytes32",
          "name": "",
          "type": "bytes32"
        }
      ],
      "stateMutability": "view",
      "type": "function"
    },
    {
      "inputs": [],
      "name": "DEFAULT_ADMIN_ROLE",
      "outputs": [
        {
          "internalType": "bytes32",
          "name": "",
          "type": "bytes32"
        }
      ],
      "stateMutability": "view",
      "type": "function"
    },
    {
      "inputs": [
        {
          "internalType": "bytes32[]",
          "name": "_tradeIds",
          "type": "bytes32[]"
        }
      ],
      "name": "batchExpireTrades",
      "outputs": [],
      "stateMutability": "nonpayable",
      "type": "function"
    },
    {
      "inputs": [
        {
          "internalType": "bytes32",
          "name": "_orderId",
          "type": "bytes32"
        }
      ],
      "name": "cancelOrder",
      "outputs": [],
      "stateMutability": "nonpayable",
      "type": "function"
    },
    {
      "inputs": [
        {
          "internalType": "bytes32",
          "name": "_tradeId",
          "type": "bytes32"
        }
      ],
      "name": "cancelRequest",
      "outputs": [],
      "stateMutability": "nonpayable",
      "type": "function"
    },
    {
      "inputs": [
        {
          "internalType": "bytes32",
          "name": "_tradeId",
          "type": "bytes32"
        }
      ],
      "name": "cancelTrade",
      "outputs": [],
      "stateMutability": "nonpayable",
      "type": "function"
    },
    {
      "inputs": [
        {
          "internalType": "uint256",
          "name": "_minPerTrade",
          "type": "uint256"
        },
        {
          "internalType": "uint256",
          "name": "_maxPerTrade",
          "type": "uint256"
        },
        {
          "internalType": "uint256",
          "name": "_pricePerPIO",
          "type": "uint256"
        }
      ],
      "name": "createOrder",
      "outputs": [
        {
          "internalType": "bytes32",
          "name": "",
          "type": "bytes32"
        }
      ],
      "stateMutability": "payable",
      "type": "function"
    },
    {
      "inputs": [
        {
          "internalType": "bytes32",
          "name": "_bscTradeId",
          "type": "bytes32"
        },
        {
          "internalType": "bytes32",
          "name": "_orderId",
          "type": "bytes32"
        },
        {
          "internalType": "address",
          "name": "_buyer",
          "type": "address"
        },
        {
          "internalType": "uint256",
          "name": "_pioAmount",
          "type": "uint256"
        }
      ],
      "name": "createTrade",
      "outputs": [
        {
          "internalType": "bool",
          "name": "",
          "type": "bool"
        }
      ],
      "stateMutability": "nonpayable",
      "type": "function"
    },
    {
      "inputs": [
        {
          "internalType": "bytes32",
          "name": "_bscOrderId",
          "type": "bytes32"
        },
        {
          "internalType": "address",
          "name": "_seller",
          "type": "address"
        }
      ],
      "name": "createTradeRequest",
      "outputs": [
        {
          "internalType": "bytes32",
          "name": "tradeId",
          "type": "bytes32"
        }
      ],
      "stateMutability": "payable",
      "type": "function"
    },
    {
      "inputs": [
        {
          "internalType": "bytes32",
          "name": "",
          "type": "bytes32"
        }
      ],
      "name": "crossChainExpireSynced",
      "outputs": [
        {
          "internalType": "bool",
          "name": "",
          "type": "bool"
        }
      ],
      "stateMutability": "view",
      "type": "function"
    },
    {
      "inputs": [
        {
          "internalType": "uint256",
          "name": "_usdtAmount",
          "type": "uint256"
        }
      ],
      "name": "estimatePIOAmount",
      "outputs": [
        {
          "internalType": "uint256",
          "name": "",
          "type": "uint256"
        }
      ],
      "stateMutability": "view",
      "type": "function"
    },
    {
      "inputs": [
        {
          "internalType": "bytes32",
          "name": "_tradeId",
          "type": "bytes32"
        }
      ],
      "name": "expireRequest",
      "outputs": [],
      "stateMutability": "nonpayable",
      "type": "function"
    },
    {
      "inputs": [
        {
          "internalType": "bytes32",
          "name": "_tradeId",
          "type": "bytes32"
        }
      ],
      "name": "expireTrade",
      "outputs": [],
      "stateMutability": "nonpayable",
      "type": "function"
    },
    {
      "inputs": [],
      "name": "feePercent",
      "outputs": [
        {
          "internalType": "uint16",
          "name": "",
          "type": "uint16"
        }
      ],
      "stateMutability": "view",
      "type": "function"
    },
    {
      "inputs": [],
      "name": "feeTo",
      "outputs": [
        {
          "internalType": "address",
          "name": "",
          "type": "address"
        }
      ],
      "stateMutability": "view",
      "type": "function"
    },
    {
      "inputs": [
        {
          "internalType": "bytes32",
          "name": "_tradeId",
          "type": "bytes32"
        }
      ],
      "name": "getBuyUSDTTrade",
      "outputs": [
        {
          "components": [
            {
              "internalType": "bytes32",
              "name": "bscOrderId",
              "type": "bytes32"
            },
            {
              "internalType": "address",
              "name": "seller",
              "type": "address"
            },
            {
              "internalType": "address",
              "name": "buyer",
              "type": "address"
            },
            {
              "internalType": "uint256",
              "name": "lockedPIO",
              "type": "uint256"
            },
            {
              "internalType": "uint16",
              "name": "feeSnapshot",
              "type": "uint16"
            },
            {
              "internalType": "enum PioneP2PEscrow.TradeStatus",
              "name": "status",
              "type": "uint8"
            }
          ],
          "internalType": "struct PioneP2PEscrow.BuyUSDTTrade",
          "name": "",
          "type": "tuple"
        }
      ],
      "stateMutability": "view",
      "type": "function"
    },
    {
      "inputs": [],
      "name": "getCurrentPIOPrice",
      "outputs": [
        {
          "internalType": "uint256",
          "name": "",
          "type": "uint256"
        }
      ],
      "stateMutability": "view",
      "type": "function"
    },
    {
      "inputs": [
        {
          "internalType": "bytes32",
          "name": "_orderId",
          "type": "bytes32"
        }
      ],
      "name": "getOrder",
      "outputs": [
        {
          "components": [
            {
              "internalType": "address",
              "name": "seller",
              "type": "address"
            },
            {
              "internalType": "uint256",
              "name": "totalPIO",
              "type": "uint256"
            },
            {
              "internalType": "uint256",
              "name": "availablePIO",
              "type": "uint256"
            },
            {
              "internalType": "uint256",
              "name": "minPerTrade",
              "type": "uint256"
            },
            {
              "internalType": "uint256",
              "name": "maxPerTrade",
              "type": "uint256"
            },
            {
              "internalType": "uint256",
              "name": "pricePerPIO",
              "type": "uint256"
            },
            {
              "internalType": "enum PioneP2PEscrow.OrderStatus",
              "name": "status",
              "type": "uint8"
            }
          ],
          "internalType": "struct PioneP2PEscrow.Order",
          "name": "",
          "type": "tuple"
        }
      ],
      "stateMutability": "view",
      "type": "function"
    },
    {
      "inputs": [
        {
          "internalType": "bytes32",
          "name": "_orderId",
          "type": "bytes32"
        }
      ],
      "name": "getOrderTrades",
      "outputs": [
        {
          "internalType": "bytes32[]",
          "name": "",
          "type": "bytes32[]"
        }
      ],
      "stateMutability": "view",
      "type": "function"
    },
    {
      "inputs": [],
      "name": "getPriceRange",
      "outputs": [
        {
          "internalType": "uint256",
          "name": "minPrice",
          "type": "uint256"
        },
        {
          "internalType": "uint256",
          "name": "maxPrice",
          "type": "uint256"
        },
        {
          "internalType": "uint256",
          "name": "currentPrice",
          "type": "uint256"
        }
      ],
      "stateMutability": "view",
      "type": "function"
    },
    {
      "inputs": [
        {
          "internalType": "bytes32",
          "name": "role",
          "type": "bytes32"
        }
      ],
      "name": "getRoleAdmin",
      "outputs": [
        {
          "internalType": "bytes32",
          "name": "",
          "type": "bytes32"
        }
      ],
      "stateMutability": "view",
      "type": "function"
    },
    {
      "inputs": [
        {
          "internalType": "bytes32",
          "name": "_tradeId",
          "type": "bytes32"
        }
      ],
      "name": "getSellPIOTrade",
      "outputs": [
        {
          "components": [
            {
              "internalType": "bytes32",
              "name": "orderId",
              "type": "bytes32"
            },
            {
              "internalType": "address",
              "name": "seller",
              "type": "address"
            },
            {
              "internalType": "address",
              "name": "buyer",
              "type": "address"
            },
            {
              "internalType": "uint256",
              "name": "pioAmount",
              "type": "uint256"
            },
            {
              "internalType": "uint256",
              "name": "pricePerPIO",
              "type": "uint256"
            },
            {
              "internalType": "uint16",
              "name": "feeSnapshot",
              "type": "uint16"
            },
            {
              "internalType": "enum PioneP2PEscrow.TradeStatus",
              "name": "status",
              "type": "uint8"
            }
          ],
          "internalType": "struct PioneP2PEscrow.SellPIOTrade",
          "name": "",
          "type": "tuple"
        }
      ],
      "stateMutability": "view",
      "type": "function"
    },
    {
      "inputs": [
        {
          "internalType": "address",
          "name": "_seller",
          "type": "address"
        }
      ],
      "name": "getSellerOrders",
      "outputs": [
        {
          "internalType": "bytes32[]",
          "name": "",
          "type": "bytes32[]"
        }
      ],
      "stateMutability": "view",
      "type": "function"
    },
    {
      "inputs": [
        {
          "internalType": "address",
          "name": "_user",
          "type": "address"
        }
      ],
      "name": "getUserTrades",
      "outputs": [
        {
          "internalType": "bytes32[]",
          "name": "",
          "type": "bytes32[]"
        }
      ],
      "stateMutability": "view",
      "type": "function"
    },
    {
      "inputs": [
        {
          "internalType": "bytes32",
          "name": "role",
          "type": "bytes32"
        },
        {
          "internalType": "address",
          "name": "account",
          "type": "address"
        }
      ],
      "name": "grantRole",
      "outputs": [],
      "stateMutability": "nonpayable",
      "type": "function"
    },
    {
      "inputs": [
        {
          "internalType": "bytes32",
          "name": "role",
          "type": "bytes32"
        },
        {
          "internalType": "address",
          "name": "account",
          "type": "address"
        }
      ],
      "name": "hasRole",
      "outputs": [
        {
          "internalType": "bool",
          "name": "",
          "type": "bool"
        }
      ],
      "stateMutability": "view",
      "type": "function"
    },
    {
      "inputs": [],
      "name": "minPioForSell",
      "outputs": [
        {
          "internalType": "uint256",
          "name": "",
          "type": "uint256"
        }
      ],
      "stateMutability": "view",
      "type": "function"
    },
    {
      "inputs": [],
      "name": "pause",
      "outputs": [],
      "stateMutability": "nonpayable",
      "type": "function"
    },
    {
      "inputs": [],
      "name": "paused",
      "outputs": [
        {
          "internalType": "bool",
          "name": "",
          "type": "bool"
        }
      ],
      "stateMutability": "view",
      "type": "function"
    },
    {
      "inputs": [],
      "name": "priceOracle",
      "outputs": [
        {
          "internalType": "contract IPriceOracle",
          "name": "",
          "type": "address"
        }
      ],
      "stateMutability": "view",
      "type": "function"
    },
    {
      "inputs": [],
      "name": "priceTolerancePercent",
      "outputs": [
        {
          "internalType": "uint16",
          "name": "",
          "type": "uint16"
        }
      ],
      "stateMutability": "view",
      "type": "function"
    },
    {
      "inputs": [
        {
          "internalType": "bytes32",
          "name": "_tradeId",
          "type": "bytes32"
        }
      ],
      "name": "releasePIOForBuyer",
      "outputs": [],
      "stateMutability": "nonpayable",
      "type": "function"
    },
    {
      "inputs": [
        {
          "internalType": "bytes32",
          "name": "_tradeId",
          "type": "bytes32"
        }
      ],
      "name": "releasePIOForSeller",
      "outputs": [],
      "stateMutability": "nonpayable",
      "type": "function"
    },
    {
      "inputs": [
        {
          "internalType": "bytes32",
          "name": "role",
          "type": "bytes32"
        },
        {
          "internalType": "address",
          "name": "callerConfirmation",
          "type": "address"
        }
      ],
      "name": "renounceRole",
      "outputs": [],
      "stateMutability": "nonpayable",
      "type": "function"
    },
    {
      "inputs": [
        {
          "internalType": "bytes32",
          "name": "role",
          "type": "bytes32"
        },
        {
          "internalType": "address",
          "name": "account",
          "type": "address"
        }
      ],
      "name": "revokeRole",
      "outputs": [],
      "stateMutability": "nonpayable",
      "type": "function"
    },
    {
      "inputs": [
        {
          "internalType": "bytes4",
          "name": "interfaceId",
          "type": "bytes4"
        }
      ],
      "name": "supportsInterface",
      "outputs": [
        {
          "internalType": "bool",
          "name": "",
          "type": "bool"
        }
      ],
      "stateMutability": "view",
      "type": "function"
    },
    {
      "inputs": [],
      "name": "unpause",
      "outputs": [],
      "stateMutability": "nonpayable",
      "type": "function"
    },
    {
      "inputs": [
        {
          "internalType": "uint16",
          "name": "_newFee",
          "type": "uint16"
        }
      ],
      "name": "updateFee",
      "outputs": [],
      "stateMutability": "nonpayable",
      "type": "function"
    },
    {
      "inputs": [
        {
          "internalType": "address",
          "name": "_newFeeTo",
          "type": "address"
        }
      ],
      "name": "updateFeeTo",
      "outputs": [],
      "stateMutability": "nonpayable",
      "type": "function"
    },
    {
      "inputs": [
        {
          "internalType": "uint256",
          "name": "_newMin",
          "type": "uint256"
        }
      ],
      "name": "updateMinPioForSell",
      "outputs": [],
      "stateMutability": "nonpayable",
      "type": "function"
    },
    {
      "inputs": [
        {
          "internalType": "address",
          "name": "_newOracle",
          "type": "address"
        }
      ],
      "name": "updateOracle",
      "outputs": [],
      "stateMutability": "nonpayable",
      "type": "function"
    },
    {
      "inputs": [
        {
          "internalType": "bytes32",
          "name": "_orderId",
          "type": "bytes32"
        },
        {
          "internalType": "uint256",
          "name": "_newMinPerTrade",
          "type": "uint256"
        },
        {
          "internalType": "uint256",
          "name": "_newMaxPerTrade",
          "type": "uint256"
        }
      ],
      "name": "updateOrderLimits",
      "outputs": [],
      "stateMutability": "nonpayable",
      "type": "function"
    },
    {
      "inputs": [
        {
          "internalType": "bytes32",
          "name": "_orderId",
          "type": "bytes32"
        },
        {
          "internalType": "uint256",
          "name": "_newPricePerPIO",
          "type": "uint256"
        }
      ],
      "name": "updateOrderPrice",
      "outputs": [],
      "stateMutability": "nonpayable",
      "type": "function"
    },
    {
      "inputs": [
        {
          "internalType": "uint16",
          "name": "_newTolerance",
          "type": "uint16"
        }
      ],
      "name": "updatePriceTolerance",
      "outputs": [],
      "stateMutability": "nonpayable",
      "type": "function"
    }
  ],
  "bytecode": "0x60803461010557601f612c2738819003918201601f19168301916001600160401b0383118484101761010a57808492604094855283398101031261010557610052602061004b83610120565b9201610120565b6001600055600454916001600160a01b031680156100cf57600380546001600160a01b0319169190911790556001600160c01b03199091166001600160a01b03919091161762fa001960a21b176004556100ab33610134565b506100b5336101b0565b506100bf33610248565b506040516128c690816102e18239f35b60405162461bcd60e51b815260206004820152600e60248201526d496e76616c6964206f7261636c6560901b6044820152606490fd5b600080fd5b634e487b7160e01b600052604160045260246000fd5b51906001600160a01b038216820361010557565b6001600160a01b0381166000908152600080516020612be7833981519152602052604090205460ff166101aa576001600160a01b03166000818152600080516020612be783398151915260205260408120805460ff19166001179055339190600080516020612ba78339815191528180a4600190565b50600090565b6001600160a01b0381166000908152600080516020612c07833981519152602052604090205460ff166101aa576001600160a01b03166000818152600080516020612c0783398151915260205260408120805460ff191660011790553391907fa49807205ce4d355092ef5a8a18f56e8913cf4a201fbe287825b095693c2177590600080516020612ba78339815191529080a4600190565b6001600160a01b0381166000908152600080516020612bc7833981519152602052604090205460ff166101aa576001600160a01b03166000818152600080516020612bc783398151915260205260408120805460ff191660011790553391907f751b795d24b92e3d92d1d0d8f2885f4e9c9c269da350af36ae6b49069babf4bf90600080516020612ba78339815191529080a460019056fe608080604052600436101561001357600080fd5b60003560e01c908163017e7e58146121255750806301ffc9a7146120cf5780630b70adbb1461207b578063118c38c71461204057806315ddb39314611da15780631cb44dfc14611d23578063248a9ca314611cee5780632630c12f14611cc55780632c6cda9314611c3f5780632f2ff15d14611bff57806336568abe14611bb95780633f4ba83a14611b50578063465c337a14611b325780634d091a4214611a5e57806350125546146119ad5780635778472a146118d35780635c975abb146118b05780635d4ea6411461177c5780635f6752c814611713578063636981131461162157806365d0e404146114fa578063737dd562146113f75780637489ec23146111f457806375b238fc146111b95780637b8d8008146111885780637cfb41b8146110b45780637fd6f15c1461108f5780638456cb591461103657806389200a2714610de057806391d1485414610d93578063927c774214610d1c578063a1ba444d14610acd578063a217fddf14610ab1578063a7dcf3c314610a8c578063b0091f69146109a6578063b730083e146108cd578063cbddf5af1461075e578063cdd1b6031461061d578063cdec2f23146105ac578063d547741f14610565578063dcd11a3f14610472578063e1a75bfc146103ef578063e24dde3914610373578063e4cbac40146102ec5763f8ca2be71461020e57600080fd5b346102e75760003660031901126102e75760035460405163248d817960e01b815290602090829060049082906001600160a01b03165afa9081156102db576000916102a4575b60608261ffff60045460b01c169061271061029161ffff61028a836102838361027c896125c7565b168761225b565b04956125db565b168361225b565b0460405192835260208301526040820152f35b6020813d6020116102d3575b816102bd602093836122bc565b810103126102cf575190506060610254565b5080fd5b3d91506102b0565b6040513d6000823e3d90fd5b600080fd5b346102e75760203660031901126102e7576001600160a01b0361030d612149565b16600052600b602052604060002060405190816020825491828152019160005260206000209060005b81811061035d576103598561034d818703826122bc565b60405191829182612195565b0390f35b8254845260209093019260019283019201610336565b346102e75760203660031901126102e75760043561ffff81168082036102e7577f61ffe63469fb8786675a96532a0fed8083715a6329d830492078cedd3bd9c0d6916040916103c061266d565b6004805461ffff60b01b19811660b094851b61ffff60b01b16179091558351921c61ffff1682526020820152a1005b346102e75760003660031901126102e75760035460405163248d817960e01b815290602090829060049082906001600160a01b03165afa80156102db5760009061043f575b602090604051908152f35b506020813d60201161046a575b81610459602093836122bc565b810103126102e75760209051610434565b3d915061044c565b346102e75760203660031901126102e75760043561048e612831565b33600090815260008051602061287183398151915260205260409020546104b79060ff166121cf565b80600052600a6020526040600020610513600080808060048601956104ee600160ff895460101c166104e881612175565b14612630565b6002810154600390910154906001600160a01b03165af161050d612437565b50612477565b805462ff00001916620300001790556000818152600e60205260408120805460ff191660011790557e63c7a53686b11e863c5f827c066bfbe9430ca95b1949d61445ce106261aca29080a26001600055005b346102e75760403660031901126102e7576105aa60043561058461215f565b906105a56105a082600052600260205260016040600020015490565b6126df565b6127ab565b005b346102e75760203660031901126102e7577f8f93286d6f131e956d1aa672d3ecdc817f24efc20b223b0de5d591f454edc34760406105e8612149565b6105f061266d565b600480546001600160a01b039283166001600160a01b0319821681179092558351921682526020820152a1005b346102e75760403660031901126102e7576004356000818152600860205260409020546024359190610659906001600160a01b03161515612343565b6000526008602052604060002061067a60018060a01b038254163314612386565b610696600160ff60068401541661069081612175565b1461220f565b60035460405163248d817960e01b815290602090829060049082906001600160a01b03165afa9081156102db57600091610727575b509061071860059261271061070661ffff60045460b01c169261ffff6106ff84610283836106f8896125c7565b168561225b565b169061225b565b0490851015908161071c575b506125ef565b0155005b905084111585610712565b906020823d602011610756575b81610741602093836122bc565b810103126107535750516107186106cb565b80fd5b3d9150610734565b346102e75760203660031901126102e75760043561077a612831565b33600090815260008051602061287183398151915260205260409020546107a39060ff166121cf565b8060005260096020527f167ec52c899193a7c2813aaff9dd05f569beadbfcc8fe125e44aa4970dce48de604060002060058101908154916107ef600160ff8560101c166104e881612175565b60009161ffff60038201549416801515806108b9575b610894575b506002019161083260008080808860018060a01b038954165af161082c612437565b506124ea565b8061086a575b50805462ff000019166202000017905554604080516001600160a01b0390921682526020820192909252a26001600055005b600080808061088e9460018060a01b03600454165af1610888612437565b50612528565b85610838565b8493506127106108aa6108b2926002949761225b565b04809461224e565b939061080a565b506004546001600160a01b03161515610805565b346102e75760203660031901126102e75760035460405163248d817960e01b81526004803592602091839182906001600160a01b03165afa9081156102db57600091610974575b50670de0b6b3a7640000820291808304670de0b6b3a7640000149015171561095e5780156109485760209104604051908152f35b634e487b7160e01b600052601260045260246000fd5b634e487b7160e01b600052601160045260246000fd5b906020823d60201161099e575b8161098e602093836122bc565b8101031261075357505182610914565b3d9150610981565b346102e75760203660031901126102e7576004356109c2612831565b33600090815260008051602061287183398151915260205260409020546109eb9060ff166121cf565b80600052600960205260406000206005810190610a14600160ff845460101c166104e881612175565b80546000526008602052610a37600260036040600020930154920191825461256a565b9055805462ff00001916620300001790556000818152600e60205260408120805460ff191660011790557f974ec1b137d0b76fd7cdab57c57bac61d82c6038046beccecdd622610b4d79d69080a26001600055005b346102e75760003660031901126102e757602061ffff60045460b01c16604051908152f35b346102e75760003660031901126102e757602060405160008152f35b60603660031901126102e75760046024358135604435610aeb612853565b610af3612831565b610b01600554341015612577565b81831180610d12575b610b13906123bf565b60035460405163248d817960e01b81529460209186919082906001600160a01b03165afa9384156102db57600094610cdc575b50610b83602094612710610b7261ffff60045460b01c169261ffff6106ff84610283836106f8896125c7565b04908310159081610cd157506125ef565b600654610b8f816125b8565b600655604051858101913360601b8352346034830152605482015242607482015260748152610bbf6094826122bc565b51902092604051610bcf8161226e565b338152348682018181526040808401928352606084018781526080850186815260a08601888152600160c0880181815260008d815260088f5295909520975188546001600160a01b0319166001600160a01b039190911617885594519487019490945593516002860155516003850155915160048401555160058301555160069190910190610c5d81612175565b610c6681612175565b60ff8019835416911617905533600052600b8552610c888460406000206122ff565b604051923484528584015260408301526060820152817f6bcbd6ab6d795a7e990431a97ea8f8808e81b8580fb9d6d581e5fcbb16e3d12760803393a36001600055604051908152f35b905082111586610712565b936020853d602011610d0a575b81610cf6602093836122bc565b810103126107535750925192610b83610b46565b3d9150610ce9565b5034831115610b0a565b346102e75760203660031901126102e7576001600160a01b03610d3d612149565b16600052600c602052604060002060405190816020825491828152019160005260206000209060005b818110610d7d576103598561034d818703826122bc565b8254845260209093019260019283019201610d66565b346102e75760403660031901126102e757610dac61215f565b600435600052600260205260406000209060018060a01b0316600052602052602060ff604060002054166040519015158152f35b60403660031901126102e757600435610df761215f565b610dff612853565b610e07612831565b6001600160a01b031690811561100057610e22341515612577565b600754610e2e816125b8565b60075560405160208101918383523360601b6040830152346054830152607482015242609482015260948152610e6560b4826122bc565b5190206000818152600a60205260409020600101549091906001600160a01b0316610fcc57600454602093610f6e916001600160a01b03811615610fc35760a01c61ffff16905b61ffff806004604051610ebe816122a0565b87815289810194855260408101338152606082019034825284608084019816885260a0830196600188528b600052600a8d5260406000209351845560018060a01b03905116600184019060018060a01b03166001600160601b0360a01b82541617905560018060a01b03905116600283019060018060a01b03166001600160601b0360a01b825416179055516003820155019351161661ffff198354161782555190610f6982612175565b6122de565b33600052600c8352610f848260406000206122ff565b6040805133815234602082015283917f40948e3e47ac26599994072f13321706ac61efad4125c7c7a933d48d1d60e72f91a36001600055604051908152f35b50600090610eac565b60405162461bcd60e51b815260206004820152600c60248201526b54726164652065786973747360a01b6044820152606490fd5b60405162461bcd60e51b815260206004820152600e60248201526d24b73b30b634b21039b2b63632b960911b6044820152606490fd5b346102e75760003660031901126102e75761104f61266d565b611057612853565b600160ff19815416176001557f62e78cea01bee320cd4e420270b5ea74000d11b0c9f74754ebdbfc544b05a2586020604051338152a1005b346102e75760003660031901126102e757602061ffff60045460a01c16604051908152f35b346102e75760203660031901126102e7576004356110d0612831565b33600090815260008051602061287183398151915260205260409020546110f99060ff166121cf565b80600052600960205260406000206005810190611128600160ff845460101c1661112281612175565b146123fb565b8054600052600860205261114b600260036040600020930154920191825461256a565b9055805462ff00001916620400001790557f4e09303ea9c3932854b42432aa9f65348205f9681747864bf122101b35371503600080a26001600055005b346102e75760203660031901126102e757600435600052600e602052602060ff604060002054166040519015158152f35b346102e75760003660031901126102e75760206040517fa49807205ce4d355092ef5a8a18f56e8913cf4a201fbe287825b095693c217758152f35b346102e75760203660031901126102e757600435611210612831565b80600052600860205260406000209060018060a01b038254169081331480156113d1575b61123d90612386565b60068301918254611256600160ff831661112281612175565b82600052600d6020526040600020936040518086602082985493848152019060005260206000209260005b8181106113b8575050611296925003866122bc565b60005b855181101561135457600060208260051b880101518152600960205260ff600560408320015460101c166112cc81612175565b6002811491821561133f575b8215611329575b5050156112ee57600101611299565b60405162461bcd60e51b8152602060048201526013602482015272151c985919481b9bdd08199a5b985b1a5e9959606a1b6044820152606490fd5b600492505061133781612175565b1488806112df565b915061134a81612175565b60038114916112d8565b506000906002870190600382549460ff1916179055558061139d575b827f5152abf959f6564662358c2e52b702259b78bac5ee7842a0f01937e670efcc7d600080a26001600055005b6000808080936113b1955af161050d612437565b8180611370565b845483526001948501948a945060209093019201611281565b50336000908152600080516020612871833981519152602052604090205460ff16611234565b346102e75760203660031901126102e757600060a0604051611418816122a0565b8281528260208201528260408201528260608201528260808201520152600435600052600a60205260c0604060002060405190611454826122a0565b8054825260018101546001600160a01b039081166020840190815260028301549091166040840190815260038301546060850190815260049093015461ffff8181166080870190815260a087019591949093919260101c60ff166114b781612175565b8652604080519751885290516001600160a01b03908116602089015291519091169086015251606085015251166080830152516114f381612175565b60a0820152f35b346102e75760203660031901126102e75760043567ffffffffffffffff81116102e757366023820112156102e757806004013567ffffffffffffffff81116102e7573660248260051b840101116102e75733600090815260008051602061287183398151915260205260409020546115749060ff166121cf565b60005b818110156105aa57600190600060248260051b860101359081815260096020526040812090600582018560ff825460101c166115b281612175565b146115c2575b5050505001611577565b827f974ec1b137d0b76fd7cdab57c57bac61d82c6038046beccecdd622610b4d79d69354835260086020526116056002600360408620930154920191825461256a565b9055805462ff000019166203000017905580a2848080806115b8565b346102e75760203660031901126102e75761163a6124b3565b50600435600052600960205260e060406000206040519061165a8261226e565b8054825260018101546001600160a01b039081166020840190815260028301549091166040840190815260038301546060850190815260048401546080860190815260059094015461ffff81811660a0880190815260c08801969195909491939260101c60ff166116ca81612175565b8752604080519851895290516001600160a01b0390811660208a0152915190911690870152516060860152516080850152511660a08301525161170c81612175565b60c0820152f35b346102e75760203660031901126102e757600435600052600d602052604060002060405190816020825491828152019160005260206000209060005b818110611766576103598561034d818703826122bc565b825484526020909301926001928301920161174f565b346102e75760203660031901126102e757600435611798612831565b33600090815260008051602061287183398151915260205260409020546117c19060ff166121cf565b80600052600a60205260406000206004810190815490600160ff8360101c166117e981612175565b0361187e577f167ec52c899193a7c2813aaff9dd05f569beadbfcc8fe125e44aa4970dce48de9260009161ffff600382015494168015158061186a575b61184d575b506001019161083260008080808860018060a01b038954165af161082c612437565b8493506127106108aa611863926001949761225b565b939061182b565b506004546001600160a01b03161515611826565b60405162461bcd60e51b815260206004820152600a602482015269139bdd081b1bd8dad95960b21b6044820152606490fd5b346102e75760003660031901126102e757602060ff600154166040519015158152f35b346102e75760203660031901126102e7576118ec6124b3565b50600435600052600860205260e060406000206040519061190c8261226e565b80546001600160a01b03168252600181015460208301908152600282015460408401908152600383015460608501908152600484015460808601908152600585015460a0870190815260069095015460c0870195949193919060ff1661197181612175565b86526040805197516001600160a01b03168852905160208801529051908601525160608501525160808401525160a08301525161170c81612175565b346102e75760203660031901126102e7576004356119c9612831565b33600090815260008051602061287183398151915260205260409020546119f29060ff166121cf565b80600052600a6020526040600020611a23600080808060048601956104ee600160ff895460101c1661112281612175565b805462ff00001916620400001790557ff903f4774c7bd27355f9d7fcbc382b079b164a697a44ac5d95267a4c3cb3bb22600080a26001600055005b346102e75760603660031901126102e7576004356000818152600860205260409020546044359160243591611a9d906001600160a01b03161515612343565b60005260086020526040600020611abe60018060a01b038254163314612386565b611ad4600160ff60068401541661069081612175565b611adf8284116123bf565b60018101548311611af95760049160038201550155600080f35b60405162461bcd60e51b815260206004820152601160248201527013585e08195e18d959591cc81d1bdd185b607a1b6044820152606490fd5b346102e75760003660031901126102e7576020600554604051908152f35b346102e75760003660031901126102e757611b6961266d565b60015460ff811615611ba85760ff19166001557f5db9ee0a495bf2e6ff9c91a7834c1ba4fdd244a5e8aa4e537bd38aeae4b073aa6020604051338152a1005b638dfc202b60e01b60005260046000fd5b346102e75760403660031901126102e757611bd261215f565b336001600160a01b03821603611bee576105aa906004356127ab565b63334bd91960e11b60005260046000fd5b346102e75760403660031901126102e7576105aa600435611c1e61215f565b90611c3a6105a082600052600260205260016040600020015490565b61271c565b346102e75760203660031901126102e75760043561ffff81168082036102e7576103e890611c6b61266d565b11611c91576004805461ffff60a01b191660a09290921b61ffff60a01b16919091179055005b60405162461bcd60e51b815260206004820152600c60248201526b08ccaca40e8dede40d0d2ced60a31b6044820152606490fd5b346102e75760003660031901126102e7576003546040516001600160a01b039091168152602090f35b346102e75760203660031901126102e7576020611d1b600435600052600260205260016040600020015490565b604051908152f35b346102e75760203660031901126102e757611d3c612149565b611d4461266d565b6001600160a01b03168015611d6b576001600160601b0360a01b6003541617600355600080f35b60405162461bcd60e51b815260206004820152600e60248201526d496e76616c6964206f7261636c6560901b6044820152606490fd5b346102e75760803660031901126102e7576024356004356044356001600160a01b038116908181036102e75733600090815260008051602061287183398151915260205260409020546064359190611dfb9060ff166121cf565b846000526008602052604060002091611e20600160ff60068601541661069081612175565b600283019384549485831161200857600385015483101580611ffa575b15611fc45761ffff8060058a868b95611e7a611f7e997f7450e1364879cff4a1f1f2aa6c91de7ba540801fe2abb06fc6a5a8d3b8f670a49d61224e565b9055828a015490670de0b6b3a7640000611e94838361225b565b9b5460045491909c049b6001600160a01b03908116999190811615611fbb5760a01c8616985b60405194611ec78661226e565b8552602085019081526040850191825260608501928352608085019384528660a086019a168a5260c085019860018a52600052600960205260406000209451855560018060a01b03905116600185019060018060a01b03166001600160601b0360a01b82541617905560018060a01b03905116600284019060018060a01b03166001600160601b0360a01b825416179055516003830155516004820155019351161661ffff198354161782555190610f6982612175565b84600052600d602052611f958460406000206122ff565b604080516001600160a01b039290921682526020820192909252a3602060405160018152f35b50600098611eba565b60405162461bcd60e51b815260206004820152600e60248201526d125b9d985b1a5908185b5bdd5b9d60921b6044820152606490fd5b506004850154831115611e3d565b60405162461bcd60e51b815260206004820152601060248201526f496e73756666696369656e742050494f60801b6044820152606490fd5b346102e75760003660031901126102e75760206040517f751b795d24b92e3d92d1d0d8f2885f4e9c9c269da350af36ae6b49069babf4bf8152f35b346102e75760203660031901126102e7577f773a87e376146d289e58cc5c3935090dcfd914409baa2d904198a8b541e5c44f60406004356120ba61266d565b600554908060055582519182526020820152a1005b346102e75760203660031901126102e75760043563ffffffff60e01b81168091036102e757602090637965db0b60e01b8114908115612114575b506040519015158152f35b6301ffc9a760e01b14905082612109565b346102e75760003660031901126102e7576004546001600160a01b03168152602090f35b600435906001600160a01b03821682036102e757565b602435906001600160a01b03821682036102e757565b6005111561217f57565b634e487b7160e01b600052602160045260246000fd5b602060408183019282815284518094520192019060005b8181106121b95750505090565b82518452602093840193909201916001016121ac565b156121d657565b60405162461bcd60e51b815260206004820152601160248201527027b7363c90313934b233b29030b236b4b760791b6044820152606490fd5b1561221657565b60405162461bcd60e51b815260206004820152601060248201526f4f72646572206e6f742061637469766560801b6044820152606490fd5b9190820391821161095e57565b8181029291811591840414171561095e57565b60e0810190811067ffffffffffffffff82111761228a57604052565b634e487b7160e01b600052604160045260246000fd5b60c0810190811067ffffffffffffffff82111761228a57604052565b90601f8019910116810190811067ffffffffffffffff82111761228a57604052565b906122e881612175565b62ff000082549160101b169062ff00001916179055565b8054906801000000000000000082101561228a576001820180825582101561232d5760005260206000200155565b634e487b7160e01b600052603260045260246000fd5b1561234a57565b60405162461bcd60e51b815260206004820152601460248201527313dc99195c88191bd95cc81b9bdd08195e1a5cdd60621b6044820152606490fd5b1561238d57565b60405162461bcd60e51b815260206004820152600a6024820152692737ba1039b2b63632b960b11b6044820152606490fd5b156123c657565b60405162461bcd60e51b815260206004820152600d60248201526c496e76616c69642072616e676560981b6044820152606490fd5b1561240257565b60405162461bcd60e51b815260206004820152600d60248201526c10d85b9b9bdd0818d85b98d95b609a1b6044820152606490fd5b3d15612472573d9067ffffffffffffffff821161228a5760405191612466601f8201601f1916602001846122bc565b82523d6000602084013e565b606090565b1561247e57565b60405162461bcd60e51b815260206004820152600d60248201526c1499599d5b990819985a5b1959609a1b6044820152606490fd5b604051906124c08261226e565b600060c0838281528260208201528260408201528260608201528260808201528260a08201520152565b156124f157565b60405162461bcd60e51b815260206004820152600f60248201526e151c985b9cd9995c8819985a5b1959608a1b6044820152606490fd5b1561252f57565b60405162461bcd60e51b8152602060048201526013602482015272119959481d1c985b9cd9995c8819985a5b1959606a1b6044820152606490fd5b9190820180921161095e57565b1561257e57565b60405162461bcd60e51b8152602060048201526012602482015271125b9d985b1a5908141253c8185b5bdd5b9d60721b6044820152606490fd5b600019811461095e5760010190565b61ffff16612710039061ffff821161095e57565b61ffff16612710019061ffff821161095e57565b156125f657565b60405162461bcd60e51b81526020600482015260126024820152715072696365206f7574206f662072616e676560701b6044820152606490fd5b1561263757565b60405162461bcd60e51b815260206004820152600e60248201526d496e76616c69642073746174757360901b6044820152606490fd5b3360009081527fe5ebfa64fca8d502a8e50c1edffd2c31ef4dad5b396e65d9f397fb028f74abc5602052604090205460ff16156126a657565b63e2517d3f60e01b600052336004527fa49807205ce4d355092ef5a8a18f56e8913cf4a201fbe287825b095693c2177560245260446000fd5b600081815260026020908152604080832033845290915290205460ff16156127045750565b63e2517d3f60e01b6000523360045260245260446000fd5b60008181526002602090815260408083206001600160a01b038616845290915290205460ff166127a45760008181526002602090815260408083206001600160a01b0395909516808452949091528120805460ff19166001179055339291907f2f8788117e7eff1d82e926ec794901d17c78024a50270940304540a733656f0d9080a4600190565b5050600090565b60008181526002602090815260408083206001600160a01b038616845290915290205460ff16156127a45760008181526002602090815260408083206001600160a01b0395909516808452949091528120805460ff19169055339291907ff6391f5c32d9c69d2a47ea670b442974b53935d1edc7fd64eb21e047a839171b9080a4600190565b600260005414612842576002600055565b633ee5aeb560e01b60005260046000fd5b60ff6001541661285f57565b63d93c066560e01b60005260046000fdfe1cb987f031316f2ee4a2088d9df91ba5fcb0a156171fcb58dedd9cae89efd2f0a2646970667358221220d67b3cc24c82f4b21bcd8ed0bf8448f83e013f8946cb9f3a8245031d92b4d3db64736f6c634300081c00332f8788117e7eff1d82e926ec794901d17c78024a50270940304540a733656f0d1cb987f031316f2ee4a2088d9df91ba5fcb0a156171fcb58dedd9cae89efd2f0ac33ff75c19e70fe83507db0d683fd3465c996598dc972688b7ace676c89077be5ebfa64fca8d502a8e50c1edffd2c31ef4dad5b396e65d9f397fb028f74abc5",
  "linkReferences": {},
  "deployedLinkReferences": {}
}